C51 COMPILER V9.51   AMUX_1                                                                12/19/2013 23:37:47 PAGE 1   


C51 COMPILER V9.51, COMPILATION OF MODULE AMUX_1
OBJECT MODULE PLACED IN .\DP8051\DP8051_Keil_951\Debug\AMux_1.obj
COMPILER INVOKED BY: C:\Program Files (x86)\Cypress\PSoC Creator\3.0\PSoC Creator\import\keil\pk51\9.51\C51\BIN\c51.exe 
                    -.\Generated_Source\PSoC3\AMux_1.c NOIV LARGE MODDP2 OMF2 VB(1) PR(.\DP8051\DP8051_Keil_951\Debug\AMux_1.lst) CD DB NOIP 
                    -OT(2,SIZE) DF(DEBUG) INCDIR(.,.\Generated_Source\PSoC3) OJ(.\DP8051\DP8051_Keil_951\Debug\AMux_1.obj)

line level    source

   1          /*******************************************************************************
   2          * File Name: AMux_1.c
   3          * Version 1.80
   4          *
   5          *  Description:
   6          *    This file contains all functions required for the analog multiplexer
   7          *    AMux User Module.
   8          *
   9          *   Note:
  10          *
  11          *******************************************************************************
  12          * Copyright 2008-2010, Cypress Semiconductor Corporation.  All rights reserved.
  13          * You may use this file only in accordance with the license, terms, conditions, 
  14          * disclaimers, and limitations in the end user license agreement accompanying 
  15          * the software package with which this file was provided.
  16          ********************************************************************************/
  17          
  18          #include "AMux_1.h"
  19          
  20          static uint8 AMux_1_lastChannel = AMux_1_NULL_CHANNEL;
  21          
  22          
  23          /*******************************************************************************
  24          * Function Name: AMux_1_Start
  25          ********************************************************************************
  26          * Summary:
  27          *  Disconnect all channels.
  28          *
  29          * Parameters:
  30          *  void
  31          *
  32          * Return:
  33          *  void
  34          *
  35          *******************************************************************************/
  36          void AMux_1_Start(void) 
  37          {
  38   1          uint8 chan;
  39   1      
  40   1          for(chan = 0u; chan < AMux_1_CHANNELS ; chan++)
  41   1          {
  42   2      #if (AMux_1_MUXTYPE == AMux_1_MUX_SINGLE)
  43   2              AMux_1_Unset(chan);
  44   2      #else
                      AMux_1_CYAMUXSIDE_A_Unset(chan);
                      AMux_1_CYAMUXSIDE_B_Unset(chan);
              #endif
  48   2          }
  49   1      
  50   1          AMux_1_lastChannel = AMux_1_NULL_CHANNEL;
  51   1      }
  52          
  53          
C51 COMPILER V9.51   AMUX_1                                                                12/19/2013 23:37:47 PAGE 2   

  54          #if (!AMux_1_ATMOSTONE)
  55          /*******************************************************************************
  56          * Function Name: AMux_1_Select
  57          ********************************************************************************
  58          * Summary:
  59          *  This functions first disconnects all channels then connects the given
  60          *  channel.
  61          *
  62          * Parameters:
  63          *  channel:  The channel to connect to the common terminal.
  64          *
  65          * Return:
  66          *  void
  67          *
  68          *******************************************************************************/
  69          void AMux_1_Select(uint8 channel) 
  70          {
  71   1          AMux_1_DisconnectAll();        /* Disconnect all previous connections */
  72   1          AMux_1_Connect(channel);       /* Make the given selection */
  73   1          AMux_1_lastChannel = channel;  /* Update last channel */
  74   1      }
  75          #endif
  76          
  77          
  78          /*******************************************************************************
  79          * Function Name: AMux_1_FastSelect
  80          ********************************************************************************
  81          * Summary:
  82          *  This function first disconnects the last connection made with FastSelect or
  83          *  Select, then connects the given channel. The FastSelect function is similar
  84          *  to the Select function, except it is faster since it only disconnects the
  85          *  last channel selected rather than all channels.
  86          *
  87          * Parameters:
  88          *  channel:  The channel to connect to the common terminal.
  89          *
  90          * Return:
  91          *  void
  92          *
  93          *******************************************************************************/
  94          void AMux_1_FastSelect(uint8 channel) 
  95          {
  96   1          /* Disconnect the last valid channel */
  97   1          if( AMux_1_lastChannel != AMux_1_NULL_CHANNEL)
  98   1          {
  99   2              AMux_1_Disconnect(AMux_1_lastChannel);
 100   2          }
 101   1      
 102   1          /* Make the new channel connection */
 103   1      #if (AMux_1_MUXTYPE == AMux_1_MUX_SINGLE)
 104   1          AMux_1_Set(channel);
 105   1      #else
                  AMux_1_CYAMUXSIDE_A_Set(channel);
                  AMux_1_CYAMUXSIDE_B_Set(channel);
              #endif
 109   1      
 110   1      
 111   1          AMux_1_lastChannel = channel;   /* Update last channel */
 112   1      }
 113          
 114          
 115          #if (AMux_1_MUXTYPE == AMux_1_MUX_DIFF)
C51 COMPILER V9.51   AMUX_1                                                                12/19/2013 23:37:47 PAGE 3   

              #if (!AMux_1_ATMOSTONE)
              /*******************************************************************************
              * Function Name: AMux_1_Connect
              ********************************************************************************
              * Summary:
              *  This function connects the given channel without affecting other connections.
              *
              * Parameters:
              *  channel:  The channel to connect to the common terminal.
              *
              * Return:
              *  void
              *
              *******************************************************************************/
              void AMux_1_Connect(uint8 channel) 
              {
                  AMux_1_CYAMUXSIDE_A_Set(channel);
                  AMux_1_CYAMUXSIDE_B_Set(channel);
              }
              #endif
              
              /*******************************************************************************
              * Function Name: AMux_1_Disconnect
              ********************************************************************************
              * Summary:
              *  This function disconnects the given channel from the common or output
              *  terminal without affecting other connections.
              *
              * Parameters:
              *  channel:  The channel to disconnect from the common terminal.
              *
              * Return:
              *  void
              *
              *******************************************************************************/
              void AMux_1_Disconnect(uint8 channel) 
              {
                  AMux_1_CYAMUXSIDE_A_Unset(channel);
                  AMux_1_CYAMUXSIDE_B_Unset(channel);
              }
              #endif
 157          
 158          #if (AMux_1_ATMOSTONE)
              /*******************************************************************************
              * Function Name: AMux_1_DisconnectAll
              ********************************************************************************
              * Summary:
              *  This function disconnects all channels.
              *
              * Parameters:
              *  void
              *
              * Return:
              *  void
              *
              *******************************************************************************/
              void AMux_1_DisconnectAll(void) 
              {
                  if(AMux_1_lastChannel != AMux_1_NULL_CHANNEL) 
                  {
                      AMux_1_Disconnect(AMux_1_lastChannel);
                      AMux_1_lastChannel = AMux_1_NULL_CHANNEL;
C51 COMPILER V9.51   AMUX_1                                                                12/19/2013 23:37:47 PAGE 4   

                  }
              }
              #endif
 181          
 182          /* [] END OF FILE */
C51 COMPILER V9.51   AMUX_1                                                                12/19/2013 23:37:47 PAGE 5   

ASSEMBLY LISTING OF GENERATED OBJECT CODE


             ; FUNCTION AMux_1_Start (BEGIN)
                                           ; SOURCE LINE # 36
                                           ; SOURCE LINE # 37
                                           ; SOURCE LINE # 40
0000 900000      R     MOV     DPTR,#chan
0003 E4                CLR     A
0004 F0                MOVX    @DPTR,A
0005         ?C0001:
0005 900000      R     MOV     DPTR,#chan
0008 E0                MOVX    A,@DPTR
0009 FF                MOV     R7,A
000A EF                MOV     A,R7
000B C3                CLR     C
000C 9404              SUBB    A,#04H
000E 5010              JNC     ?C0002
                                           ; SOURCE LINE # 41
                                           ; SOURCE LINE # 43
0010 900000      R     MOV     DPTR,#chan
0013 E0                MOVX    A,@DPTR
0014 FF                MOV     R7,A
0015 120000      E     LCALL   _AMux_1_Unset
                                           ; SOURCE LINE # 48
0018 900000      R     MOV     DPTR,#chan
001B E0                MOVX    A,@DPTR
001C 04                INC     A
001D F0                MOVX    @DPTR,A
001E 80E5              SJMP    ?C0001
0020         ?C0002:
                                           ; SOURCE LINE # 50
0020 900000      R     MOV     DPTR,#AMux_1_lastChannel
0023 74FF              MOV     A,#0FFH
0025 F0                MOVX    @DPTR,A
                                           ; SOURCE LINE # 51
0026 22                RET     
             ; FUNCTION AMux_1_Start (END)

             ; FUNCTION _AMux_1_Select (BEGIN)
                                           ; SOURCE LINE # 69
0000 900000      R     MOV     DPTR,#channel
0003 EF                MOV     A,R7
0004 F0                MOVX    @DPTR,A
                                           ; SOURCE LINE # 70
                                           ; SOURCE LINE # 71
0005 120000      R     LCALL   AMux_1_Start
                                           ; SOURCE LINE # 72
0008 900000      R     MOV     DPTR,#channel
000B E0                MOVX    A,@DPTR
000C FF                MOV     R7,A
000D 120000      E     LCALL   _AMux_1_Set
                                           ; SOURCE LINE # 73
0010 900000      R     MOV     DPTR,#channel
0013 E0                MOVX    A,@DPTR
0014 FF                MOV     R7,A
0015 900000      R     MOV     DPTR,#AMux_1_lastChannel
0018 EF                MOV     A,R7
0019 F0                MOVX    @DPTR,A
                                           ; SOURCE LINE # 74
001A 22                RET     
             ; FUNCTION _AMux_1_Select (END)
C51 COMPILER V9.51   AMUX_1                                                                12/19/2013 23:37:47 PAGE 6   


             ; FUNCTION _AMux_1_FastSelect (BEGIN)
                                           ; SOURCE LINE # 94
0000 900000      R     MOV     DPTR,#channel
0003 EF                MOV     A,R7
0004 F0                MOVX    @DPTR,A
                                           ; SOURCE LINE # 95
                                           ; SOURCE LINE # 97
0005 900000      R     MOV     DPTR,#AMux_1_lastChannel
0008 E0                MOVX    A,@DPTR
0009 FF                MOV     R7,A
000A EF                MOV     A,R7
000B 64FF              XRL     A,#0FFH
000D 6008              JZ      ?C0006
                                           ; SOURCE LINE # 98
                                           ; SOURCE LINE # 99
000F 900000      R     MOV     DPTR,#AMux_1_lastChannel
0012 E0                MOVX    A,@DPTR
0013 FF                MOV     R7,A
0014 120000      E     LCALL   _AMux_1_Unset
                                           ; SOURCE LINE # 100
0017         ?C0006:
                                           ; SOURCE LINE # 104
0017 900000      R     MOV     DPTR,#channel
001A E0                MOVX    A,@DPTR
001B FF                MOV     R7,A
001C 120000      E     LCALL   _AMux_1_Set
                                           ; SOURCE LINE # 111
001F 900000      R     MOV     DPTR,#channel
0022 E0                MOVX    A,@DPTR
0023 FF                MOV     R7,A
0024 900000      R     MOV     DPTR,#AMux_1_lastChannel
0027 EF                MOV     A,R7
0028 F0                MOVX    @DPTR,A
                                           ; SOURCE LINE # 112
0029 22                RET     
             ; FUNCTION _AMux_1_FastSelect (END)



MODULE INFORMATION:   STATIC OVERLAYABLE
   CODE SIZE        =    108    ----
   CONSTANT SIZE    =   ----    ----
   XDATA SIZE       =      1       3
   PDATA SIZE       =   ----    ----
   DATA SIZE        =   ----    ----
   IDATA SIZE       =   ----    ----
   BIT SIZE         =   ----    ----
   EDATA SIZE       =   ----    ----
   HDATA SIZE       =   ----    ----
   XDATA CONST SIZE =   ----    ----
   FAR CONST SIZE   =   ----    ----
END OF MODULE INFORMATION.


C51 COMPILATION COMPLETE.  0 WARNING(S),  0 ERROR(S)
