C51 COMPILER V9.51   CYFITTER_CFG                                                          01/03/2014 20:23:43 PAGE 1   


C51 COMPILER V9.51, COMPILATION OF MODULE CYFITTER_CFG
OBJECT MODULE PLACED IN .\DP8051\DP8051_Keil_951\Debug\cyfitter_cfg.obj
COMPILER INVOKED BY: C:\Program Files (x86)\Cypress\PSoC Creator\3.0\PSoC Creator\import\keil\pk51\9.51\C51\BIN\c51.exe 
                    -.\Generated_Source\PSoC3\cyfitter_cfg.c NOIV LARGE MODDP2 OMF2 VB(1) PR(.\DP8051\DP8051_Keil_951\Debug\cyfitter_cfg.lst)
                    - CD DB NOIP OT(2,SIZE) DF(DEBUG) INCDIR(.,.\Generated_Source\PSoC3) OJ(.\DP8051\DP8051_Keil_951\Debug\cyfitter_cfg.obj)

line level    source

   1          /*******************************************************************************
   2          * FILENAME: cyfitter_cfg.c
   3          * PSoC Creator 3.0
   4          *
   5          * Description:
   6          * This file is automatically generated by PSoC Creator with device 
   7          * initialization code.  Except for the user defined sections in
   8          * CyClockStartupError(), this file should not be modified.
   9          *
  10          ********************************************************************************
  11          * Copyright 2013, Cypress Semiconductor Corporation.  All rights reserved.
  12          * You may use this file only in accordance with the license, terms, conditions, 
  13          * disclaimers, and limitations in the end user license agreement accompanying 
  14          * the software package with which this file was provided.
  15          ********************************************************************************/
  16          
  17          #include <string.h>
  18          #include <cytypes.h>
  19          #include <cydevice_trm.h>
  20          #include <cyfitter.h>
  21          #include <CyLib.h>
  22          #include <cyfitter_cfg.h>
  23          
  24          #define CY_NEED_CYCLOCKSTARTUPERROR 1
  25          
  26          
  27          #if defined(__C51__) || defined(__CX51__)
  28                  #define CYPACKED
  29                  #define CYPACKED_ATTR
  30                  #define CYALIGNED
  31                  
  32              #define CY_CFG_UNUSED
  33                  #define CY_CFG_MEMORY_BARRIER() do { } while (0)
  34          
  35          
  36          
  37                  #define CYMEMZERO(a,c) cymemzero((a),(c))
  38                  #define CYCONFIGCPY(d,s,c) cyconfigcpy((c),(s),(d))
  39                  #define CYCONFIGCPYCODE(d,s,c) cyconfigcpycode((c),(s),(d))
  40          #else
                      #error Unsupported toolchain
              #endif
  43          
  44          
  45          
  46          /* Clock startup error codes                                                   */
  47          #define CYCLOCKSTART_NO_ERROR    0u
  48          #define CYCLOCKSTART_XTAL_ERROR  1u
  49          #define CYCLOCKSTART_32KHZ_ERROR 2u
  50          #define CYCLOCKSTART_PLL_ERROR   3u
  51          
  52          #ifdef CY_NEED_CYCLOCKSTARTUPERROR
  53          /*******************************************************************************
C51 COMPILER V9.51   CYFITTER_CFG                                                          01/03/2014 20:23:43 PAGE 2   

  54          * Function Name: CyClockStartupError
  55          ********************************************************************************
  56          * Summary:
  57          *  If an error is encountered during clock configuration (crystal startup error,
  58          *  PLL lock error, etc.), the system will end up here.  Unless reimplemented by
  59          *  the customer, this function will stop in an infinite loop.
  60          *
  61          * Parameters:
  62          *   void
  63          *
  64          * Return:
  65          *   void
  66          *
  67          *******************************************************************************/
  68          CY_CFG_UNUSED
  69          static void CyClockStartupError(uint8 errorCode);
  70          CY_CFG_UNUSED
  71          static void CyClockStartupError(uint8 errorCode)
  72          {
  73   1          /* To remove the compiler warning if errorCode not used.                */
  74   1          errorCode = errorCode;
  75   1      
  76   1          /* `#START CyClockStartupError` */
  77   1      
  78   1          /* If we have a clock startup error (bad MHz crystal, PLL lock, etc.),  */
  79   1          /* we will end up here to allow the customer to implement something to  */
  80   1          /* deal with the clock condition.                                       */
  81   1      
  82   1          /* `#END` */
  83   1      
  84   1          /* If nothing else, stop here since the clocks have not started         */
  85   1          /* correctly.                                                           */
  86   1          while(1) {}
  87   1      }
  88          #endif
  89          
  90          #define cfg_byte_table ((const void CYFAR *)0x080000u)
  91          /* IOPORT_7 Address: CYDEV_PRTDSI_PRT12_BASE Size (bytes): 6 */
  92          #define BS_IOPORT_7_VAL ((const uint8 CYFAR *)0x00080900u)
  93          
  94          /* UDB_0_3_0_CONFIG Address: CYDEV_UCFG_B0_P5_U0_BASE Size (bytes): 128 */
  95          #define BS_UDB_0_3_0_CONFIG_VAL ((const uint8 CYFAR *)0x00080908u)
  96          
  97          /* IOPINS0_0 Address: CYREG_PRT0_DR Size (bytes): 10 */
  98          #define BS_IOPINS0_0_VAL ((const uint8 CYFAR *)0x00080988u)
  99          
 100          /* IOPINS0_7 Address: CYREG_PRT12_DR Size (bytes): 10 */
 101          #define BS_IOPINS0_7_VAL ((const uint8 CYFAR *)0x00080994u)
 102          
 103          /* IOPINS0_2 Address: CYREG_PRT2_DM0 Size (bytes): 8 */
 104          #define BS_IOPINS0_2_VAL ((const uint8 CYFAR *)0x000809A0u)
 105          
 106          /* IOPINS0_3 Address: CYREG_PRT3_DM0 Size (bytes): 8 */
 107          #define BS_IOPINS0_3_VAL ((const uint8 CYFAR *)0x000809A8u)
 108          
 109          /* IOPINS0_4 Address: CYREG_PRT4_DM0 Size (bytes): 8 */
 110          #define BS_IOPINS0_4_VAL ((const uint8 CYFAR *)0x000809B0u)
 111          
 112          /* IOPINS0_5 Address: CYREG_PRT5_DR Size (bytes): 10 */
 113          #define BS_IOPINS0_5_VAL ((const uint8 CYFAR *)0x000809B8u)
 114          
 115          /* CYDEV_CLKDIST_ACFG0_CFG0 Address: CYREG_CLKDIST_ACFG0_CFG0 Size (bytes): 4 */
C51 COMPILER V9.51   CYFITTER_CFG                                                          01/03/2014 20:23:43 PAGE 3   

 116          #define BS_CYDEV_CLKDIST_ACFG0_CFG0_VAL ((const uint8 CYFAR *)0x000809C4u)
 117          
 118          
 119          /*******************************************************************************
 120          * Function Name: ClockSetup
 121          ********************************************************************************
 122          *
 123          * Summary:
 124          *  Performs the initialization of all of the clocks in the device based on the
 125          *  settings in the Clock tab of the DWR.  This includes enabling the requested
 126          *  clocks and setting the necessary dividers to produce the desired frequency. 
 127          *
 128          * Parameters:
 129          *  void
 130          *
 131          * Return:
 132          *  void
 133          *
 134          *******************************************************************************/
 135          static void ClockSetup(void);
 136          static void ClockSetup(void)
 137          {
 138   1              uint32 timeout;
 139   1              uint8 pllLock;
 140   1      
 141   1      
 142   1              /* Configure Digital Clocks based on settings from Clock DWR */
 143   1              CY_SET_XTND_REG16((void CYFAR *)(CYREG_CLKDIST_DCFG0_CFG0), 0x0000u);
 144   1              CY_SET_REG8((void CYXDATA *)(CYREG_CLKDIST_DCFG0_CFG0 + 0x2u), 0x50u);
 145   1              CY_SET_XTND_REG16((void CYFAR *)(CYREG_CLKDIST_DCFG1_CFG0), 0x0001u);
 146   1              CY_SET_REG8((void CYXDATA *)(CYREG_CLKDIST_DCFG1_CFG0 + 0x2u), 0x18u);
 147   1              CY_SET_XTND_REG16((void CYFAR *)(CYREG_CLKDIST_DCFG2_CFG0), 0x000Bu);
 148   1              CY_SET_REG8((void CYXDATA *)(CYREG_CLKDIST_DCFG2_CFG0 + 0x2u), 0x18u);
 149   1              CY_SET_XTND_REG16((void CYFAR *)(CYREG_CLKDIST_DCFG3_CFG0), 0x0017u);
 150   1              CY_SET_REG8((void CYXDATA *)(CYREG_CLKDIST_DCFG3_CFG0 + 0x2u), 0x18u);
 151   1              CY_SET_XTND_REG16((void CYFAR *)(CYREG_CLKDIST_DCFG4_CFG0), 0x0017u);
 152   1              CY_SET_REG8((void CYXDATA *)(CYREG_CLKDIST_DCFG4_CFG0 + 0x2u), 0x18u);
 153   1              CY_SET_XTND_REG16((void CYFAR *)(CYREG_CLKDIST_DCFG5_CFG0), 0x0019u);
 154   1              CY_SET_REG8((void CYXDATA *)(CYREG_CLKDIST_DCFG5_CFG0 + 0x2u), 0x18u);
 155   1              CY_SET_XTND_REG16((void CYFAR *)(CYREG_CLKDIST_DCFG6_CFG0), 0xEA5Fu);
 156   1              CY_SET_REG8((void CYXDATA *)(CYREG_CLKDIST_DCFG6_CFG0 + 0x2u), 0x19u);
 157   1      
 158   1              /* Configure Analog Clocks based on settings from Clock DWR */
 159   1              CYCONFIGCPY((void CYFAR *)(CYREG_CLKDIST_ACFG0_CFG0), (const void CYFAR *)(BS_CYDEV_CLKDIST_ACFG0_CFG0_VA
             -L), 4u);
 160   1      
 161   1              /* Configure ILO based on settings from Clock DWR */
 162   1              CY_SET_REG8((void CYXDATA *)(CYREG_SLOWCLK_ILO_CR0), 0x02u);
 163   1              CY_SET_REG8((void CYXDATA *)(CYREG_CLKDIST_CR), 0x08u);
 164   1      
 165   1              /* Configure IMO based on settings from Clock DWR */
 166   1              CY_SET_REG8((void CYXDATA *)(CYREG_FASTCLK_IMO_CR), 0x03u);
 167   1              CY_SET_REG8((void CYXDATA *)(CYREG_IMO_TR1), (CY_GET_XTND_REG8((void CYFAR *)CYREG_FLSHID_CUST_TABLES_IMO
             -_3MHZ)));
 168   1      
 169   1              /* Configure PLL based on settings from Clock DWR */
 170   1              CY_SET_XTND_REG16((void CYFAR *)(CYREG_FASTCLK_PLL_P), 0x0008u);
 171   1              CY_SET_XTND_REG16((void CYFAR *)(CYREG_FASTCLK_PLL_CFG0), 0x1251u);
 172   1              /* Wait up to 250us for the PLL to lock */
 173   1              pllLock = 0u;
 174   1              for (timeout = 250u / 10u; (timeout > 0u) && (pllLock != 0x03u); timeout--)
 175   1              { 
C51 COMPILER V9.51   CYFITTER_CFG                                                          01/03/2014 20:23:43 PAGE 4   

 176   2                      pllLock = 0x03u & ((uint8)((uint8)pllLock << 1) | ((CY_GET_REG8((void CYXDATA *)CYREG_FASTCLK_PLL_SR) & 
             -0x01u) >> 0));
 177   2                      CyDelayCycles(10u * 48u); /* Delay 10us based on 48MHz clock */
 178   2              }
 179   1              /* If we ran out of time the PLL didn't lock so go to the error function */
 180   1              if (timeout == 0u)
 181   1              {
 182   2                      CyClockStartupError(CYCLOCKSTART_PLL_ERROR);
 183   2              }
 184   1      
 185   1              /* Configure Bus/Master Clock based on settings from Clock DWR */
 186   1              CY_SET_XTND_REG16((void CYFAR *)(CYREG_CLKDIST_MSTR0), 0x0100u);
 187   1              CY_SET_REG8((void CYXDATA *)(CYREG_CLKDIST_MSTR0), 0x07u);
 188   1              CY_SET_REG8((void CYXDATA *)(CYREG_CLKDIST_BCFG0), 0x00u);
 189   1              CY_SET_REG8((void CYXDATA *)(CYREG_CLKDIST_BCFG2), 0x48u);
 190   1              CY_SET_REG8((void CYXDATA *)(CYREG_CLKDIST_MSTR0), 0x00u);
 191   1              CY_SET_REG8((void CYXDATA *)(CYREG_CLKDIST_LD), 0x02u);
 192   1              CY_SET_REG8((void CYXDATA *)(CYREG_CLKDIST_DLY1), 0x04u);
 193   1      
 194   1              CY_SET_REG8((void CYXDATA *)(CYREG_PM_ACT_CFG2), ((CY_GET_REG8((void CYXDATA *)CYREG_PM_ACT_CFG2) | 0x7Fu
             -)));
 195   1              CY_SET_REG8((void CYXDATA *)(CYREG_PM_ACT_CFG1), ((CY_GET_REG8((void CYXDATA *)CYREG_PM_ACT_CFG1) | 0x01u
             -)));
 196   1              CY_SET_REG8((void CYXDATA *)(CYREG_PM_ACT_CFG0), ((CY_GET_REG8((void CYXDATA *)CYREG_PM_ACT_CFG0) | 0x80u
             -)));
 197   1      }
 198          
 199          
 200          /* Analog API Functions */
 201          
 202          
 203          /*******************************************************************************
 204          * Function Name: AnalogSetDefault
 205          ********************************************************************************
 206          *
 207          * Summary:
 208          *  Sets up the analog portions of the chip to default values based on chip
 209          *  configuration options from the project.
 210          *
 211          * Parameters:
 212          *  void
 213          *
 214          * Return:
 215          *  void
 216          *
 217          *******************************************************************************/
 218          static void AnalogSetDefault(void);
 219          static void AnalogSetDefault(void)
 220          {
 221   1              uint8 bg_xover_inl_trim = CY_GET_XTND_REG8((void CYFAR *)(CYREG_FLSHID_MFG_CFG_BG_XOVER_INL_TRIM + 1u));
 222   1              CY_SET_REG8((void CYXDATA *)(CYREG_BG_DFT0), (bg_xover_inl_trim & 0x07u));
 223   1              CY_SET_REG8((void CYXDATA *)(CYREG_BG_DFT1), ((bg_xover_inl_trim >> 4) & 0x0Fu));
 224   1              CY_SET_REG8((void CYXDATA *)CYREG_PRT0_AG, 0x02u);
 225   1              CY_SET_REG8((void CYXDATA *)CYREG_PRT3_AG, 0xE0u);
 226   1              CY_SET_REG8((void CYXDATA *)CYREG_DSM0_SW0, 0xE0u);
 227   1              CY_SET_REG8((void CYXDATA *)CYREG_BUS_SW0, 0xE0u);
 228   1              CY_SET_REG8((void CYXDATA *)CYREG_PUMP_CR0, 0x66u);
 229   1      }
 230          
 231          
 232          /*******************************************************************************
 233          * Function Name: SetAnalogRoutingPumps
C51 COMPILER V9.51   CYFITTER_CFG                                                          01/03/2014 20:23:43 PAGE 5   

 234          ********************************************************************************
 235          *
 236          * Summary:
 237          * Enables or disables the analog pumps feeding analog routing switches.
 238          * Intended to be called at startup, based on the Vdda system configuration;
 239          * may be called during operation when the user informs us that the Vdda voltage
 240          * crossed the pump threshold.
 241          *
 242          * Parameters:
 243          *  enabled - 1 to enable the pumps, 0 to disable the pumps
 244          *
 245          * Return:
 246          *  void
 247          *
 248          *******************************************************************************/
 249          void SetAnalogRoutingPumps(uint8 enabled)
 250          {
 251   1              uint8 regValue = CY_GET_REG8((void CYXDATA *)CYREG_PUMP_CR0);
 252   1              if (enabled != 0u)
 253   1              {
 254   2                      regValue |= 0x22u;
 255   2              }
 256   1              else
 257   1              {
 258   2                      regValue &= (uint8)~0x22u;
 259   2              }
 260   1              CY_SET_REG8((void CYXDATA *)CYREG_PUMP_CR0, regValue);
 261   1      }
 262          
 263          #define CY_AMUX_UNUSED CYREG_BOOST_SR
 264          /* This is an implementation detail of the AMux. Code that depends on it may be
 265             incompatible with other versions of PSoC Creator. */
 266          uint8 CYXDATA * const CYCODE ADC_AMux__addrTable[2] = {
 267                  (uint8 CYXDATA *)CYREG_DSM0_SW3, 
 268                  (uint8 CYXDATA *)CY_AMUX_UNUSED, 
 269          };
 270          
 271          /* This is an implementation detail of the AMux. Code that depends on it may be
 272             incompatible with other versions of PSoC Creator. */
 273          const uint8 CYCODE ADC_AMux__maskTable[2] = {
 274                  0x40u, 
 275                  0x00u, 
 276          };
 277          
 278          /*******************************************************************************
 279          * Function Name: ADC_AMux_Set
 280          ********************************************************************************
 281          * Summary:
 282          *  This function is used to set a particular channel as active on the AMux.
 283          *
 284          * Parameters:  
 285          *   channel - The mux channel input to set as active
 286          *
 287          * Return:
 288          *   void
 289          *
 290          *******************************************************************************/
 291          void ADC_AMux_Set(uint8 channel)
 292          {
 293   1              if (channel < 2)
 294   1              {
 295   2                      *ADC_AMux__addrTable[channel] |= ADC_AMux__maskTable[channel];
C51 COMPILER V9.51   CYFITTER_CFG                                                          01/03/2014 20:23:43 PAGE 6   

 296   2              }
 297   1      }
 298          
 299          /*******************************************************************************
 300          * Function Name: ADC_AMux_Unset
 301          ********************************************************************************
 302          * Summary:
 303          *  This function is used to clear a particular channel from being active on the
 304          *  AMux.
 305          *
 306          * Parameters:  
 307          *   channel - The mux channel input to mark inactive
 308          *
 309          * Return:
 310          *   void
 311          *
 312          *******************************************************************************/
 313          void ADC_AMux_Unset(uint8 channel)
 314          {
 315   1              if (channel < 2)
 316   1              {
 317   2                      *ADC_AMux__addrTable[channel] &= (uint8)~ADC_AMux__maskTable[channel];
 318   2              }
 319   1      }
 320          
 321          
 322          
 323          /*******************************************************************************
 324          * Function Name: cyfitter_cfg
 325          ********************************************************************************
 326          * Summary:
 327          *  This function is called by the start-up code for the selected device. It
 328          *  performs all of the necessary device configuration based on the design
 329          *  settings.  This includes settings from the Design Wide Resources (DWR) such
 330          *  as Clocks and Pins as well as any component configuration that is necessary.
 331          *
 332          * Parameters:  
 333          *   void
 334          *
 335          * Return:
 336          *   void
 337          *
 338          *******************************************************************************/
 339          
 340          void cyfitter_cfg(void)
 341          {
 342   1              /* Enable/Disable Debug functionality based on settings from System DWR */
 343   1              CY_SET_XTND_REG8((void CYFAR *)CYREG_MLOGIC_DEBUG, (CY_GET_XTND_REG8((void CYFAR *)CYREG_MLOGIC_DEBUG) | 
             -0x01u));
 344   1      
 345   1              {
 346   2      
 347   2                      CYPACKED typedef struct {
 348   2                              void CYFAR *address;
 349   2                              uint16 size;
 350   2                      } CYPACKED_ATTR cfg_memset_t;
 351   2      
 352   2      
 353   2                      CYPACKED typedef struct {
 354   2                              void CYFAR *dest;
 355   2                              const void CYFAR *src;
 356   2                              uint16 size;
C51 COMPILER V9.51   CYFITTER_CFG                                                          01/03/2014 20:23:43 PAGE 7   

 357   2                      } CYPACKED_ATTR cfg_memcpy_t;
 358   2      
 359   2                      static const cfg_memset_t CYCODE cfg_memset_list [] = {
 360   2                              /* address, size */
 361   2                              {(void CYFAR *)(CYREG_I2C_XCFG), 21u},
 362   2                              {(void CYFAR *)(CYREG_PRT1_DR), 16u},
 363   2                              {(void CYFAR *)(CYREG_PRT6_DR), 16u},
 364   2                              {(void CYFAR *)(CYREG_PRT15_DR), 16u},
 365   2                              {(void CYFAR *)(CYDEV_UCFG_B0_P0_U0_BASE), 2560u},
 366   2                              {(void CYFAR *)(CYDEV_UCFG_B0_P5_U1_BASE), 1408u},
 367   2                              {(void CYFAR *)(CYDEV_UCFG_B1_P2_U0_BASE), 2048u},
 368   2                              {(void CYFAR *)(CYDEV_UCFG_DSI0_BASE), 2560u},
 369   2                              {(void CYFAR *)(CYDEV_UCFG_DSI12_BASE), 512u},
 370   2                              {(void CYFAR *)(CYREG_BCTL0_MDCLK_EN), 32u},
 371   2                      };
 372   2      
 373   2                      static const cfg_memcpy_t CYCODE cfg_memcpy_list [] = {
 374   2                              /* dest, src, size */
 375   2                              {(void CYFAR *)(CYDEV_PRTDSI_PRT12_BASE), BS_IOPORT_7_VAL, 6u},
 376   2                              {(void CYFAR *)(CYDEV_UCFG_B0_P5_U0_BASE), BS_UDB_0_3_0_CONFIG_VAL, 128u},
 377   2                      };
 378   2      
 379   2                      uint8 CYDATA i;
 380   2      
 381   2                      /* Zero out critical memory blocks before beginning configuration */
 382   2                      for (i = 0u; i < (sizeof(cfg_memset_list)/sizeof(cfg_memset_list[0])); i++)
 383   2                      {
 384   3                              const cfg_memset_t CYCODE * CYDATA ms = &cfg_memset_list[i];
 385   3                              CYMEMZERO(ms->address, ms->size);
 386   3                      }
 387   2      
 388   2                      /* Copy device configuration data into registers */
 389   2                      for (i = 0u; i < (sizeof(cfg_memcpy_list)/sizeof(cfg_memcpy_list[0])); i++)
 390   2                      {
 391   3                              const cfg_memcpy_t CYCODE * CYDATA mc = &cfg_memcpy_list[i];
 392   3                              void * CYDATA destPtr = mc->dest;
 393   3                              const void * CYDATA srcPtr = mc->src;
 394   3                              uint16 CYDATA numBytes = mc->size;
 395   3                              CYCONFIGCPY(destPtr, srcPtr, numBytes);
 396   3                      }
 397   2      
 398   2                      cfg_write_bytes(cfg_byte_table);
 399   2      
 400   2                      /* Perform normal device configuration. Order is not critical for these items. */
 401   2                      CY_SET_REG8((void CYXDATA *)(CYREG_DSM0_CR3), 0x0Au);
 402   2                      CYMEMZERO((void CYFAR *)(CYREG_PHUB_CFGMEM10_CFG0), 4u);
 403   2      
 404   2                      /* Enable digital routing */
 405   2                      CY_SET_XTND_REG8((void CYFAR *)CYREG_BCTL0_BANK_CTL, CY_GET_XTND_REG8((void CYFAR *)CYREG_BCTL0_BANK_CTL
             -) | 0x02u);
 406   2                      CY_SET_XTND_REG8((void CYFAR *)CYREG_BCTL1_BANK_CTL, CY_GET_XTND_REG8((void CYFAR *)CYREG_BCTL1_BANK_CTL
             -) | 0x02u);
 407   2      
 408   2                      /* Enable UDB array */
 409   2                      CY_SET_REG8((void CYXDATA *)CYREG_PM_ACT_CFG0, CY_GET_REG8((void CYXDATA *)CYREG_PM_ACT_CFG0) | 0x40u);
 410   2                      CY_SET_REG8((void CYXDATA *)CYREG_PM_AVAIL_CR2, CY_GET_REG8((void CYXDATA *)CYREG_PM_AVAIL_CR2) | 0x10u)
             -;
 411   2              }
 412   1      
 413   1              /* Perform second pass device configuration. These items must be configured in specific order after the r
             -egular configuration is done. */
 414   1              CYCONFIGCPY((void CYFAR *)(CYREG_PRT0_DR), (const void CYFAR *)(BS_IOPINS0_0_VAL), 10u);
C51 COMPILER V9.51   CYFITTER_CFG                                                          01/03/2014 20:23:43 PAGE 8   

 415   1              CYCONFIGCPY((void CYFAR *)(CYREG_PRT12_DR), (const void CYFAR *)(BS_IOPINS0_7_VAL), 10u);
 416   1              CYCONFIGCPY((void CYFAR *)(CYREG_PRT2_DM0), (const void CYFAR *)(BS_IOPINS0_2_VAL), 8u);
 417   1              CYCONFIGCPY((void CYFAR *)(CYREG_PRT3_DM0), (const void CYFAR *)(BS_IOPINS0_3_VAL), 8u);
 418   1              CYCONFIGCPY((void CYFAR *)(CYREG_PRT4_DM0), (const void CYFAR *)(BS_IOPINS0_4_VAL), 8u);
 419   1              CYCONFIGCPY((void CYFAR *)(CYREG_PRT5_DR), (const void CYFAR *)(BS_IOPINS0_5_VAL), 10u);
 420   1              CY_SET_REG8((void CYXDATA *)(CYREG_INTC_CSR_EN), 0x01u);
 421   1      
 422   1              /* Switch Boost to the precision bandgap reference from its internal reference */
 423   1              CY_SET_REG8((void CYXDATA *)CYREG_BOOST_CR2, (CY_GET_REG8((void CYXDATA *)CYREG_BOOST_CR2) | 0x08u));
 424   1              if (CYDEV_CHIP_REV_ACTUAL < 5u)
 425   1              {
 426   2                      CY_SET_REG8((void CYXDATA *)CYREG_PWRSYS_WAKE_TR2, 0x3Au);
 427   2              }
 428   1      
 429   1      
 430   1              /* Set Flash Cycles based on max possible frequency in case a glitch occurs during ClockSetup(). */
 431   1              CY_SET_REG8((void CYXDATA *)(CYREG_CACHE_CR), (((CYDEV_INSTRUCT_CACHE_ENABLED) != 0) ? 0xF1u : 0xC0u));
 432   1              /* Setup clocks based on selections from Clock DWR */
 433   1              ClockSetup();
 434   1              /* Set Flash Cycles based on newly configured 24.00MHz Bus Clock. */
 435   1              CY_SET_REG8((void CYXDATA *)(CYREG_CACHE_CR), (((CYDEV_INSTRUCT_CACHE_ENABLED) != 0) ? 0xB1u : 0x80u));
 436   1      
 437   1              /* Perform basic analog initialization to defaults */
 438   1              AnalogSetDefault();
 439   1      
 440   1              /* Configure alternate active mode */
 441   1              CYCONFIGCPY((void CYFAR *)CYDEV_PM_STBY_BASE, (const void CYFAR *)CYDEV_PM_ACT_BASE, 14u);
 442   1              CY_SET_REG8((void CYXDATA *)CYREG_PM_STBY_CFG0, CY_GET_REG8((void CYXDATA *)CYREG_PM_STBY_CFG0) & (uint8)
             -~0x02u);        /* Disable CPU */
 443   1      }
C51 COMPILER V9.51   CYFITTER_CFG                                                          01/03/2014 20:23:43 PAGE 9   

ASSEMBLY LISTING OF GENERATED OBJECT CODE


             ; FUNCTION _CyClockStartupError (BEGIN)
                                           ; SOURCE LINE # 71
0000 900000      R     MOV     DPTR,#errorCode
0003 EF                MOV     A,R7
0004 F0                MOVX    @DPTR,A
                                           ; SOURCE LINE # 72
                                           ; SOURCE LINE # 74
0005 900000      R     MOV     DPTR,#errorCode
0008 E0                MOVX    A,@DPTR
0009 FF                MOV     R7,A
000A 900000      R     MOV     DPTR,#errorCode
000D EF                MOV     A,R7
000E F0                MOVX    @DPTR,A
000F         ?C0001:
                                           ; SOURCE LINE # 86
000F 80FE              SJMP    ?C0001
0011 22                RET     
             ; FUNCTION _CyClockStartupError (END)

             ; FUNCTION ClockSetup (BEGIN)
                                           ; SOURCE LINE # 136
                                           ; SOURCE LINE # 137
                                           ; SOURCE LINE # 143
0000 7B00              MOV     R3,#00H
0002 7A40              MOV     R2,#040H
0004 7980              MOV     R1,#080H
0006 7D00              MOV     R5,#00H
0008 7C00              MOV     R4,#00H
000A 120000      E     LCALL   _cywrite16
                                           ; SOURCE LINE # 144
000D 904082            MOV     DPTR,#04082H
0010 7450              MOV     A,#050H
0012 F0                MOVX    @DPTR,A
                                           ; SOURCE LINE # 145
0013 7B00              MOV     R3,#00H
0015 7A40              MOV     R2,#040H
0017 7984              MOV     R1,#084H
0019 7D01              MOV     R5,#01H
001B 7C00              MOV     R4,#00H
001D 120000      E     LCALL   _cywrite16
                                           ; SOURCE LINE # 146
0020 904086            MOV     DPTR,#04086H
0023 7418              MOV     A,#018H
0025 F0                MOVX    @DPTR,A
                                           ; SOURCE LINE # 147
0026 7B00              MOV     R3,#00H
0028 7A40              MOV     R2,#040H
002A 7988              MOV     R1,#088H
002C 7D0B              MOV     R5,#0BH
002E 7C00              MOV     R4,#00H
0030 120000      E     LCALL   _cywrite16
                                           ; SOURCE LINE # 148
0033 90408A            MOV     DPTR,#0408AH
0036 7418              MOV     A,#018H
0038 F0                MOVX    @DPTR,A
                                           ; SOURCE LINE # 149
0039 7B00              MOV     R3,#00H
003B 7A40              MOV     R2,#040H
003D 798C              MOV     R1,#08CH
C51 COMPILER V9.51   CYFITTER_CFG                                                          01/03/2014 20:23:43 PAGE 10  

003F 7D17              MOV     R5,#017H
0041 7C00              MOV     R4,#00H
0043 120000      E     LCALL   _cywrite16
                                           ; SOURCE LINE # 150
0046 90408E            MOV     DPTR,#0408EH
0049 7418              MOV     A,#018H
004B F0                MOVX    @DPTR,A
                                           ; SOURCE LINE # 151
004C 7B00              MOV     R3,#00H
004E 7A40              MOV     R2,#040H
0050 7990              MOV     R1,#090H
0052 7D17              MOV     R5,#017H
0054 7C00              MOV     R4,#00H
0056 120000      E     LCALL   _cywrite16
                                           ; SOURCE LINE # 152
0059 904092            MOV     DPTR,#04092H
005C 7418              MOV     A,#018H
005E F0                MOVX    @DPTR,A
                                           ; SOURCE LINE # 153
005F 7B00              MOV     R3,#00H
0061 7A40              MOV     R2,#040H
0063 7994              MOV     R1,#094H
0065 7D19              MOV     R5,#019H
0067 7C00              MOV     R4,#00H
0069 120000      E     LCALL   _cywrite16
                                           ; SOURCE LINE # 154
006C 904096            MOV     DPTR,#04096H
006F 7418              MOV     A,#018H
0071 F0                MOVX    @DPTR,A
                                           ; SOURCE LINE # 155
0072 7B00              MOV     R3,#00H
0074 7A40              MOV     R2,#040H
0076 7998              MOV     R1,#098H
0078 7D5F              MOV     R5,#05FH
007A 7CEA              MOV     R4,#0EAH
007C 120000      E     LCALL   _cywrite16
                                           ; SOURCE LINE # 156
007F 90409A            MOV     DPTR,#0409AH
0082 7419              MOV     A,#019H
0084 F0                MOVX    @DPTR,A
                                           ; SOURCE LINE # 159
0085 7B08              MOV     R3,#08H
0087 7A09              MOV     R2,#09H
0089 79C4              MOV     R1,#0C4H
008B C003              PUSH    AR3
008D C002              PUSH    AR2
008F C001              PUSH    AR1
0091 7B00              MOV     R3,#00H
0093 7A41              MOV     R2,#041H
0095 7900              MOV     R1,#00H
0097 900000      E     MOV     DPTR,#?_cyconfigcpy?BYTE+05H
009A 120000      E     LCALL   ?C?PSTXDATA
009D D001              POP     AR1
009F D002              POP     AR2
00A1 D003              POP     AR3
00A3 7F04              MOV     R7,#04H
00A5 7E00              MOV     R6,#00H
00A7 120000      E     LCALL   _cyconfigcpy
                                           ; SOURCE LINE # 162
00AA 904300            MOV     DPTR,#04300H
00AD 7402              MOV     A,#02H
00AF F0                MOVX    @DPTR,A
C51 COMPILER V9.51   CYFITTER_CFG                                                          01/03/2014 20:23:43 PAGE 11  

                                           ; SOURCE LINE # 163
00B0 904000            MOV     DPTR,#04000H
00B3 7408              MOV     A,#08H
00B5 F0                MOVX    @DPTR,A
                                           ; SOURCE LINE # 166
00B6 904200            MOV     DPTR,#04200H
00B9 7403              MOV     A,#03H
00BB F0                MOVX    @DPTR,A
                                           ; SOURCE LINE # 167
00BC 7B0C              MOV     R3,#0CH
00BE 7A01              MOV     R2,#01H
00C0 7908              MOV     R1,#08H
00C2 120000      E     LCALL   _cyread8
00C5 9046A1            MOV     DPTR,#046A1H
00C8 EF                MOV     A,R7
00C9 F0                MOVX    @DPTR,A
                                           ; SOURCE LINE # 170
00CA 7B00              MOV     R3,#00H
00CC 7A42              MOV     R2,#042H
00CE 7922              MOV     R1,#022H
00D0 7D08              MOV     R5,#08H
00D2 7C00              MOV     R4,#00H
00D4 120000      E     LCALL   _cywrite16
                                           ; SOURCE LINE # 171
00D7 7B00              MOV     R3,#00H
00D9 7A42              MOV     R2,#042H
00DB 7920              MOV     R1,#020H
00DD 7D51              MOV     R5,#051H
00DF 7C12              MOV     R4,#012H
00E1 120000      E     LCALL   _cywrite16
                                           ; SOURCE LINE # 173
00E4 900000      R     MOV     DPTR,#pllLock
00E7 E4                CLR     A
00E8 F0                MOVX    @DPTR,A
                                           ; SOURCE LINE # 174
00E9 7F19              MOV     R7,#019H
00EB 7E00              MOV     R6,#00H
00ED 7D00              MOV     R5,#00H
00EF 7C00              MOV     R4,#00H
00F1 900000      R     MOV     DPTR,#timeout
00F4 120000      E     LCALL   ?C?LSTXDATA
00F7         ?C0004:
00F7 900000      R     MOV     DPTR,#timeout
00FA 120000      E     LCALL   ?C?LLDXDATA
00FD D3                SETB    C
00FE EF                MOV     A,R7
00FF 9400              SUBB    A,#00H
0101 EE                MOV     A,R6
0102 9400              SUBB    A,#00H
0104 404E              JC      ?C0005
0106 900000      R     MOV     DPTR,#pllLock
0109 E0                MOVX    A,@DPTR
010A FF                MOV     R7,A
010B EF                MOV     A,R7
010C 6403              XRL     A,#03H
010E 6044              JZ      ?C0005
                                           ; SOURCE LINE # 175
                                           ; SOURCE LINE # 176
0110 904225            MOV     DPTR,#04225H
0113 E0                MOVX    A,@DPTR
0114 FF                MOV     R7,A
0115 EF                MOV     A,R7
C51 COMPILER V9.51   CYFITTER_CFG                                                          01/03/2014 20:23:43 PAGE 12  

0116 5401              ANL     A,#01H
0118 FF                MOV     R7,A
0119 7E00              MOV     R6,#00H
011B 900000      R     MOV     DPTR,#pllLock
011E E0                MOVX    A,@DPTR
011F FE                MOV     R6,A
0120 EE                MOV     A,R6
0121 25E0              ADD     A,ACC
0123 FE                MOV     R6,A
0124 EE                MOV     A,R6
0125 4F                ORL     A,R7
0126 FF                MOV     R7,A
0127 EF                MOV     A,R7
0128 5403              ANL     A,#03H
012A FF                MOV     R7,A
012B 900000      R     MOV     DPTR,#pllLock
012E EF                MOV     A,R7
012F F0                MOVX    @DPTR,A
                                           ; SOURCE LINE # 177
0130 7FE0              MOV     R7,#0E0H
0132 7E01              MOV     R6,#01H
0134 7D00              MOV     R5,#00H
0136 7C00              MOV     R4,#00H
0138 120000      E     LCALL   _CyDelayCycles
                                           ; SOURCE LINE # 178
013B 900000      R     MOV     DPTR,#timeout
013E 120000      E     LCALL   ?C?LLDXDATA
0141 7BFF              MOV     R3,#0FFH
0143 7AFF              MOV     R2,#0FFH
0145 79FF              MOV     R1,#0FFH
0147 78FF              MOV     R0,#0FFH
0149 120000      E     LCALL   ?C?LADD
014C 900000      R     MOV     DPTR,#timeout
014F 120000      E     LCALL   ?C?LSTXDATA
0152 80A3              SJMP    ?C0004
0154         ?C0005:
                                           ; SOURCE LINE # 180
0154 900000      R     MOV     DPTR,#timeout
0157 120000      E     LCALL   ?C?LLDXDATA
015A EF                MOV     A,R7
015B 4E                ORL     A,R6
015C 7005              JNZ     ?C0007
                                           ; SOURCE LINE # 181
                                           ; SOURCE LINE # 182
015E 7F03              MOV     R7,#03H
0160 120000      R     LCALL   _CyClockStartupError
                                           ; SOURCE LINE # 183
0163         ?C0007:
                                           ; SOURCE LINE # 186
0163 7B00              MOV     R3,#00H
0165 7A40              MOV     R2,#040H
0167 7904              MOV     R1,#04H
0169 7D00              MOV     R5,#00H
016B 7C01              MOV     R4,#01H
016D 120000      E     LCALL   _cywrite16
                                           ; SOURCE LINE # 187
0170 904004            MOV     DPTR,#04004H
0173 7407              MOV     A,#07H
0175 F0                MOVX    @DPTR,A
                                           ; SOURCE LINE # 188
0176 904006            MOV     DPTR,#04006H
0179 E4                CLR     A
C51 COMPILER V9.51   CYFITTER_CFG                                                          01/03/2014 20:23:43 PAGE 13  

017A F0                MOVX    @DPTR,A
                                           ; SOURCE LINE # 189
017B 904008            MOV     DPTR,#04008H
017E 7448              MOV     A,#048H
0180 F0                MOVX    @DPTR,A
                                           ; SOURCE LINE # 190
0181 904004            MOV     DPTR,#04004H
0184 E4                CLR     A
0185 F0                MOVX    @DPTR,A
                                           ; SOURCE LINE # 191
0186 904001            MOV     DPTR,#04001H
0189 7402              MOV     A,#02H
018B F0                MOVX    @DPTR,A
                                           ; SOURCE LINE # 192
018C 90400B            MOV     DPTR,#0400BH
018F 7404              MOV     A,#04H
0191 F0                MOVX    @DPTR,A
                                           ; SOURCE LINE # 194
0192 9043A2            MOV     DPTR,#043A2H
0195 E0                MOVX    A,@DPTR
0196 FF                MOV     R7,A
0197 EF                MOV     A,R7
0198 447F              ORL     A,#07FH
019A FF                MOV     R7,A
019B 9043A2            MOV     DPTR,#043A2H
019E EF                MOV     A,R7
019F F0                MOVX    @DPTR,A
                                           ; SOURCE LINE # 195
01A0 9043A1            MOV     DPTR,#043A1H
01A3 E0                MOVX    A,@DPTR
01A4 FF                MOV     R7,A
01A5 EF                MOV     A,R7
01A6 4401              ORL     A,#01H
01A8 FF                MOV     R7,A
01A9 9043A1            MOV     DPTR,#043A1H
01AC EF                MOV     A,R7
01AD F0                MOVX    @DPTR,A
                                           ; SOURCE LINE # 196
01AE 9043A0            MOV     DPTR,#043A0H
01B1 E0                MOVX    A,@DPTR
01B2 FF                MOV     R7,A
01B3 EF                MOV     A,R7
01B4 4480              ORL     A,#080H
01B6 FF                MOV     R7,A
01B7 9043A0            MOV     DPTR,#043A0H
01BA EF                MOV     A,R7
01BB F0                MOVX    @DPTR,A
                                           ; SOURCE LINE # 197
01BC 22                RET     
             ; FUNCTION ClockSetup (END)

             ; FUNCTION AnalogSetDefault (BEGIN)
                                           ; SOURCE LINE # 219
                                           ; SOURCE LINE # 220
                                           ; SOURCE LINE # 221
0000 7B0C              MOV     R3,#0CH
0002 7A01              MOV     R2,#01H
0004 79CF              MOV     R1,#0CFH
0006 120000      E     LCALL   _cyread8
0009 900000      R     MOV     DPTR,#bg_xover_inl_trim
000C EF                MOV     A,R7
000D F0                MOVX    @DPTR,A
C51 COMPILER V9.51   CYFITTER_CFG                                                          01/03/2014 20:23:43 PAGE 14  

                                           ; SOURCE LINE # 222
000E 900000      R     MOV     DPTR,#bg_xover_inl_trim
0011 E0                MOVX    A,@DPTR
0012 FF                MOV     R7,A
0013 EF                MOV     A,R7
0014 5407              ANL     A,#07H
0016 FF                MOV     R7,A
0017 90586E            MOV     DPTR,#0586EH
001A EF                MOV     A,R7
001B F0                MOVX    @DPTR,A
                                           ; SOURCE LINE # 223
001C 900000      R     MOV     DPTR,#bg_xover_inl_trim
001F E0                MOVX    A,@DPTR
0020 FF                MOV     R7,A
0021 EF                MOV     A,R7
0022 C4                SWAP    A
0023 540F              ANL     A,#0FH
0025 FF                MOV     R7,A
0026 EF                MOV     A,R7
0027 540F              ANL     A,#0FH
0029 FF                MOV     R7,A
002A 90586F            MOV     DPTR,#0586FH
002D EF                MOV     A,R7
002E F0                MOVX    @DPTR,A
                                           ; SOURCE LINE # 224
002F 90510D            MOV     DPTR,#0510DH
0032 7402              MOV     A,#02H
0034 F0                MOVX    @DPTR,A
                                           ; SOURCE LINE # 225
0035 90513D            MOV     DPTR,#0513DH
0038 74E0              MOV     A,#0E0H
003A F0                MOVX    @DPTR,A
                                           ; SOURCE LINE # 226
003B 905B00            MOV     DPTR,#05B00H
003E 74E0              MOV     A,#0E0H
0040 F0                MOVX    @DPTR,A
                                           ; SOURCE LINE # 227
0041 905B58            MOV     DPTR,#05B58H
0044 74E0              MOV     A,#0E0H
0046 F0                MOVX    @DPTR,A
                                           ; SOURCE LINE # 228
0047 905876            MOV     DPTR,#05876H
004A 7466              MOV     A,#066H
004C F0                MOVX    @DPTR,A
                                           ; SOURCE LINE # 229
004D 22                RET     
             ; FUNCTION AnalogSetDefault (END)

             ; FUNCTION _SetAnalogRoutingPumps (BEGIN)
                                           ; SOURCE LINE # 249
0000 900000      R     MOV     DPTR,#enabled
0003 EF                MOV     A,R7
0004 F0                MOVX    @DPTR,A
                                           ; SOURCE LINE # 250
                                           ; SOURCE LINE # 251
0005 905876            MOV     DPTR,#05876H
0008 E0                MOVX    A,@DPTR
0009 FF                MOV     R7,A
000A 900000      R     MOV     DPTR,#regValue
000D EF                MOV     A,R7
000E F0                MOVX    @DPTR,A
                                           ; SOURCE LINE # 252
C51 COMPILER V9.51   CYFITTER_CFG                                                          01/03/2014 20:23:43 PAGE 15  

000F 900000      R     MOV     DPTR,#enabled
0012 E0                MOVX    A,@DPTR
0013 FF                MOV     R7,A
0014 EF                MOV     A,R7
0015 6010              JZ      ?C0010
                                           ; SOURCE LINE # 253
                                           ; SOURCE LINE # 254
0017 900000      R     MOV     DPTR,#regValue
001A E0                MOVX    A,@DPTR
001B FF                MOV     R7,A
001C EF                MOV     A,R7
001D 4422              ORL     A,#022H
001F FF                MOV     R7,A
0020 900000      R     MOV     DPTR,#regValue
0023 EF                MOV     A,R7
0024 F0                MOVX    @DPTR,A
                                           ; SOURCE LINE # 255
0025 800E              SJMP    ?C0011
0027         ?C0010:
                                           ; SOURCE LINE # 257
                                           ; SOURCE LINE # 258
0027 900000      R     MOV     DPTR,#regValue
002A E0                MOVX    A,@DPTR
002B FF                MOV     R7,A
002C EF                MOV     A,R7
002D 54DD              ANL     A,#0DDH
002F FF                MOV     R7,A
0030 900000      R     MOV     DPTR,#regValue
0033 EF                MOV     A,R7
0034 F0                MOVX    @DPTR,A
                                           ; SOURCE LINE # 259
0035         ?C0011:
                                           ; SOURCE LINE # 260
0035 900000      R     MOV     DPTR,#regValue
0038 E0                MOVX    A,@DPTR
0039 FF                MOV     R7,A
003A 905876            MOV     DPTR,#05876H
003D EF                MOV     A,R7
003E F0                MOVX    @DPTR,A
                                           ; SOURCE LINE # 261
003F 22                RET     
             ; FUNCTION _SetAnalogRoutingPumps (END)

             ; FUNCTION _ADC_AMux_Set (BEGIN)
                                           ; SOURCE LINE # 291
0000 900000      R     MOV     DPTR,#channel
0003 EF                MOV     A,R7
0004 F0                MOVX    @DPTR,A
                                           ; SOURCE LINE # 292
                                           ; SOURCE LINE # 293
0005 900000      R     MOV     DPTR,#channel
0008 E0                MOVX    A,@DPTR
0009 FF                MOV     R7,A
000A EF                MOV     A,R7
000B C3                CLR     C
000C 9402              SUBB    A,#02H
000E 5036              JNC     ?C0014
                                           ; SOURCE LINE # 294
                                           ; SOURCE LINE # 295
0010 900000      R     MOV     DPTR,#channel
0013 E0                MOVX    A,@DPTR
0014 FF                MOV     R7,A
C51 COMPILER V9.51   CYFITTER_CFG                                                          01/03/2014 20:23:43 PAGE 16  

0015 EF                MOV     A,R7
0016 25E0              ADD     A,ACC
0018 2400        R     ADD     A,#LOW ADC_AMux__addrTable
001A F582              MOV     DPL,A
001C E4                CLR     A
001D 3400        R     ADDC    A,#HIGH ADC_AMux__addrTable
001F F583              MOV     DPH,A
0021 E4                CLR     A
0022 93                MOVC    A,@A+DPTR
0023 FE                MOV     R6,A
0024 7401              MOV     A,#01H
0026 93                MOVC    A,@A+DPTR
0027 FF                MOV     R7,A
0028 8F82              MOV     DPL,R7
002A 8E83              MOV     DPH,R6
002C C083              PUSH    DPH
002E C082              PUSH    DPL
0030 E0                MOVX    A,@DPTR
0031 FF                MOV     R7,A
0032 900000      R     MOV     DPTR,#channel
0035 E0                MOVX    A,@DPTR
0036 FE                MOV     R6,A
0037 EE                MOV     A,R6
0038 900000      R     MOV     DPTR,#ADC_AMux__maskTable
003B 93                MOVC    A,@A+DPTR
003C FE                MOV     R6,A
003D EF                MOV     A,R7
003E 4E                ORL     A,R6
003F FF                MOV     R7,A
0040 D082              POP     DPL
0042 D083              POP     DPH
0044 EF                MOV     A,R7
0045 F0                MOVX    @DPTR,A
                                           ; SOURCE LINE # 296
                                           ; SOURCE LINE # 297
0046         ?C0014:
0046 22                RET     
             ; FUNCTION _ADC_AMux_Set (END)

             ; FUNCTION _ADC_AMux_Unset (BEGIN)
                                           ; SOURCE LINE # 313
0000 900000      R     MOV     DPTR,#channel
0003 EF                MOV     A,R7
0004 F0                MOVX    @DPTR,A
                                           ; SOURCE LINE # 314
                                           ; SOURCE LINE # 315
0005 900000      R     MOV     DPTR,#channel
0008 E0                MOVX    A,@DPTR
0009 FF                MOV     R7,A
000A EF                MOV     A,R7
000B C3                CLR     C
000C 9402              SUBB    A,#02H
000E 5039              JNC     ?C0016
                                           ; SOURCE LINE # 316
                                           ; SOURCE LINE # 317
0010 900000      R     MOV     DPTR,#channel
0013 E0                MOVX    A,@DPTR
0014 FF                MOV     R7,A
0015 EF                MOV     A,R7
0016 25E0              ADD     A,ACC
0018 2400        R     ADD     A,#LOW ADC_AMux__addrTable
001A F582              MOV     DPL,A
C51 COMPILER V9.51   CYFITTER_CFG                                                          01/03/2014 20:23:43 PAGE 17  

001C E4                CLR     A
001D 3400        R     ADDC    A,#HIGH ADC_AMux__addrTable
001F F583              MOV     DPH,A
0021 E4                CLR     A
0022 93                MOVC    A,@A+DPTR
0023 FE                MOV     R6,A
0024 7401              MOV     A,#01H
0026 93                MOVC    A,@A+DPTR
0027 FF                MOV     R7,A
0028 8F82              MOV     DPL,R7
002A 8E83              MOV     DPH,R6
002C C083              PUSH    DPH
002E C082              PUSH    DPL
0030 E0                MOVX    A,@DPTR
0031 FF                MOV     R7,A
0032 900000      R     MOV     DPTR,#channel
0035 E0                MOVX    A,@DPTR
0036 FE                MOV     R6,A
0037 EE                MOV     A,R6
0038 900000      R     MOV     DPTR,#ADC_AMux__maskTable
003B 93                MOVC    A,@A+DPTR
003C FE                MOV     R6,A
003D EE                MOV     A,R6
003E F4                CPL     A
003F FE                MOV     R6,A
0040 EF                MOV     A,R7
0041 5E                ANL     A,R6
0042 FF                MOV     R7,A
0043 D082              POP     DPL
0045 D083              POP     DPH
0047 EF                MOV     A,R7
0048 F0                MOVX    @DPTR,A
                                           ; SOURCE LINE # 318
                                           ; SOURCE LINE # 319
0049         ?C0016:
0049 22                RET     
             ; FUNCTION _ADC_AMux_Unset (END)

             ; FUNCTION cyfitter_cfg (BEGIN)
                                           ; SOURCE LINE # 340
                                           ; SOURCE LINE # 341
                                           ; SOURCE LINE # 343
0000 7B00              MOV     R3,#00H
0002 7A46              MOV     R2,#046H
0004 79E8              MOV     R1,#0E8H
0006 120000      E     LCALL   _cyread8
0009 EF                MOV     A,R7
000A 4401              ORL     A,#01H
000C FD                MOV     R5,A
000D 7B00              MOV     R3,#00H
000F 7A46              MOV     R2,#046H
0011 79E8              MOV     R1,#0E8H
0013 120000      E     LCALL   _cywrite8
                                           ; SOURCE LINE # 345
                                           ; SOURCE LINE # 382
0016 750000      R     MOV     i,#00H
0019         ?C0017:
0019 E500        R     MOV     A,i
001B C3                CLR     C
001C 940A              SUBB    A,#0AH
001E 503A              JNC     ?C0018
                                           ; SOURCE LINE # 383
C51 COMPILER V9.51   CYFITTER_CFG                                                          01/03/2014 20:23:43 PAGE 18  

                                           ; SOURCE LINE # 384
0020 AF00        R     MOV     R7,i
0022 EF                MOV     A,R7
0023 75F005            MOV     B,#05H
0026 A4                MUL     AB
0027 2400        R     ADD     A,#LOW cfg_memset_list
0029 F582              MOV     DPL,A
002B E4                CLR     A
002C 3400        R     ADDC    A,#HIGH cfg_memset_list
002E F583              MOV     DPH,A
0030 AF82              MOV     R7,DPL
0032 AE83              MOV     R6,DPH
0034 8E00        R     MOV     ms,R6
0036 8F00        R     MOV     ms+01H,R7
                                           ; SOURCE LINE # 385
0038 AE00        R     MOV     R6,ms
003A AF00        R     MOV     R7,ms+01H
003C 8F82              MOV     DPL,R7
003E 8E83              MOV     DPH,R6
0040 120000      E     LCALL   ?C?PLDCODE
0043 AE00        R     MOV     R6,ms
0045 AF00        R     MOV     R7,ms+01H
0047 8F82              MOV     DPL,R7
0049 8E83              MOV     DPH,R6
004B 7403              MOV     A,#03H
004D 93                MOVC    A,@A+DPTR
004E FC                MOV     R4,A
004F 7404              MOV     A,#04H
0051 93                MOVC    A,@A+DPTR
0052 FD                MOV     R5,A
0053 120000      E     LCALL   _cymemzero
                                           ; SOURCE LINE # 386
0056 0500        R     INC     i
0058 80BF              SJMP    ?C0017
005A         ?C0018:
                                           ; SOURCE LINE # 389
005A 750000      R     MOV     i,#00H
005D         ?C0020:
005D E500        R     MOV     A,i
005F C3                CLR     C
0060 9402              SUBB    A,#02H
0062 5078              JNC     ?C0021
                                           ; SOURCE LINE # 390
                                           ; SOURCE LINE # 391
0064 AF00        R     MOV     R7,i
0066 EF                MOV     A,R7
0067 75F008            MOV     B,#08H
006A A4                MUL     AB
006B 2400        R     ADD     A,#LOW cfg_memcpy_list
006D F582              MOV     DPL,A
006F E4                CLR     A
0070 3400        R     ADDC    A,#HIGH cfg_memcpy_list
0072 F583              MOV     DPH,A
0074 AF82              MOV     R7,DPL
0076 AE83              MOV     R6,DPH
0078 8E00        R     MOV     mc,R6
007A 8F00        R     MOV     mc+01H,R7
                                           ; SOURCE LINE # 392
007C AE00        R     MOV     R6,mc
007E AF00        R     MOV     R7,mc+01H
0080 8F82              MOV     DPL,R7
0082 8E83              MOV     DPH,R6
C51 COMPILER V9.51   CYFITTER_CFG                                                          01/03/2014 20:23:43 PAGE 19  

0084 120000      E     LCALL   ?C?PLDCODE
0087 8B00        R     MOV     destPtr,R3
0089 8A00        R     MOV     destPtr+01H,R2
008B 8900        R     MOV     destPtr+02H,R1
                                           ; SOURCE LINE # 393
008D AE00        R     MOV     R6,mc
008F AF00        R     MOV     R7,mc+01H
0091 8F82              MOV     DPL,R7
0093 8E83              MOV     DPH,R6
0095 A3                INC     DPTR
0096 A3                INC     DPTR
0097 A3                INC     DPTR
0098 120000      E     LCALL   ?C?PLDCODE
009B 8B00        R     MOV     srcPtr,R3
009D 8A00        R     MOV     srcPtr+01H,R2
009F 8900        R     MOV     srcPtr+02H,R1
                                           ; SOURCE LINE # 394
00A1 AE00        R     MOV     R6,mc
00A3 AF00        R     MOV     R7,mc+01H
00A5 8F82              MOV     DPL,R7
00A7 8E83              MOV     DPH,R6
00A9 7406              MOV     A,#06H
00AB 93                MOVC    A,@A+DPTR
00AC F500        R     MOV     numBytes,A
00AE 7407              MOV     A,#07H
00B0 93                MOVC    A,@A+DPTR
00B1 F500        R     MOV     numBytes+01H,A
                                           ; SOURCE LINE # 395
00B3 AB00        R     MOV     R3,srcPtr
00B5 AA00        R     MOV     R2,srcPtr+01H
00B7 A900        R     MOV     R1,srcPtr+02H
00B9 C003              PUSH    AR3
00BB C002              PUSH    AR2
00BD C001              PUSH    AR1
00BF AB00        R     MOV     R3,destPtr
00C1 AA00        R     MOV     R2,destPtr+01H
00C3 A900        R     MOV     R1,destPtr+02H
00C5 900000      E     MOV     DPTR,#?_cyconfigcpy?BYTE+05H
00C8 120000      E     LCALL   ?C?PSTXDATA
00CB D001              POP     AR1
00CD D002              POP     AR2
00CF D003              POP     AR3
00D1 AF00        R     MOV     R7,numBytes+01H
00D3 AE00        R     MOV     R6,numBytes
00D5 120000      E     LCALL   _cyconfigcpy
                                           ; SOURCE LINE # 396
00D8 0500        R     INC     i
00DA 8081              SJMP    ?C0020
00DC         ?C0021:
                                           ; SOURCE LINE # 398
00DC 7B08              MOV     R3,#08H
00DE 7A00              MOV     R2,#00H
00E0 7900              MOV     R1,#00H
00E2 120000      E     LCALL   _cfg_write_bytes
                                           ; SOURCE LINE # 401
00E5 905883            MOV     DPTR,#05883H
00E8 740A              MOV     A,#0AH
00EA F0                MOVX    @DPTR,A
                                           ; SOURCE LINE # 402
00EB 7B00              MOV     R3,#00H
00ED 7A76              MOV     R2,#076H
00EF 7950              MOV     R1,#050H
C51 COMPILER V9.51   CYFITTER_CFG                                                          01/03/2014 20:23:43 PAGE 20  

00F1 7D04              MOV     R5,#04H
00F3 7C00              MOV     R4,#00H
00F5 120000      E     LCALL   _cymemzero
                                           ; SOURCE LINE # 405
00F8 7B01              MOV     R3,#01H
00FA 7A50              MOV     R2,#050H
00FC 7903              MOV     R1,#03H
00FE 120000      E     LCALL   _cyread8
0101 EF                MOV     A,R7
0102 4402              ORL     A,#02H
0104 FD                MOV     R5,A
0105 7B01              MOV     R3,#01H
0107 7A50              MOV     R2,#050H
0109 7903              MOV     R1,#03H
010B 120000      E     LCALL   _cywrite8
                                           ; SOURCE LINE # 406
010E 7B01              MOV     R3,#01H
0110 7A50              MOV     R2,#050H
0112 7913              MOV     R1,#013H
0114 120000      E     LCALL   _cyread8
0117 EF                MOV     A,R7
0118 4402              ORL     A,#02H
011A FD                MOV     R5,A
011B 7B01              MOV     R3,#01H
011D 7A50              MOV     R2,#050H
011F 7913              MOV     R1,#013H
0121 120000      E     LCALL   _cywrite8
                                           ; SOURCE LINE # 409
0124 9043A0            MOV     DPTR,#043A0H
0127 E0                MOVX    A,@DPTR
0128 FF                MOV     R7,A
0129 EF                MOV     A,R7
012A 4440              ORL     A,#040H
012C FF                MOV     R7,A
012D 9043A0            MOV     DPTR,#043A0H
0130 EF                MOV     A,R7
0131 F0                MOVX    @DPTR,A
                                           ; SOURCE LINE # 410
0132 9043C2            MOV     DPTR,#043C2H
0135 E0                MOVX    A,@DPTR
0136 FF                MOV     R7,A
0137 EF                MOV     A,R7
0138 4410              ORL     A,#010H
013A FF                MOV     R7,A
013B 9043C2            MOV     DPTR,#043C2H
013E EF                MOV     A,R7
013F F0                MOVX    @DPTR,A
                                           ; SOURCE LINE # 411
                                           ; SOURCE LINE # 414
0140 7B08              MOV     R3,#08H
0142 7A09              MOV     R2,#09H
0144 7988              MOV     R1,#088H
0146 C003              PUSH    AR3
0148 C002              PUSH    AR2
014A C001              PUSH    AR1
014C 7B00              MOV     R3,#00H
014E 7A51              MOV     R2,#051H
0150 7900              MOV     R1,#00H
0152 900000      E     MOV     DPTR,#?_cyconfigcpy?BYTE+05H
0155 120000      E     LCALL   ?C?PSTXDATA
0158 D001              POP     AR1
015A D002              POP     AR2
C51 COMPILER V9.51   CYFITTER_CFG                                                          01/03/2014 20:23:43 PAGE 21  

015C D003              POP     AR3
015E 7F0A              MOV     R7,#0AH
0160 7E00              MOV     R6,#00H
0162 120000      E     LCALL   _cyconfigcpy
                                           ; SOURCE LINE # 415
0165 7B08              MOV     R3,#08H
0167 7A09              MOV     R2,#09H
0169 7994              MOV     R1,#094H
016B C003              PUSH    AR3
016D C002              PUSH    AR2
016F C001              PUSH    AR1
0171 7B00              MOV     R3,#00H
0173 7A51              MOV     R2,#051H
0175 79C0              MOV     R1,#0C0H
0177 900000      E     MOV     DPTR,#?_cyconfigcpy?BYTE+05H
017A 120000      E     LCALL   ?C?PSTXDATA
017D D001              POP     AR1
017F D002              POP     AR2
0181 D003              POP     AR3
0183 7F0A              MOV     R7,#0AH
0185 7E00              MOV     R6,#00H
0187 120000      E     LCALL   _cyconfigcpy
                                           ; SOURCE LINE # 416
018A 7B08              MOV     R3,#08H
018C 7A09              MOV     R2,#09H
018E 79A0              MOV     R1,#0A0H
0190 C003              PUSH    AR3
0192 C002              PUSH    AR2
0194 C001              PUSH    AR1
0196 7B00              MOV     R3,#00H
0198 7A51              MOV     R2,#051H
019A 7922              MOV     R1,#022H
019C 900000      E     MOV     DPTR,#?_cyconfigcpy?BYTE+05H
019F 120000      E     LCALL   ?C?PSTXDATA
01A2 D001              POP     AR1
01A4 D002              POP     AR2
01A6 D003              POP     AR3
01A8 7F08              MOV     R7,#08H
01AA 7E00              MOV     R6,#00H
01AC 120000      E     LCALL   _cyconfigcpy
                                           ; SOURCE LINE # 417
01AF 7B08              MOV     R3,#08H
01B1 7A09              MOV     R2,#09H
01B3 79A8              MOV     R1,#0A8H
01B5 C003              PUSH    AR3
01B7 C002              PUSH    AR2
01B9 C001              PUSH    AR1
01BB 7B00              MOV     R3,#00H
01BD 7A51              MOV     R2,#051H
01BF 7932              MOV     R1,#032H
01C1 900000      E     MOV     DPTR,#?_cyconfigcpy?BYTE+05H
01C4 120000      E     LCALL   ?C?PSTXDATA
01C7 D001              POP     AR1
01C9 D002              POP     AR2
01CB D003              POP     AR3
01CD 7F08              MOV     R7,#08H
01CF 7E00              MOV     R6,#00H
01D1 120000      E     LCALL   _cyconfigcpy
                                           ; SOURCE LINE # 418
01D4 7B08              MOV     R3,#08H
01D6 7A09              MOV     R2,#09H
01D8 79B0              MOV     R1,#0B0H
C51 COMPILER V9.51   CYFITTER_CFG                                                          01/03/2014 20:23:43 PAGE 22  

01DA C003              PUSH    AR3
01DC C002              PUSH    AR2
01DE C001              PUSH    AR1
01E0 7B00              MOV     R3,#00H
01E2 7A51              MOV     R2,#051H
01E4 7942              MOV     R1,#042H
01E6 900000      E     MOV     DPTR,#?_cyconfigcpy?BYTE+05H
01E9 120000      E     LCALL   ?C?PSTXDATA
01EC D001              POP     AR1
01EE D002              POP     AR2
01F0 D003              POP     AR3
01F2 7F08              MOV     R7,#08H
01F4 7E00              MOV     R6,#00H
01F6 120000      E     LCALL   _cyconfigcpy
                                           ; SOURCE LINE # 419
01F9 7B08              MOV     R3,#08H
01FB 7A09              MOV     R2,#09H
01FD 79B8              MOV     R1,#0B8H
01FF C003              PUSH    AR3
0201 C002              PUSH    AR2
0203 C001              PUSH    AR1
0205 7B00              MOV     R3,#00H
0207 7A51              MOV     R2,#051H
0209 7950              MOV     R1,#050H
020B 900000      E     MOV     DPTR,#?_cyconfigcpy?BYTE+05H
020E 120000      E     LCALL   ?C?PSTXDATA
0211 D001              POP     AR1
0213 D002              POP     AR2
0215 D003              POP     AR3
0217 7F0A              MOV     R7,#0AH
0219 7E00              MOV     R6,#00H
021B 120000      E     LCALL   _cyconfigcpy
                                           ; SOURCE LINE # 420
021E 9044F4            MOV     DPTR,#044F4H
0221 7401              MOV     A,#01H
0223 F0                MOVX    @DPTR,A
                                           ; SOURCE LINE # 423
0224 904322            MOV     DPTR,#04322H
0227 E0                MOVX    A,@DPTR
0228 FF                MOV     R7,A
0229 EF                MOV     A,R7
022A 4408              ORL     A,#08H
022C FF                MOV     R7,A
022D 904322            MOV     DPTR,#04322H
0230 EF                MOV     A,R7
0231 F0                MOVX    @DPTR,A
                                           ; SOURCE LINE # 424
0232 9046EC            MOV     DPTR,#046ECH
0235 E0                MOVX    A,@DPTR
0236 FF                MOV     R7,A
0237 EF                MOV     A,R7
0238 C3                CLR     C
0239 9405              SUBB    A,#05H
023B 5006              JNC     ?C0023
                                           ; SOURCE LINE # 425
                                           ; SOURCE LINE # 426
023D 904689            MOV     DPTR,#04689H
0240 743A              MOV     A,#03AH
0242 F0                MOVX    @DPTR,A
                                           ; SOURCE LINE # 427
0243         ?C0023:
                                           ; SOURCE LINE # 431
C51 COMPILER V9.51   CYFITTER_CFG                                                          01/03/2014 20:23:43 PAGE 23  

0243 904800            MOV     DPTR,#04800H
0246 74F1              MOV     A,#0F1H
0248 F0                MOVX    @DPTR,A
                                           ; SOURCE LINE # 433
0249 120000      R     LCALL   ClockSetup
                                           ; SOURCE LINE # 435
024C 904800            MOV     DPTR,#04800H
024F 74B1              MOV     A,#0B1H
0251 F0                MOVX    @DPTR,A
                                           ; SOURCE LINE # 438
0252 120000      R     LCALL   AnalogSetDefault
                                           ; SOURCE LINE # 441
0255 7B00              MOV     R3,#00H
0257 7A43              MOV     R2,#043H
0259 79A0              MOV     R1,#0A0H
025B C003              PUSH    AR3
025D C002              PUSH    AR2
025F C001              PUSH    AR1
0261 7B00              MOV     R3,#00H
0263 7A43              MOV     R2,#043H
0265 79B0              MOV     R1,#0B0H
0267 900000      E     MOV     DPTR,#?_cyconfigcpy?BYTE+05H
026A 120000      E     LCALL   ?C?PSTXDATA
026D D001              POP     AR1
026F D002              POP     AR2
0271 D003              POP     AR3
0273 7F0E              MOV     R7,#0EH
0275 7E00              MOV     R6,#00H
0277 120000      E     LCALL   _cyconfigcpy
                                           ; SOURCE LINE # 442
027A 9043B0            MOV     DPTR,#043B0H
027D E0                MOVX    A,@DPTR
027E FF                MOV     R7,A
027F EF                MOV     A,R7
0280 54FD              ANL     A,#0FDH
0282 FF                MOV     R7,A
0283 EF                MOV     A,R7
0284 F0                MOVX    @DPTR,A
                                           ; SOURCE LINE # 443
0285 22                RET     
             ; FUNCTION cyfitter_cfg (END)



MODULE INFORMATION:   STATIC OVERLAYABLE
   CODE SIZE        =   1396    ----
   CONSTANT SIZE    =     72    ----
   XDATA SIZE       =   ----      11
   PDATA SIZE       =   ----    ----
   DATA SIZE        =   ----      13
   IDATA SIZE       =   ----    ----
   BIT SIZE         =   ----    ----
   EDATA SIZE       =   ----    ----
   HDATA SIZE       =   ----    ----
   XDATA CONST SIZE =   ----    ----
   FAR CONST SIZE   =   ----    ----
END OF MODULE INFORMATION.


C51 COMPILATION COMPLETE.  0 WARNING(S),  0 ERROR(S)
