C51 COMPILER V9.51   MAIN                                                                  01/05/2014 02:29:28 PAGE 1   


C51 COMPILER V9.51, COMPILATION OF MODULE MAIN
OBJECT MODULE PLACED IN .\DP8051\DP8051_Keil_951\Debug\main.obj
COMPILER INVOKED BY: C:\Program Files (x86)\Cypress\PSoC Creator\3.0\PSoC Creator\import\keil\pk51\9.51\C51\BIN\c51.exe 
                    -.\main.c NOIV LARGE MODDP2 OMF2 VB(1) PR(.\DP8051\DP8051_Keil_951\Debug\main.lst) CD DB NOIP OT(2,SIZE) DF(DEBUG) INCDIR
                    -(.,.\Generated_Source\PSoC3) OJ(.\DP8051\DP8051_Keil_951\Debug\main.obj)

line level    source

   1          /* ========================================
   2          nRF24L01 specifics 
   3          * ========================================
   4          SPI response should be 0x0E - reset value
   5          CE Pin controls TX and RX on the chip. Active high.
   6          */
   7          
   8          
   9          #include <project.h>
  10          #include <stdlib.h>
  11          #include "nRF24L01.h"
  12          #include "const.h"
  13          #include "uartCalls.h"
  14          #include "computations.h"
  15          #include "nRFCalls.h"
  16          
  17          #define EZI2CBUFFERSIZE 5
  18          #define DEBUG_ENABLED 0
  19          #define EFFICIENT_FILTER 0
  20          #define DATA_DUMP_ENABLED 0
  21          #define EZI2C_ENABLED 0
  22          #define DELTA_T_INVERSE 1
  23          #define X_REPORT_ENABLED 0
  24          #define GYRO_REPORT_ENABLED 1
  25          
  26          
  27          #define ADC_CHANNEL_COUNT 4
  28          #define BUFFER_SIZE_PER_CHANNEL 32 
  29          #define DMA_TD_LENGTH (2*BUFFER_SIZE_PER_CHANNEL*ADC_CHANNEL_COUNT)
  30          #define FILTER_SIZE 32
  31          
  32          #define ADC_SAMPLER_PERIOD 499
  33          #define ADC_SAMPLER_COMPARE 250
  34          
  35          /* DMA Configuration for DMA */
  36          #define DMA_BYTES_PER_BURST 2
  37          #define DMA_REQUEST_PER_BURST 1
  38          #define DMA_SRC_BASE (CYDEV_PERIPH_BASE)
  39          #define DMA_DST_BASE (CYDEV_SRAM_BASE)
  40          
  41          uint16 ezi2cSource[EZI2CBUFFERSIZE];
  42          uint8 channelNumber = 0;
  43          uint16 time = 0;
  44          
  45          void myi2c_init();
  46          void adcInit();
  47          void initAll(void);
  48          void InitializeDma(void);
  49          void initializeAdcHardware(void);
  50          void sampleAdc(void);
  51          int TX_PL_Write( uint8 *Data, int Data_Len);
  52          void blink(uint8 repetition);
  53          void performFiltering(void);
C51 COMPILER V9.51   MAIN                                                                  01/05/2014 02:29:28 PAGE 2   

  54          void squareMouse(void);
  55          void transmit(uint8 *Data, int Data_Len);
  56          void integrateToVelocity(void);
  57          void integrateToDisplacement(void);
  58          void computeDcOffset(void);
  59          void performInitialFiltering(void);
  60          void restartSampling(void);
  61          void findIfStatic(void);
  62          int16 scaleAndMap(int16 diffInDisp);
  63          void enableTransmission(void);
  64          int16 scaleAndMapGyro(void);
  65          void applyHighPassFilter(void);
  66          
  67          static int8 MouseData[4] = {0, 0, 0, 0}; 
  68          
  69          uint16 xRawAcceleration = 0;
  70          uint16 yRawAcceleration = 0;
  71          uint16 zRawAcceleration = 0;
  72          uint16 gyroRawValue = 0;
  73          
  74          uint16 xFilteredAccelerationBuffer[64] = {0};
  75          uint16 yFilteredAccelerationBuffer[64] = {0};
  76          uint16 zFilteredAccelerationBuffer[64] = {0};
  77          uint16 gyroFilteredBuffer[64] = {0};
  78          
  79          uint32 xFiltered = 0;
  80          uint32 yFiltered = 0;
  81          uint32 zFiltered = 0;
  82          uint32 gyroFiltered = 0;
  83          
  84          uint8 newestFilteredDataIndex = 0;
  85          uint8 oldestFilteredDataIndex = 1;
  86          
  87          uint8 newestAdcSampleIndex = BUFFER_SIZE_PER_CHANNEL - 1;
  88          uint8 oldestAdcSampleIndex = 0;
  89          
  90          static uint16 myDelay = 0;
  91          
  92          uint8 peformFilterFlag = 0;
  93          uint8 initiateTransmissionFlag = 0;
  94           
  95          int32 xVelocity = 0;
  96          int32 yVelocity = 0;
  97          int32 zVelocity = 0;
  98          
  99          int32 gyroRotationAngle = 0;
 100          
 101          int32 xDisplacementNew = 0;
 102          int32 yDisplacementNew = 0;
 103          int32 zDisplacementNew = 0;
 104          
 105          int32 xDisplacementOld = 0;
 106          int32 yDisplacementOld = 0;
 107          int32 zDisplacementOld = 0;
 108          int32 gyroRotationNew = 0;
 109          int32 gyroRotationOld = 0;
 110          
 111          
 112          uint16 xDcOffset = 0;
 113          uint16 yDcOffset = 0;
 114          uint16 zDcOffset = 0;
 115          uint16 gyroDcOffset = 0;
C51 COMPILER V9.51   MAIN                                                                  01/05/2014 02:29:28 PAGE 3   

 116          
 117          uint8 isStatic = 0x01;
 118          uint8 epsilon = 16;
 119          
 120          /* Variable declarations for DMA */
 121          /* Move these variable declarations to the top of the function */
 122          uint8 DMA_Chan;
 123          uint8 DMA_TD[1];
 124          uint16 ADC_Samples[BUFFER_SIZE_PER_CHANNEL*ADC_CHANNEL_COUNT]; /* An array of length 32 with each containi
             -ng three 16-bit words */ 
 125          
 126          int8 mouseDataDump[512];
 127          uint16 dataDumpIndex = 0;
 128          
 129          int main()
 130          {
 131   1          uint8 status;
 132   1          char* helloString = "hello";
 133   1          uint8 i=0;
 134   1          uint8 datacounter =0;
 135   1          
 136   1          initAll();
 137   1          
 138   1          CE_LOW();
 139   1          status = SPI_Send_command_without_ADDR(FLUSH_TX, NOP);
 140   1          
 141   1          #if DEBUG_ENABLED
                  LCD_Position(0,0);
                  LCD_PrintNumber(status);
                  #endif
 145   1          
 146   1          
 147   1          /* 
 148   1          Start ADC sampling.
 149   1          Compute DC Offset using the first 32 ADC samples.
 150   1          Stop computation and reset everything (buffer pointers, PWM etc.).
 151   1          the xFiltered, yFiltered, zFiltered and gyroFiltered now has initial filtered value
 152   1          */
 153   1          performInitialFiltering();
 154   1          restartSampling();
 155   1          enableTransmission();
 156   1          
 157   1          for(;;)
 158   1          {
 159   2              if(peformFilterFlag == 1)
 160   2              {
 161   3                  #if EZI2C_ENABLED
                          EZI2C_1_EnableInt();
                          #endif
 164   3                  
 165   3                  applyHighPassFilter();
 166   3                  performFiltering();
 167   3                  
 168   3                  #if EZI2C_ENABLED
                          EZI2C_1_DisableInt();
                          #endif
 171   3                  
 172   3                  peformFilterFlag = 0;
 173   3                  isr_triggerFiltering_ClearPending();
 174   3                  
 175   3                  findIfStatic();
 176   3                  integrateToVelocity();
C51 COMPILER V9.51   MAIN                                                                  01/05/2014 02:29:28 PAGE 4   

 177   3                  integrateToDisplacement();
 178   3                  //MouseData[1] = (int8)scaleAndMap(-xDisplacementOld+xDisplacementNew);
 179   3              
 180   3                  #if DATA_DUMP_ENABLED
                          dataDumpIndex++;
                          dataDumpIndex = dataDumpIndex%512;
                              
                          #endif  
 185   3                  
 186   3                  if(isStatic == 0x01)
 187   3                  {
 188   4                      computeDcOffset();   
 189   4                  }
 190   3                  
 191   3                  #if DATA_DUMP_ENABLED
                          else
                          {
                              mouseDataDump[dataDumpIndex] =  MouseData[1];   
                          }
                          #endif
 197   3                  
 198   3                    
 199   3                  
 200   3              }
 201   2                 
 202   2              
 203   2              
 204   2              #if DEBUG_ENABLED
                      LCD_Position(0,0);
                      LCD_PrintString("Transmitting byte");
                      #endif
 208   2              
 209   2              //////squareMouse();
 210   2                     
 211   2              if(initiateTransmissionFlag == 1)
 212   2              {
 213   3              initiateTransmissionFlag = 0;
 214   3              isr_transmission_control_ClearPending();
 215   3              
 216   3              #if X_REPORT_ENABLED
                      MouseData[1] = (int8)scaleAndMap(-xDisplacementOld+xDisplacementNew);
                      #endif
 219   3              
 220   3              #if GYRO_REPORT_ENABLED
 221   3              if(Pin_Left_Click_Read() == 0x00)
 222   3                  {
 223   4                  MouseData[3] = (int8)scaleAndMapGyro();
 224   4                  }
 225   3              else
 226   3                  {
 227   4                  MouseData[3] = 0;   
 228   4                  }
 229   3              #endif    
 230   3                  
 231   3              xDisplacementOld = xDisplacementNew; 
 232   3              gyroRotationOld = gyroRotationNew;
 233   3              transmit((uint8*)MouseData,4);       
 234   3              }
 235   2              
 236   2          }
 237   1      }
 238          
C51 COMPILER V9.51   MAIN                                                                  01/05/2014 02:29:28 PAGE 5   

 239          
 240          
 241          void initAll(void){
 242   1          CyGlobalIntEnable; 
 243   1          PWM_heartBeat_Start();
 244   1         
 245   1          #if EZI2C_ENABLED 
                  myi2c_init();
                  #endif
 248   1          
 249   1          //adcInit();
 250   1          initializeAdcHardware();
 251   1         // channelSelectMux_Start();
 252   1          PWM_ADC_Sampler_WritePeriod(ADC_SAMPLER_PERIOD);
 253   1          PWM_ADC_Sampler_WriteCompare(ADC_SAMPLER_COMPARE);
 254   1          SPIM_NRF_Controller_Start();
 255   1          nRFTXSetting();
 256   1          
 257   1          #if DEBUG_ENABLED
                  LCD_Start();
                  #endif    
 260   1        //  UART_1_Start();
 261   1      }
 262          
 263          void InitializeDma(void)
 264          {
 265   1              DMA_Chan = DMA_DmaInitialize(DMA_BYTES_PER_BURST, DMA_REQUEST_PER_BURST, 
 266   1          HI16(DMA_SRC_BASE), HI16(DMA_DST_BASE));
 267   1              DMA_TD[0] = CyDmaTdAllocate();
 268   1              CyDmaTdSetConfiguration(DMA_TD[0], DMA_TD_LENGTH, DMA_TD[0], TD_SWAP_EN | TD_INC_DST_ADR);
 269   1              CyDmaTdSetAddress(DMA_TD[0], LO16((uint32)ADC_DEC_SAMP_PTR), LO16((uint32)ADC_Samples));
 270   1              CyDmaChSetInitialTd(DMA_Chan, DMA_TD[0]);
 271   1              CyDmaChEnable(DMA_Chan, 1);
 272   1      }
 273          
 274          
 275          
 276          void initializeAdcHardware(void)
 277          {
 278   1              InitializeDma();
 279   1              ADC_Start();
 280   1          isr_triggerFiltering_Start();
 281   1      }       
 282          
 283          void myi2c_init(){
 284   1          EZI2C_1_Start();
 285   1          EZI2C_1_EnableInt();
 286   1          EZI2C_1_SetAddress1(0x08);
 287   1          EZI2C_1_SetBuffer1(2*EZI2CBUFFERSIZE,0,(void *)ezi2cSource);
 288   1      }
 289          
 290          void adcInit(){
 291   1          ADC_Start();
 292   1          ADC_StartConvert(); 
 293   1      }
 294          
 295          void restartSampling(void)
 296          {
 297   1          Control_Reg_PWM_Reset_Write(0x00); 
 298   1          PWM_ADC_Sampler_Start();     
 299   1      }
 300          
C51 COMPILER V9.51   MAIN                                                                  01/05/2014 02:29:28 PAGE 6   

 301          
 302          void enableTransmission()
 303          {
 304   1          Control_Reg_Start_Transmission_Write(0x00);
 305   1          PWM_Transmission_Control_Start();
 306   1          isr_transmission_control_Start();
 307   1      }
 308          
 309          void integrateToVelocity(void)
 310          {
 311   1          if(isStatic == 0x00)
 312   1          {
 313   2      //        if(xVelocity == 0)
 314   2      //        {
 315   2      //            xDcOffset = xFilteredAccelerationBuffer[30];
 316   2      //        }
 317   2              xVelocity = xVelocity + (int32)((xFilteredAccelerationBuffer[31] - xDcOffset))/DELTA_T_INVERSE;   
 318   2              gyroRotationNew = gyroRotationNew + (int32) (gyroFilteredBuffer[31] - xDcOffset);
 319   2          }
 320   1          else
 321   1              xVelocity = 0;
 322   1      }
 323          
 324          void integrateToDisplacement(void)
 325          {
 326   1          
 327   1          xDisplacementOld = xDisplacementNew;
 328   1          
 329   1          if(isStatic == 0x00)
 330   1          {     
 331   2              xDisplacementNew = xDisplacementNew + xVelocity/DELTA_T_INVERSE;
 332   2          }
 333   1          
 334   1          else
 335   1          {
 336   2              //xDisplacementNew = 0;
 337   2              //xDisplacementOld = 0;
 338   2          }
 339   1      }
 340          
 341          int16 scaleAndMap(int16 diffInDisp)
 342          {
 343   1          if(abs(diffInDisp)<50)
 344   1          {
 345   2              return (diffInDisp/12);
 346   2          }
 347   1          
 348   1          else if(abs(diffInDisp)<800)
 349   1          {
 350   2              return (diffInDisp/160);
 351   2          }
 352   1          
 353   1          else if(abs(diffInDisp)<8000)
 354   1          {
 355   2              return (diffInDisp/800);
 356   2          }
 357   1          
 358   1          else if(abs(diffInDisp)<80000)
 359   1          {
 360   2              return (diffInDisp/5000);
 361   2          }
 362   1          
C51 COMPILER V9.51   MAIN                                                                  01/05/2014 02:29:28 PAGE 7   

 363   1          else
 364   1          {
 365   2              return (abs(diffInDisp)/12500);
 366   2          }
 367   1          
 368   1      //   if(abs(diffInDisp)<10)
 369   1      //    {
 370   1      //        if(diffInDisp > 0)
 371   1      //        {
 372   1      //            return 0;
 373   1      //        }
 374   1      //        
 375   1      //        else 
 376   1      //        {
 377   1      //            return 0;
 378   1      //        }
 379   1      //    }
 380   1      //    
 381   1      //    else if(abs(diffInDisp)<127)
 382   1      //    {
 383   1      //        return (diffInDisp/2);
 384   1      //    }
 385   1      //    
 386   1      //    else
 387   1      //    {
 388   1      //        if(diffInDisp > 127)
 389   1      //        {
 390   1      //            return 63;
 391   1      //        }
 392   1      //        
 393   1      //        else 
 394   1      //        {
 395   1      //            return -63;
 396   1      //        }
 397   1      //    }
 398   1      
 399   1      }
 400          
 401          int16 scaleAndMapGyro(void)
 402          {
 403   1          int16 gyroReportValue = 0; // = gyroRotationNew - gyroRotationOld;
 404   1          
 405   1          if(newestFilteredDataIndex == 0)
 406   1          {
 407   2              gyroReportValue = gyroFilteredBuffer[63] - gyroDcOffset;        
 408   2          }
 409   1          else
 410   1          {
 411   2              gyroReportValue = gyroFilteredBuffer[newestFilteredDataIndex - 1] - gyroDcOffset;
 412   2          }
 413   1          
 414   1         
 415   1      //    if(gyroReportValue>4000)
 416   1      //        {
 417   1      //            gyroReportValue = 4000;
 418   1      //        }
 419   1      //    else if(gyroReportValue < -4000)
 420   1      //        {
 421   1      //            gyroReportValue = -4000;
 422   1      //        }
 423   1      //   
 424   1          
C51 COMPILER V9.51   MAIN                                                                  01/05/2014 02:29:28 PAGE 8   

 425   1          if(abs(gyroReportValue) < 500)
 426   1          {
 427   2              gyroReportValue = gyroReportValue/40;
 428   2          }
 429   1          
 430   1          else if(abs(gyroReportValue) < 1000)
 431   1          {
 432   2              gyroReportValue = gyroReportValue/25;
 433   2          }
 434   1          
 435   1          else
 436   1          {
 437   2              gyroReportValue = 0;  
 438   2          }
 439   1          
 440   1          return (gyroReportValue);
 441   1      }
 442          
 443          
 444          void findIfStatic(void)
 445          {
 446   1          uint8 staticCounter = 0;
 447   1          int16 diff = 0;
 448   1          
 449   1          diff = (int16)(xFilteredAccelerationBuffer[15] - xFilteredAccelerationBuffer[0]);
 450   1          if((abs(diff)<epsilon))
 451   1          {
 452   2               staticCounter++;
 453   2          }
 454   1          
 455   1          diff = (int16)(xFilteredAccelerationBuffer[31] - xFilteredAccelerationBuffer[15]);
 456   1          if((abs(diff)<epsilon))
 457   1          {
 458   2               staticCounter++;
 459   2          }
 460   1          
 461   1          diff = (int16)(xFilteredAccelerationBuffer[47] - xFilteredAccelerationBuffer[31]);
 462   1          if((abs(diff)<epsilon))
 463   1          {
 464   2               staticCounter++;
 465   2          }
 466   1          
 467   1          diff = (int16)(xFilteredAccelerationBuffer[63] - xFilteredAccelerationBuffer[47]);
 468   1          if((abs(diff)<epsilon))
 469   1          {
 470   2               staticCounter++;
 471   2          }
 472   1          
 473   1      //    diff = (int16)(ADC_Samples[28] - ADC_Samples[0]);
 474   1      //    if((abs(diff)<epsilon))
 475   1      //    {
 476   1      //         staticCounter++;
 477   1      //    }
 478   1      //    
 479   1      //    diff = (int16)(ADC_Samples[60] - ADC_Samples[28]);
 480   1      //    if((abs(diff)<epsilon))
 481   1      //    {
 482   1      //         staticCounter++;
 483   1      //    }
 484   1      //    
 485   1      //    diff = (int16)(ADC_Samples[92] - ADC_Samples[60]);
 486   1      //    if((abs(diff)<epsilon))
C51 COMPILER V9.51   MAIN                                                                  01/05/2014 02:29:28 PAGE 9   

 487   1      //    {
 488   1      //         staticCounter++;
 489   1      //    }
 490   1      //    
 491   1      //    diff = (int16)(ADC_Samples[124] - ADC_Samples[92]);
 492   1      //    if((abs(diff)<epsilon))
 493   1      //    {
 494   1      //         staticCounter++;
 495   1      //    }
 496   1          
 497   1          if(staticCounter == 4)
 498   1          {
 499   2              isStatic = 0x01;   
 500   2          }
 501   1          
 502   1          else
 503   1          {
 504   2              isStatic = 0x00;   
 505   2          }
 506   1          
 507   1          
 508   1      }
 509          
 510          
 511          void performFiltering(void)
 512          {
 513   1          char i;
 514   1          uint16 temp = 0;
 515   1          
 516   1          #if (EFFICIENT_FILTER == 0)
 517   1          
 518   1          xFiltered = 0;
 519   1          yFiltered = 0;
 520   1          zFiltered = 0;
 521   1          gyroFiltered = 0;
 522   1          
 523   1          for(i=0;i<FILTER_SIZE;i++)
 524   1              {
 525   2                  xFiltered += ADC_Samples[4*i];    
 526   2                  yFiltered += ADC_Samples[4*i+1];
 527   2                  zFiltered += ADC_Samples[4*i+2];
 528   2                  gyroFiltered += ADC_Samples[4*i+3];
 529   2              }
 530   1              
 531   1              newestAdcSampleIndex++;
 532   1              newestAdcSampleIndex =  newestAdcSampleIndex%BUFFER_SIZE_PER_CHANNEL;
 533   1              
 534   1              oldestAdcSampleIndex++;
 535   1              oldestAdcSampleIndex = oldestAdcSampleIndex%BUFFER_SIZE_PER_CHANNEL;
 536   1          
 537   1          #endif    
 538   1          
 539   1          #if EFFICIENT_FILTER
                      newestAdcSampleIndex++;
                      newestAdcSampleIndex =  newestAdcSampleIndex%BUFFER_SIZE_PER_CHANNEL;
                      
                      oldestAdcSampleIndex++;
                      oldestAdcSampleIndex = oldestAdcSampleIndex%BUFFER_SIZE_PER_CHANNEL;
                  
                      xFiltered = xFiltered + (uint32)ADC_Samples[4*newestAdcSampleIndex];
                      yFiltered = yFiltered + (uint32)ADC_Samples[4*newestAdcSampleIndex + 1];
                      zFiltered = zFiltered + (uint32)ADC_Samples[4*newestAdcSampleIndex + 2];
C51 COMPILER V9.51   MAIN                                                                  01/05/2014 02:29:28 PAGE 10  

                      gyroFiltered = gyroFiltered + (uint32)ADC_Samples[4*newestAdcSampleIndex + 3];
                  
                  #endif
 552   1                
 553   1          
 554   1              xFilteredAccelerationBuffer[newestFilteredDataIndex] = (uint16) (xFiltered>>5);
 555   1              
 556   1              #if EZI2C_ENABLED       
                      ezi2cSource[0] = ADC_Samples[4*newestAdcSampleIndex];
                      #endif
 559   1              
 560   1              yFilteredAccelerationBuffer[newestFilteredDataIndex] = (uint16) (yFiltered>>5);
 561   1              
 562   1              #if EZI2C_ENABLED 
                      ezi2cSource[1] = ADC_Samples[4*newestAdcSampleIndex+1];
                      #endif
 565   1              
 566   1              zFilteredAccelerationBuffer[newestFilteredDataIndex] = (uint16) (zFiltered>>5);
 567   1              
 568   1              #if EZI2C_ENABLED 
                      ezi2cSource[2] = ADC_Samples[4*newestAdcSampleIndex+2];
                      #endif
 571   1              
 572   1              gyroFilteredBuffer[newestFilteredDataIndex] = (uint16) (gyroFiltered>>5);
 573   1              
 574   1              #if EZI2C_ENABLED 
                      ezi2cSource[3] = ADC_Samples[4*newestAdcSampleIndex+3];
              
              //        time++;
              //        ezi2cSource[4] = time;
                      #endif
 580   1              
 581   1              #if EFFICIENT_FILTER
                      xFiltered = xFiltered - (uint32)ADC_Samples[4*oldestAdcSampleIndex];
                      yFiltered = yFiltered - (uint32)ADC_Samples[4*oldestAdcSampleIndex + 1];
                      zFiltered = zFiltered - (uint32)ADC_Samples[4*oldestAdcSampleIndex + 2];
                      gyroFiltered = gyroFiltered - (uint32)ADC_Samples[4*oldestAdcSampleIndex + 3];
                      #endif
 587   1              
 588   1              newestFilteredDataIndex++;
 589   1              newestFilteredDataIndex =  newestFilteredDataIndex%64;
 590   1              
 591   1              oldestFilteredDataIndex++;
 592   1              oldestFilteredDataIndex = oldestFilteredDataIndex%64;
 593   1              
 594   1      }
 595          
 596          void applyHighPassFilter(void)
 597          {
 598   1          int k;
 599   1          
 600   1          for(k=1;k<63;k++)
 601   1          {
 602   2              gyroFilteredBuffer[k] = gyroFilteredBuffer[k] - gyroFilteredBuffer[k-1] + (9*gyroFilteredBuffer[k-
             -1])/10;
 603   2          }
 604   1      }
 605          
 606          void performInitialFiltering(void)
 607          {
 608   1          uint8 sampleCount = 0;
 609   1          Control_Reg_PWM_Reset_Write(0x00);
C51 COMPILER V9.51   MAIN                                                                  01/05/2014 02:29:28 PAGE 11  

 610   1          PWM_ADC_Sampler_Start();
 611   1          
 612   1          
 613   1          while(sampleCount<64)
 614   1          {
 615   2             
 616   2              
 617   2              if(peformFilterFlag == 1)
 618   2              {
 619   3                            
 620   3                  computeDcOffset();
 621   3                  peformFilterFlag = 0;
 622   3                  isr_triggerFiltering_ClearPending();
 623   3                  sampleCount++;
 624   3                  
 625   3                  if(sampleCount == 63)
 626   3                  {
 627   4                      PWM_ADC_Sampler_Stop();
 628   4                      Control_Reg_PWM_Reset_Write(0x01);
 629   4                      newestAdcSampleIndex = BUFFER_SIZE_PER_CHANNEL - 1;
 630   4                      oldestAdcSampleIndex = 0;
 631   4                      
 632   4                      /*temporary fix for infinite loop condition*/
 633   4                      sampleCount++;
 634   4                      
 635   4                      xFiltered = xFiltered - xDcOffset;
 636   4                      yFiltered = yFiltered - yDcOffset;
 637   4                      zFiltered = zFiltered - zDcOffset;
 638   4                      gyroFiltered = gyroFiltered - gyroDcOffset;
 639   4                      
 640   4                  }
 641   3              }
 642   2             
 643   2          }   
 644   1      }
 645          
 646          
 647          void computeDcOffset(void)
 648          {
 649   1          int i;
 650   1          uint16 maxX = 0;
 651   1          
 652   1          xFiltered = 0;
 653   1          yFiltered = 0;
 654   1          zFiltered = 0;
 655   1          gyroFiltered = 0;
 656   1          
 657   1          for(i=0;i<FILTER_SIZE;i++)
 658   1              {
 659   2                  xFiltered += ADC_Samples[4*i];    
 660   2                  yFiltered += ADC_Samples[4*i+1];
 661   2                  zFiltered += ADC_Samples[4*i+2];
 662   2                  gyroFiltered += ADC_Samples[4*i+3];
 663   2                  
 664   2      //            if(maxX < abs(ADC_Samples[4*i] - xDcOffset))
 665   2      //            {
 666   2      //                maxX = abs(ADC_Samples[4*i] - xDcOffset);
 667   2      //                epsilon = maxX+5;
 668   2      //            }
 669   2              }
 670   1              
 671   1              xDcOffset = (uint16) (xFiltered>>5); 
C51 COMPILER V9.51   MAIN                                                                  01/05/2014 02:29:28 PAGE 12  

 672   1              yDcOffset = (uint16) (yFiltered>>5);
 673   1              zDcOffset = (uint16) (zFiltered>>5);
 674   1              gyroDcOffset = (uint16) (gyroFiltered>>5);
 675   1      }
 676          
 677          
 678          void squareMouse(void)
 679          {
 680   1         
 681   1          switch (myDelay){                                                                   /* Switch statement creates a state machine for mouse movement */
 682   2                              case 128:       MouseData[1] = 5;                       /* Moves mouse to right */
 683   2                                                      MouseData[2] = 0;                       /* Keeps Y static */
 684   2                                              //      LCD_Char_1_Position(1,0);
 685   2                                              //      LCD_Char_1_PrintString("Mouse Right");
 686   2                                                      blink(0);
 687   2                              break;
 688   2                              
 689   2                              case 256:       MouseData[1] = 0;                               /* Keeps X static */
 690   2                                                      MouseData[2] = 5;                               /* Moves mouse down */
 691   2                                              //      LCD_Char_1_Position(1,0);
 692   2                                              //      LCD_Char_1_PrintString("Mouse Down ");
 693   2                                                      blink(1);
 694   2                              break;
 695   2                              
 696   2                              case 384:       MouseData[1] = -5;                      /* Moves mouse to left */
 697   2                                                      MouseData[2] = 0;                       /* Keeps Y static */
 698   2                                              //      LCD_Char_1_Position(1,0);
 699   2                                              //      LCD_Char_1_PrintString("Mouse Left ");
 700   2                                                      blink(2);
 701   2                              break;
 702   2                              
 703   2                              case 512:       MouseData[1] = 0;                       /* Keeps X static */
 704   2                                                      MouseData[2] = -5;                      /* Moves mouse up */
 705   2                                              //      LCD_Char_1_Position(1,0);
 706   2                                              //      LCD_Char_1_PrintString("Mouse Up   ");
 707   2                                                      blink(3);
 708   2                              myDelay=0;
 709   2                                                      break;  
 710   2                              default:        break;  
 711   2          }
 712   1                                              
 713   1              myDelay++;
 714   1          
 715   1      }
 716          
 717          
 718          void transmit(uint8 *Data, int Data_Len)
 719              {
 720   1              uint8 status;
 721   1              uint8 status_temp;
 722   1              
 723   1              TX_PL_Write((uint8*)Data,Data_Len);
 724   1              
 725   1              CE_HIGH();
 726   1              CE_LOW();
 727   1          
 728   1              status = SPI_Send_command_without_ADDR(NOP,NOP);
 729   1              while ((status  & TX_DS) != TX_DS ){
 730   2              if ((status & MAX_RT) != 0) {
 731   3      
 732   3              // Clear MAX_RT bit in status register
 733   3              status_temp = SPI_Send_command_with_ADDR(W_REGISTER, STATUS_ADDR, (status|MAX_RT));
C51 COMPILER V9.51   MAIN                                                                  01/05/2014 02:29:28 PAGE 13  

 734   3              #if DEBUG_ENABLED
                      LCD_Position(0,0);
                      LCD_PrintString("Packet lost");//Toggle LED1 to indicate that a packet is lost during Transmission
                      blink(1);
                      #endif 
 739   3              // No communication event here
 740   3              // ....
 741   3              status = SPI_Send_command_without_ADDR(NOP,NOP);
 742   3              break;
 743   3              }
 744   2              status = SPI_Send_command_without_ADDR(NOP,NOP);
 745   2              }
 746   1      
 747   1              if ((status & TX_DS) != 0) {//One packet of data sent successfully
 748   2              // Clear TX_DS bit in status register 
 749   2              status_temp = SPI_Send_command_with_ADDR(W_REGISTER, STATUS_ADDR, (status|TX_DS));
 750   2              #if DEBUG_ENABLED
                      LCD_Position(0,0);
                      LCD_PrintString("1 Packet sent");
                      blink(0);
                      #endif
 755   2              }
 756   1              
 757   1              if ((status & MAX_RT) != 0) 
 758   1              {
 759   2              // Clear TX_DS bit in status register
 760   2              status_temp = SPI_Send_command_with_ADDR(W_REGISTER, STATUS_ADDR, (status|MAX_RT));
 761   2              #if DEBUG_ENABLED
                      LCD_Position(0,0);
                      LCD_PrintString("MAX_RT is cleared");
                      blink(3);
                      #endif
 766   2              }
 767   1      
 768   1              if ((status & TX_FULL) != 0)  {
 769   2                // Flush TX FIFO (in TX mode          
 770   2                status_temp = SPI_Send_command_without_ADDR(FLUSH_TX, NOP);
 771   2              }
 772   1             status = SPI_Send_command_without_ADDR(NOP,NOP);
 773   1              
 774   1          }
 775          
 776          
 777          /* [] END OF FILE */
C51 COMPILER V9.51   MAIN                                                                  01/05/2014 02:29:28 PAGE 14  

ASSEMBLY LISTING OF GENERATED OBJECT CODE


             ; FUNCTION main (BEGIN)
                                           ; SOURCE LINE # 129
                                           ; SOURCE LINE # 130
                                           ; SOURCE LINE # 132
0000 7BFF              MOV     R3,#0FFH
0002 7A00        R     MOV     R2,#HIGH ?SC_0
0004 7900        R     MOV     R1,#LOW ?SC_0
0006 900000      R     MOV     DPTR,#helloString
0009 120000      E     LCALL   ?C?PSTXDATA
                                           ; SOURCE LINE # 133
000C 900000      R     MOV     DPTR,#i
000F E4                CLR     A
0010 F0                MOVX    @DPTR,A
                                           ; SOURCE LINE # 134
0011 900000      R     MOV     DPTR,#datacounter
0014 E4                CLR     A
0015 F0                MOVX    @DPTR,A
                                           ; SOURCE LINE # 136
0016 120000      R     LCALL   initAll
                                           ; SOURCE LINE # 138
0019 120000      E     LCALL   CE_LOW
                                           ; SOURCE LINE # 139
001C 7DFF              MOV     R5,#0FFH
001E 7FE1              MOV     R7,#0E1H
0020 120000      E     LCALL   _SPI_Send_command_without_ADDR
0023 900000      R     MOV     DPTR,#status
0026 EF                MOV     A,R7
0027 F0                MOVX    @DPTR,A
                                           ; SOURCE LINE # 153
0028 120000      R     LCALL   performInitialFiltering
                                           ; SOURCE LINE # 154
002B 120000      R     LCALL   restartSampling
                                           ; SOURCE LINE # 155
002E 120000      R     LCALL   enableTransmission
                                           ; SOURCE LINE # 157
0031         ?C0001:
                                           ; SOURCE LINE # 158
                                           ; SOURCE LINE # 159
0031 900000      R     MOV     DPTR,#peformFilterFlag
0034 E0                MOVX    A,@DPTR
0035 FF                MOV     R7,A
0036 EF                MOV     A,R7
0037 B40123            CJNE    A,#01H,?C0003
                                           ; SOURCE LINE # 160
                                           ; SOURCE LINE # 165
003A 120000      R     LCALL   applyHighPassFilter
                                           ; SOURCE LINE # 166
003D 120000      R     LCALL   performFiltering
                                           ; SOURCE LINE # 172
0040 900000      R     MOV     DPTR,#peformFilterFlag
0043 E4                CLR     A
0044 F0                MOVX    @DPTR,A
                                           ; SOURCE LINE # 173
0045 120000      E     LCALL   isr_triggerFiltering_ClearPending
                                           ; SOURCE LINE # 175
0048 120000      R     LCALL   findIfStatic
                                           ; SOURCE LINE # 176
004B 120000      R     LCALL   integrateToVelocity
                                           ; SOURCE LINE # 177
C51 COMPILER V9.51   MAIN                                                                  01/05/2014 02:29:28 PAGE 15  

004E 120000      R     LCALL   integrateToDisplacement
                                           ; SOURCE LINE # 186
0051 900000      R     MOV     DPTR,#isStatic
0054 E0                MOVX    A,@DPTR
0055 FF                MOV     R7,A
0056 EF                MOV     A,R7
0057 B40103            CJNE    A,#01H,?C0003
                                           ; SOURCE LINE # 187
                                           ; SOURCE LINE # 188
005A 120000      R     LCALL   computeDcOffset
                                           ; SOURCE LINE # 189
                                           ; SOURCE LINE # 200
005D         ?C0003:
                                           ; SOURCE LINE # 211
005D 900000      R     MOV     DPTR,#initiateTransmissionFlag
0060 E0                MOVX    A,@DPTR
0061 FF                MOV     R7,A
0062 EF                MOV     A,R7
0063 B401CB            CJNE    A,#01H,?C0001
                                           ; SOURCE LINE # 212
                                           ; SOURCE LINE # 213
0066 900000      R     MOV     DPTR,#initiateTransmissionFlag
0069 E4                CLR     A
006A F0                MOVX    @DPTR,A
                                           ; SOURCE LINE # 214
006B 120000      E     LCALL   isr_transmission_control_ClearPending
                                           ; SOURCE LINE # 221
006E 120000      E     LCALL   Pin_Left_Click_Read
0071 EF                MOV     A,R7
0072 700A              JNZ     ?C0006
                                           ; SOURCE LINE # 222
                                           ; SOURCE LINE # 223
0074 120000      R     LCALL   scaleAndMapGyro
0077 900000      R     MOV     DPTR,#MouseData+03H
007A EF                MOV     A,R7
007B F0                MOVX    @DPTR,A
                                           ; SOURCE LINE # 224
007C 8005              SJMP    ?C0007
007E         ?C0006:
                                           ; SOURCE LINE # 226
                                           ; SOURCE LINE # 227
007E 900000      R     MOV     DPTR,#MouseData+03H
0081 E4                CLR     A
0082 F0                MOVX    @DPTR,A
                                           ; SOURCE LINE # 228
0083         ?C0007:
                                           ; SOURCE LINE # 231
0083 900000      R     MOV     DPTR,#xDisplacementNew
0086 120000      E     LCALL   ?C?LLDXDATA
0089 900000      R     MOV     DPTR,#xDisplacementOld
008C 120000      E     LCALL   ?C?LSTXDATA
                                           ; SOURCE LINE # 232
008F 900000      R     MOV     DPTR,#gyroRotationNew
0092 120000      E     LCALL   ?C?LLDXDATA
0095 900000      R     MOV     DPTR,#gyroRotationOld
0098 120000      E     LCALL   ?C?LSTXDATA
                                           ; SOURCE LINE # 233
009B 7B01              MOV     R3,#01H
009D 7A00        R     MOV     R2,#HIGH MouseData
009F 7900        R     MOV     R1,#LOW MouseData
00A1 7D04              MOV     R5,#04H
00A3 7C00              MOV     R4,#00H
C51 COMPILER V9.51   MAIN                                                                  01/05/2014 02:29:28 PAGE 16  

00A5 120000      R     LCALL   _transmit
                                           ; SOURCE LINE # 234
                                           ; SOURCE LINE # 236
00A8 8087              SJMP    ?C0001
00AA 22                RET     
             ; FUNCTION main (END)

             ; FUNCTION initAll (BEGIN)
                                           ; SOURCE LINE # 241
                                           ; SOURCE LINE # 242
0000 D2AF              SETB    EA
0002 9044F4            MOV     DPTR,#044F4H
0005 74FD              MOV     A,#0FDH
0007 F0                MOVX    @DPTR,A
                                           ; SOURCE LINE # 243
0008 120000      E     LCALL   PWM_heartBeat_Start
                                           ; SOURCE LINE # 250
000B 120000      R     LCALL   initializeAdcHardware
                                           ; SOURCE LINE # 252
000E 7FF3              MOV     R7,#0F3H
0010 7E01              MOV     R6,#01H
0012 120000      E     LCALL   _PWM_ADC_Sampler_WritePeriod
                                           ; SOURCE LINE # 253
0015 7FFA              MOV     R7,#0FAH
0017 7E00              MOV     R6,#00H
0019 120000      E     LCALL   _PWM_ADC_Sampler_WriteCompare
                                           ; SOURCE LINE # 254
001C 120000      E     LCALL   SPIM_NRF_Controller_Start
                                           ; SOURCE LINE # 255
001F 120000      E     LCALL   nRFTXSetting
                                           ; SOURCE LINE # 261
0022 22                RET     
             ; FUNCTION initAll (END)

             ; FUNCTION InitializeDma (BEGIN)
                                           ; SOURCE LINE # 263
                                           ; SOURCE LINE # 264
                                           ; SOURCE LINE # 266
0000 900000      E     MOV     DPTR,#?_DMA_DmaInitialize?BYTE+04H
0003 E4                CLR     A
0004 F0                MOVX    @DPTR,A
0005 A3                INC     DPTR
0006 E4                CLR     A
0007 F0                MOVX    @DPTR,A
0008 7B00              MOV     R3,#00H
000A 7A00              MOV     R2,#00H
000C 7D01              MOV     R5,#01H
000E 7F02              MOV     R7,#02H
0010 120000      E     LCALL   _DMA_DmaInitialize
0013 900000      R     MOV     DPTR,#DMA_Chan
0016 EF                MOV     A,R7
0017 F0                MOVX    @DPTR,A
                                           ; SOURCE LINE # 267
0018 120000      E     LCALL   CyDmaTdAllocate
001B 900000      R     MOV     DPTR,#DMA_TD
001E EF                MOV     A,R7
001F F0                MOVX    @DPTR,A
                                           ; SOURCE LINE # 268
0020 900000      R     MOV     DPTR,#DMA_TD
0023 E0                MOVX    A,@DPTR
0024 FF                MOV     R7,A
0025 900000      R     MOV     DPTR,#DMA_TD
C51 COMPILER V9.51   MAIN                                                                  01/05/2014 02:29:28 PAGE 17  

0028 E0                MOVX    A,@DPTR
0029 FB                MOV     R3,A
002A 900000      E     MOV     DPTR,#?_CyDmaTdSetConfiguration?BYTE+04H
002D 7482              MOV     A,#082H
002F F0                MOVX    @DPTR,A
0030 7D00              MOV     R5,#00H
0032 7C01              MOV     R4,#01H
0034 120000      E     LCALL   _CyDmaTdSetConfiguration
                                           ; SOURCE LINE # 269
0037 900000      R     MOV     DPTR,#DMA_TD
003A E0                MOVX    A,@DPTR
003B FF                MOV     R7,A
003C C007              PUSH    AR7
003E 7B01              MOV     R3,#01H
0040 7A00        R     MOV     R2,#HIGH ADC_Samples
0042 7900        R     MOV     R1,#LOW ADC_Samples
0044 AF01              MOV     R7,AR1
0046 AE02              MOV     R6,AR2
0048 AD03              MOV     R5,AR3
004A 7C00              MOV     R4,#00H
004C EF                MOV     A,R7
004D 54FF              ANL     A,#0FFH
004F FF                MOV     R7,A
0050 EE                MOV     A,R6
0051 54FF              ANL     A,#0FFH
0053 FE                MOV     R6,A
0054 ED                MOV     A,R5
0055 5400              ANL     A,#00H
0057 FD                MOV     R5,A
0058 EC                MOV     A,R4
0059 5400              ANL     A,#00H
005B FC                MOV     R4,A
005C AB07              MOV     R3,AR7
005E AA06              MOV     R2,AR6
0060 D007              POP     AR7
0062 7D10              MOV     R5,#010H
0064 7C4E              MOV     R4,#04EH
0066 120000      E     LCALL   _CyDmaTdSetAddress
                                           ; SOURCE LINE # 270
0069 900000      R     MOV     DPTR,#DMA_Chan
006C E0                MOVX    A,@DPTR
006D FF                MOV     R7,A
006E 900000      R     MOV     DPTR,#DMA_TD
0071 E0                MOVX    A,@DPTR
0072 FD                MOV     R5,A
0073 120000      E     LCALL   _CyDmaChSetInitialTd
                                           ; SOURCE LINE # 271
0076 900000      R     MOV     DPTR,#DMA_Chan
0079 E0                MOVX    A,@DPTR
007A FF                MOV     R7,A
007B 7D01              MOV     R5,#01H
007D 120000      E     LCALL   _CyDmaChEnable
                                           ; SOURCE LINE # 272
0080 22                RET     
             ; FUNCTION InitializeDma (END)

             ; FUNCTION initializeAdcHardware (BEGIN)
                                           ; SOURCE LINE # 276
                                           ; SOURCE LINE # 277
                                           ; SOURCE LINE # 278
0000 120000      R     LCALL   InitializeDma
                                           ; SOURCE LINE # 279
C51 COMPILER V9.51   MAIN                                                                  01/05/2014 02:29:28 PAGE 18  

0003 120000      E     LCALL   ADC_Start
                                           ; SOURCE LINE # 280
0006 120000      E     LCALL   isr_triggerFiltering_Start
                                           ; SOURCE LINE # 281
0009 22                RET     
             ; FUNCTION initializeAdcHardware (END)

             ; FUNCTION myi2c_init (BEGIN)
                                           ; SOURCE LINE # 283
                                           ; SOURCE LINE # 284
0000 120000      E     LCALL   EZI2C_1_Start
                                           ; SOURCE LINE # 285
0003 120000      E     LCALL   EZI2C_1_EnableInt
                                           ; SOURCE LINE # 286
0006 7F08              MOV     R7,#08H
0008 120000      E     LCALL   _EZI2C_1_SetAddress1
                                           ; SOURCE LINE # 287
000B 7B01              MOV     R3,#01H
000D 7A00        R     MOV     R2,#HIGH ezi2cSource
000F 7900        R     MOV     R1,#LOW ezi2cSource
0011 7D00              MOV     R5,#00H
0013 7C00              MOV     R4,#00H
0015 7F0A              MOV     R7,#0AH
0017 7E00              MOV     R6,#00H
0019 120000      E     LCALL   _EZI2C_1_SetBuffer1
                                           ; SOURCE LINE # 288
001C 22                RET     
             ; FUNCTION myi2c_init (END)

             ; FUNCTION adcInit (BEGIN)
                                           ; SOURCE LINE # 290
                                           ; SOURCE LINE # 291
0000 120000      E     LCALL   ADC_Start
                                           ; SOURCE LINE # 292
0003 120000      E     LCALL   ADC_StartConvert
                                           ; SOURCE LINE # 293
0006 22                RET     
             ; FUNCTION adcInit (END)

             ; FUNCTION restartSampling (BEGIN)
                                           ; SOURCE LINE # 295
                                           ; SOURCE LINE # 296
                                           ; SOURCE LINE # 297
0000 7F00              MOV     R7,#00H
0002 120000      E     LCALL   _Control_Reg_PWM_Reset_Write
                                           ; SOURCE LINE # 298
0005 120000      E     LCALL   PWM_ADC_Sampler_Start
                                           ; SOURCE LINE # 299
0008 22                RET     
             ; FUNCTION restartSampling (END)

             ; FUNCTION enableTransmission (BEGIN)
                                           ; SOURCE LINE # 302
                                           ; SOURCE LINE # 303
                                           ; SOURCE LINE # 304
0000 7F00              MOV     R7,#00H
0002 120000      E     LCALL   _Control_Reg_Start_Transmission_Write
                                           ; SOURCE LINE # 305
0005 120000      E     LCALL   PWM_Transmission_Control_Start
                                           ; SOURCE LINE # 306
0008 120000      E     LCALL   isr_transmission_control_Start
                                           ; SOURCE LINE # 307
C51 COMPILER V9.51   MAIN                                                                  01/05/2014 02:29:28 PAGE 19  

000B 22                RET     
             ; FUNCTION enableTransmission (END)

             ; FUNCTION integrateToVelocity (BEGIN)
                                           ; SOURCE LINE # 309
                                           ; SOURCE LINE # 310
                                           ; SOURCE LINE # 311
0000 900000      R     MOV     DPTR,#isStatic
0003 E0                MOVX    A,@DPTR
0004 FF                MOV     R7,A
0005 EF                MOV     A,R7
0006 7053              JNZ     ?C0016
                                           ; SOURCE LINE # 312
                                           ; SOURCE LINE # 317
0008 900000      R     MOV     DPTR,#xVelocity
000B 120000      E     LCALL   ?C?LLDXDATA0
000E 900000      R     MOV     DPTR,#xDcOffset
0011 E0                MOVX    A,@DPTR
0012 FE                MOV     R6,A
0013 A3                INC     DPTR
0014 E0                MOVX    A,@DPTR
0015 FF                MOV     R7,A
0016 900000      R     MOV     DPTR,#xFilteredAccelerationBuffer+03EH
0019 E0                MOVX    A,@DPTR
001A FC                MOV     R4,A
001B A3                INC     DPTR
001C E0                MOVX    A,@DPTR
001D FD                MOV     R5,A
001E C3                CLR     C
001F ED                MOV     A,R5
0020 9F                SUBB    A,R7
0021 FF                MOV     R7,A
0022 EC                MOV     A,R4
0023 9E                SUBB    A,R6
0024 FE                MOV     R6,A
0025 E4                CLR     A
0026 FC                MOV     R4,A
0027 FD                MOV     R5,A
0028 120000      E     LCALL   ?C?LADD
002B 900000      R     MOV     DPTR,#xVelocity
002E 120000      E     LCALL   ?C?LSTXDATA
                                           ; SOURCE LINE # 318
0031 900000      R     MOV     DPTR,#gyroRotationNew
0034 120000      E     LCALL   ?C?LLDXDATA0
0037 900000      R     MOV     DPTR,#xDcOffset
003A E0                MOVX    A,@DPTR
003B FE                MOV     R6,A
003C A3                INC     DPTR
003D E0                MOVX    A,@DPTR
003E FF                MOV     R7,A
003F 900000      R     MOV     DPTR,#gyroFilteredBuffer+03EH
0042 E0                MOVX    A,@DPTR
0043 FC                MOV     R4,A
0044 A3                INC     DPTR
0045 E0                MOVX    A,@DPTR
0046 FD                MOV     R5,A
0047 C3                CLR     C
0048 ED                MOV     A,R5
0049 9F                SUBB    A,R7
004A FF                MOV     R7,A
004B EC                MOV     A,R4
004C 9E                SUBB    A,R6
C51 COMPILER V9.51   MAIN                                                                  01/05/2014 02:29:28 PAGE 20  

004D FE                MOV     R6,A
004E E4                CLR     A
004F FC                MOV     R4,A
0050 FD                MOV     R5,A
0051 120000      E     LCALL   ?C?LADD
0054 900000      R     MOV     DPTR,#gyroRotationNew
0057 120000      E     LCALL   ?C?LSTXDATA
                                           ; SOURCE LINE # 319
005A 22                RET     
005B         ?C0016:
                                           ; SOURCE LINE # 321
005B 7F00              MOV     R7,#00H
005D 7E00              MOV     R6,#00H
005F 7D00              MOV     R5,#00H
0061 7C00              MOV     R4,#00H
0063 900000      R     MOV     DPTR,#xVelocity
0066 120000      E     LCALL   ?C?LSTXDATA
                                           ; SOURCE LINE # 322
0069         ?C0018:
0069 22                RET     
             ; FUNCTION integrateToVelocity (END)

             ; FUNCTION integrateToDisplacement (BEGIN)
                                           ; SOURCE LINE # 324
                                           ; SOURCE LINE # 325
                                           ; SOURCE LINE # 327
0000 900000      R     MOV     DPTR,#xDisplacementNew
0003 120000      E     LCALL   ?C?LLDXDATA
0006 900000      R     MOV     DPTR,#xDisplacementOld
0009 120000      E     LCALL   ?C?LSTXDATA
                                           ; SOURCE LINE # 329
000C 900000      R     MOV     DPTR,#isStatic
000F E0                MOVX    A,@DPTR
0010 FF                MOV     R7,A
0011 EF                MOV     A,R7
0012 7015              JNZ     ?C0021
                                           ; SOURCE LINE # 330
                                           ; SOURCE LINE # 331
0014 900000      R     MOV     DPTR,#xDisplacementNew
0017 120000      E     LCALL   ?C?LLDXDATA
001A 900000      R     MOV     DPTR,#xVelocity
001D 120000      E     LCALL   ?C?LLDXDATA0
0020 120000      E     LCALL   ?C?LADD
0023 900000      R     MOV     DPTR,#xDisplacementNew
0026 120000      E     LCALL   ?C?LSTXDATA
                                           ; SOURCE LINE # 332
                                           ; SOURCE LINE # 335
                                           ; SOURCE LINE # 338
                                           ; SOURCE LINE # 339
0029         ?C0021:
0029 22                RET     
             ; FUNCTION integrateToDisplacement (END)

             ; FUNCTION _scaleAndMap (BEGIN)
                                           ; SOURCE LINE # 341
0000 900000      R     MOV     DPTR,#diffInDisp
0003 EE                MOV     A,R6
0004 F0                MOVX    @DPTR,A
0005 A3                INC     DPTR
0006 EF                MOV     A,R7
0007 F0                MOVX    @DPTR,A
                                           ; SOURCE LINE # 342
C51 COMPILER V9.51   MAIN                                                                  01/05/2014 02:29:28 PAGE 21  

                                           ; SOURCE LINE # 343
0008 900000      R     MOV     DPTR,#diffInDisp
000B E0                MOVX    A,@DPTR
000C FE                MOV     R6,A
000D A3                INC     DPTR
000E E0                MOVX    A,@DPTR
000F FF                MOV     R7,A
0010 120000      E     LCALL   _abs
0013 C3                CLR     C
0014 EF                MOV     A,R7
0015 9432              SUBB    A,#032H
0017 EE                MOV     A,R6
0018 6480              XRL     A,#080H
001A 9480              SUBB    A,#080H
001C 5010              JNC     ?C0022
                                           ; SOURCE LINE # 344
                                           ; SOURCE LINE # 345
001E 900000      R     MOV     DPTR,#diffInDisp
0021 E0                MOVX    A,@DPTR
0022 FE                MOV     R6,A
0023 A3                INC     DPTR
0024 E0                MOVX    A,@DPTR
0025 FF                MOV     R7,A
0026 7C00              MOV     R4,#00H
0028 7D0C              MOV     R5,#0CH
002A 120000      E     LCALL   ?C?SIDIV
002D 22                RET     
                                           ; SOURCE LINE # 346
002E         ?C0022:
                                           ; SOURCE LINE # 348
002E 900000      R     MOV     DPTR,#diffInDisp
0031 E0                MOVX    A,@DPTR
0032 FE                MOV     R6,A
0033 A3                INC     DPTR
0034 E0                MOVX    A,@DPTR
0035 FF                MOV     R7,A
0036 120000      E     LCALL   _abs
0039 C3                CLR     C
003A EF                MOV     A,R7
003B 9420              SUBB    A,#020H
003D EE                MOV     A,R6
003E 6480              XRL     A,#080H
0040 9483              SUBB    A,#083H
0042 5010              JNC     ?C0025
                                           ; SOURCE LINE # 349
                                           ; SOURCE LINE # 350
0044 900000      R     MOV     DPTR,#diffInDisp
0047 E0                MOVX    A,@DPTR
0048 FE                MOV     R6,A
0049 A3                INC     DPTR
004A E0                MOVX    A,@DPTR
004B FF                MOV     R7,A
004C 7C00              MOV     R4,#00H
004E 7DA0              MOV     R5,#0A0H
0050 120000      E     LCALL   ?C?SIDIV
0053 22                RET     
                                           ; SOURCE LINE # 351
0054         ?C0025:
                                           ; SOURCE LINE # 353
0054 900000      R     MOV     DPTR,#diffInDisp
0057 E0                MOVX    A,@DPTR
0058 FE                MOV     R6,A
C51 COMPILER V9.51   MAIN                                                                  01/05/2014 02:29:28 PAGE 22  

0059 A3                INC     DPTR
005A E0                MOVX    A,@DPTR
005B FF                MOV     R7,A
005C 120000      E     LCALL   _abs
005F C3                CLR     C
0060 EF                MOV     A,R7
0061 9440              SUBB    A,#040H
0063 EE                MOV     A,R6
0064 6480              XRL     A,#080H
0066 949F              SUBB    A,#09FH
0068 5010              JNC     ?C0027
                                           ; SOURCE LINE # 354
                                           ; SOURCE LINE # 355
006A 900000      R     MOV     DPTR,#diffInDisp
006D E0                MOVX    A,@DPTR
006E FE                MOV     R6,A
006F A3                INC     DPTR
0070 E0                MOVX    A,@DPTR
0071 FF                MOV     R7,A
0072 7C03              MOV     R4,#03H
0074 7D20              MOV     R5,#020H
0076 120000      E     LCALL   ?C?SIDIV
0079 22                RET     
                                           ; SOURCE LINE # 356
007A         ?C0027:
                                           ; SOURCE LINE # 358
007A 900000      R     MOV     DPTR,#diffInDisp
007D E0                MOVX    A,@DPTR
007E FE                MOV     R6,A
007F A3                INC     DPTR
0080 E0                MOVX    A,@DPTR
0081 FF                MOV     R7,A
0082 120000      E     LCALL   _abs
0085 EE                MOV     A,R6
0086 33                RLC     A
0087 95E0              SUBB    A,ACC
0089 FD                MOV     R5,A
008A FC                MOV     R4,A
008B 7B80              MOV     R3,#080H
008D 7A38              MOV     R2,#038H
008F 7901              MOV     R1,#01H
0091 7800              MOV     R0,#00H
0093 D3                SETB    C
0094 120000      E     LCALL   ?C?SLCMP
0097 4010              JC      ?C0029
                                           ; SOURCE LINE # 359
                                           ; SOURCE LINE # 360
0099 900000      R     MOV     DPTR,#diffInDisp
009C E0                MOVX    A,@DPTR
009D FE                MOV     R6,A
009E A3                INC     DPTR
009F E0                MOVX    A,@DPTR
00A0 FF                MOV     R7,A
00A1 7C13              MOV     R4,#013H
00A3 7D88              MOV     R5,#088H
00A5 120000      E     LCALL   ?C?SIDIV
00A8 22                RET     
                                           ; SOURCE LINE # 361
00A9         ?C0029:
                                           ; SOURCE LINE # 364
                                           ; SOURCE LINE # 365
00A9 900000      R     MOV     DPTR,#diffInDisp
C51 COMPILER V9.51   MAIN                                                                  01/05/2014 02:29:28 PAGE 23  

00AC E0                MOVX    A,@DPTR
00AD FE                MOV     R6,A
00AE A3                INC     DPTR
00AF E0                MOVX    A,@DPTR
00B0 FF                MOV     R7,A
00B1 120000      E     LCALL   _abs
00B4 7C30              MOV     R4,#030H
00B6 7DD4              MOV     R5,#0D4H
00B8 120000      E     LCALL   ?C?SIDIV
                                           ; SOURCE LINE # 366
                                           ; SOURCE LINE # 399
00BB         ?C0023:
00BB 22                RET     
             ; FUNCTION _scaleAndMap (END)

             ; FUNCTION scaleAndMapGyro (BEGIN)
                                           ; SOURCE LINE # 401
                                           ; SOURCE LINE # 402
                                           ; SOURCE LINE # 403
0000 900000      R     MOV     DPTR,#gyroReportValue
0003 E4                CLR     A
0004 F0                MOVX    @DPTR,A
0005 A3                INC     DPTR
0006 E4                CLR     A
0007 F0                MOVX    @DPTR,A
                                           ; SOURCE LINE # 405
0008 900000      R     MOV     DPTR,#newestFilteredDataIndex
000B E0                MOVX    A,@DPTR
000C FF                MOV     R7,A
000D EF                MOV     A,R7
000E 7021              JNZ     ?C0031
                                           ; SOURCE LINE # 406
                                           ; SOURCE LINE # 407
0010 900000      R     MOV     DPTR,#gyroDcOffset
0013 E0                MOVX    A,@DPTR
0014 FE                MOV     R6,A
0015 A3                INC     DPTR
0016 E0                MOVX    A,@DPTR
0017 FF                MOV     R7,A
0018 900000      R     MOV     DPTR,#gyroFilteredBuffer+07EH
001B E0                MOVX    A,@DPTR
001C FC                MOV     R4,A
001D A3                INC     DPTR
001E E0                MOVX    A,@DPTR
001F FD                MOV     R5,A
0020 C3                CLR     C
0021 ED                MOV     A,R5
0022 9F                SUBB    A,R7
0023 FF                MOV     R7,A
0024 EC                MOV     A,R4
0025 9E                SUBB    A,R6
0026 FE                MOV     R6,A
0027 900000      R     MOV     DPTR,#gyroReportValue
002A EE                MOV     A,R6
002B F0                MOVX    @DPTR,A
002C A3                INC     DPTR
002D EF                MOV     A,R7
002E F0                MOVX    @DPTR,A
                                           ; SOURCE LINE # 408
002F 802D              SJMP    ?C0032
0031         ?C0031:
                                           ; SOURCE LINE # 410
C51 COMPILER V9.51   MAIN                                                                  01/05/2014 02:29:28 PAGE 24  

                                           ; SOURCE LINE # 411
0031 900000      R     MOV     DPTR,#newestFilteredDataIndex
0034 E0                MOVX    A,@DPTR
0035 FF                MOV     R7,A
0036 EF                MOV     A,R7
0037 25E0              ADD     A,ACC
0039 2400        R     ADD     A,#LOW gyroFilteredBuffer+0FFFEH
003B F582              MOV     DPL,A
003D E4                CLR     A
003E 3400        R     ADDC    A,#HIGH gyroFilteredBuffer+0FFFEH
0040 F583              MOV     DPH,A
0042 E0                MOVX    A,@DPTR
0043 FE                MOV     R6,A
0044 A3                INC     DPTR
0045 E0                MOVX    A,@DPTR
0046 FF                MOV     R7,A
0047 900000      R     MOV     DPTR,#gyroDcOffset
004A E0                MOVX    A,@DPTR
004B FC                MOV     R4,A
004C A3                INC     DPTR
004D E0                MOVX    A,@DPTR
004E FD                MOV     R5,A
004F C3                CLR     C
0050 EF                MOV     A,R7
0051 9D                SUBB    A,R5
0052 FF                MOV     R7,A
0053 EE                MOV     A,R6
0054 9C                SUBB    A,R4
0055 FE                MOV     R6,A
0056 900000      R     MOV     DPTR,#gyroReportValue
0059 EE                MOV     A,R6
005A F0                MOVX    @DPTR,A
005B A3                INC     DPTR
005C EF                MOV     A,R7
005D F0                MOVX    @DPTR,A
                                           ; SOURCE LINE # 412
005E         ?C0032:
                                           ; SOURCE LINE # 425
005E 900000      R     MOV     DPTR,#gyroReportValue
0061 E0                MOVX    A,@DPTR
0062 FE                MOV     R6,A
0063 A3                INC     DPTR
0064 E0                MOVX    A,@DPTR
0065 FF                MOV     R7,A
0066 120000      E     LCALL   _abs
0069 C3                CLR     C
006A EF                MOV     A,R7
006B 94F4              SUBB    A,#0F4H
006D EE                MOV     A,R6
006E 6480              XRL     A,#080H
0070 9481              SUBB    A,#081H
0072 5019              JNC     ?C0033
                                           ; SOURCE LINE # 426
                                           ; SOURCE LINE # 427
0074 900000      R     MOV     DPTR,#gyroReportValue
0077 E0                MOVX    A,@DPTR
0078 FE                MOV     R6,A
0079 A3                INC     DPTR
007A E0                MOVX    A,@DPTR
007B FF                MOV     R7,A
007C 7C00              MOV     R4,#00H
007E 7D28              MOV     R5,#028H
C51 COMPILER V9.51   MAIN                                                                  01/05/2014 02:29:28 PAGE 25  

0080 120000      E     LCALL   ?C?SIDIV
0083 900000      R     MOV     DPTR,#gyroReportValue
0086 EE                MOV     A,R6
0087 F0                MOVX    @DPTR,A
0088 A3                INC     DPTR
0089 EF                MOV     A,R7
008A F0                MOVX    @DPTR,A
                                           ; SOURCE LINE # 428
008B 8037              SJMP    ?C0034
008D         ?C0033:
                                           ; SOURCE LINE # 430
008D 900000      R     MOV     DPTR,#gyroReportValue
0090 E0                MOVX    A,@DPTR
0091 FE                MOV     R6,A
0092 A3                INC     DPTR
0093 E0                MOVX    A,@DPTR
0094 FF                MOV     R7,A
0095 120000      E     LCALL   _abs
0098 C3                CLR     C
0099 EF                MOV     A,R7
009A 94E8              SUBB    A,#0E8H
009C EE                MOV     A,R6
009D 6480              XRL     A,#080H
009F 9483              SUBB    A,#083H
00A1 5019              JNC     ?C0035
                                           ; SOURCE LINE # 431
                                           ; SOURCE LINE # 432
00A3 900000      R     MOV     DPTR,#gyroReportValue
00A6 E0                MOVX    A,@DPTR
00A7 FE                MOV     R6,A
00A8 A3                INC     DPTR
00A9 E0                MOVX    A,@DPTR
00AA FF                MOV     R7,A
00AB 7C00              MOV     R4,#00H
00AD 7D19              MOV     R5,#019H
00AF 120000      E     LCALL   ?C?SIDIV
00B2 900000      R     MOV     DPTR,#gyroReportValue
00B5 EE                MOV     A,R6
00B6 F0                MOVX    @DPTR,A
00B7 A3                INC     DPTR
00B8 EF                MOV     A,R7
00B9 F0                MOVX    @DPTR,A
                                           ; SOURCE LINE # 433
00BA 8008              SJMP    ?C0034
00BC         ?C0035:
                                           ; SOURCE LINE # 436
                                           ; SOURCE LINE # 437
00BC 900000      R     MOV     DPTR,#gyroReportValue
00BF E4                CLR     A
00C0 F0                MOVX    @DPTR,A
00C1 A3                INC     DPTR
00C2 E4                CLR     A
00C3 F0                MOVX    @DPTR,A
                                           ; SOURCE LINE # 438
00C4         ?C0034:
                                           ; SOURCE LINE # 440
00C4 900000      R     MOV     DPTR,#gyroReportValue
00C7 E0                MOVX    A,@DPTR
00C8 FE                MOV     R6,A
00C9 A3                INC     DPTR
00CA E0                MOVX    A,@DPTR
00CB FF                MOV     R7,A
C51 COMPILER V9.51   MAIN                                                                  01/05/2014 02:29:28 PAGE 26  

                                           ; SOURCE LINE # 441
00CC         ?C0037:
00CC 22                RET     
             ; FUNCTION scaleAndMapGyro (END)

             ; FUNCTION findIfStatic (BEGIN)
                                           ; SOURCE LINE # 444
                                           ; SOURCE LINE # 445
                                           ; SOURCE LINE # 446
0000 900000      R     MOV     DPTR,#staticCounter
0003 E4                CLR     A
0004 F0                MOVX    @DPTR,A
                                           ; SOURCE LINE # 447
0005 900000      R     MOV     DPTR,#diff
0008 E4                CLR     A
0009 F0                MOVX    @DPTR,A
000A A3                INC     DPTR
000B E4                CLR     A
000C F0                MOVX    @DPTR,A
                                           ; SOURCE LINE # 449
000D 900000      R     MOV     DPTR,#xFilteredAccelerationBuffer
0010 E0                MOVX    A,@DPTR
0011 FE                MOV     R6,A
0012 A3                INC     DPTR
0013 E0                MOVX    A,@DPTR
0014 FF                MOV     R7,A
0015 900000      R     MOV     DPTR,#xFilteredAccelerationBuffer+01EH
0018 E0                MOVX    A,@DPTR
0019 FC                MOV     R4,A
001A A3                INC     DPTR
001B E0                MOVX    A,@DPTR
001C FD                MOV     R5,A
001D C3                CLR     C
001E ED                MOV     A,R5
001F 9F                SUBB    A,R7
0020 FF                MOV     R7,A
0021 EC                MOV     A,R4
0022 9E                SUBB    A,R6
0023 FE                MOV     R6,A
0024 900000      R     MOV     DPTR,#diff
0027 EE                MOV     A,R6
0028 F0                MOVX    @DPTR,A
0029 A3                INC     DPTR
002A EF                MOV     A,R7
002B F0                MOVX    @DPTR,A
                                           ; SOURCE LINE # 450
002C 900000      R     MOV     DPTR,#diff
002F E0                MOVX    A,@DPTR
0030 FE                MOV     R6,A
0031 A3                INC     DPTR
0032 E0                MOVX    A,@DPTR
0033 FF                MOV     R7,A
0034 120000      E     LCALL   _abs
0037 900000      R     MOV     DPTR,#epsilon
003A E0                MOVX    A,@DPTR
003B FD                MOV     R5,A
003C 7C00              MOV     R4,#00H
003E C3                CLR     C
003F EF                MOV     A,R7
0040 9D                SUBB    A,R5
0041 EC                MOV     A,R4
0042 6480              XRL     A,#080H
C51 COMPILER V9.51   MAIN                                                                  01/05/2014 02:29:28 PAGE 27  

0044 F8                MOV     R0,A
0045 EE                MOV     A,R6
0046 6480              XRL     A,#080H
0048 98                SUBB    A,R0
0049 5006              JNC     ?C0038
                                           ; SOURCE LINE # 451
                                           ; SOURCE LINE # 452
004B 900000      R     MOV     DPTR,#staticCounter
004E E0                MOVX    A,@DPTR
004F 04                INC     A
0050 F0                MOVX    @DPTR,A
                                           ; SOURCE LINE # 453
0051         ?C0038:
                                           ; SOURCE LINE # 455
0051 900000      R     MOV     DPTR,#xFilteredAccelerationBuffer+01EH
0054 E0                MOVX    A,@DPTR
0055 FE                MOV     R6,A
0056 A3                INC     DPTR
0057 E0                MOVX    A,@DPTR
0058 FF                MOV     R7,A
0059 900000      R     MOV     DPTR,#xFilteredAccelerationBuffer+03EH
005C E0                MOVX    A,@DPTR
005D FC                MOV     R4,A
005E A3                INC     DPTR
005F E0                MOVX    A,@DPTR
0060 FD                MOV     R5,A
0061 C3                CLR     C
0062 ED                MOV     A,R5
0063 9F                SUBB    A,R7
0064 FF                MOV     R7,A
0065 EC                MOV     A,R4
0066 9E                SUBB    A,R6
0067 FE                MOV     R6,A
0068 900000      R     MOV     DPTR,#diff
006B EE                MOV     A,R6
006C F0                MOVX    @DPTR,A
006D A3                INC     DPTR
006E EF                MOV     A,R7
006F F0                MOVX    @DPTR,A
                                           ; SOURCE LINE # 456
0070 900000      R     MOV     DPTR,#diff
0073 E0                MOVX    A,@DPTR
0074 FE                MOV     R6,A
0075 A3                INC     DPTR
0076 E0                MOVX    A,@DPTR
0077 FF                MOV     R7,A
0078 120000      E     LCALL   _abs
007B 900000      R     MOV     DPTR,#epsilon
007E E0                MOVX    A,@DPTR
007F FD                MOV     R5,A
0080 7C00              MOV     R4,#00H
0082 C3                CLR     C
0083 EF                MOV     A,R7
0084 9D                SUBB    A,R5
0085 EC                MOV     A,R4
0086 6480              XRL     A,#080H
0088 F8                MOV     R0,A
0089 EE                MOV     A,R6
008A 6480              XRL     A,#080H
008C 98                SUBB    A,R0
008D 5006              JNC     ?C0039
                                           ; SOURCE LINE # 457
C51 COMPILER V9.51   MAIN                                                                  01/05/2014 02:29:28 PAGE 28  

                                           ; SOURCE LINE # 458
008F 900000      R     MOV     DPTR,#staticCounter
0092 E0                MOVX    A,@DPTR
0093 04                INC     A
0094 F0                MOVX    @DPTR,A
                                           ; SOURCE LINE # 459
0095         ?C0039:
                                           ; SOURCE LINE # 461
0095 900000      R     MOV     DPTR,#xFilteredAccelerationBuffer+03EH
0098 E0                MOVX    A,@DPTR
0099 FE                MOV     R6,A
009A A3                INC     DPTR
009B E0                MOVX    A,@DPTR
009C FF                MOV     R7,A
009D 900000      R     MOV     DPTR,#xFilteredAccelerationBuffer+05EH
00A0 E0                MOVX    A,@DPTR
00A1 FC                MOV     R4,A
00A2 A3                INC     DPTR
00A3 E0                MOVX    A,@DPTR
00A4 FD                MOV     R5,A
00A5 C3                CLR     C
00A6 ED                MOV     A,R5
00A7 9F                SUBB    A,R7
00A8 FF                MOV     R7,A
00A9 EC                MOV     A,R4
00AA 9E                SUBB    A,R6
00AB FE                MOV     R6,A
00AC 900000      R     MOV     DPTR,#diff
00AF EE                MOV     A,R6
00B0 F0                MOVX    @DPTR,A
00B1 A3                INC     DPTR
00B2 EF                MOV     A,R7
00B3 F0                MOVX    @DPTR,A
                                           ; SOURCE LINE # 462
00B4 900000      R     MOV     DPTR,#diff
00B7 E0                MOVX    A,@DPTR
00B8 FE                MOV     R6,A
00B9 A3                INC     DPTR
00BA E0                MOVX    A,@DPTR
00BB FF                MOV     R7,A
00BC 120000      E     LCALL   _abs
00BF 900000      R     MOV     DPTR,#epsilon
00C2 E0                MOVX    A,@DPTR
00C3 FD                MOV     R5,A
00C4 7C00              MOV     R4,#00H
00C6 C3                CLR     C
00C7 EF                MOV     A,R7
00C8 9D                SUBB    A,R5
00C9 EC                MOV     A,R4
00CA 6480              XRL     A,#080H
00CC F8                MOV     R0,A
00CD EE                MOV     A,R6
00CE 6480              XRL     A,#080H
00D0 98                SUBB    A,R0
00D1 5006              JNC     ?C0040
                                           ; SOURCE LINE # 463
                                           ; SOURCE LINE # 464
00D3 900000      R     MOV     DPTR,#staticCounter
00D6 E0                MOVX    A,@DPTR
00D7 04                INC     A
00D8 F0                MOVX    @DPTR,A
                                           ; SOURCE LINE # 465
C51 COMPILER V9.51   MAIN                                                                  01/05/2014 02:29:28 PAGE 29  

00D9         ?C0040:
                                           ; SOURCE LINE # 467
00D9 900000      R     MOV     DPTR,#xFilteredAccelerationBuffer+05EH
00DC E0                MOVX    A,@DPTR
00DD FE                MOV     R6,A
00DE A3                INC     DPTR
00DF E0                MOVX    A,@DPTR
00E0 FF                MOV     R7,A
00E1 900000      R     MOV     DPTR,#xFilteredAccelerationBuffer+07EH
00E4 E0                MOVX    A,@DPTR
00E5 FC                MOV     R4,A
00E6 A3                INC     DPTR
00E7 E0                MOVX    A,@DPTR
00E8 FD                MOV     R5,A
00E9 C3                CLR     C
00EA ED                MOV     A,R5
00EB 9F                SUBB    A,R7
00EC FF                MOV     R7,A
00ED EC                MOV     A,R4
00EE 9E                SUBB    A,R6
00EF FE                MOV     R6,A
00F0 900000      R     MOV     DPTR,#diff
00F3 EE                MOV     A,R6
00F4 F0                MOVX    @DPTR,A
00F5 A3                INC     DPTR
00F6 EF                MOV     A,R7
00F7 F0                MOVX    @DPTR,A
                                           ; SOURCE LINE # 468
00F8 900000      R     MOV     DPTR,#diff
00FB E0                MOVX    A,@DPTR
00FC FE                MOV     R6,A
00FD A3                INC     DPTR
00FE E0                MOVX    A,@DPTR
00FF FF                MOV     R7,A
0100 120000      E     LCALL   _abs
0103 900000      R     MOV     DPTR,#epsilon
0106 E0                MOVX    A,@DPTR
0107 FD                MOV     R5,A
0108 7C00              MOV     R4,#00H
010A C3                CLR     C
010B EF                MOV     A,R7
010C 9D                SUBB    A,R5
010D EC                MOV     A,R4
010E 6480              XRL     A,#080H
0110 F8                MOV     R0,A
0111 EE                MOV     A,R6
0112 6480              XRL     A,#080H
0114 98                SUBB    A,R0
0115 5006              JNC     ?C0041
                                           ; SOURCE LINE # 469
                                           ; SOURCE LINE # 470
0117 900000      R     MOV     DPTR,#staticCounter
011A E0                MOVX    A,@DPTR
011B 04                INC     A
011C F0                MOVX    @DPTR,A
                                           ; SOURCE LINE # 471
011D         ?C0041:
                                           ; SOURCE LINE # 497
011D 900000      R     MOV     DPTR,#staticCounter
0120 E0                MOVX    A,@DPTR
0121 FF                MOV     R7,A
0122 EF                MOV     A,R7
C51 COMPILER V9.51   MAIN                                                                  01/05/2014 02:29:28 PAGE 30  

0123 B40407            CJNE    A,#04H,?C0042
                                           ; SOURCE LINE # 498
                                           ; SOURCE LINE # 499
0126 900000      R     MOV     DPTR,#isStatic
0129 7401              MOV     A,#01H
012B F0                MOVX    @DPTR,A
                                           ; SOURCE LINE # 500
012C 22                RET     
012D         ?C0042:
                                           ; SOURCE LINE # 503
                                           ; SOURCE LINE # 504
012D 900000      R     MOV     DPTR,#isStatic
0130 E4                CLR     A
0131 F0                MOVX    @DPTR,A
                                           ; SOURCE LINE # 505
                                           ; SOURCE LINE # 508
0132         ?C0044:
0132 22                RET     
             ; FUNCTION findIfStatic (END)

             ; FUNCTION performFiltering (BEGIN)
                                           ; SOURCE LINE # 511
                                           ; SOURCE LINE # 512
                                           ; SOURCE LINE # 514
0000 900000      R     MOV     DPTR,#temp
0003 E4                CLR     A
0004 F0                MOVX    @DPTR,A
0005 A3                INC     DPTR
0006 E4                CLR     A
0007 F0                MOVX    @DPTR,A
                                           ; SOURCE LINE # 518
0008 7F00              MOV     R7,#00H
000A 7E00              MOV     R6,#00H
000C 7D00              MOV     R5,#00H
000E 7C00              MOV     R4,#00H
0010 900000      R     MOV     DPTR,#xFiltered
0013 120000      E     LCALL   ?C?LSTXDATA
                                           ; SOURCE LINE # 519
0016 7F00              MOV     R7,#00H
0018 7E00              MOV     R6,#00H
001A 7D00              MOV     R5,#00H
001C 7C00              MOV     R4,#00H
001E 900000      R     MOV     DPTR,#yFiltered
0021 120000      E     LCALL   ?C?LSTXDATA
                                           ; SOURCE LINE # 520
0024 7F00              MOV     R7,#00H
0026 7E00              MOV     R6,#00H
0028 7D00              MOV     R5,#00H
002A 7C00              MOV     R4,#00H
002C 900000      R     MOV     DPTR,#zFiltered
002F 120000      E     LCALL   ?C?LSTXDATA
                                           ; SOURCE LINE # 521
0032 7F00              MOV     R7,#00H
0034 7E00              MOV     R6,#00H
0036 7D00              MOV     R5,#00H
0038 7C00              MOV     R4,#00H
003A 900000      R     MOV     DPTR,#gyroFiltered
003D 120000      E     LCALL   ?C?LSTXDATA
                                           ; SOURCE LINE # 523
0040 900000      R     MOV     DPTR,#i
0043 E4                CLR     A
0044 F0                MOVX    @DPTR,A
C51 COMPILER V9.51   MAIN                                                                  01/05/2014 02:29:28 PAGE 31  

0045         ?C0045:
0045 900000      R     MOV     DPTR,#i
0048 E0                MOVX    A,@DPTR
0049 FF                MOV     R7,A
004A C3                CLR     C
004B EF                MOV     A,R7
004C 6480              XRL     A,#080H
004E 94A0              SUBB    A,#0A0H
0050 4003              JC      $ + 5H
0052 020000      R     LJMP    ?C0046
                                           ; SOURCE LINE # 524
                                           ; SOURCE LINE # 525
0055 900000      R     MOV     DPTR,#xFiltered
0058 120000      E     LCALL   ?C?LLDXDATA
005B C004              PUSH    AR4
005D C005              PUSH    AR5
005F C006              PUSH    AR6
0061 C007              PUSH    AR7
0063 900000      R     MOV     DPTR,#i
0066 E0                MOVX    A,@DPTR
0067 FF                MOV     R7,A
0068 EF                MOV     A,R7
0069 33                RLC     A
006A 95E0              SUBB    A,ACC
006C FE                MOV     R6,A
006D EF                MOV     A,R7
006E 7803              MOV     R0,#03H
0070         ?C0076:
0070 C3                CLR     C
0071 33                RLC     A
0072 CE                XCH     A,R6
0073 33                RLC     A
0074 CE                XCH     A,R6
0075 D8F9              DJNZ    R0,?C0076
0077 FF                MOV     R7,A
0078 7400        R     MOV     A,#LOW ADC_Samples
007A 2F                ADD     A,R7
007B F582              MOV     DPL,A
007D 7400        R     MOV     A,#HIGH ADC_Samples
007F 3E                ADDC    A,R6
0080 F583              MOV     DPH,A
0082 E0                MOVX    A,@DPTR
0083 FE                MOV     R6,A
0084 A3                INC     DPTR
0085 E0                MOVX    A,@DPTR
0086 FF                MOV     R7,A
0087 AB07              MOV     R3,AR7
0089 AA06              MOV     R2,AR6
008B E4                CLR     A
008C F9                MOV     R1,A
008D F8                MOV     R0,A
008E D007              POP     AR7
0090 D006              POP     AR6
0092 D005              POP     AR5
0094 D004              POP     AR4
0096 120000      E     LCALL   ?C?LADD
0099 900000      R     MOV     DPTR,#xFiltered
009C 120000      E     LCALL   ?C?LSTXDATA
                                           ; SOURCE LINE # 526
009F 900000      R     MOV     DPTR,#yFiltered
00A2 120000      E     LCALL   ?C?LLDXDATA
00A5 C004              PUSH    AR4
C51 COMPILER V9.51   MAIN                                                                  01/05/2014 02:29:28 PAGE 32  

00A7 C005              PUSH    AR5
00A9 C006              PUSH    AR6
00AB C007              PUSH    AR7
00AD 900000      R     MOV     DPTR,#i
00B0 E0                MOVX    A,@DPTR
00B1 FF                MOV     R7,A
00B2 EF                MOV     A,R7
00B3 33                RLC     A
00B4 95E0              SUBB    A,ACC
00B6 FE                MOV     R6,A
00B7 EF                MOV     A,R7
00B8 7803              MOV     R0,#03H
00BA         ?C0077:
00BA C3                CLR     C
00BB 33                RLC     A
00BC CE                XCH     A,R6
00BD 33                RLC     A
00BE CE                XCH     A,R6
00BF D8F9              DJNZ    R0,?C0077
00C1 FF                MOV     R7,A
00C2 7400        R     MOV     A,#LOW ADC_Samples+02H
00C4 2F                ADD     A,R7
00C5 F582              MOV     DPL,A
00C7 7400        R     MOV     A,#HIGH ADC_Samples+02H
00C9 3E                ADDC    A,R6
00CA F583              MOV     DPH,A
00CC E0                MOVX    A,@DPTR
00CD FE                MOV     R6,A
00CE A3                INC     DPTR
00CF E0                MOVX    A,@DPTR
00D0 FF                MOV     R7,A
00D1 AB07              MOV     R3,AR7
00D3 AA06              MOV     R2,AR6
00D5 E4                CLR     A
00D6 F9                MOV     R1,A
00D7 F8                MOV     R0,A
00D8 D007              POP     AR7
00DA D006              POP     AR6
00DC D005              POP     AR5
00DE D004              POP     AR4
00E0 120000      E     LCALL   ?C?LADD
00E3 900000      R     MOV     DPTR,#yFiltered
00E6 120000      E     LCALL   ?C?LSTXDATA
                                           ; SOURCE LINE # 527
00E9 900000      R     MOV     DPTR,#zFiltered
00EC 120000      E     LCALL   ?C?LLDXDATA
00EF C004              PUSH    AR4
00F1 C005              PUSH    AR5
00F3 C006              PUSH    AR6
00F5 C007              PUSH    AR7
00F7 900000      R     MOV     DPTR,#i
00FA E0                MOVX    A,@DPTR
00FB FF                MOV     R7,A
00FC EF                MOV     A,R7
00FD 33                RLC     A
00FE 95E0              SUBB    A,ACC
0100 FE                MOV     R6,A
0101 EF                MOV     A,R7
0102 7803              MOV     R0,#03H
0104         ?C0078:
0104 C3                CLR     C
0105 33                RLC     A
C51 COMPILER V9.51   MAIN                                                                  01/05/2014 02:29:28 PAGE 33  

0106 CE                XCH     A,R6
0107 33                RLC     A
0108 CE                XCH     A,R6
0109 D8F9              DJNZ    R0,?C0078
010B FF                MOV     R7,A
010C 7400        R     MOV     A,#LOW ADC_Samples+04H
010E 2F                ADD     A,R7
010F F582              MOV     DPL,A
0111 7400        R     MOV     A,#HIGH ADC_Samples+04H
0113 3E                ADDC    A,R6
0114 F583              MOV     DPH,A
0116 E0                MOVX    A,@DPTR
0117 FE                MOV     R6,A
0118 A3                INC     DPTR
0119 E0                MOVX    A,@DPTR
011A FF                MOV     R7,A
011B AB07              MOV     R3,AR7
011D AA06              MOV     R2,AR6
011F E4                CLR     A
0120 F9                MOV     R1,A
0121 F8                MOV     R0,A
0122 D007              POP     AR7
0124 D006              POP     AR6
0126 D005              POP     AR5
0128 D004              POP     AR4
012A 120000      E     LCALL   ?C?LADD
012D 900000      R     MOV     DPTR,#zFiltered
0130 120000      E     LCALL   ?C?LSTXDATA
                                           ; SOURCE LINE # 528
0133 900000      R     MOV     DPTR,#gyroFiltered
0136 120000      E     LCALL   ?C?LLDXDATA
0139 C004              PUSH    AR4
013B C005              PUSH    AR5
013D C006              PUSH    AR6
013F C007              PUSH    AR7
0141 900000      R     MOV     DPTR,#i
0144 E0                MOVX    A,@DPTR
0145 FF                MOV     R7,A
0146 EF                MOV     A,R7
0147 33                RLC     A
0148 95E0              SUBB    A,ACC
014A FE                MOV     R6,A
014B EF                MOV     A,R7
014C 7803              MOV     R0,#03H
014E         ?C0079:
014E C3                CLR     C
014F 33                RLC     A
0150 CE                XCH     A,R6
0151 33                RLC     A
0152 CE                XCH     A,R6
0153 D8F9              DJNZ    R0,?C0079
0155 FF                MOV     R7,A
0156 7400        R     MOV     A,#LOW ADC_Samples+06H
0158 2F                ADD     A,R7
0159 F582              MOV     DPL,A
015B 7400        R     MOV     A,#HIGH ADC_Samples+06H
015D 3E                ADDC    A,R6
015E F583              MOV     DPH,A
0160 E0                MOVX    A,@DPTR
0161 FE                MOV     R6,A
0162 A3                INC     DPTR
0163 E0                MOVX    A,@DPTR
C51 COMPILER V9.51   MAIN                                                                  01/05/2014 02:29:28 PAGE 34  

0164 FF                MOV     R7,A
0165 AB07              MOV     R3,AR7
0167 AA06              MOV     R2,AR6
0169 E4                CLR     A
016A F9                MOV     R1,A
016B F8                MOV     R0,A
016C D007              POP     AR7
016E D006              POP     AR6
0170 D005              POP     AR5
0172 D004              POP     AR4
0174 120000      E     LCALL   ?C?LADD
0177 900000      R     MOV     DPTR,#gyroFiltered
017A 120000      E     LCALL   ?C?LSTXDATA
                                           ; SOURCE LINE # 529
017D 900000      R     MOV     DPTR,#i
0180 E0                MOVX    A,@DPTR
0181 04                INC     A
0182 F0                MOVX    @DPTR,A
0183 020000      R     LJMP    ?C0045
0186         ?C0046:
                                           ; SOURCE LINE # 531
0186 900000      R     MOV     DPTR,#newestAdcSampleIndex
0189 E0                MOVX    A,@DPTR
018A 04                INC     A
018B F0                MOVX    @DPTR,A
                                           ; SOURCE LINE # 532
018C 900000      R     MOV     DPTR,#newestAdcSampleIndex
018F E0                MOVX    A,@DPTR
0190 FF                MOV     R7,A
0191 EF                MOV     A,R7
0192 541F              ANL     A,#01FH
0194 FF                MOV     R7,A
0195 900000      R     MOV     DPTR,#newestAdcSampleIndex
0198 EF                MOV     A,R7
0199 F0                MOVX    @DPTR,A
                                           ; SOURCE LINE # 534
019A 900000      R     MOV     DPTR,#oldestAdcSampleIndex
019D E0                MOVX    A,@DPTR
019E 04                INC     A
019F F0                MOVX    @DPTR,A
                                           ; SOURCE LINE # 535
01A0 900000      R     MOV     DPTR,#oldestAdcSampleIndex
01A3 E0                MOVX    A,@DPTR
01A4 FF                MOV     R7,A
01A5 EF                MOV     A,R7
01A6 541F              ANL     A,#01FH
01A8 FF                MOV     R7,A
01A9 900000      R     MOV     DPTR,#oldestAdcSampleIndex
01AC EF                MOV     A,R7
01AD F0                MOVX    @DPTR,A
                                           ; SOURCE LINE # 554
01AE 900000      R     MOV     DPTR,#xFiltered
01B1 120000      E     LCALL   ?C?LLDXDATA
01B4 7805              MOV     R0,#05H
01B6 120000      E     LCALL   ?C?ULSHR
01B9 900000      R     MOV     DPTR,#newestFilteredDataIndex
01BC E0                MOVX    A,@DPTR
01BD FD                MOV     R5,A
01BE ED                MOV     A,R5
01BF 25E0              ADD     A,ACC
01C1 2400        R     ADD     A,#LOW xFilteredAccelerationBuffer
01C3 F582              MOV     DPL,A
C51 COMPILER V9.51   MAIN                                                                  01/05/2014 02:29:28 PAGE 35  

01C5 E4                CLR     A
01C6 3400        R     ADDC    A,#HIGH xFilteredAccelerationBuffer
01C8 F583              MOV     DPH,A
01CA EE                MOV     A,R6
01CB F0                MOVX    @DPTR,A
01CC A3                INC     DPTR
01CD EF                MOV     A,R7
01CE F0                MOVX    @DPTR,A
                                           ; SOURCE LINE # 560
01CF 900000      R     MOV     DPTR,#yFiltered
01D2 120000      E     LCALL   ?C?LLDXDATA
01D5 7805              MOV     R0,#05H
01D7 120000      E     LCALL   ?C?ULSHR
01DA 900000      R     MOV     DPTR,#newestFilteredDataIndex
01DD E0                MOVX    A,@DPTR
01DE FD                MOV     R5,A
01DF ED                MOV     A,R5
01E0 25E0              ADD     A,ACC
01E2 2400        R     ADD     A,#LOW yFilteredAccelerationBuffer
01E4 F582              MOV     DPL,A
01E6 E4                CLR     A
01E7 3400        R     ADDC    A,#HIGH yFilteredAccelerationBuffer
01E9 F583              MOV     DPH,A
01EB EE                MOV     A,R6
01EC F0                MOVX    @DPTR,A
01ED A3                INC     DPTR
01EE EF                MOV     A,R7
01EF F0                MOVX    @DPTR,A
                                           ; SOURCE LINE # 566
01F0 900000      R     MOV     DPTR,#zFiltered
01F3 120000      E     LCALL   ?C?LLDXDATA
01F6 7805              MOV     R0,#05H
01F8 120000      E     LCALL   ?C?ULSHR
01FB 900000      R     MOV     DPTR,#newestFilteredDataIndex
01FE E0                MOVX    A,@DPTR
01FF FD                MOV     R5,A
0200 ED                MOV     A,R5
0201 25E0              ADD     A,ACC
0203 2400        R     ADD     A,#LOW zFilteredAccelerationBuffer
0205 F582              MOV     DPL,A
0207 E4                CLR     A
0208 3400        R     ADDC    A,#HIGH zFilteredAccelerationBuffer
020A F583              MOV     DPH,A
020C EE                MOV     A,R6
020D F0                MOVX    @DPTR,A
020E A3                INC     DPTR
020F EF                MOV     A,R7
0210 F0                MOVX    @DPTR,A
                                           ; SOURCE LINE # 572
0211 900000      R     MOV     DPTR,#gyroFiltered
0214 120000      E     LCALL   ?C?LLDXDATA
0217 7805              MOV     R0,#05H
0219 120000      E     LCALL   ?C?ULSHR
021C 900000      R     MOV     DPTR,#newestFilteredDataIndex
021F E0                MOVX    A,@DPTR
0220 FD                MOV     R5,A
0221 ED                MOV     A,R5
0222 25E0              ADD     A,ACC
0224 2400        R     ADD     A,#LOW gyroFilteredBuffer
0226 F582              MOV     DPL,A
0228 E4                CLR     A
0229 3400        R     ADDC    A,#HIGH gyroFilteredBuffer
C51 COMPILER V9.51   MAIN                                                                  01/05/2014 02:29:28 PAGE 36  

022B F583              MOV     DPH,A
022D EE                MOV     A,R6
022E F0                MOVX    @DPTR,A
022F A3                INC     DPTR
0230 EF                MOV     A,R7
0231 F0                MOVX    @DPTR,A
                                           ; SOURCE LINE # 588
0232 900000      R     MOV     DPTR,#newestFilteredDataIndex
0235 E0                MOVX    A,@DPTR
0236 04                INC     A
0237 F0                MOVX    @DPTR,A
                                           ; SOURCE LINE # 589
0238 900000      R     MOV     DPTR,#newestFilteredDataIndex
023B E0                MOVX    A,@DPTR
023C FF                MOV     R7,A
023D EF                MOV     A,R7
023E 543F              ANL     A,#03FH
0240 FF                MOV     R7,A
0241 900000      R     MOV     DPTR,#newestFilteredDataIndex
0244 EF                MOV     A,R7
0245 F0                MOVX    @DPTR,A
                                           ; SOURCE LINE # 591
0246 900000      R     MOV     DPTR,#oldestFilteredDataIndex
0249 E0                MOVX    A,@DPTR
024A 04                INC     A
024B F0                MOVX    @DPTR,A
                                           ; SOURCE LINE # 592
024C 900000      R     MOV     DPTR,#oldestFilteredDataIndex
024F E0                MOVX    A,@DPTR
0250 FF                MOV     R7,A
0251 EF                MOV     A,R7
0252 543F              ANL     A,#03FH
0254 FF                MOV     R7,A
0255 900000      R     MOV     DPTR,#oldestFilteredDataIndex
0258 EF                MOV     A,R7
0259 F0                MOVX    @DPTR,A
                                           ; SOURCE LINE # 594
025A 22                RET     
             ; FUNCTION performFiltering (END)

             ; FUNCTION applyHighPassFilter (BEGIN)
                                           ; SOURCE LINE # 596
                                           ; SOURCE LINE # 597
                                           ; SOURCE LINE # 600
0000 900000      R     MOV     DPTR,#k
0003 E4                CLR     A
0004 F0                MOVX    @DPTR,A
0005 A3                INC     DPTR
0006 7401              MOV     A,#01H
0008 F0                MOVX    @DPTR,A
0009         ?C0049:
0009 900000      R     MOV     DPTR,#k
000C E0                MOVX    A,@DPTR
000D FE                MOV     R6,A
000E A3                INC     DPTR
000F E0                MOVX    A,@DPTR
0010 FF                MOV     R7,A
0011 C3                CLR     C
0012 EF                MOV     A,R7
0013 943F              SUBB    A,#03FH
0015 EE                MOV     A,R6
0016 6480              XRL     A,#080H
C51 COMPILER V9.51   MAIN                                                                  01/05/2014 02:29:28 PAGE 37  

0018 9480              SUBB    A,#080H
001A 4003              JC      $ + 5H
001C 020000      R     LJMP    ?C0052
                                           ; SOURCE LINE # 601
                                           ; SOURCE LINE # 602
001F 900000      R     MOV     DPTR,#k
0022 E0                MOVX    A,@DPTR
0023 FE                MOV     R6,A
0024 A3                INC     DPTR
0025 E0                MOVX    A,@DPTR
0026 FF                MOV     R7,A
0027 EF                MOV     A,R7
0028 25E0              ADD     A,ACC
002A FF                MOV     R7,A
002B EE                MOV     A,R6
002C 33                RLC     A
002D FE                MOV     R6,A
002E 7400        R     MOV     A,#LOW gyroFilteredBuffer+0FFFEH
0030 2F                ADD     A,R7
0031 F582              MOV     DPL,A
0033 7400        R     MOV     A,#HIGH gyroFilteredBuffer+0FFFEH
0035 3E                ADDC    A,R6
0036 F583              MOV     DPH,A
0038 E0                MOVX    A,@DPTR
0039 FC                MOV     R4,A
003A A3                INC     DPTR
003B E0                MOVX    A,@DPTR
003C FD                MOV     R5,A
003D 900000      R     MOV     DPTR,#k
0040 E0                MOVX    A,@DPTR
0041 FE                MOV     R6,A
0042 A3                INC     DPTR
0043 E0                MOVX    A,@DPTR
0044 FF                MOV     R7,A
0045 EF                MOV     A,R7
0046 25E0              ADD     A,ACC
0048 FF                MOV     R7,A
0049 EE                MOV     A,R6
004A 33                RLC     A
004B FE                MOV     R6,A
004C 7400        R     MOV     A,#LOW gyroFilteredBuffer
004E 2F                ADD     A,R7
004F F582              MOV     DPL,A
0051 7400        R     MOV     A,#HIGH gyroFilteredBuffer
0053 3E                ADDC    A,R6
0054 F583              MOV     DPH,A
0056 E0                MOVX    A,@DPTR
0057 FE                MOV     R6,A
0058 A3                INC     DPTR
0059 E0                MOVX    A,@DPTR
005A FF                MOV     R7,A
005B C3                CLR     C
005C EF                MOV     A,R7
005D 9D                SUBB    A,R5
005E FB                MOV     R3,A
005F EE                MOV     A,R6
0060 9C                SUBB    A,R4
0061 FA                MOV     R2,A
0062 900000      R     MOV     DPTR,#k
0065 E0                MOVX    A,@DPTR
0066 FE                MOV     R6,A
0067 A3                INC     DPTR
C51 COMPILER V9.51   MAIN                                                                  01/05/2014 02:29:28 PAGE 38  

0068 E0                MOVX    A,@DPTR
0069 FF                MOV     R7,A
006A EF                MOV     A,R7
006B 25E0              ADD     A,ACC
006D FF                MOV     R7,A
006E EE                MOV     A,R6
006F 33                RLC     A
0070 FE                MOV     R6,A
0071 7400        R     MOV     A,#LOW gyroFilteredBuffer+0FFFEH
0073 2F                ADD     A,R7
0074 F582              MOV     DPL,A
0076 7400        R     MOV     A,#HIGH gyroFilteredBuffer+0FFFEH
0078 3E                ADDC    A,R6
0079 F583              MOV     DPH,A
007B E0                MOVX    A,@DPTR
007C FE                MOV     R6,A
007D A3                INC     DPTR
007E E0                MOVX    A,@DPTR
007F FF                MOV     R7,A
0080 7C00              MOV     R4,#00H
0082 7D09              MOV     R5,#09H
0084 120000      E     LCALL   ?C?IMUL
0087 7C00              MOV     R4,#00H
0089 7D0A              MOV     R5,#0AH
008B 120000      E     LCALL   ?C?UIDIV
008E EF                MOV     A,R7
008F 2B                ADD     A,R3
0090 FD                MOV     R5,A
0091 EE                MOV     A,R6
0092 3A                ADDC    A,R2
0093 FC                MOV     R4,A
0094 900000      R     MOV     DPTR,#k
0097 E0                MOVX    A,@DPTR
0098 FE                MOV     R6,A
0099 A3                INC     DPTR
009A E0                MOVX    A,@DPTR
009B FF                MOV     R7,A
009C EF                MOV     A,R7
009D 25E0              ADD     A,ACC
009F FF                MOV     R7,A
00A0 EE                MOV     A,R6
00A1 33                RLC     A
00A2 FE                MOV     R6,A
00A3 7400        R     MOV     A,#LOW gyroFilteredBuffer
00A5 2F                ADD     A,R7
00A6 F582              MOV     DPL,A
00A8 7400        R     MOV     A,#HIGH gyroFilteredBuffer
00AA 3E                ADDC    A,R6
00AB F583              MOV     DPH,A
00AD EC                MOV     A,R4
00AE F0                MOVX    @DPTR,A
00AF A3                INC     DPTR
00B0 ED                MOV     A,R5
00B1 F0                MOVX    @DPTR,A
                                           ; SOURCE LINE # 603
00B2 900000      R     MOV     DPTR,#k
00B5 E4                CLR     A
00B6 75F001            MOV     B,#01H
00B9 120000      E     LCALL   ?C?IILDX
00BC 020000      R     LJMP    ?C0049
                                           ; SOURCE LINE # 604
00BF         ?C0052:
C51 COMPILER V9.51   MAIN                                                                  01/05/2014 02:29:28 PAGE 39  

00BF 22                RET     
             ; FUNCTION applyHighPassFilter (END)

             ; FUNCTION performInitialFiltering (BEGIN)
                                           ; SOURCE LINE # 606
                                           ; SOURCE LINE # 607
                                           ; SOURCE LINE # 608
0000 900000      R     MOV     DPTR,#sampleCount
0003 E4                CLR     A
0004 F0                MOVX    @DPTR,A
                                           ; SOURCE LINE # 609
0005 7F00              MOV     R7,#00H
0007 120000      E     LCALL   _Control_Reg_PWM_Reset_Write
                                           ; SOURCE LINE # 610
000A 120000      E     LCALL   PWM_ADC_Sampler_Start
000D         ?C0053:
                                           ; SOURCE LINE # 613
000D 900000      R     MOV     DPTR,#sampleCount
0010 E0                MOVX    A,@DPTR
0011 FF                MOV     R7,A
0012 EF                MOV     A,R7
0013 C3                CLR     C
0014 9440              SUBB    A,#040H
0016 4003              JC      $ + 5H
0018 020000      R     LJMP    ?C0057
                                           ; SOURCE LINE # 614
                                           ; SOURCE LINE # 617
001B 900000      R     MOV     DPTR,#peformFilterFlag
001E E0                MOVX    A,@DPTR
001F FF                MOV     R7,A
0020 EF                MOV     A,R7
0021 B401E9            CJNE    A,#01H,?C0053
                                           ; SOURCE LINE # 618
                                           ; SOURCE LINE # 620
0024 120000      R     LCALL   computeDcOffset
                                           ; SOURCE LINE # 621
0027 900000      R     MOV     DPTR,#peformFilterFlag
002A E4                CLR     A
002B F0                MOVX    @DPTR,A
                                           ; SOURCE LINE # 622
002C 120000      E     LCALL   isr_triggerFiltering_ClearPending
                                           ; SOURCE LINE # 623
002F 900000      R     MOV     DPTR,#sampleCount
0032 E0                MOVX    A,@DPTR
0033 04                INC     A
0034 F0                MOVX    @DPTR,A
                                           ; SOURCE LINE # 625
0035 900000      R     MOV     DPTR,#sampleCount
0038 E0                MOVX    A,@DPTR
0039 FF                MOV     R7,A
003A EF                MOV     A,R7
003B B43FCF            CJNE    A,#03FH,?C0053
                                           ; SOURCE LINE # 626
                                           ; SOURCE LINE # 627
003E 120000      E     LCALL   PWM_ADC_Sampler_Stop
                                           ; SOURCE LINE # 628
0041 7F01              MOV     R7,#01H
0043 120000      E     LCALL   _Control_Reg_PWM_Reset_Write
                                           ; SOURCE LINE # 629
0046 900000      R     MOV     DPTR,#newestAdcSampleIndex
0049 741F              MOV     A,#01FH
004B F0                MOVX    @DPTR,A
C51 COMPILER V9.51   MAIN                                                                  01/05/2014 02:29:28 PAGE 40  

                                           ; SOURCE LINE # 630
004C 900000      R     MOV     DPTR,#oldestAdcSampleIndex
004F E4                CLR     A
0050 F0                MOVX    @DPTR,A
                                           ; SOURCE LINE # 633
0051 900000      R     MOV     DPTR,#sampleCount
0054 E0                MOVX    A,@DPTR
0055 04                INC     A
0056 F0                MOVX    @DPTR,A
                                           ; SOURCE LINE # 635
0057 900000      R     MOV     DPTR,#xFiltered
005A 120000      E     LCALL   ?C?LLDXDATA
005D C004              PUSH    AR4
005F C005              PUSH    AR5
0061 C006              PUSH    AR6
0063 C007              PUSH    AR7
0065 900000      R     MOV     DPTR,#xDcOffset
0068 E0                MOVX    A,@DPTR
0069 FE                MOV     R6,A
006A A3                INC     DPTR
006B E0                MOVX    A,@DPTR
006C FF                MOV     R7,A
006D AB07              MOV     R3,AR7
006F AA06              MOV     R2,AR6
0071 E4                CLR     A
0072 F9                MOV     R1,A
0073 F8                MOV     R0,A
0074 D007              POP     AR7
0076 D006              POP     AR6
0078 D005              POP     AR5
007A D004              POP     AR4
007C 120000      E     LCALL   ?C?LSUB
007F 900000      R     MOV     DPTR,#xFiltered
0082 120000      E     LCALL   ?C?LSTXDATA
                                           ; SOURCE LINE # 636
0085 900000      R     MOV     DPTR,#yFiltered
0088 120000      E     LCALL   ?C?LLDXDATA
008B C004              PUSH    AR4
008D C005              PUSH    AR5
008F C006              PUSH    AR6
0091 C007              PUSH    AR7
0093 900000      R     MOV     DPTR,#yDcOffset
0096 E0                MOVX    A,@DPTR
0097 FE                MOV     R6,A
0098 A3                INC     DPTR
0099 E0                MOVX    A,@DPTR
009A FF                MOV     R7,A
009B AB07              MOV     R3,AR7
009D AA06              MOV     R2,AR6
009F E4                CLR     A
00A0 F9                MOV     R1,A
00A1 F8                MOV     R0,A
00A2 D007              POP     AR7
00A4 D006              POP     AR6
00A6 D005              POP     AR5
00A8 D004              POP     AR4
00AA 120000      E     LCALL   ?C?LSUB
00AD 900000      R     MOV     DPTR,#yFiltered
00B0 120000      E     LCALL   ?C?LSTXDATA
                                           ; SOURCE LINE # 637
00B3 900000      R     MOV     DPTR,#zFiltered
00B6 120000      E     LCALL   ?C?LLDXDATA
C51 COMPILER V9.51   MAIN                                                                  01/05/2014 02:29:28 PAGE 41  

00B9 C004              PUSH    AR4
00BB C005              PUSH    AR5
00BD C006              PUSH    AR6
00BF C007              PUSH    AR7
00C1 900000      R     MOV     DPTR,#zDcOffset
00C4 E0                MOVX    A,@DPTR
00C5 FE                MOV     R6,A
00C6 A3                INC     DPTR
00C7 E0                MOVX    A,@DPTR
00C8 FF                MOV     R7,A
00C9 AB07              MOV     R3,AR7
00CB AA06              MOV     R2,AR6
00CD E4                CLR     A
00CE F9                MOV     R1,A
00CF F8                MOV     R0,A
00D0 D007              POP     AR7
00D2 D006              POP     AR6
00D4 D005              POP     AR5
00D6 D004              POP     AR4
00D8 120000      E     LCALL   ?C?LSUB
00DB 900000      R     MOV     DPTR,#zFiltered
00DE 120000      E     LCALL   ?C?LSTXDATA
                                           ; SOURCE LINE # 638
00E1 900000      R     MOV     DPTR,#gyroFiltered
00E4 120000      E     LCALL   ?C?LLDXDATA
00E7 C004              PUSH    AR4
00E9 C005              PUSH    AR5
00EB C006              PUSH    AR6
00ED C007              PUSH    AR7
00EF 900000      R     MOV     DPTR,#gyroDcOffset
00F2 E0                MOVX    A,@DPTR
00F3 FE                MOV     R6,A
00F4 A3                INC     DPTR
00F5 E0                MOVX    A,@DPTR
00F6 FF                MOV     R7,A
00F7 AB07              MOV     R3,AR7
00F9 AA06              MOV     R2,AR6
00FB E4                CLR     A
00FC F9                MOV     R1,A
00FD F8                MOV     R0,A
00FE D007              POP     AR7
0100 D006              POP     AR6
0102 D005              POP     AR5
0104 D004              POP     AR4
0106 120000      E     LCALL   ?C?LSUB
0109 900000      R     MOV     DPTR,#gyroFiltered
010C 120000      E     LCALL   ?C?LSTXDATA
                                           ; SOURCE LINE # 640
                                           ; SOURCE LINE # 641
                                           ; SOURCE LINE # 643
010F 020000      R     LJMP    ?C0053
                                           ; SOURCE LINE # 644
0112         ?C0057:
0112 22                RET     
             ; FUNCTION performInitialFiltering (END)

             ; FUNCTION computeDcOffset (BEGIN)
                                           ; SOURCE LINE # 647
                                           ; SOURCE LINE # 648
                                           ; SOURCE LINE # 650
0000 900000      R     MOV     DPTR,#maxX
0003 E4                CLR     A
C51 COMPILER V9.51   MAIN                                                                  01/05/2014 02:29:28 PAGE 42  

0004 F0                MOVX    @DPTR,A
0005 A3                INC     DPTR
0006 E4                CLR     A
0007 F0                MOVX    @DPTR,A
                                           ; SOURCE LINE # 652
0008 7F00              MOV     R7,#00H
000A 7E00              MOV     R6,#00H
000C 7D00              MOV     R5,#00H
000E 7C00              MOV     R4,#00H
0010 900000      R     MOV     DPTR,#xFiltered
0013 120000      E     LCALL   ?C?LSTXDATA
                                           ; SOURCE LINE # 653
0016 7F00              MOV     R7,#00H
0018 7E00              MOV     R6,#00H
001A 7D00              MOV     R5,#00H
001C 7C00              MOV     R4,#00H
001E 900000      R     MOV     DPTR,#yFiltered
0021 120000      E     LCALL   ?C?LSTXDATA
                                           ; SOURCE LINE # 654
0024 7F00              MOV     R7,#00H
0026 7E00              MOV     R6,#00H
0028 7D00              MOV     R5,#00H
002A 7C00              MOV     R4,#00H
002C 900000      R     MOV     DPTR,#zFiltered
002F 120000      E     LCALL   ?C?LSTXDATA
                                           ; SOURCE LINE # 655
0032 7F00              MOV     R7,#00H
0034 7E00              MOV     R6,#00H
0036 7D00              MOV     R5,#00H
0038 7C00              MOV     R4,#00H
003A 900000      R     MOV     DPTR,#gyroFiltered
003D 120000      E     LCALL   ?C?LSTXDATA
                                           ; SOURCE LINE # 657
0040 900000      R     MOV     DPTR,#i
0043 E4                CLR     A
0044 F0                MOVX    @DPTR,A
0045 A3                INC     DPTR
0046 E4                CLR     A
0047 F0                MOVX    @DPTR,A
0048         ?C0058:
0048 900000      R     MOV     DPTR,#i
004B E0                MOVX    A,@DPTR
004C FE                MOV     R6,A
004D A3                INC     DPTR
004E E0                MOVX    A,@DPTR
004F FF                MOV     R7,A
0050 C3                CLR     C
0051 EF                MOV     A,R7
0052 9420              SUBB    A,#020H
0054 EE                MOV     A,R6
0055 6480              XRL     A,#080H
0057 9480              SUBB    A,#080H
0059 4003              JC      $ + 5H
005B 020000      R     LJMP    ?C0059
                                           ; SOURCE LINE # 658
                                           ; SOURCE LINE # 659
005E 900000      R     MOV     DPTR,#xFiltered
0061 120000      E     LCALL   ?C?LLDXDATA
0064 C004              PUSH    AR4
0066 C005              PUSH    AR5
0068 C006              PUSH    AR6
006A C007              PUSH    AR7
C51 COMPILER V9.51   MAIN                                                                  01/05/2014 02:29:28 PAGE 43  

006C 900000      R     MOV     DPTR,#i
006F E0                MOVX    A,@DPTR
0070 FE                MOV     R6,A
0071 A3                INC     DPTR
0072 E0                MOVX    A,@DPTR
0073 FF                MOV     R7,A
0074 EF                MOV     A,R7
0075 7803              MOV     R0,#03H
0077         ?C0080:
0077 C3                CLR     C
0078 33                RLC     A
0079 CE                XCH     A,R6
007A 33                RLC     A
007B CE                XCH     A,R6
007C D8F9              DJNZ    R0,?C0080
007E FF                MOV     R7,A
007F 7400        R     MOV     A,#LOW ADC_Samples
0081 2F                ADD     A,R7
0082 F582              MOV     DPL,A
0084 7400        R     MOV     A,#HIGH ADC_Samples
0086 3E                ADDC    A,R6
0087 F583              MOV     DPH,A
0089 E0                MOVX    A,@DPTR
008A FE                MOV     R6,A
008B A3                INC     DPTR
008C E0                MOVX    A,@DPTR
008D FF                MOV     R7,A
008E AB07              MOV     R3,AR7
0090 AA06              MOV     R2,AR6
0092 E4                CLR     A
0093 F9                MOV     R1,A
0094 F8                MOV     R0,A
0095 D007              POP     AR7
0097 D006              POP     AR6
0099 D005              POP     AR5
009B D004              POP     AR4
009D 120000      E     LCALL   ?C?LADD
00A0 900000      R     MOV     DPTR,#xFiltered
00A3 120000      E     LCALL   ?C?LSTXDATA
                                           ; SOURCE LINE # 660
00A6 900000      R     MOV     DPTR,#yFiltered
00A9 120000      E     LCALL   ?C?LLDXDATA
00AC C004              PUSH    AR4
00AE C005              PUSH    AR5
00B0 C006              PUSH    AR6
00B2 C007              PUSH    AR7
00B4 900000      R     MOV     DPTR,#i
00B7 E0                MOVX    A,@DPTR
00B8 FE                MOV     R6,A
00B9 A3                INC     DPTR
00BA E0                MOVX    A,@DPTR
00BB FF                MOV     R7,A
00BC EF                MOV     A,R7
00BD 7803              MOV     R0,#03H
00BF         ?C0081:
00BF C3                CLR     C
00C0 33                RLC     A
00C1 CE                XCH     A,R6
00C2 33                RLC     A
00C3 CE                XCH     A,R6
00C4 D8F9              DJNZ    R0,?C0081
00C6 FF                MOV     R7,A
C51 COMPILER V9.51   MAIN                                                                  01/05/2014 02:29:28 PAGE 44  

00C7 7400        R     MOV     A,#LOW ADC_Samples+02H
00C9 2F                ADD     A,R7
00CA F582              MOV     DPL,A
00CC 7400        R     MOV     A,#HIGH ADC_Samples+02H
00CE 3E                ADDC    A,R6
00CF F583              MOV     DPH,A
00D1 E0                MOVX    A,@DPTR
00D2 FE                MOV     R6,A
00D3 A3                INC     DPTR
00D4 E0                MOVX    A,@DPTR
00D5 FF                MOV     R7,A
00D6 AB07              MOV     R3,AR7
00D8 AA06              MOV     R2,AR6
00DA E4                CLR     A
00DB F9                MOV     R1,A
00DC F8                MOV     R0,A
00DD D007              POP     AR7
00DF D006              POP     AR6
00E1 D005              POP     AR5
00E3 D004              POP     AR4
00E5 120000      E     LCALL   ?C?LADD
00E8 900000      R     MOV     DPTR,#yFiltered
00EB 120000      E     LCALL   ?C?LSTXDATA
                                           ; SOURCE LINE # 661
00EE 900000      R     MOV     DPTR,#zFiltered
00F1 120000      E     LCALL   ?C?LLDXDATA
00F4 C004              PUSH    AR4
00F6 C005              PUSH    AR5
00F8 C006              PUSH    AR6
00FA C007              PUSH    AR7
00FC 900000      R     MOV     DPTR,#i
00FF E0                MOVX    A,@DPTR
0100 FE                MOV     R6,A
0101 A3                INC     DPTR
0102 E0                MOVX    A,@DPTR
0103 FF                MOV     R7,A
0104 EF                MOV     A,R7
0105 7803              MOV     R0,#03H
0107         ?C0082:
0107 C3                CLR     C
0108 33                RLC     A
0109 CE                XCH     A,R6
010A 33                RLC     A
010B CE                XCH     A,R6
010C D8F9              DJNZ    R0,?C0082
010E FF                MOV     R7,A
010F 7400        R     MOV     A,#LOW ADC_Samples+04H
0111 2F                ADD     A,R7
0112 F582              MOV     DPL,A
0114 7400        R     MOV     A,#HIGH ADC_Samples+04H
0116 3E                ADDC    A,R6
0117 F583              MOV     DPH,A
0119 E0                MOVX    A,@DPTR
011A FE                MOV     R6,A
011B A3                INC     DPTR
011C E0                MOVX    A,@DPTR
011D FF                MOV     R7,A
011E AB07              MOV     R3,AR7
0120 AA06              MOV     R2,AR6
0122 E4                CLR     A
0123 F9                MOV     R1,A
0124 F8                MOV     R0,A
C51 COMPILER V9.51   MAIN                                                                  01/05/2014 02:29:28 PAGE 45  

0125 D007              POP     AR7
0127 D006              POP     AR6
0129 D005              POP     AR5
012B D004              POP     AR4
012D 120000      E     LCALL   ?C?LADD
0130 900000      R     MOV     DPTR,#zFiltered
0133 120000      E     LCALL   ?C?LSTXDATA
                                           ; SOURCE LINE # 662
0136 900000      R     MOV     DPTR,#gyroFiltered
0139 120000      E     LCALL   ?C?LLDXDATA
013C C004              PUSH    AR4
013E C005              PUSH    AR5
0140 C006              PUSH    AR6
0142 C007              PUSH    AR7
0144 900000      R     MOV     DPTR,#i
0147 E0                MOVX    A,@DPTR
0148 FE                MOV     R6,A
0149 A3                INC     DPTR
014A E0                MOVX    A,@DPTR
014B FF                MOV     R7,A
014C EF                MOV     A,R7
014D 7803              MOV     R0,#03H
014F         ?C0083:
014F C3                CLR     C
0150 33                RLC     A
0151 CE                XCH     A,R6
0152 33                RLC     A
0153 CE                XCH     A,R6
0154 D8F9              DJNZ    R0,?C0083
0156 FF                MOV     R7,A
0157 7400        R     MOV     A,#LOW ADC_Samples+06H
0159 2F                ADD     A,R7
015A F582              MOV     DPL,A
015C 7400        R     MOV     A,#HIGH ADC_Samples+06H
015E 3E                ADDC    A,R6
015F F583              MOV     DPH,A
0161 E0                MOVX    A,@DPTR
0162 FE                MOV     R6,A
0163 A3                INC     DPTR
0164 E0                MOVX    A,@DPTR
0165 FF                MOV     R7,A
0166 AB07              MOV     R3,AR7
0168 AA06              MOV     R2,AR6
016A E4                CLR     A
016B F9                MOV     R1,A
016C F8                MOV     R0,A
016D D007              POP     AR7
016F D006              POP     AR6
0171 D005              POP     AR5
0173 D004              POP     AR4
0175 120000      E     LCALL   ?C?LADD
0178 900000      R     MOV     DPTR,#gyroFiltered
017B 120000      E     LCALL   ?C?LSTXDATA
                                           ; SOURCE LINE # 669
017E 900000      R     MOV     DPTR,#i
0181 E4                CLR     A
0182 75F001            MOV     B,#01H
0185 120000      E     LCALL   ?C?IILDX
0188 020000      R     LJMP    ?C0058
018B         ?C0059:
                                           ; SOURCE LINE # 671
018B 900000      R     MOV     DPTR,#xFiltered
C51 COMPILER V9.51   MAIN                                                                  01/05/2014 02:29:28 PAGE 46  

018E 120000      E     LCALL   ?C?LLDXDATA
0191 7805              MOV     R0,#05H
0193 120000      E     LCALL   ?C?ULSHR
0196 900000      R     MOV     DPTR,#xDcOffset
0199 EE                MOV     A,R6
019A F0                MOVX    @DPTR,A
019B A3                INC     DPTR
019C EF                MOV     A,R7
019D F0                MOVX    @DPTR,A
                                           ; SOURCE LINE # 672
019E 900000      R     MOV     DPTR,#yFiltered
01A1 120000      E     LCALL   ?C?LLDXDATA
01A4 7805              MOV     R0,#05H
01A6 120000      E     LCALL   ?C?ULSHR
01A9 900000      R     MOV     DPTR,#yDcOffset
01AC EE                MOV     A,R6
01AD F0                MOVX    @DPTR,A
01AE A3                INC     DPTR
01AF EF                MOV     A,R7
01B0 F0                MOVX    @DPTR,A
                                           ; SOURCE LINE # 673
01B1 900000      R     MOV     DPTR,#zFiltered
01B4 120000      E     LCALL   ?C?LLDXDATA
01B7 7805              MOV     R0,#05H
01B9 120000      E     LCALL   ?C?ULSHR
01BC 900000      R     MOV     DPTR,#zDcOffset
01BF EE                MOV     A,R6
01C0 F0                MOVX    @DPTR,A
01C1 A3                INC     DPTR
01C2 EF                MOV     A,R7
01C3 F0                MOVX    @DPTR,A
                                           ; SOURCE LINE # 674
01C4 900000      R     MOV     DPTR,#gyroFiltered
01C7 120000      E     LCALL   ?C?LLDXDATA
01CA 7805              MOV     R0,#05H
01CC 120000      E     LCALL   ?C?ULSHR
01CF 900000      R     MOV     DPTR,#gyroDcOffset
01D2 EE                MOV     A,R6
01D3 F0                MOVX    @DPTR,A
01D4 A3                INC     DPTR
01D5 EF                MOV     A,R7
01D6 F0                MOVX    @DPTR,A
                                           ; SOURCE LINE # 675
01D7 22                RET     
             ; FUNCTION computeDcOffset (END)

             ; FUNCTION squareMouse (BEGIN)
                                           ; SOURCE LINE # 678
                                           ; SOURCE LINE # 679
                                           ; SOURCE LINE # 681
0000 900000      R     MOV     DPTR,#myDelay
0003 E0                MOVX    A,@DPTR
0004 FE                MOV     R6,A
0005 A3                INC     DPTR
0006 E0                MOVX    A,@DPTR
0007 FF                MOV     R7,A
0008 EF                MOV     A,R7
0009 8EF0              MOV     B,R6
000B 120000      E     LCALL   ?C?ICASE
000E 0000        R     DW      ?C0063
0010 0080              DW      080H
0012 0000        R     DW      ?C0064
C51 COMPILER V9.51   MAIN                                                                  01/05/2014 02:29:28 PAGE 47  

0014 0100              DW      0100H
0016 0000        R     DW      ?C0065
0018 0180              DW      0180H
001A 0000        R     DW      ?C0066
001C 0200              DW      0200H
001E 0000              DW      00H
0020 0000        R     DW      ?C0062
                                           ; SOURCE LINE # 682
0022         ?C0063:
0022 900000      R     MOV     DPTR,#MouseData+01H
0025 7405              MOV     A,#05H
0027 F0                MOVX    @DPTR,A
                                           ; SOURCE LINE # 683
0028 900000      R     MOV     DPTR,#MouseData+02H
002B E4                CLR     A
002C F0                MOVX    @DPTR,A
                                           ; SOURCE LINE # 686
002D 7F00              MOV     R7,#00H
002F 120000      E     LCALL   _blink
                                           ; SOURCE LINE # 687
0032 803C              SJMP    ?C0062
                                           ; SOURCE LINE # 689
0034         ?C0064:
0034 900000      R     MOV     DPTR,#MouseData+01H
0037 E4                CLR     A
0038 F0                MOVX    @DPTR,A
                                           ; SOURCE LINE # 690
0039 900000      R     MOV     DPTR,#MouseData+02H
003C 7405              MOV     A,#05H
003E F0                MOVX    @DPTR,A
                                           ; SOURCE LINE # 693
003F 7F01              MOV     R7,#01H
0041 120000      E     LCALL   _blink
                                           ; SOURCE LINE # 694
0044 802A              SJMP    ?C0062
                                           ; SOURCE LINE # 696
0046         ?C0065:
0046 900000      R     MOV     DPTR,#MouseData+01H
0049 74FB              MOV     A,#0FBH
004B F0                MOVX    @DPTR,A
                                           ; SOURCE LINE # 697
004C 900000      R     MOV     DPTR,#MouseData+02H
004F E4                CLR     A
0050 F0                MOVX    @DPTR,A
                                           ; SOURCE LINE # 700
0051 7F02              MOV     R7,#02H
0053 120000      E     LCALL   _blink
                                           ; SOURCE LINE # 701
0056 8018              SJMP    ?C0062
                                           ; SOURCE LINE # 703
0058         ?C0066:
0058 900000      R     MOV     DPTR,#MouseData+01H
005B E4                CLR     A
005C F0                MOVX    @DPTR,A
                                           ; SOURCE LINE # 704
005D 900000      R     MOV     DPTR,#MouseData+02H
0060 74FB              MOV     A,#0FBH
0062 F0                MOVX    @DPTR,A
                                           ; SOURCE LINE # 707
0063 7F03              MOV     R7,#03H
0065 120000      E     LCALL   _blink
                                           ; SOURCE LINE # 708
C51 COMPILER V9.51   MAIN                                                                  01/05/2014 02:29:28 PAGE 48  

0068 900000      R     MOV     DPTR,#myDelay
006B E4                CLR     A
006C F0                MOVX    @DPTR,A
006D A3                INC     DPTR
006E E4                CLR     A
006F F0                MOVX    @DPTR,A
                                           ; SOURCE LINE # 709
                                           ; SOURCE LINE # 710
                                           ; SOURCE LINE # 711
0070         ?C0062:
                                           ; SOURCE LINE # 713
0070 900000      R     MOV     DPTR,#myDelay
0073 E4                CLR     A
0074 75F001            MOV     B,#01H
0077 120000      E     LCALL   ?C?IILDX
                                           ; SOURCE LINE # 715
007A 22                RET     
             ; FUNCTION squareMouse (END)

             ; FUNCTION _transmit (BEGIN)
                                           ; SOURCE LINE # 718
0000 900000      R     MOV     DPTR,#Data
0003 120000      E     LCALL   ?C?PSTXDATA
0006 900000      R     MOV     DPTR,#Data_Len
0009 EC                MOV     A,R4
000A F0                MOVX    @DPTR,A
000B A3                INC     DPTR
000C ED                MOV     A,R5
000D F0                MOVX    @DPTR,A
                                           ; SOURCE LINE # 719
                                           ; SOURCE LINE # 723
000E 900000      R     MOV     DPTR,#Data
0011 120000      E     LCALL   ?C?PLDXDATA
0014 900000      R     MOV     DPTR,#Data_Len
0017 E0                MOVX    A,@DPTR
0018 FC                MOV     R4,A
0019 A3                INC     DPTR
001A E0                MOVX    A,@DPTR
001B FD                MOV     R5,A
001C 120000      E     LCALL   _TX_PL_Write
                                           ; SOURCE LINE # 725
001F 120000      E     LCALL   CE_HIGH
                                           ; SOURCE LINE # 726
0022 120000      E     LCALL   CE_LOW
                                           ; SOURCE LINE # 728
0025 7DFF              MOV     R5,#0FFH
0027 7FFF              MOV     R7,#0FFH
0029 120000      E     LCALL   _SPI_Send_command_without_ADDR
002C 900000      R     MOV     DPTR,#status
002F EF                MOV     A,R7
0030 F0                MOVX    @DPTR,A
0031         ?C0069:
                                           ; SOURCE LINE # 729
0031 900000      R     MOV     DPTR,#status
0034 E0                MOVX    A,@DPTR
0035 FF                MOV     R7,A
0036 EF                MOV     A,R7
0037 20E53A            JB      ACC.5,?C0070
                                           ; SOURCE LINE # 730
003A 900000      R     MOV     DPTR,#status
003D E0                MOVX    A,@DPTR
003E FF                MOV     R7,A
C51 COMPILER V9.51   MAIN                                                                  01/05/2014 02:29:28 PAGE 49  

003F EF                MOV     A,R7
0040 30E423            JNB     ACC.4,?C0071
                                           ; SOURCE LINE # 733
0043 900000      R     MOV     DPTR,#status
0046 E0                MOVX    A,@DPTR
0047 FF                MOV     R7,A
0048 EF                MOV     A,R7
0049 4410              ORL     A,#010H
004B FB                MOV     R3,A
004C 7D07              MOV     R5,#07H
004E 7F01              MOV     R7,#01H
0050 120000      E     LCALL   _SPI_Send_command_with_ADDR
0053 900000      R     MOV     DPTR,#status_temp
0056 EF                MOV     A,R7
0057 F0                MOVX    @DPTR,A
                                           ; SOURCE LINE # 741
0058 7DFF              MOV     R5,#0FFH
005A 7FFF              MOV     R7,#0FFH
005C 120000      E     LCALL   _SPI_Send_command_without_ADDR
005F 900000      R     MOV     DPTR,#status
0062 EF                MOV     A,R7
0063 F0                MOVX    @DPTR,A
                                           ; SOURCE LINE # 742
0064 800E              SJMP    ?C0070
                                           ; SOURCE LINE # 743
0066         ?C0071:
                                           ; SOURCE LINE # 744
0066 7DFF              MOV     R5,#0FFH
0068 7FFF              MOV     R7,#0FFH
006A 120000      E     LCALL   _SPI_Send_command_without_ADDR
006D 900000      R     MOV     DPTR,#status
0070 EF                MOV     A,R7
0071 F0                MOVX    @DPTR,A
                                           ; SOURCE LINE # 745
0072 80BD              SJMP    ?C0069
0074         ?C0070:
                                           ; SOURCE LINE # 747
0074 900000      R     MOV     DPTR,#status
0077 E0                MOVX    A,@DPTR
0078 FF                MOV     R7,A
0079 EF                MOV     A,R7
007A 30E515            JNB     ACC.5,?C0072
                                           ; SOURCE LINE # 749
007D 900000      R     MOV     DPTR,#status
0080 E0                MOVX    A,@DPTR
0081 FF                MOV     R7,A
0082 EF                MOV     A,R7
0083 4420              ORL     A,#020H
0085 FB                MOV     R3,A
0086 7D07              MOV     R5,#07H
0088 7F01              MOV     R7,#01H
008A 120000      E     LCALL   _SPI_Send_command_with_ADDR
008D 900000      R     MOV     DPTR,#status_temp
0090 EF                MOV     A,R7
0091 F0                MOVX    @DPTR,A
                                           ; SOURCE LINE # 755
0092         ?C0072:
                                           ; SOURCE LINE # 757
0092 900000      R     MOV     DPTR,#status
0095 E0                MOVX    A,@DPTR
0096 FF                MOV     R7,A
0097 EF                MOV     A,R7
C51 COMPILER V9.51   MAIN                                                                  01/05/2014 02:29:28 PAGE 50  

0098 30E415            JNB     ACC.4,?C0073
                                           ; SOURCE LINE # 758
                                           ; SOURCE LINE # 760
009B 900000      R     MOV     DPTR,#status
009E E0                MOVX    A,@DPTR
009F FF                MOV     R7,A
00A0 EF                MOV     A,R7
00A1 4410              ORL     A,#010H
00A3 FB                MOV     R3,A
00A4 7D07              MOV     R5,#07H
00A6 7F01              MOV     R7,#01H
00A8 120000      E     LCALL   _SPI_Send_command_with_ADDR
00AB 900000      R     MOV     DPTR,#status_temp
00AE EF                MOV     A,R7
00AF F0                MOVX    @DPTR,A
                                           ; SOURCE LINE # 766
00B0         ?C0073:
                                           ; SOURCE LINE # 768
00B0 900000      R     MOV     DPTR,#status
00B3 E0                MOVX    A,@DPTR
00B4 FF                MOV     R7,A
00B5 EF                MOV     A,R7
00B6 30E00C            JNB     ACC.0,?C0074
                                           ; SOURCE LINE # 770
00B9 7DFF              MOV     R5,#0FFH
00BB 7FE1              MOV     R7,#0E1H
00BD 120000      E     LCALL   _SPI_Send_command_without_ADDR
00C0 900000      R     MOV     DPTR,#status_temp
00C3 EF                MOV     A,R7
00C4 F0                MOVX    @DPTR,A
                                           ; SOURCE LINE # 771
00C5         ?C0074:
                                           ; SOURCE LINE # 772
00C5 7DFF              MOV     R5,#0FFH
00C7 7FFF              MOV     R7,#0FFH
00C9 120000      E     LCALL   _SPI_Send_command_without_ADDR
00CC 900000      R     MOV     DPTR,#status
00CF EF                MOV     A,R7
00D0 F0                MOVX    @DPTR,A
                                           ; SOURCE LINE # 774
00D1 22                RET     
             ; FUNCTION _transmit (END)



MODULE INFORMATION:   STATIC OVERLAYABLE
   CODE SIZE        =   3125    ----
   CONSTANT SIZE    =      6    ----
   XDATA SIZE       =   1391      30
   PDATA SIZE       =   ----    ----
   DATA SIZE        =   ----    ----
   IDATA SIZE       =   ----    ----
   BIT SIZE         =   ----    ----
   EDATA SIZE       =   ----    ----
   HDATA SIZE       =   ----    ----
   XDATA CONST SIZE =   ----    ----
   FAR CONST SIZE   =   ----    ----
END OF MODULE INFORMATION.


C51 COMPILATION COMPLETE.  0 WARNING(S),  0 ERROR(S)
