C51 COMPILER V9.51   PWM_ADC_SAMPLER                                                       01/04/2014 15:52:44 PAGE 1   


C51 COMPILER V9.51, COMPILATION OF MODULE PWM_ADC_SAMPLER
OBJECT MODULE PLACED IN .\DP8051\DP8051_Keil_951\Debug\PWM_ADC_Sampler.obj
COMPILER INVOKED BY: C:\Program Files (x86)\Cypress\PSoC Creator\3.0\PSoC Creator\import\keil\pk51\9.51\C51\BIN\c51.exe 
                    -.\Generated_Source\PSoC3\PWM_ADC_Sampler.c NOIV LARGE MODDP2 OMF2 VB(1) PR(.\DP8051\DP8051_Keil_951\Debug\PWM_ADC_Sample
                    -r.lst) CD DB NOIP OT(2,SIZE) DF(DEBUG) INCDIR(.,.\Generated_Source\PSoC3) OJ(.\DP8051\DP8051_Keil_951\Debug\PWM_ADC_Samp
                    -ler.obj)

line level    source

   1          /*******************************************************************************
   2          * File Name: PWM_ADC_Sampler.c  
   3          * Version 3.0
   4          *
   5          * Description:
   6          *  The PWM User Module consist of an 8 or 16-bit counter with two 8 or 16-bit
   7          *  comparitors. Each instance of this user module is capable of generating
   8          *  two PWM outputs with the same period. The pulse width is selectable between
   9          *  1 and 255/65535. The period is selectable between 2 and 255/65536 clocks. 
  10          *  The compare value output may be configured to be active when the present 
  11          *  counter is less than or less than/equal to the compare value.
  12          *  A terminal count output is also provided. It generates a pulse one clock
  13          *  width wide when the counter is equal to zero.
  14          *
  15          * Note:
  16          *
  17          *******************************************************************************
  18          * Copyright 2008-2012, Cypress Semiconductor Corporation.  All rights reserved.
  19          * You may use this file only in accordance with the license, terms, conditions, 
  20          * disclaimers, and limitations in the end user license agreement accompanying 
  21          * the software package with which this file was provided.
  22          ********************************************************************************/
  23          
  24          #include "cytypes.h"
  25          #include "PWM_ADC_Sampler.h"
  26          
  27          uint8 PWM_ADC_Sampler_initVar = 0u;
  28          
  29          
  30          /*******************************************************************************
  31          * Function Name: PWM_ADC_Sampler_Start
  32          ********************************************************************************
  33          *
  34          * Summary:
  35          *  The start function initializes the pwm with the default values, the 
  36          *  enables the counter to begin counting.  It does not enable interrupts,
  37          *  the EnableInt command should be called if interrupt generation is required.
  38          *
  39          * Parameters:  
  40          *  None  
  41          *
  42          * Return: 
  43          *  None
  44          *
  45          * Global variables:
  46          *  PWM_ADC_Sampler_initVar: Is modified when this function is called for the 
  47          *   first time. Is used to ensure that initialization happens only once.
  48          *
  49          *******************************************************************************/
  50          void PWM_ADC_Sampler_Start(void) 
  51          {
  52   1          /* If not Initialized then initialize all required hardware and software */
C51 COMPILER V9.51   PWM_ADC_SAMPLER                                                       01/04/2014 15:52:44 PAGE 2   

  53   1          if(PWM_ADC_Sampler_initVar == 0u)
  54   1          {
  55   2              PWM_ADC_Sampler_Init();
  56   2              PWM_ADC_Sampler_initVar = 1u;
  57   2          }
  58   1          PWM_ADC_Sampler_Enable();
  59   1      
  60   1      }
  61          
  62          
  63          /*******************************************************************************
  64          * Function Name: PWM_ADC_Sampler_Init
  65          ********************************************************************************
  66          *
  67          * Summary:
  68          *  Initialize component's parameters to the parameters set by user in the 
  69          *  customizer of the component placed onto schematic. Usually called in 
  70          *  PWM_ADC_Sampler_Start().
  71          *
  72          * Parameters:  
  73          *  None
  74          *
  75          * Return: 
  76          *  None
  77          *
  78          *******************************************************************************/
  79          void PWM_ADC_Sampler_Init(void) 
  80          {
  81   1          #if (PWM_ADC_Sampler_UsingFixedFunction || PWM_ADC_Sampler_UseControl)
  82   1              uint8 ctrl;
  83   1          #endif /* (PWM_ADC_Sampler_UsingFixedFunction || PWM_ADC_Sampler_UseControl) */
  84   1          
  85   1          #if(!PWM_ADC_Sampler_UsingFixedFunction) 
  86   1              #if(PWM_ADC_Sampler_UseStatus)
  87   1                  /* Interrupt State Backup for Critical Region*/
  88   1                  uint8 PWM_ADC_Sampler_interruptState;
  89   1              #endif /* (PWM_ADC_Sampler_UseStatus) */
  90   1          #endif /* (!PWM_ADC_Sampler_UsingFixedFunction) */
  91   1          
  92   1          #if (PWM_ADC_Sampler_UsingFixedFunction)
                      /* You are allowed to write the compare value (FF only) */
                      PWM_ADC_Sampler_CONTROL |= PWM_ADC_Sampler_CFG0_MODE;
                      #if (PWM_ADC_Sampler_DeadBand2_4)
                          PWM_ADC_Sampler_CONTROL |= PWM_ADC_Sampler_CFG0_DB;
                      #endif /* (PWM_ADC_Sampler_DeadBand2_4) */
                              
                      ctrl = PWM_ADC_Sampler_CONTROL3 & ((uint8 )(~PWM_ADC_Sampler_CTRL_CMPMODE1_MASK));
                      PWM_ADC_Sampler_CONTROL3 = ctrl | PWM_ADC_Sampler_DEFAULT_COMPARE1_MODE;
                      
                       /* Clear and Set SYNCTC and SYNCCMP bits of RT1 register */
                      PWM_ADC_Sampler_RT1 &= ((uint8)(~PWM_ADC_Sampler_RT1_MASK));
                      PWM_ADC_Sampler_RT1 |= PWM_ADC_Sampler_SYNC;     
                              
                      /*Enable DSI Sync all all inputs of the PWM*/
                      PWM_ADC_Sampler_RT1 &= ((uint8)(~PWM_ADC_Sampler_SYNCDSI_MASK));
                      PWM_ADC_Sampler_RT1 |= PWM_ADC_Sampler_SYNCDSI_EN;
                     
                  #elif (PWM_ADC_Sampler_UseControl)
 111   1              /* Set the default compare mode defined in the parameter */
 112   1              ctrl = PWM_ADC_Sampler_CONTROL & ((uint8)(~PWM_ADC_Sampler_CTRL_CMPMODE2_MASK)) & ((uint8)(~PWM_AD
             -C_Sampler_CTRL_CMPMODE1_MASK));
 113   1              PWM_ADC_Sampler_CONTROL = ctrl | PWM_ADC_Sampler_DEFAULT_COMPARE2_MODE | 
C51 COMPILER V9.51   PWM_ADC_SAMPLER                                                       01/04/2014 15:52:44 PAGE 3   

 114   1                                         PWM_ADC_Sampler_DEFAULT_COMPARE1_MODE;
 115   1          #endif /* (PWM_ADC_Sampler_UsingFixedFunction) */
 116   1              
 117   1          #if (!PWM_ADC_Sampler_UsingFixedFunction)
 118   1              #if (PWM_ADC_Sampler_Resolution == 8)
                          /* Set FIFO 0 to 1 byte register for period*/
                          PWM_ADC_Sampler_AUX_CONTROLDP0 |= (PWM_ADC_Sampler_AUX_CTRL_FIFO0_CLR);
                      #else /* (PWM_ADC_Sampler_Resolution == 16)*/
 122   1                  /* Set FIFO 0 to 1 byte register for period */
 123   1                  PWM_ADC_Sampler_AUX_CONTROLDP0 |= (PWM_ADC_Sampler_AUX_CTRL_FIFO0_CLR);
 124   1                  PWM_ADC_Sampler_AUX_CONTROLDP1 |= (PWM_ADC_Sampler_AUX_CTRL_FIFO0_CLR);
 125   1              #endif /* (PWM_ADC_Sampler_Resolution == 8) */
 126   1      
 127   1              PWM_ADC_Sampler_WriteCounter(PWM_ADC_Sampler_INIT_PERIOD_VALUE);
 128   1          #endif /* (!PWM_ADC_Sampler_UsingFixedFunction) */
 129   1              
 130   1          PWM_ADC_Sampler_WritePeriod(PWM_ADC_Sampler_INIT_PERIOD_VALUE);
 131   1      
 132   1              #if (PWM_ADC_Sampler_UseOneCompareMode)
 133   1                  PWM_ADC_Sampler_WriteCompare(PWM_ADC_Sampler_INIT_COMPARE_VALUE1);
 134   1              #else
                          PWM_ADC_Sampler_WriteCompare1(PWM_ADC_Sampler_INIT_COMPARE_VALUE1);
                          PWM_ADC_Sampler_WriteCompare2(PWM_ADC_Sampler_INIT_COMPARE_VALUE2);
                      #endif /* (PWM_ADC_Sampler_UseOneCompareMode) */
 138   1              
 139   1              #if (PWM_ADC_Sampler_KillModeMinTime)
                          PWM_ADC_Sampler_WriteKillTime(PWM_ADC_Sampler_MinimumKillTime);
                      #endif /* (PWM_ADC_Sampler_KillModeMinTime) */
 142   1              
 143   1              #if (PWM_ADC_Sampler_DeadBandUsed)
                          PWM_ADC_Sampler_WriteDeadTime(PWM_ADC_Sampler_INIT_DEAD_TIME);
                      #endif /* (PWM_ADC_Sampler_DeadBandUsed) */
 146   1      
 147   1          #if (PWM_ADC_Sampler_UseStatus || PWM_ADC_Sampler_UsingFixedFunction)
 148   1              PWM_ADC_Sampler_SetInterruptMode(PWM_ADC_Sampler_INIT_INTERRUPTS_MODE);
 149   1          #endif /* (PWM_ADC_Sampler_UseStatus || PWM_ADC_Sampler_UsingFixedFunction) */
 150   1              
 151   1          #if (PWM_ADC_Sampler_UsingFixedFunction)
                      /* Globally Enable the Fixed Function Block chosen */
                      PWM_ADC_Sampler_GLOBAL_ENABLE |= PWM_ADC_Sampler_BLOCK_EN_MASK;
                      /* Set the Interrupt source to come from the status register */
                      PWM_ADC_Sampler_CONTROL2 |= PWM_ADC_Sampler_CTRL2_IRQ_SEL;
                  #else
 157   1              #if(PWM_ADC_Sampler_UseStatus)
 158   1                  
 159   1                  /* CyEnterCriticalRegion and CyExitCriticalRegion are used to mark following region critical*/
 160   1                  /* Enter Critical Region*/
 161   1                  PWM_ADC_Sampler_interruptState = CyEnterCriticalSection();
 162   1                  /* Use the interrupt output of the status register for IRQ output */
 163   1                  PWM_ADC_Sampler_STATUS_AUX_CTRL |= PWM_ADC_Sampler_STATUS_ACTL_INT_EN_MASK;
 164   1                  
 165   1                   /* Exit Critical Region*/
 166   1                  CyExitCriticalSection(PWM_ADC_Sampler_interruptState);
 167   1                  
 168   1                  /* Clear the FIFO to enable the PWM_ADC_Sampler_STATUS_FIFOFULL
 169   1                         bit to be set on FIFO full. */
 170   1                  PWM_ADC_Sampler_ClearFIFO();
 171   1              #endif /* (PWM_ADC_Sampler_UseStatus) */
 172   1          #endif /* (PWM_ADC_Sampler_UsingFixedFunction) */
 173   1      }
 174          
 175          
C51 COMPILER V9.51   PWM_ADC_SAMPLER                                                       01/04/2014 15:52:44 PAGE 4   

 176          /*******************************************************************************
 177          * Function Name: PWM_ADC_Sampler_Enable
 178          ********************************************************************************
 179          *
 180          * Summary: 
 181          *  Enables the PWM block operation
 182          *
 183          * Parameters:  
 184          *  None
 185          *
 186          * Return: 
 187          *  None
 188          *
 189          * Side Effects: 
 190          *  This works only if software enable mode is chosen
 191          *
 192          *******************************************************************************/
 193          void PWM_ADC_Sampler_Enable(void) 
 194          {
 195   1          /* Globally Enable the Fixed Function Block chosen */
 196   1          #if (PWM_ADC_Sampler_UsingFixedFunction)
                      PWM_ADC_Sampler_GLOBAL_ENABLE |= PWM_ADC_Sampler_BLOCK_EN_MASK;
                      PWM_ADC_Sampler_GLOBAL_STBY_ENABLE |= PWM_ADC_Sampler_BLOCK_STBY_EN_MASK;
                  #endif /* (PWM_ADC_Sampler_UsingFixedFunction) */
 200   1          
 201   1          /* Enable the PWM from the control register  */
 202   1          #if (PWM_ADC_Sampler_UseControl || PWM_ADC_Sampler_UsingFixedFunction)
 203   1              PWM_ADC_Sampler_CONTROL |= PWM_ADC_Sampler_CTRL_ENABLE;
 204   1          #endif /* (PWM_ADC_Sampler_UseControl || PWM_ADC_Sampler_UsingFixedFunction) */
 205   1      }
 206          
 207          
 208          /*******************************************************************************
 209          * Function Name: PWM_ADC_Sampler_Stop
 210          ********************************************************************************
 211          *
 212          * Summary:
 213          *  The stop function halts the PWM, but does not change any modes or disable
 214          *  interrupts.
 215          *
 216          * Parameters:  
 217          *  None  
 218          *
 219          * Return: 
 220          *  None
 221          *
 222          * Side Effects:
 223          *  If the Enable mode is set to Hardware only then this function
 224          *  has no effect on the operation of the PWM
 225          *
 226          *******************************************************************************/
 227          void PWM_ADC_Sampler_Stop(void) 
 228          {
 229   1          #if (PWM_ADC_Sampler_UseControl || PWM_ADC_Sampler_UsingFixedFunction)
 230   1              PWM_ADC_Sampler_CONTROL &= ((uint8)(~PWM_ADC_Sampler_CTRL_ENABLE));
 231   1          #endif /* (PWM_ADC_Sampler_UseControl || PWM_ADC_Sampler_UsingFixedFunction) */
 232   1          
 233   1          /* Globally disable the Fixed Function Block chosen */
 234   1          #if (PWM_ADC_Sampler_UsingFixedFunction)
                      PWM_ADC_Sampler_GLOBAL_ENABLE &= ((uint8)(~PWM_ADC_Sampler_BLOCK_EN_MASK));
                      PWM_ADC_Sampler_GLOBAL_STBY_ENABLE &= ((uint8)(~PWM_ADC_Sampler_BLOCK_STBY_EN_MASK));
                  #endif /* (PWM_ADC_Sampler_UsingFixedFunction) */
C51 COMPILER V9.51   PWM_ADC_SAMPLER                                                       01/04/2014 15:52:44 PAGE 5   

 238   1      }
 239          
 240          
 241          #if (PWM_ADC_Sampler_UseOneCompareMode)
 242                  #if (PWM_ADC_Sampler_CompareMode1SW)
              
              
                              /*******************************************************************************
                              * Function Name: PWM_ADC_Sampler_SetCompareMode
                              ********************************************************************************
                              * 
                              * Summary:
                              *  This function writes the Compare Mode for the pwm output when in Dither mode,
                              *  Center Align Mode or One Output Mode.
                              *
                              * Parameters:
                              *  comparemode:  The new compare mode for the PWM output. Use the compare types
                              *                defined in the H file as input arguments.
                              *
                              * Return:
                              *  None
                              *
                              *******************************************************************************/
                              void PWM_ADC_Sampler_SetCompareMode(uint8 comparemode) 
                              {
                                  #if(PWM_ADC_Sampler_UsingFixedFunction)
                          
                              #if(0 != PWM_ADC_Sampler_CTRL_CMPMODE1_SHIFT)
                                  uint8 comparemodemasked = ((uint8)((uint8)comparemode << PWM_ADC_Sampler_CTRL_CMPMODE1
             -_SHIFT));
                              #else
                                  uint8 comparemodemasked = comparemode;
                              #endif /* (0 != PWM_ADC_Sampler_CTRL_CMPMODE1_SHIFT) */
                          
                                  PWM_ADC_Sampler_CONTROL3 &= ((uint8)(~PWM_ADC_Sampler_CTRL_CMPMODE1_MASK)); /*Clear Existing 
             -Data */
                                  PWM_ADC_Sampler_CONTROL3 |= comparemodemasked;     
                                              
                                  #elif (PWM_ADC_Sampler_UseControl)
                                      
                              #if(0 != PWM_ADC_Sampler_CTRL_CMPMODE1_SHIFT)
                                  uint8 comparemode1masked = ((uint8)((uint8)comparemode << PWM_ADC_Sampler_CTRL_CMPMODE
             -1_SHIFT)) & 
                                                                  PWM_ADC_Sampler_CTRL_CMPMODE1_MASK;
                              #else
                                  uint8 comparemode1masked = comparemode & PWM_ADC_Sampler_CTRL_CMPMODE1_MASK;          
             -      
                              #endif /* (0 != PWM_ADC_Sampler_CTRL_CMPMODE1_SHIFT) */
                              
                              #if(0 != PWM_ADC_Sampler_CTRL_CMPMODE2_SHIFT)                            
                                      uint8 comparemode2masked = ((uint8)((uint8)comparemode << PWM_ADC_Sampler_CTRL_CMPMODE2_SHIF
             -T)) & 
                                                                 PWM_ADC_Sampler_CTRL_CMPMODE2_MASK;
                              #else
                                      uint8 comparemode2masked = comparemode & PWM_ADC_Sampler_CTRL_CMPMODE2_MASK;                
                              #endif /* (0 != PWM_ADC_Sampler_CTRL_CMPMODE2_SHIFT) */
                              
                                      /*Clear existing mode */
                                      PWM_ADC_Sampler_CONTROL &= ((uint8)(~(PWM_ADC_Sampler_CTRL_CMPMODE1_MASK | PWM_ADC_Sampler_CTRL_
             -CMPMODE2_MASK))); 
                                      PWM_ADC_Sampler_CONTROL |= (comparemode1masked | comparemode2masked);
                                      
C51 COMPILER V9.51   PWM_ADC_SAMPLER                                                       01/04/2014 15:52:44 PAGE 6   

                                  #else
                                      uint8 temp = comparemode;
                                  #endif /* (PWM_ADC_Sampler_UsingFixedFunction) */
                              }
                      #endif /* PWM_ADC_Sampler_CompareMode1SW */
 299          
 300          #else /* UseOneCompareMode */
              
                      #if (PWM_ADC_Sampler_CompareMode1SW)
              
              
                              /*******************************************************************************
                              * Function Name: PWM_ADC_Sampler_SetCompareMode1
                              ********************************************************************************
                              * 
                              * Summary:
                              *  This function writes the Compare Mode for the pwm or pwm1 output
                              *
                              * Parameters:  
                              *  comparemode:  The new compare mode for the PWM output. Use the compare types
                              *                defined in the H file as input arguments.
                              *
                              * Return: 
                              *  None
                              *
                              *******************************************************************************/
                              void PWM_ADC_Sampler_SetCompareMode1(uint8 comparemode) 
                              {
                                  #if(0 != PWM_ADC_Sampler_CTRL_CMPMODE1_SHIFT)
                              uint8 comparemodemasked = ((uint8)((uint8)comparemode << PWM_ADC_Sampler_CTRL_CMPMODE1_SHI
             -FT)) & 
                                                             PWM_ADC_Sampler_CTRL_CMPMODE1_MASK;
                                  #else
                              uint8 comparemodemasked = comparemode & PWM_ADC_Sampler_CTRL_CMPMODE1_MASK;               
             - 
                          #endif /* (0 != PWM_ADC_Sampler_CTRL_CMPMODE1_SHIFT) */
                                 
                                  #if (PWM_ADC_Sampler_UseControl)
                                      PWM_ADC_Sampler_CONTROL &= ((uint8)(~PWM_ADC_Sampler_CTRL_CMPMODE1_MASK)); /*Clear existing mode
             - */
                                      PWM_ADC_Sampler_CONTROL |= comparemodemasked;
                                  #endif /* (PWM_ADC_Sampler_UseControl) */
                              }
                      #endif /* PWM_ADC_Sampler_CompareMode1SW */
              
              #if (PWM_ADC_Sampler_CompareMode2SW)
              
              
                  /*******************************************************************************
                  * Function Name: PWM_ADC_Sampler_SetCompareMode2
                  ********************************************************************************
                  * 
                  * Summary:
                  *  This function writes the Compare Mode for the pwm or pwm2 output
                  *
                  * Parameters:  
                  *  comparemode:  The new compare mode for the PWM output. Use the compare types
                  *                defined in the H file as input arguments.
                  *
                  * Return: 
                  *  None
                  *
C51 COMPILER V9.51   PWM_ADC_SAMPLER                                                       01/04/2014 15:52:44 PAGE 7   

                  *******************************************************************************/
                  void PWM_ADC_Sampler_SetCompareMode2(uint8 comparemode) 
                  {
              
                      #if(0 != PWM_ADC_Sampler_CTRL_CMPMODE2_SHIFT)
                          uint8 comparemodemasked = ((uint8)((uint8)comparemode << PWM_ADC_Sampler_CTRL_CMPMODE2_SHIFT))
             - & 
                                                               PWM_ADC_Sampler_CTRL_CMPMODE2_MASK;
                      #else
                          uint8 comparemodemasked = comparemode & PWM_ADC_Sampler_CTRL_CMPMODE2_MASK;            
                      #endif /* (0 != PWM_ADC_Sampler_CTRL_CMPMODE2_SHIFT) */
                      
                      #if (PWM_ADC_Sampler_UseControl)
                          PWM_ADC_Sampler_CONTROL &= ((uint8)(~PWM_ADC_Sampler_CTRL_CMPMODE2_MASK)); /*Clear existing mo
             -de */
                          PWM_ADC_Sampler_CONTROL |= comparemodemasked;
                      #endif /* (PWM_ADC_Sampler_UseControl) */
                  }
                  #endif /*PWM_ADC_Sampler_CompareMode2SW */
              
              #endif /* UseOneCompareMode */
 372          
 373          
 374          #if (!PWM_ADC_Sampler_UsingFixedFunction)
 375          
 376          
 377              /*******************************************************************************
 378              * Function Name: PWM_ADC_Sampler_WriteCounter
 379              ********************************************************************************
 380              * 
 381              * Summary:
 382              *  Writes a new counter value directly to the counter register. This will be 
 383              *  implemented for that currently running period and only that period. This API 
 384              *  is valid only for UDB implementation and not available for fixed function 
 385              *  PWM implementation.    
 386              *
 387              * Parameters:  
 388              *  counter:  The period new period counter value.
 389              *
 390              * Return: 
 391              *  None
 392              *
 393              * Side Effects: 
 394              *  The PWM Period will be reloaded when a counter value will be a zero
 395              *
 396              *******************************************************************************/
 397              void PWM_ADC_Sampler_WriteCounter(uint16 counter) \
 398                                                 
 399              {
 400   1              CY_SET_REG16(PWM_ADC_Sampler_COUNTER_LSB_PTR, counter);
 401   1          }
 402          
 403          
 404              /*******************************************************************************
 405              * Function Name: PWM_ADC_Sampler_ReadCounter
 406              ********************************************************************************
 407              * 
 408              * Summary:
 409              *  This function returns the current value of the counter.  It doesn't matter
 410              *  if the counter is enabled or running.
 411              *
 412              * Parameters:  
C51 COMPILER V9.51   PWM_ADC_SAMPLER                                                       01/04/2014 15:52:44 PAGE 8   

 413              *  None  
 414              *
 415              * Return: 
 416              *  The current value of the counter.
 417              *
 418              *******************************************************************************/
 419              uint16 PWM_ADC_Sampler_ReadCounter(void) 
 420              {
 421   1              /* Force capture by reading Accumulator */
 422   1              /* Must first do a software capture to be able to read the counter */
 423   1              /* It is up to the user code to make sure there isn't already captured data in the FIFO */
 424   1              (void)PWM_ADC_Sampler_COUNTERCAP_LSB;
 425   1              
 426   1              /* Read the data from the FIFO (or capture register for Fixed Function)*/
 427   1              return (CY_GET_REG16(PWM_ADC_Sampler_CAPTURE_LSB_PTR));
 428   1          }
 429          
 430                  #if (PWM_ADC_Sampler_UseStatus)
 431          
 432          
 433                      /*******************************************************************************
 434                      * Function Name: PWM_ADC_Sampler_ClearFIFO
 435                      ********************************************************************************
 436                      * 
 437                      * Summary:
 438                      *  This function clears all capture data from the capture FIFO
 439                      *
 440                      * Parameters:  
 441                      *  None
 442                      *
 443                      * Return: 
 444                      *  None
 445                      *
 446                      *******************************************************************************/
 447                      void PWM_ADC_Sampler_ClearFIFO(void) 
 448                      {
 449   1                      while(0u != (PWM_ADC_Sampler_ReadStatusRegister() & PWM_ADC_Sampler_STATUS_FIFONEMPTY))
 450   1                      {
 451   2                          (void)PWM_ADC_Sampler_ReadCapture();
 452   2                      }
 453   1                  }
 454          
 455                  #endif /* PWM_ADC_Sampler_UseStatus */
 456          
 457          #endif /* !PWM_ADC_Sampler_UsingFixedFunction */
 458          
 459          
 460          /*******************************************************************************
 461          * Function Name: PWM_ADC_Sampler_WritePeriod
 462          ********************************************************************************
 463          * 
 464          * Summary:
 465          *  This function is used to change the period of the counter.  The new period 
 466          *  will be loaded the next time terminal count is detected.
 467          *
 468          * Parameters:  
 469          *  period:  Period value. May be between 1 and (2^Resolution)-1.  A value of 0 
 470          *           will result in the counter remaining at zero.
 471          *
 472          * Return: 
 473          *  None
 474          *
C51 COMPILER V9.51   PWM_ADC_SAMPLER                                                       01/04/2014 15:52:44 PAGE 9   

 475          *******************************************************************************/
 476          void PWM_ADC_Sampler_WritePeriod(uint16 period) 
 477          {
 478   1          #if(PWM_ADC_Sampler_UsingFixedFunction)
                      CY_SET_REG16(PWM_ADC_Sampler_PERIOD_LSB_PTR, (uint16)period);
                  #else
 481   1              CY_SET_REG16(PWM_ADC_Sampler_PERIOD_LSB_PTR, period);
 482   1          #endif /* (PWM_ADC_Sampler_UsingFixedFunction) */
 483   1      }
 484          
 485          #if (PWM_ADC_Sampler_UseOneCompareMode)
 486          
 487          
 488              /*******************************************************************************
 489              * Function Name: PWM_ADC_Sampler_WriteCompare
 490              ********************************************************************************
 491              * 
 492              * Summary:
 493              *  This funtion is used to change the compare1 value when the PWM is in Dither
 494              *  mode. The compare output will reflect the new value on the next UDB clock. 
 495              *  The compare output will be driven high when the present counter value is 
 496              *  compared to the compare value based on the compare mode defined in 
 497              *  Dither Mode.
 498              *
 499              * Parameters:  
 500              *  compare:  New compare value.  
 501              *
 502              * Return: 
 503              *  None
 504              *
 505              * Side Effects:
 506              *  This function is only available if the PWM mode parameter is set to
 507              *  Dither Mode, Center Aligned Mode or One Output Mode
 508              *
 509              *******************************************************************************/
 510              void PWM_ADC_Sampler_WriteCompare(uint16 compare) \
 511                                                 
 512              {   
 513   1                      #if(PWM_ADC_Sampler_UsingFixedFunction)
                                      CY_SET_REG16(PWM_ADC_Sampler_COMPARE1_LSB_PTR, (uint16)compare);
                              #else
 516   1                      CY_SET_REG16(PWM_ADC_Sampler_COMPARE1_LSB_PTR, compare);        
 517   1                      #endif /* (PWM_ADC_Sampler_UsingFixedFunction) */
 518   1              
 519   1              #if (PWM_ADC_Sampler_PWMMode == PWM_ADC_Sampler__B_PWM__DITHER)
                          #if(PWM_ADC_Sampler_UsingFixedFunction)
                                      CY_SET_REG16(PWM_ADC_Sampler_COMPARE2_LSB_PTR, (uint16)(compare + 1u));
                              #else
                              CY_SET_REG16(PWM_ADC_Sampler_COMPARE2_LSB_PTR, (compare + 1u)); 
                              #endif /* (PWM_ADC_Sampler_UsingFixedFunction) */
                      #endif /* (PWM_ADC_Sampler_PWMMode == PWM_ADC_Sampler__B_PWM__DITHER) */
 526   1          }
 527          
 528          
 529          #else
              
              
                  /*******************************************************************************
                  * Function Name: PWM_ADC_Sampler_WriteCompare1
                  ********************************************************************************
                  * 
                  * Summary:
C51 COMPILER V9.51   PWM_ADC_SAMPLER                                                       01/04/2014 15:52:44 PAGE 10  

                  *  This funtion is used to change the compare1 value.  The compare output will 
                  *  reflect the new value on the next UDB clock.  The compare output will be 
                  *  driven high when the present counter value is less than or less than or 
                  *  equal to the compare register, depending on the mode.
                  *
                  * Parameters:  
                  *  compare:  New compare value.  
                  *
                  * Return: 
                  *  None
                  *
                  *******************************************************************************/
                  void PWM_ADC_Sampler_WriteCompare1(uint16 compare) \
                                                      
                  {
                      #if(PWM_ADC_Sampler_UsingFixedFunction)
                          CY_SET_REG16(PWM_ADC_Sampler_COMPARE1_LSB_PTR, (uint16)compare);
                      #else
                          CY_SET_REG16(PWM_ADC_Sampler_COMPARE1_LSB_PTR, compare);
                      #endif /* (PWM_ADC_Sampler_UsingFixedFunction) */
                  }
              
              
                  /*******************************************************************************
                  * Function Name: PWM_ADC_Sampler_WriteCompare2
                  ********************************************************************************
                  * 
                  * Summary:
                  *  This funtion is used to change the compare value, for compare1 output.  
                  *  The compare output will reflect the new value on the next UDB clock.  
                  *  The compare output will be driven high when the present counter value is 
                  *  less than or less than or equal to the compare register, depending on the 
                  *  mode.
                  *
                  * Parameters:  
                  *  compare:  New compare value.  
                  *
                  * Return: 
                  *  None
                  *
                  *******************************************************************************/
                  void PWM_ADC_Sampler_WriteCompare2(uint16 compare) \
                                                      
                  {
                      #if(PWM_ADC_Sampler_UsingFixedFunction)
                          CY_SET_REG16(PWM_ADC_Sampler_COMPARE2_LSB_PTR, compare);
                      #else
                          CY_SET_REG16(PWM_ADC_Sampler_COMPARE2_LSB_PTR, compare);
                      #endif /* (PWM_ADC_Sampler_UsingFixedFunction) */
                  }
              #endif /* UseOneCompareMode */
 588          
 589          #if (PWM_ADC_Sampler_DeadBandUsed)
              
              
                  /*******************************************************************************
                  * Function Name: PWM_ADC_Sampler_WriteDeadTime
                  ********************************************************************************
                  * 
                  * Summary:
                  *  This function writes the dead-band counts to the corresponding register
                  *
C51 COMPILER V9.51   PWM_ADC_SAMPLER                                                       01/04/2014 15:52:44 PAGE 11  

                  * Parameters:  
                  *  deadtime:  Number of counts for dead time 
                  *
                  * Return: 
                  *  None
                  *
                  *******************************************************************************/
                  void PWM_ADC_Sampler_WriteDeadTime(uint8 deadtime) 
                  {
                      /* If using the Dead Band 1-255 mode then just write the register */
                      #if(!PWM_ADC_Sampler_DeadBand2_4)
                          CY_SET_REG8(PWM_ADC_Sampler_DEADBAND_COUNT_PTR, deadtime);
                      #else
                          /* Otherwise the data has to be masked and offset */        
                          /* Clear existing data */
                          PWM_ADC_Sampler_DEADBAND_COUNT &= ((uint8)(~PWM_ADC_Sampler_DEADBAND_COUNT_MASK));
                          
                          /* Set new dead time */
                          #if(PWM_ADC_Sampler_DEADBAND_COUNT_SHIFT)        
                              PWM_ADC_Sampler_DEADBAND_COUNT |= ((uint8)((uint8)deadtime << PWM_ADC_Sampler_DEADBAND_COU
             -NT_SHIFT)) & 
                                                                  PWM_ADC_Sampler_DEADBAND_COUNT_MASK;
                          #else
                              PWM_ADC_Sampler_DEADBAND_COUNT |= deadtime & PWM_ADC_Sampler_DEADBAND_COUNT_MASK;        
                          #endif /* (PWM_ADC_Sampler_DEADBAND_COUNT_SHIFT) */
                      
                      #endif /* (!PWM_ADC_Sampler_DeadBand2_4) */
                  }
              
              
                  /*******************************************************************************
                  * Function Name: PWM_ADC_Sampler_ReadDeadTime
                  ********************************************************************************
                  * 
                  * Summary:
                  *  This function reads the dead-band counts from the corresponding register
                  *
                  * Parameters:  
                  *  None
                  *
                  * Return: 
                  *  Dead Band Counts
                  *
                  *******************************************************************************/
                  uint8 PWM_ADC_Sampler_ReadDeadTime(void) 
                  {
                      /* If using the Dead Band 1-255 mode then just read the register */
                      #if(!PWM_ADC_Sampler_DeadBand2_4)
                          return (CY_GET_REG8(PWM_ADC_Sampler_DEADBAND_COUNT_PTR));
                      #else
                      
                          /* Otherwise the data has to be masked and offset */
                          #if(PWM_ADC_Sampler_DEADBAND_COUNT_SHIFT)      
                              return ((uint8)(((uint8)(PWM_ADC_Sampler_DEADBAND_COUNT & PWM_ADC_Sampler_DEADBAND_COUNT_M
             -ASK)) >> 
                                                                                         PWM_ADC_Sampler_DEADBAND_COUNT_
             -SHIFT));
                          #else
                              return (PWM_ADC_Sampler_DEADBAND_COUNT & PWM_ADC_Sampler_DEADBAND_COUNT_MASK);
                          #endif /* (PWM_ADC_Sampler_DEADBAND_COUNT_SHIFT) */
                      #endif /* (!PWM_ADC_Sampler_DeadBand2_4) */
                  }
C51 COMPILER V9.51   PWM_ADC_SAMPLER                                                       01/04/2014 15:52:44 PAGE 12  

              #endif /* DeadBandUsed */
 659          
 660          #if (PWM_ADC_Sampler_UseStatus || PWM_ADC_Sampler_UsingFixedFunction)
 661          
 662          
 663              /*******************************************************************************
 664              * Function Name: PWM_ADC_Sampler_SetInterruptMode
 665              ********************************************************************************
 666              * 
 667              * Summary:
 668              *  This function configures the interrupts mask control of theinterrupt 
 669              *  source status register.
 670              *
 671              * Parameters:  
 672              *  uint8 interruptMode: Bit field containing the interrupt sources enabled 
 673              *
 674              * Return: 
 675              *  None
 676              *
 677              *******************************************************************************/
 678              void PWM_ADC_Sampler_SetInterruptMode(uint8 interruptMode)  
 679              {
 680   1              CY_SET_REG8(PWM_ADC_Sampler_STATUS_MASK_PTR, interruptMode);
 681   1          }
 682          
 683          
 684              /*******************************************************************************
 685              * Function Name: PWM_ADC_Sampler_ReadStatusRegister
 686              ********************************************************************************
 687              * 
 688              * Summary:
 689              *  This function returns the current state of the status register. 
 690              *
 691              * Parameters:  
 692              *  None
 693              *
 694              * Return: 
 695              *  uint8 : Current status register value. The status register bits are:
 696              *  [7:6] : Unused(0)
 697              *  [5]   : Kill event output
 698              *  [4]   : FIFO not empty
 699              *  [3]   : FIFO full
 700              *  [2]   : Terminal count
 701              *  [1]   : Compare output 2
 702              *  [0]   : Compare output 1
 703              *
 704              *******************************************************************************/
 705              uint8 PWM_ADC_Sampler_ReadStatusRegister(void)   
 706              {
 707   1              uint8 result;
 708   1              
 709   1              result = CY_GET_REG8(PWM_ADC_Sampler_STATUS_PTR);
 710   1              return (result);
 711   1          }
 712          
 713          #endif /* (PWM_ADC_Sampler_UseStatus || PWM_ADC_Sampler_UsingFixedFunction) */
 714          
 715          
 716          #if (PWM_ADC_Sampler_UseControl)
 717          
 718          
 719              /*******************************************************************************
C51 COMPILER V9.51   PWM_ADC_SAMPLER                                                       01/04/2014 15:52:44 PAGE 13  

 720              * Function Name: PWM_ADC_Sampler_ReadControlRegister
 721              ********************************************************************************
 722              * 
 723              * Summary:
 724              *  Returns the current state of the control register. This API is available 
 725              *  only if the control register is not removed.
 726              *
 727              * Parameters:  
 728              *  None 
 729              *
 730              * Return: 
 731              *  uint8 : Current control register value
 732              *
 733              *******************************************************************************/    
 734              uint8 PWM_ADC_Sampler_ReadControlRegister(void) 
 735              {
 736   1              uint8 result;
 737   1              
 738   1              result = CY_GET_REG8(PWM_ADC_Sampler_CONTROL_PTR);
 739   1              return (result);
 740   1          }
 741          
 742          
 743              /*******************************************************************************
 744              * Function Name: PWM_ADC_Sampler_WriteControlRegister
 745              ********************************************************************************
 746              * 
 747              * Summary:
 748              *  Sets the bit field of the control register. This API is available only if 
 749              *  the control register is not removed.
 750              *
 751              * Parameters:  
 752              *  uint8 control: Control register bit field, The status register bits are:
 753              *  [7]   : PWM Enable
 754              *  [6]   : Reset
 755              *  [5:3] : Compare Mode2
 756              *  [2:0] : Compare Mode2
 757              *
 758              * Return: 
 759              *  None
 760              *
 761              *******************************************************************************/  
 762              void PWM_ADC_Sampler_WriteControlRegister(uint8 control) 
 763              {
 764   1              CY_SET_REG8(PWM_ADC_Sampler_CONTROL_PTR, control);
 765   1          }
 766                  
 767          #endif /* (PWM_ADC_Sampler_UseControl) */
 768          
 769          
 770          #if (!PWM_ADC_Sampler_UsingFixedFunction)
 771          
 772          
 773              /*******************************************************************************
 774              * Function Name: PWM_ADC_Sampler_ReadCapture
 775              ********************************************************************************
 776              * 
 777              * Summary:
 778              *  Reads the capture value from the capture FIFO.
 779              *
 780              * Parameters:  
 781              *  None
C51 COMPILER V9.51   PWM_ADC_SAMPLER                                                       01/04/2014 15:52:44 PAGE 14  

 782              *
 783              * Return: 
 784              *  uint8/uint16: The current capture value
 785              *
 786              *******************************************************************************/  
 787              uint16 PWM_ADC_Sampler_ReadCapture(void)  
 788              {
 789   1              return (CY_GET_REG16(PWM_ADC_Sampler_CAPTURE_LSB_PTR));
 790   1          }
 791                  
 792          #endif /* (!PWM_ADC_Sampler_UsingFixedFunction) */
 793          
 794          
 795          #if (PWM_ADC_Sampler_UseOneCompareMode)
 796          
 797          
 798              /*******************************************************************************
 799              * Function Name: PWM_ADC_Sampler_ReadCompare
 800              ********************************************************************************
 801              * 
 802              * Summary:
 803              *  Reads the compare value for the compare output when the PWM Mode parameter is 
 804              *  set to Dither mode, Center Aligned mode, or One Output mode.
 805              *
 806              * Parameters:  
 807              *  None
 808              *
 809              * Return: 
 810              *  uint8/uint16: Current compare value
 811              *
 812              *******************************************************************************/  
 813              uint16 PWM_ADC_Sampler_ReadCompare(void)  
 814              {
 815   1                      #if(PWM_ADC_Sampler_UsingFixedFunction)
                          return ((uint16)CY_GET_REG16(PWM_ADC_Sampler_COMPARE1_LSB_PTR));
                      #else
 818   1                  return (CY_GET_REG16(PWM_ADC_Sampler_COMPARE1_LSB_PTR));
 819   1              #endif /* (PWM_ADC_Sampler_UsingFixedFunction) */
 820   1          }
 821          
 822          #else
              
              
                  /*******************************************************************************
                  * Function Name: PWM_ADC_Sampler_ReadCompare1
                  ********************************************************************************
                  * 
                  * Summary:
                  *  Reads the compare value for the compare1 output.
                  *
                  * Parameters:  
                  *  None
                  *
                  * Return: 
                  *  uint8/uint16: Current compare value.
                  *
                  *******************************************************************************/  
                  uint16 PWM_ADC_Sampler_ReadCompare1(void) 
                  {
                              return (CY_GET_REG16(PWM_ADC_Sampler_COMPARE1_LSB_PTR));
                  }
              
C51 COMPILER V9.51   PWM_ADC_SAMPLER                                                       01/04/2014 15:52:44 PAGE 15  

              
                  /*******************************************************************************
                  * Function Name: PWM_ADC_Sampler_ReadCompare2
                  ********************************************************************************
                  * 
                  * Summary:
                  *  Reads the compare value for the compare2 output.
                  *
                  * Parameters:  
                  *  None
                  *
                  * Return: 
                  *  uint8/uint16: Current compare value.
                  *
                  *******************************************************************************/  
                  uint16 PWM_ADC_Sampler_ReadCompare2(void)  
                  {
                              return (CY_GET_REG16(PWM_ADC_Sampler_COMPARE2_LSB_PTR));
                  }
              
              #endif /* (PWM_ADC_Sampler_UseOneCompareMode) */
 865          
 866          
 867          /*******************************************************************************
 868          * Function Name: PWM_ADC_Sampler_ReadPeriod
 869          ********************************************************************************
 870          * 
 871          * Summary:
 872          *  Reads the period value used by the PWM hardware.
 873          *
 874          * Parameters:  
 875          *  None
 876          *
 877          * Return: 
 878          *  uint8/16: Period value
 879          *
 880          *******************************************************************************/ 
 881          uint16 PWM_ADC_Sampler_ReadPeriod(void) 
 882          {
 883   1              #if(PWM_ADC_Sampler_UsingFixedFunction)
                      return ((uint16)CY_GET_REG16(PWM_ADC_Sampler_PERIOD_LSB_PTR));
                  #else
 886   1              return (CY_GET_REG16(PWM_ADC_Sampler_PERIOD_LSB_PTR));
 887   1          #endif /* (PWM_ADC_Sampler_UsingFixedFunction) */
 888   1      }
 889          
 890          #if ( PWM_ADC_Sampler_KillModeMinTime)
              
              
                  /*******************************************************************************
                  * Function Name: PWM_ADC_Sampler_WriteKillTime
                  ********************************************************************************
                  * 
                  * Summary:
                  *  Writes the kill time value used by the hardware when the Kill Mode 
                  *  is set to Minimum Time.
                  *
                  * Parameters:  
                  *  uint8: Minimum Time kill counts
                  *
                  * Return: 
                  *  None
C51 COMPILER V9.51   PWM_ADC_SAMPLER                                                       01/04/2014 15:52:44 PAGE 16  

                  *
                  *******************************************************************************/ 
                  void PWM_ADC_Sampler_WriteKillTime(uint8 killtime) 
                  {
                      CY_SET_REG8(PWM_ADC_Sampler_KILLMODEMINTIME_PTR, killtime);
                  }
              
              
                  /*******************************************************************************
                  * Function Name: PWM_ADC_Sampler_ReadKillTime
                  ********************************************************************************
                  * 
                  * Summary:
                  *  Reads the kill time value used by the hardware when the Kill Mode is set 
                  *  to Minimum Time.
                  *
                  * Parameters:  
                  *  None
                  *
                  * Return: 
                  *  uint8: The current Minimum Time kill counts
                  *
                  *******************************************************************************/ 
                  uint8 PWM_ADC_Sampler_ReadKillTime(void) 
                  {
                      return (CY_GET_REG8(PWM_ADC_Sampler_KILLMODEMINTIME_PTR));
                  }
              
              #endif /* ( PWM_ADC_Sampler_KillModeMinTime) */
 935          
 936          /* [] END OF FILE */
C51 COMPILER V9.51   PWM_ADC_SAMPLER                                                       01/04/2014 15:52:44 PAGE 17  

ASSEMBLY LISTING OF GENERATED OBJECT CODE


             ; FUNCTION PWM_ADC_Sampler_Start (BEGIN)
                                           ; SOURCE LINE # 50
                                           ; SOURCE LINE # 51
                                           ; SOURCE LINE # 53
0000 900000      R     MOV     DPTR,#PWM_ADC_Sampler_initVar
0003 E0                MOVX    A,@DPTR
0004 FF                MOV     R7,A
0005 EF                MOV     A,R7
0006 7009              JNZ     ?C0001
                                           ; SOURCE LINE # 54
                                           ; SOURCE LINE # 55
0008 120000      R     LCALL   PWM_ADC_Sampler_Init
                                           ; SOURCE LINE # 56
000B 900000      R     MOV     DPTR,#PWM_ADC_Sampler_initVar
000E 7401              MOV     A,#01H
0010 F0                MOVX    @DPTR,A
                                           ; SOURCE LINE # 57
0011         ?C0001:
                                           ; SOURCE LINE # 58
0011 120000      R     LCALL   PWM_ADC_Sampler_Enable
                                           ; SOURCE LINE # 60
0014 22                RET     
             ; FUNCTION PWM_ADC_Sampler_Start (END)

             ; FUNCTION PWM_ADC_Sampler_Init (BEGIN)
                                           ; SOURCE LINE # 79
                                           ; SOURCE LINE # 80
                                           ; SOURCE LINE # 112
0000 906575            MOV     DPTR,#06575H
0003 E0                MOVX    A,@DPTR
0004 FF                MOV     R7,A
0005 EF                MOV     A,R7
0006 54C0              ANL     A,#0C0H
0008 FF                MOV     R7,A
0009 900000      R     MOV     DPTR,#ctrl
000C EF                MOV     A,R7
000D F0                MOVX    @DPTR,A
                                           ; SOURCE LINE # 114
000E 900000      R     MOV     DPTR,#ctrl
0011 E0                MOVX    A,@DPTR
0012 FF                MOV     R7,A
0013 EF                MOV     A,R7
0014 4409              ORL     A,#09H
0016 FF                MOV     R7,A
0017 906575            MOV     DPTR,#06575H
001A EF                MOV     A,R7
001B F0                MOVX    @DPTR,A
                                           ; SOURCE LINE # 123
001C 906496            MOV     DPTR,#06496H
001F E0                MOVX    A,@DPTR
0020 FF                MOV     R7,A
0021 EF                MOV     A,R7
0022 4401              ORL     A,#01H
0024 FF                MOV     R7,A
0025 EF                MOV     A,R7
0026 F0                MOVX    @DPTR,A
                                           ; SOURCE LINE # 124
0027 906497            MOV     DPTR,#06497H
002A E0                MOVX    A,@DPTR
C51 COMPILER V9.51   PWM_ADC_SAMPLER                                                       01/04/2014 15:52:44 PAGE 18  

002B FF                MOV     R7,A
002C EF                MOV     A,R7
002D 4401              ORL     A,#01H
002F FF                MOV     R7,A
0030 EF                MOV     A,R7
0031 F0                MOVX    @DPTR,A
                                           ; SOURCE LINE # 127
0032 7FF9              MOV     R7,#0F9H
0034 7E00              MOV     R6,#00H
0036 120000      R     LCALL   _PWM_ADC_Sampler_WriteCounter
                                           ; SOURCE LINE # 130
0039 7FF9              MOV     R7,#0F9H
003B 7E00              MOV     R6,#00H
003D 120000      R     LCALL   _PWM_ADC_Sampler_WritePeriod
                                           ; SOURCE LINE # 133
0040 7F7D              MOV     R7,#07DH
0042 7E00              MOV     R6,#00H
0044 120000      R     LCALL   _PWM_ADC_Sampler_WriteCompare
                                           ; SOURCE LINE # 148
0047 7F00              MOV     R7,#00H
0049 120000      R     LCALL   _PWM_ADC_Sampler_SetInterruptMode
                                           ; SOURCE LINE # 161
004C 120000      E     LCALL   CyEnterCriticalSection
004F 900000      R     MOV     DPTR,#PWM_ADC_Sampler_interruptState
0052 EF                MOV     A,R7
0053 F0                MOVX    @DPTR,A
                                           ; SOURCE LINE # 163
0054 906496            MOV     DPTR,#06496H
0057 E0                MOVX    A,@DPTR
0058 FF                MOV     R7,A
0059 EF                MOV     A,R7
005A 4410              ORL     A,#010H
005C FF                MOV     R7,A
005D EF                MOV     A,R7
005E F0                MOVX    @DPTR,A
                                           ; SOURCE LINE # 166
005F 900000      R     MOV     DPTR,#PWM_ADC_Sampler_interruptState
0062 E0                MOVX    A,@DPTR
0063 FF                MOV     R7,A
0064 120000      E     LCALL   _CyExitCriticalSection
                                           ; SOURCE LINE # 170
0067 120000      R     LCALL   PWM_ADC_Sampler_ClearFIFO
                                           ; SOURCE LINE # 173
006A 22                RET     
             ; FUNCTION PWM_ADC_Sampler_Init (END)

             ; FUNCTION PWM_ADC_Sampler_Enable (BEGIN)
                                           ; SOURCE LINE # 193
                                           ; SOURCE LINE # 194
                                           ; SOURCE LINE # 203
0000 906575            MOV     DPTR,#06575H
0003 E0                MOVX    A,@DPTR
0004 FF                MOV     R7,A
0005 EF                MOV     A,R7
0006 4480              ORL     A,#080H
0008 FF                MOV     R7,A
0009 EF                MOV     A,R7
000A F0                MOVX    @DPTR,A
                                           ; SOURCE LINE # 205
000B 22                RET     
             ; FUNCTION PWM_ADC_Sampler_Enable (END)

C51 COMPILER V9.51   PWM_ADC_SAMPLER                                                       01/04/2014 15:52:44 PAGE 19  

             ; FUNCTION PWM_ADC_Sampler_Stop (BEGIN)
                                           ; SOURCE LINE # 227
                                           ; SOURCE LINE # 228
                                           ; SOURCE LINE # 230
0000 906575            MOV     DPTR,#06575H
0003 E0                MOVX    A,@DPTR
0004 FF                MOV     R7,A
0005 EF                MOV     A,R7
0006 547F              ANL     A,#07FH
0008 FF                MOV     R7,A
0009 EF                MOV     A,R7
000A F0                MOVX    @DPTR,A
                                           ; SOURCE LINE # 238
000B 22                RET     
             ; FUNCTION PWM_ADC_Sampler_Stop (END)

             ; FUNCTION _PWM_ADC_Sampler_WriteCounter (BEGIN)
                                           ; SOURCE LINE # 397
0000 900000      R     MOV     DPTR,#counter
0003 EE                MOV     A,R6
0004 F0                MOVX    @DPTR,A
0005 A3                INC     DPTR
0006 EF                MOV     A,R7
0007 F0                MOVX    @DPTR,A
                                           ; SOURCE LINE # 399
                                           ; SOURCE LINE # 400
0008 7B02              MOV     R3,#02H
000A 7A64              MOV     R2,#064H
000C 7906              MOV     R1,#06H
000E 900000      R     MOV     DPTR,#counter
0011 E0                MOVX    A,@DPTR
0012 FC                MOV     R4,A
0013 A3                INC     DPTR
0014 E0                MOVX    A,@DPTR
0015 FD                MOV     R5,A
0016 120000      E     LCALL   _cywrite16_nodpx
                                           ; SOURCE LINE # 401
0019 22                RET     
             ; FUNCTION _PWM_ADC_Sampler_WriteCounter (END)

             ; FUNCTION PWM_ADC_Sampler_ReadCounter (BEGIN)
                                           ; SOURCE LINE # 419
                                           ; SOURCE LINE # 420
                                           ; SOURCE LINE # 424
0000 906416            MOV     DPTR,#06416H
0003 E0                MOVX    A,@DPTR
0004 FE                MOV     R6,A
0005 A3                INC     DPTR
0006 E0                MOVX    A,@DPTR
0007 FF                MOV     R7,A
                                           ; SOURCE LINE # 427
0008 7B02              MOV     R3,#02H
000A 7A64              MOV     R2,#064H
000C 7956              MOV     R1,#056H
000E 120000      E     LCALL   _cyread16_nodpx
                                           ; SOURCE LINE # 428
0011         ?C0007:
0011 22                RET     
             ; FUNCTION PWM_ADC_Sampler_ReadCounter (END)

             ; FUNCTION PWM_ADC_Sampler_ClearFIFO (BEGIN)
                                           ; SOURCE LINE # 447
C51 COMPILER V9.51   PWM_ADC_SAMPLER                                                       01/04/2014 15:52:44 PAGE 20  

                                           ; SOURCE LINE # 448
0000         ?C0008:
                                           ; SOURCE LINE # 449
0000 120000      R     LCALL   PWM_ADC_Sampler_ReadStatusRegister
0003 EF                MOV     A,R7
0004 30E405            JNB     ACC.4,?C0010
                                           ; SOURCE LINE # 450
                                           ; SOURCE LINE # 451
0007 120000      R     LCALL   PWM_ADC_Sampler_ReadCapture
                                           ; SOURCE LINE # 452
000A 80F4              SJMP    ?C0008
                                           ; SOURCE LINE # 453
000C         ?C0010:
000C 22                RET     
             ; FUNCTION PWM_ADC_Sampler_ClearFIFO (END)

             ; FUNCTION _PWM_ADC_Sampler_WritePeriod (BEGIN)
                                           ; SOURCE LINE # 476
0000 900000      R     MOV     DPTR,#period
0003 EE                MOV     A,R6
0004 F0                MOVX    @DPTR,A
0005 A3                INC     DPTR
0006 EF                MOV     A,R7
0007 F0                MOVX    @DPTR,A
                                           ; SOURCE LINE # 477
                                           ; SOURCE LINE # 481
0008 7B02              MOV     R3,#02H
000A 7A64              MOV     R2,#064H
000C 7946              MOV     R1,#046H
000E 900000      R     MOV     DPTR,#period
0011 E0                MOVX    A,@DPTR
0012 FC                MOV     R4,A
0013 A3                INC     DPTR
0014 E0                MOVX    A,@DPTR
0015 FD                MOV     R5,A
0016 120000      E     LCALL   _cywrite16_nodpx
                                           ; SOURCE LINE # 483
0019 22                RET     
             ; FUNCTION _PWM_ADC_Sampler_WritePeriod (END)

             ; FUNCTION _PWM_ADC_Sampler_WriteCompare (BEGIN)
                                           ; SOURCE LINE # 510
0000 900000      R     MOV     DPTR,#compare
0003 EE                MOV     A,R6
0004 F0                MOVX    @DPTR,A
0005 A3                INC     DPTR
0006 EF                MOV     A,R7
0007 F0                MOVX    @DPTR,A
                                           ; SOURCE LINE # 512
                                           ; SOURCE LINE # 516
0008 7B02              MOV     R3,#02H
000A 7A64              MOV     R2,#064H
000C 7926              MOV     R1,#026H
000E 900000      R     MOV     DPTR,#compare
0011 E0                MOVX    A,@DPTR
0012 FC                MOV     R4,A
0013 A3                INC     DPTR
0014 E0                MOVX    A,@DPTR
0015 FD                MOV     R5,A
0016 120000      E     LCALL   _cywrite16_nodpx
                                           ; SOURCE LINE # 526
0019 22                RET     
C51 COMPILER V9.51   PWM_ADC_SAMPLER                                                       01/04/2014 15:52:44 PAGE 21  

             ; FUNCTION _PWM_ADC_Sampler_WriteCompare (END)

             ; FUNCTION _PWM_ADC_Sampler_SetInterruptMode (BEGIN)
                                           ; SOURCE LINE # 678
0000 900000      R     MOV     DPTR,#interruptMode
0003 EF                MOV     A,R7
0004 F0                MOVX    @DPTR,A
                                           ; SOURCE LINE # 679
                                           ; SOURCE LINE # 680
0005 900000      R     MOV     DPTR,#interruptMode
0008 E0                MOVX    A,@DPTR
0009 FF                MOV     R7,A
000A 906486            MOV     DPTR,#06486H
000D EF                MOV     A,R7
000E F0                MOVX    @DPTR,A
                                           ; SOURCE LINE # 681
000F 22                RET     
             ; FUNCTION _PWM_ADC_Sampler_SetInterruptMode (END)

             ; FUNCTION PWM_ADC_Sampler_ReadStatusRegister (BEGIN)
                                           ; SOURCE LINE # 705
                                           ; SOURCE LINE # 706
                                           ; SOURCE LINE # 709
0000 906466            MOV     DPTR,#06466H
0003 E0                MOVX    A,@DPTR
0004 FF                MOV     R7,A
0005 900000      R     MOV     DPTR,#result
0008 EF                MOV     A,R7
0009 F0                MOVX    @DPTR,A
                                           ; SOURCE LINE # 710
000A 900000      R     MOV     DPTR,#result
000D E0                MOVX    A,@DPTR
000E FF                MOV     R7,A
                                           ; SOURCE LINE # 711
000F         ?C0014:
000F 22                RET     
             ; FUNCTION PWM_ADC_Sampler_ReadStatusRegister (END)

             ; FUNCTION PWM_ADC_Sampler_ReadControlRegister (BEGIN)
                                           ; SOURCE LINE # 734
                                           ; SOURCE LINE # 735
                                           ; SOURCE LINE # 738
0000 906575            MOV     DPTR,#06575H
0003 E0                MOVX    A,@DPTR
0004 FF                MOV     R7,A
0005 900000      R     MOV     DPTR,#result
0008 EF                MOV     A,R7
0009 F0                MOVX    @DPTR,A
                                           ; SOURCE LINE # 739
000A 900000      R     MOV     DPTR,#result
000D E0                MOVX    A,@DPTR
000E FF                MOV     R7,A
                                           ; SOURCE LINE # 740
000F         ?C0015:
000F 22                RET     
             ; FUNCTION PWM_ADC_Sampler_ReadControlRegister (END)

             ; FUNCTION _PWM_ADC_Sampler_WriteControlRegister (BEGIN)
                                           ; SOURCE LINE # 762
0000 900000      R     MOV     DPTR,#control
0003 EF                MOV     A,R7
0004 F0                MOVX    @DPTR,A
C51 COMPILER V9.51   PWM_ADC_SAMPLER                                                       01/04/2014 15:52:44 PAGE 22  

                                           ; SOURCE LINE # 763
                                           ; SOURCE LINE # 764
0005 900000      R     MOV     DPTR,#control
0008 E0                MOVX    A,@DPTR
0009 FF                MOV     R7,A
000A 906575            MOV     DPTR,#06575H
000D EF                MOV     A,R7
000E F0                MOVX    @DPTR,A
                                           ; SOURCE LINE # 765
000F 22                RET     
             ; FUNCTION _PWM_ADC_Sampler_WriteControlRegister (END)

             ; FUNCTION PWM_ADC_Sampler_ReadCapture (BEGIN)
                                           ; SOURCE LINE # 787
                                           ; SOURCE LINE # 788
                                           ; SOURCE LINE # 789
0000 7B02              MOV     R3,#02H
0002 7A64              MOV     R2,#064H
0004 7956              MOV     R1,#056H
0006 120000      E     LCALL   _cyread16_nodpx
                                           ; SOURCE LINE # 790
0009         ?C0017:
0009 22                RET     
             ; FUNCTION PWM_ADC_Sampler_ReadCapture (END)

             ; FUNCTION PWM_ADC_Sampler_ReadCompare (BEGIN)
                                           ; SOURCE LINE # 813
                                           ; SOURCE LINE # 814
                                           ; SOURCE LINE # 818
0000 7B02              MOV     R3,#02H
0002 7A64              MOV     R2,#064H
0004 7926              MOV     R1,#026H
0006 120000      E     LCALL   _cyread16_nodpx
                                           ; SOURCE LINE # 820
0009         ?C0018:
0009 22                RET     
             ; FUNCTION PWM_ADC_Sampler_ReadCompare (END)

             ; FUNCTION PWM_ADC_Sampler_ReadPeriod (BEGIN)
                                           ; SOURCE LINE # 881
                                           ; SOURCE LINE # 882
                                           ; SOURCE LINE # 886
0000 7B02              MOV     R3,#02H
0002 7A64              MOV     R2,#064H
0004 7946              MOV     R1,#046H
0006 120000      E     LCALL   _cyread16_nodpx
                                           ; SOURCE LINE # 888
0009         ?C0019:
0009 22                RET     
             ; FUNCTION PWM_ADC_Sampler_ReadPeriod (END)



MODULE INFORMATION:   STATIC OVERLAYABLE
   CODE SIZE        =    355    ----
   CONSTANT SIZE    =   ----    ----
   XDATA SIZE       =      1      12
   PDATA SIZE       =   ----    ----
   DATA SIZE        =   ----    ----
   IDATA SIZE       =   ----    ----
   BIT SIZE         =   ----    ----
   EDATA SIZE       =   ----    ----
C51 COMPILER V9.51   PWM_ADC_SAMPLER                                                       01/04/2014 15:52:44 PAGE 23  

   HDATA SIZE       =   ----    ----
   XDATA CONST SIZE =   ----    ----
   FAR CONST SIZE   =   ----    ----
END OF MODULE INFORMATION.


C51 COMPILATION COMPLETE.  0 WARNING(S),  0 ERROR(S)
