C51 COMPILER V9.51   LCD_PM                                                                10/14/2013 23:29:43 PAGE 1   


C51 COMPILER V9.51, COMPILATION OF MODULE LCD_PM
OBJECT MODULE PLACED IN .\DP8051_Keil_951\Debug\LCD_PM.obj
COMPILER INVOKED BY: C:\Program Files (x86)\Cypress\PSoC Creator\3.0\PSoC Creator\import\keil\pk51\9.51\C51\BIN\c51.exe 
                    -.\Generated_Source\PSoC3\LCD_PM.c NOIV LARGE MODDP2 OMF2 VB(1) PR(.\DP8051_Keil_951\Debug\LCD_PM.lst) CD DB NOIP OT(5,SI
                    -ZE) INCDIR(.,.\Generated_Source\PSoC3) OJ(.\DP8051_Keil_951\Debug\LCD_PM.obj)

line level    source

   1          /*******************************************************************************
   2          * File Name: LCD_PM.c
   3          * Version 1.90
   4          *
   5          * Description:
   6          *  This file provides the API source code for the Static Segment LCD component.
   7          *
   8          * Note:
   9          *
  10          ********************************************************************************
  11          * Copyright 2008-2012, Cypress Semiconductor Corporation.  All rights reserved.
  12          * You may use this file only in accordance with the license, terms, conditions,
  13          * disclaimers, and limitations in the end user license agreement accompanying
  14          * the software package with which this file was provided.
  15          *******************************************************************************/
  16          
  17          #include "LCD.h"
  18          
  19          
  20          static LCD_BACKUP_STRUCT LCD_backup;
  21          
  22          
  23          /*******************************************************************************
  24          * Function Name: LCD_SaveConfig
  25          ********************************************************************************
  26          *
  27          * Summary:
  28          *  Does nothing, provided for consistency.
  29          *
  30          * Parameters:
  31          *  None.
  32          *
  33          * Return:
  34          *  None.
  35          *
  36          *******************************************************************************/
  37          void LCD_SaveConfig(void) 
  38          {
  39   1      }
  40          
  41          
  42          /*******************************************************************************
  43          * Function Name: LCD_RestoreConfig
  44          ********************************************************************************
  45          *
  46          * Summary:
  47          *  Does nothing, provided for consistency.
  48          *
  49          * Parameters:
  50          *  None.
  51          *
  52          * Return:
  53          *  None.
C51 COMPILER V9.51   LCD_PM                                                                10/14/2013 23:29:43 PAGE 2   

  54          *
  55          *******************************************************************************/
  56          void LCD_RestoreConfig(void) 
  57          {
  58   1      }
  59          
  60          
  61          /*******************************************************************************
  62          * Function Name: LCD_Sleep
  63          ********************************************************************************
  64          *
  65          * Summary:
  66          *  Prepares component for entering the sleep mode.
  67          *
  68          * Parameters:
  69          *  None.
  70          *
  71          * Return:
  72          *  None.
  73          *
  74          * Reentrant:
  75          *  No.
  76          *
  77          *******************************************************************************/
  78          void LCD_Sleep(void) 
  79          {
  80   1          LCD_backup.enableState = LCD_enableState;
  81   1          LCD_SaveConfig();
  82   1          LCD_Stop();
  83   1      }
  84          
  85          
  86          /*******************************************************************************
  87          * Function Name: LCD_Wakeup
  88          ********************************************************************************
  89          *
  90          * Summary:
  91          *  Wakes component from sleep mode. Configures DMA and enables the component for
  92          *  normal operation.
  93          *
  94          * Parameters:
  95          *  LCD_enableState - Global variable.
  96          *
  97          * Return:
  98          *  Status one of standard status for PSoC3 Component
  99          *       CYRET_SUCCESS - Function completed successfully.
 100          *       CYRET_LOCKED - The object was locked, already in use. Some of TDs or
 101          *                      a channel already in use.
 102          *
 103          * Reentrant:
 104          *  No.
 105          *
 106          *******************************************************************************/
 107          void LCD_Wakeup(void) 
 108          {
 109   1          LCD_RestoreConfig();
 110   1      
 111   1          if(LCD_backup.enableState == 1u)
 112   1          {
 113   2              LCD_Enable();
 114   2          }
 115   1      }
C51 COMPILER V9.51   LCD_PM                                                                10/14/2013 23:29:43 PAGE 3   

 116          
 117          
 118          /* [] END OF FILE */
C51 COMPILER V9.51   LCD_PM                                                                10/14/2013 23:29:43 PAGE 4   

ASSEMBLY LISTING OF GENERATED OBJECT CODE


             ; FUNCTION LCD_SaveConfig (BEGIN)
                                           ; SOURCE LINE # 37
                                           ; SOURCE LINE # 38
                                           ; SOURCE LINE # 39
0000 22                RET     
             ; FUNCTION LCD_SaveConfig (END)

             ; FUNCTION LCD_RestoreConfig (BEGIN)
                                           ; SOURCE LINE # 56
                                           ; SOURCE LINE # 57
                                           ; SOURCE LINE # 58
0000 22                RET     
             ; FUNCTION LCD_RestoreConfig (END)

             ; FUNCTION LCD_Sleep (BEGIN)
                                           ; SOURCE LINE # 78
                                           ; SOURCE LINE # 79
                                           ; SOURCE LINE # 80
0000 900000      E     MOV     DPTR,#LCD_enableState
0003 E0                MOVX    A,@DPTR
0004 900000      R     MOV     DPTR,#LCD_backup
0007 F0                MOVX    @DPTR,A
                                           ; SOURCE LINE # 81
0008 120000      R     LCALL   LCD_SaveConfig
                                           ; SOURCE LINE # 82
000B 120000      E     LCALL   LCD_Stop
                                           ; SOURCE LINE # 83
000E 22                RET     
             ; FUNCTION LCD_Sleep (END)

             ; FUNCTION LCD_Wakeup (BEGIN)
                                           ; SOURCE LINE # 107
                                           ; SOURCE LINE # 108
                                           ; SOURCE LINE # 109
0000 120000      R     LCALL   LCD_RestoreConfig
                                           ; SOURCE LINE # 111
0003 900000      R     MOV     DPTR,#LCD_backup
0006 E0                MOVX    A,@DPTR
0007 B40103            CJNE    A,#01H,?C0005
                                           ; SOURCE LINE # 112
                                           ; SOURCE LINE # 113
000A 120000      E     LCALL   LCD_Enable
                                           ; SOURCE LINE # 114
                                           ; SOURCE LINE # 115
000D         ?C0005:
000D 22                RET     
             ; FUNCTION LCD_Wakeup (END)



MODULE INFORMATION:   STATIC OVERLAYABLE
   CODE SIZE        =     31    ----
   CONSTANT SIZE    =   ----    ----
   XDATA SIZE       =      1    ----
   PDATA SIZE       =   ----    ----
   DATA SIZE        =   ----    ----
   IDATA SIZE       =   ----    ----
   BIT SIZE         =   ----    ----
   EDATA SIZE       =   ----    ----
C51 COMPILER V9.51   LCD_PM                                                                10/14/2013 23:29:43 PAGE 5   

   HDATA SIZE       =   ----    ----
   XDATA CONST SIZE =   ----    ----
   FAR CONST SIZE   =   ----    ----
END OF MODULE INFORMATION.


C51 COMPILATION COMPLETE.  0 WARNING(S),  0 ERROR(S)
