C51 COMPILER V9.51   SPIS_INT                                                              10/14/2013 23:29:42 PAGE 1   


C51 COMPILER V9.51, COMPILATION OF MODULE SPIS_INT
OBJECT MODULE PLACED IN .\DP8051_Keil_951\Debug\SPIS_INT.obj
COMPILER INVOKED BY: C:\Program Files (x86)\Cypress\PSoC Creator\3.0\PSoC Creator\import\keil\pk51\9.51\C51\BIN\c51.exe 
                    -.\Generated_Source\PSoC3\SPIS_INT.c NOIV LARGE MODDP2 OMF2 VB(1) PR(.\DP8051_Keil_951\Debug\SPIS_INT.lst) CD DB NOIP OT(
                    -5,SIZE) INCDIR(.,.\Generated_Source\PSoC3) OJ(.\DP8051_Keil_951\Debug\SPIS_INT.obj)

line level    source

   1          /*******************************************************************************
   2          * File Name: SPIS_INT.c
   3          * Version 2.60
   4          *
   5          * Description:
   6          *  This file provides all Interrupt Service Routine (ISR) for the SPI Slave
   7          *  component.
   8          *
   9          * Note:
  10          *  None.
  11          *
  12          ********************************************************************************
  13          * Copyright 2008-2013, Cypress Semiconductor Corporation.  All rights reserved.
  14          * You may use this file only in accordance with the license, terms, conditions,
  15          * disclaimers, and limitations in the end user license agreement accompanying
  16          * the software package with which this file was provided.
  17          *******************************************************************************/
  18          
  19          #include "SPIS_PVT.h"
  20          
  21          
  22          /* User code required at start of ISR */
  23          /* `#START SPIS_ISR_START_DEF` */
  24          
  25          /* `#END` */
  26          
  27          
  28          /*******************************************************************************
  29          * Function Name: SPIS_TX_ISR
  30          *
  31          * Summary:
  32          *  Interrupt Service Routine for TX portion of the SPI Slave.
  33          *
  34          * Parameters:
  35          *  None.
  36          *
  37          * Return:
  38          *  None.
  39          *
  40          * Global variables:
  41          *  SPIS_txBufferWrite - used for the account of the bytes which
  42          *  have been written down in the TX software buffer.
  43          *  SPIS_txBufferRead - used for the account of the bytes which
  44          *  have been read from the TX software buffer, modified when exist data to
  45          *  sending and FIFO Not Full.
  46          *  SPIS_txBuffer[SPIS_TX_BUFFER_SIZE] - used to store
  47          *  data to sending.
  48          *  All described above Global variables are used when Software Buffer is used.
  49          *
  50          *******************************************************************************/
  51          CY_ISR(SPIS_TX_ISR)
  52          {
  53   1      
C51 COMPILER V9.51   SPIS_INT                                                              10/14/2013 23:29:42 PAGE 2   

  54   1          #if(SPIS_TX_SOFTWARE_BUF_ENABLED)
  55   1              uint8 tmpStatus;
  56   1          #endif /* (SPIS_TX_SOFTWARE_BUF_ENABLED) */
  57   1      
  58   1          /* User code required at start of ISR */
  59   1          /* `#START SPIS_ISR_TX_START` */
  60   1      
  61   1          /* `#END` */
  62   1      
  63   1          #if(SPIS_TX_SOFTWARE_BUF_ENABLED)
  64   1              /* Component interrupt service code */
  65   1      
  66   1              /* See if TX data buffer is not empty and there is space in TX FIFO */
  67   1              while(SPIS_txBufferRead != SPIS_txBufferWrite)
  68   1              {
  69   2                  tmpStatus = SPIS_GET_STATUS_TX(SPIS_swStatusTx);
  70   2                  SPIS_swStatusTx = tmpStatus;
  71   2      
  72   2                  if ((SPIS_swStatusTx & SPIS_STS_TX_FIFO_NOT_FULL) != 0u)
  73   2                  {
  74   3                      if(SPIS_txBufferFull == 0u)
  75   3                      {
  76   4                         SPIS_txBufferRead++;
  77   4      
  78   4                          if(SPIS_txBufferRead >= SPIS_TX_BUFFER_SIZE)
  79   4                          {
  80   5                              SPIS_txBufferRead = 0u;
  81   5                          }
  82   4                      }
  83   3                      else
  84   3                      {
  85   4                          SPIS_txBufferFull = 0u;
  86   4                      }
  87   3      
  88   3                      /* Move data from the Buffer to the FIFO */
  89   3                      CY_SET_REG8(SPIS_TXDATA_PTR,
  90   3                      SPIS_txBuffer[SPIS_txBufferRead]);
  91   3                  }
  92   2                  else
  93   2                  {
  94   3                      break;
  95   3                  }
  96   2              }
  97   1      
  98   1              /* If Buffer is empty then disable TX FIFO status interrupt until there is data in the buffer */
  99   1              if(SPIS_txBufferRead == SPIS_txBufferWrite)
 100   1              {
 101   2                  SPIS_TX_STATUS_MASK_REG &= ((uint8)~SPIS_STS_TX_FIFO_NOT_FULL);
 102   2              }
 103   1      
 104   1          #endif /* SPIS_TX_SOFTWARE_BUF_ENABLED */
 105   1      
 106   1          /* User code required at end of ISR (Optional) */
 107   1          /* `#START SPIS_ISR_TX_END` */
 108   1      
 109   1          /* `#END` */
 110   1      
 111   1         }
 112          
 113          
 114          /*******************************************************************************
 115          * Function Name: SPIS_RX_ISR
C51 COMPILER V9.51   SPIS_INT                                                              10/14/2013 23:29:42 PAGE 3   

 116          *
 117          * Summary:
 118          *  Interrupt Service Routine for RX portion of the SPI Slave.
 119          *
 120          * Parameters:
 121          *  None.
 122          *
 123          * Return:
 124          *  None.
 125          *
 126          * Global variables:
 127          *  SPIS_rxBufferWrite - used for the account of the bytes which
 128          *  have been written down in the RX software buffer modified when FIFO contains
 129          *  new data.
 130          *  SPIS_rxBufferRead - used for the account of the bytes which
 131          *  have been read from the RX software buffer, modified when overflow occurred.
 132          *  SPIS_rxBuffer[SPIS_RX_BUFFER_SIZE] - used to store
 133          *  received data, modified when FIFO contains new data.
 134          *  All described above Global variables are used when Software Buffer is used.
 135          *
 136          *******************************************************************************/
 137          CY_ISR(SPIS_RX_ISR)
 138          {
 139   1          #if(SPIS_TX_SOFTWARE_BUF_ENABLED)
 140   1              uint8 tmpStatus;
 141   1              uint8 rxData;
 142   1          #endif /* (SPIS_TX_SOFTWARE_BUF_ENABLED) */
 143   1      
 144   1          /* User code required at start of ISR */
 145   1          /* `#START SPIS_RX_ISR_START` */
 146   1      
 147   1          /* `#END` */
 148   1      
 149   1          #if(SPIS_RX_SOFTWARE_BUF_ENABLED)
 150   1              tmpStatus = SPIS_GET_STATUS_RX(SPIS_swStatusRx);
 151   1              SPIS_swStatusRx = tmpStatus;
 152   1              /* See if RX data FIFO has some data and if it can be moved to the RX Buffer */
 153   1              while((SPIS_swStatusRx & SPIS_STS_RX_FIFO_NOT_EMPTY) != 0u)
 154   1              {
 155   2                  rxData = CY_GET_REG8(SPIS_RXDATA_PTR);
 156   2      
 157   2                  /* Set next pointer. */
 158   2                  SPIS_rxBufferWrite++;
 159   2                  if(SPIS_rxBufferWrite >= SPIS_RX_BUFFER_SIZE)
 160   2                  {
 161   3                      SPIS_rxBufferWrite = 0u;
 162   3                  }
 163   2      
 164   2                  if(SPIS_rxBufferWrite == SPIS_rxBufferRead)
 165   2                  {
 166   3                      SPIS_rxBufferRead++;
 167   3                      if(SPIS_rxBufferRead >= SPIS_RX_BUFFER_SIZE)
 168   3                      {
 169   4                          SPIS_rxBufferRead = 0u;
 170   4                      }
 171   3                      SPIS_rxBufferFull = 1u;
 172   3                  }
 173   2      
 174   2                  /* Move data from the FIFO to the Buffer */
 175   2                  SPIS_rxBuffer[SPIS_rxBufferWrite] = rxData;
 176   2      
 177   2                  tmpStatus = SPIS_GET_STATUS_RX(SPIS_swStatusRx);
C51 COMPILER V9.51   SPIS_INT                                                              10/14/2013 23:29:42 PAGE 4   

 178   2                  SPIS_swStatusRx = tmpStatus;
 179   2              }
 180   1          #endif /* SPIS_RX_SOFTWARE_BUF_ENABLED */
 181   1      
 182   1          /* User code required at end of ISR (Optional) */
 183   1          /* `#START SPIS_RX_ISR_END` */
 184   1      
 185   1          /* `#END` */
 186   1      
 187   1      }
 188          
 189          /* [] END OF FILE */
C51 COMPILER V9.51   SPIS_INT                                                              10/14/2013 23:29:42 PAGE 5   

ASSEMBLY LISTING OF GENERATED OBJECT CODE


             ; FUNCTION SPIS_TX_ISR (BEGIN)
0000 C0E0              PUSH    ACC
0002 C083              PUSH    DPH
0004 C082              PUSH    DPL
0006 C085              PUSH    DPH1
0008 C084              PUSH    DPL1
000A C086              PUSH    DPS
000C 758600            MOV     DPS,#00H
000F C000        E     PUSH    ?C?XPAGE1SFR
0011 750000      E     MOV     ?C?XPAGE1SFR,#?C?XPAGE1RST
0014 C0D0              PUSH    PSW
0016 75D000            MOV     PSW,#00H
0019 C007              PUSH    AR7
                                           ; SOURCE LINE # 51
001B         ?C0001:
                                           ; SOURCE LINE # 67
001B 900000      E     MOV     DPTR,#SPIS_txBufferWrite
001E E0                MOVX    A,@DPTR
001F FF                MOV     R7,A
0020 900000      E     MOV     DPTR,#SPIS_txBufferRead
0023 E0                MOVX    A,@DPTR
0024 6F                XRL     A,R7
0025 6046              JZ      ?C0002
                                           ; SOURCE LINE # 68
                                           ; SOURCE LINE # 69
0027 900000      E     MOV     DPTR,#SPIS_swStatusTx
002A E0                MOVX    A,@DPTR
002B 5461              ANL     A,#061H
002D FF                MOV     R7,A
002E 906466            MOV     DPTR,#06466H
0031 E0                MOVX    A,@DPTR
0032 4F                ORL     A,R7
0033 FF                MOV     R7,A
;---- Variable 'tmpStatus' assigned to Register 'R7' ----
                                           ; SOURCE LINE # 70
0034 900000      E     MOV     DPTR,#SPIS_swStatusTx
0037 F0                MOVX    @DPTR,A
                                           ; SOURCE LINE # 72
0038 E0                MOVX    A,@DPTR
0039 30E131            JNB     ACC.1,?C0002
                                           ; SOURCE LINE # 73
                                           ; SOURCE LINE # 74
003C 900000      E     MOV     DPTR,#SPIS_txBufferFull
003F E0                MOVX    A,@DPTR
0040 7010              JNZ     ?C0004
                                           ; SOURCE LINE # 75
                                           ; SOURCE LINE # 76
0042 900000      E     MOV     DPTR,#SPIS_txBufferRead
0045 E0                MOVX    A,@DPTR
0046 04                INC     A
0047 F0                MOVX    @DPTR,A
                                           ; SOURCE LINE # 78
0048 E0                MOVX    A,@DPTR
0049 C3                CLR     C
004A 9408              SUBB    A,#08H
004C 4009              JC      ?C0006
                                           ; SOURCE LINE # 79
                                           ; SOURCE LINE # 80
004E E4                CLR     A
C51 COMPILER V9.51   SPIS_INT                                                              10/14/2013 23:29:42 PAGE 6   

004F F0                MOVX    @DPTR,A
                                           ; SOURCE LINE # 81
                                           ; SOURCE LINE # 82
0050 8005              SJMP    ?C0006
0052         ?C0004:
                                           ; SOURCE LINE # 84
                                           ; SOURCE LINE # 85
0052 900000      E     MOV     DPTR,#SPIS_txBufferFull
0055 E4                CLR     A
0056 F0                MOVX    @DPTR,A
                                           ; SOURCE LINE # 86
0057         ?C0006:
                                           ; SOURCE LINE # 90
0057 900000      E     MOV     DPTR,#SPIS_txBufferRead
005A E0                MOVX    A,@DPTR
005B 2400        E     ADD     A,#LOW SPIS_txBuffer
005D F582              MOV     DPL,A
005F E4                CLR     A
0060 3400        E     ADDC    A,#HIGH SPIS_txBuffer
0062 F583              MOV     DPH,A
0064 E0                MOVX    A,@DPTR
0065 906446            MOV     DPTR,#06446H
0068 F0                MOVX    @DPTR,A
                                           ; SOURCE LINE # 91
0069 80B0              SJMP    ?C0001
                                           ; SOURCE LINE # 93
                                           ; SOURCE LINE # 94
                                           ; SOURCE LINE # 95
                                           ; SOURCE LINE # 96
006B 80AE              SJMP    ?C0001
006D         ?C0002:
                                           ; SOURCE LINE # 99
006D 900000      E     MOV     DPTR,#SPIS_txBufferWrite
0070 E0                MOVX    A,@DPTR
0071 FF                MOV     R7,A
0072 900000      E     MOV     DPTR,#SPIS_txBufferRead
0075 E0                MOVX    A,@DPTR
0076 B50707            CJNE    A,AR7,?C0009
                                           ; SOURCE LINE # 100
                                           ; SOURCE LINE # 101
0079 906486            MOV     DPTR,#06486H
007C E0                MOVX    A,@DPTR
007D 54FD              ANL     A,#0FDH
007F F0                MOVX    @DPTR,A
                                           ; SOURCE LINE # 102
                                           ; SOURCE LINE # 111
0080         ?C0009:
0080 D007              POP     AR7
0082 D0D0              POP     PSW
0084 D000        E     POP     ?C?XPAGE1SFR
0086 D086              POP     DPS
0088 D084              POP     DPL1
008A D085              POP     DPH1
008C D082              POP     DPL
008E D083              POP     DPH
0090 D0E0              POP     ACC
0092 32                RETI    
             ; FUNCTION SPIS_TX_ISR (END)

             ; FUNCTION SPIS_RX_ISR (BEGIN)
0000 C0E0              PUSH    ACC
0002 C083              PUSH    DPH
C51 COMPILER V9.51   SPIS_INT                                                              10/14/2013 23:29:42 PAGE 7   

0004 C082              PUSH    DPL
0006 C085              PUSH    DPH1
0008 C084              PUSH    DPL1
000A C086              PUSH    DPS
000C 758600            MOV     DPS,#00H
000F C000        E     PUSH    ?C?XPAGE1SFR
0011 750000      E     MOV     ?C?XPAGE1SFR,#?C?XPAGE1RST
0014 C0D0              PUSH    PSW
0016 75D000            MOV     PSW,#00H
0019 C005              PUSH    AR5
001B C006              PUSH    AR6
001D C007              PUSH    AR7
                                           ; SOURCE LINE # 137
;---- Variable 'rxData' assigned to Register 'R7' ----
                                           ; SOURCE LINE # 150
001F 900000      E     MOV     DPTR,#SPIS_swStatusRx
0022 E0                MOVX    A,@DPTR
0023 5461              ANL     A,#061H
0025 FE                MOV     R6,A
0026 906464            MOV     DPTR,#06464H
0029 E0                MOVX    A,@DPTR
002A 4E                ORL     A,R6
002B FE                MOV     R6,A
;---- Variable 'tmpStatus' assigned to Register 'R6' ----
                                           ; SOURCE LINE # 151
002C 900000      E     MOV     DPTR,#SPIS_swStatusRx
002F F0                MOVX    @DPTR,A
0030         ?C0010:
                                           ; SOURCE LINE # 153
0030 900000      E     MOV     DPTR,#SPIS_swStatusRx
0033 E0                MOVX    A,@DPTR
0034 30E355            JNB     ACC.3,?C0015
                                           ; SOURCE LINE # 154
                                           ; SOURCE LINE # 155
0037 906456            MOV     DPTR,#06456H
003A E0                MOVX    A,@DPTR
003B FF                MOV     R7,A
                                           ; SOURCE LINE # 158
003C 900000      E     MOV     DPTR,#SPIS_rxBufferWrite
003F E0                MOVX    A,@DPTR
0040 04                INC     A
0041 F0                MOVX    @DPTR,A
                                           ; SOURCE LINE # 159
0042 E0                MOVX    A,@DPTR
0043 C3                CLR     C
0044 9408              SUBB    A,#08H
0046 4002              JC      ?C0012
                                           ; SOURCE LINE # 160
                                           ; SOURCE LINE # 161
0048 E4                CLR     A
0049 F0                MOVX    @DPTR,A
                                           ; SOURCE LINE # 162
004A         ?C0012:
                                           ; SOURCE LINE # 164
004A 900000      E     MOV     DPTR,#SPIS_rxBufferRead
004D E0                MOVX    A,@DPTR
004E FD                MOV     R5,A
004F 900000      E     MOV     DPTR,#SPIS_rxBufferWrite
0052 E0                MOVX    A,@DPTR
0053 B50514            CJNE    A,AR5,?C0013
                                           ; SOURCE LINE # 165
                                           ; SOURCE LINE # 166
C51 COMPILER V9.51   SPIS_INT                                                              10/14/2013 23:29:42 PAGE 8   

0056 900000      E     MOV     DPTR,#SPIS_rxBufferRead
0059 E0                MOVX    A,@DPTR
005A 04                INC     A
005B F0                MOVX    @DPTR,A
                                           ; SOURCE LINE # 167
005C E0                MOVX    A,@DPTR
005D C3                CLR     C
005E 9408              SUBB    A,#08H
0060 4002              JC      ?C0014
                                           ; SOURCE LINE # 168
                                           ; SOURCE LINE # 169
0062 E4                CLR     A
0063 F0                MOVX    @DPTR,A
                                           ; SOURCE LINE # 170
0064         ?C0014:
                                           ; SOURCE LINE # 171
0064 900000      E     MOV     DPTR,#SPIS_rxBufferFull
0067 7401              MOV     A,#01H
0069 F0                MOVX    @DPTR,A
                                           ; SOURCE LINE # 172
006A         ?C0013:
                                           ; SOURCE LINE # 175
006A 900000      E     MOV     DPTR,#SPIS_rxBufferWrite
006D E0                MOVX    A,@DPTR
006E 2400        E     ADD     A,#LOW SPIS_rxBuffer
0070 F582              MOV     DPL,A
0072 E4                CLR     A
0073 3400        E     ADDC    A,#HIGH SPIS_rxBuffer
0075 F583              MOV     DPH,A
0077 EF                MOV     A,R7
0078 F0                MOVX    @DPTR,A
                                           ; SOURCE LINE # 177
0079 900000      E     MOV     DPTR,#SPIS_swStatusRx
007C E0                MOVX    A,@DPTR
007D 5461              ANL     A,#061H
007F FD                MOV     R5,A
0080 906464            MOV     DPTR,#06464H
0083 E0                MOVX    A,@DPTR
0084 4D                ORL     A,R5
0085 FE                MOV     R6,A
                                           ; SOURCE LINE # 178
0086 900000      E     MOV     DPTR,#SPIS_swStatusRx
0089 F0                MOVX    @DPTR,A
                                           ; SOURCE LINE # 179
008A 80A4              SJMP    ?C0010
                                           ; SOURCE LINE # 187
008C         ?C0015:
008C D007              POP     AR7
008E D006              POP     AR6
0090 D005              POP     AR5
0092 D0D0              POP     PSW
0094 D000        E     POP     ?C?XPAGE1SFR
0096 D086              POP     DPS
0098 D084              POP     DPL1
009A D085              POP     DPH1
009C D082              POP     DPL
009E D083              POP     DPH
00A0 D0E0              POP     ACC
00A2 32                RETI    
             ; FUNCTION SPIS_RX_ISR (END)


C51 COMPILER V9.51   SPIS_INT                                                              10/14/2013 23:29:42 PAGE 9   


MODULE INFORMATION:   STATIC OVERLAYABLE
   CODE SIZE        =    310    ----
   CONSTANT SIZE    =   ----    ----
   XDATA SIZE       =   ----    ----
   PDATA SIZE       =   ----    ----
   DATA SIZE        =   ----    ----
   IDATA SIZE       =   ----    ----
   BIT SIZE         =   ----    ----
   EDATA SIZE       =   ----    ----
   HDATA SIZE       =   ----    ----
   XDATA CONST SIZE =   ----    ----
   FAR CONST SIZE   =   ----    ----
END OF MODULE INFORMATION.


C51 COMPILATION COMPLETE.  0 WARNING(S),  0 ERROR(S)
