C51 COMPILER V9.51   CYPM                                                                  12/22/2013 23:27:30 PAGE 1   


C51 COMPILER V9.51, COMPILATION OF MODULE CYPM
OBJECT MODULE PLACED IN .\DP8051\DP8051_Keil_951\Debug\cyPm.obj
COMPILER INVOKED BY: C:\Program Files (x86)\Cypress\PSoC Creator\3.0\PSoC Creator\import\keil\pk51\9.51\C51\BIN\c51.exe 
                    -.\Generated_Source\PSoC3\cyPm.c NOIV LARGE MODDP2 OMF2 VB(1) PR(.\DP8051\DP8051_Keil_951\Debug\cyPm.lst) CD DB NOIP OT(2
                    -,SIZE) DF(DEBUG) INCDIR(.,.\Generated_Source\PSoC3) OJ(.\DP8051\DP8051_Keil_951\Debug\cyPm.obj)

line level    source

   1          /*******************************************************************************
   2          * File Name: cyPm.c
   3          * Version 4.0
   4          *
   5          * Description:
   6          *  Provides an API for the power management.
   7          *
   8          * Note:
   9          *  Documentation of the API's in this file is located in the
  10          *  System Reference Guide provided with PSoC Creator.
  11          *
  12          ********************************************************************************
  13          * Copyright 2008-2013, Cypress Semiconductor Corporation.  All rights reserved.
  14          * You may use this file only in accordance with the license, terms, conditions,
  15          * disclaimers, and limitations in the end user license agreement accompanying
  16          * the software package with which this file was provided.
  17          *******************************************************************************/
  18          
  19          #include "cyPm.h"
  20          
  21          
  22          /*******************************************************************
  23          * Place your includes, defines and code here. Do not use merge
  24          * region below unless any component datasheet suggest to do so.
  25          *******************************************************************/
  26          /* `#START CY_PM_HEADER_INCLUDE` */
  27          
  28          /* `#END` */
  29          
  30          
  31          static CY_PM_BACKUP_STRUCT          cyPmBackup;
  32          static CY_PM_CLOCK_BACKUP_STRUCT    cyPmClockBackup;
  33          
  34          /* Convertion table between register's values and frequency in MHz  */
  35          static const uint8 CYCODE cyPmImoFreqReg2Mhz[7u] = {12u, 6u, 24u, 3u, 48u, 62u, 74u};
  36          
  37          /* Function Prototypes */
  38          static void CyPmHibSaveSet(void);
  39          static void CyPmHibRestore(void) ;
  40          
  41          static void CyPmHibSlpSaveSet(void) ;
  42          static void CyPmHibSlpRestore(void) ;
  43          
  44          static void CyPmHviLviSaveDisable(void) ;
  45          static void CyPmHviLviRestore(void) ;
  46          
  47          
  48          /*******************************************************************************
  49          * Function Name: CyPmSaveClocks
  50          ********************************************************************************
  51          *
  52          * Summary:
  53          *  This function is called in preparation for entering sleep or hibernate low
C51 COMPILER V9.51   CYPM                                                                  12/22/2013 23:27:30 PAGE 2   

  54          *  power modes. Saves all state of the clocking system that does not persist
  55          *  during sleep/hibernate or that needs to be altered in preparation for
  56          *  sleep/hibernate. Shutdowns all the digital and analog clock dividers for the
  57          *  active power mode configuration.
  58          *
  59          *  Switches the master clock over to the IMO and shuts down the PLL and MHz
  60          *  Crystal. The IMO frequency is set to either 12 MHz or 48 MHz to match the
  61          *  Design-Wide Resources System Editor "Enable Fast IMO During Startup" setting.
  62          *  The ILO and 32 KHz oscillators are not impacted. The current Flash wait state
  63          *  setting is saved and the Flash wait state setting is set for the current IMO
  64          *  speed.
  65          *
  66          *  Note If the Master Clock source is routed through the DSI inputs, then it
  67          *  must be set manually to another source before using the
  68          *  CyPmSaveClocks()/CyPmRestoreClocks() functions.
  69          *
  70          * Parameters:
  71          *  None
  72          *
  73          * Return:
  74          *  None
  75          *
  76          * Side Effects:
  77          *  All peripheral clocks are going to be off after this API method call.
  78          *
  79          *******************************************************************************/
  80          void CyPmSaveClocks(void) 
  81          {
  82   1          /* Digital and analog clocks - save enable state and disable them all */
  83   1          cyPmClockBackup.enClkA = CY_PM_ACT_CFG1_REG & CY_PM_ACT_EN_CLK_A_MASK;
  84   1          cyPmClockBackup.enClkD = CY_PM_ACT_CFG2_REG;
  85   1          CY_PM_ACT_CFG1_REG &= ((uint8)(~CY_PM_ACT_EN_CLK_A_MASK));
  86   1          CY_PM_ACT_CFG2_REG &= ((uint8)(~CY_PM_ACT_EN_CLK_D_MASK));
  87   1      
  88   1          /* Save current flash wait cycles and set the maximum value */
  89   1          cyPmClockBackup.flashWaitCycles = CY_PM_CACHE_CR_CYCLES_MASK & CY_PM_CACHE_CR_REG;
  90   1          CyFlash_SetWaitCycles(CY_PM_MAX_FLASH_WAIT_CYCLES);
  91   1      
  92   1          /* IMO - save current IMO MHz OSC frequency and USB mode is on bit */
  93   1          cyPmClockBackup.imoFreq = CY_PM_FASTCLK_IMO_CR_REG & CY_PM_FASTCLK_IMO_CR_FREQ_MASK;
  94   1          cyPmClockBackup.imoUsbClk = CY_PM_FASTCLK_IMO_CR_REG & CY_PM_FASTCLK_IMO_CR_USB;
  95   1      
  96   1          /* IMO doubler - save enable state */
  97   1          if(0u != (CY_PM_FASTCLK_IMO_CR_REG & CY_PM_FASTCLK_IMO_CR_F2XON))
  98   1          {
  99   2              /* IMO doubler enabled - save and disable */
 100   2              cyPmClockBackup.imo2x = CY_PM_ENABLED;
 101   2          }
 102   1          else
 103   1          {
 104   2              /* IMO doubler disabled */
 105   2              cyPmClockBackup.imo2x = CY_PM_DISABLED;
 106   2          }
 107   1      
 108   1          /* IMO - set appropriate frequency for LPM */
 109   1          CyIMO_SetFreq(CY_PM_IMO_FREQ_LPM);
 110   1      
 111   1          /* IMO - save enable state and enable without wait to settle */
 112   1          if(0u != (CY_PM_ACT_CFG0_IMO & CY_PM_ACT_CFG0_REG))
 113   1          {
 114   2              /* IMO - save enabled state */
 115   2              cyPmClockBackup.imoEnable = CY_PM_ENABLED;
C51 COMPILER V9.51   CYPM                                                                  12/22/2013 23:27:30 PAGE 3   

 116   2          }
 117   1          else
 118   1          {
 119   2              /* IMO - save disabled state */
 120   2              cyPmClockBackup.imoEnable = CY_PM_DISABLED;
 121   2      
 122   2              /* IMO - enable */
 123   2              CyIMO_Start(CY_PM_IMO_NO_WAIT_TO_SETTLE);
 124   2          }
 125   1      
 126   1          /* IMO - save the current IMOCLK source and set to IMO if not yet */
 127   1          if(0u != (CY_PM_FASTCLK_IMO_CR_REG & CY_PM_FASTCLK_IMO_CR_XCLKEN))
 128   1          {
 129   2              /* DSI or XTAL CLK */
 130   2              cyPmClockBackup.imoClkSrc =
 131   2                  (0u == (CY_PM_CLKDIST_CR_REG & CY_PM_CLKDIST_IMO2X_SRC)) ? CY_IMO_SOURCE_DSI : CY_IMO_SOURCE_X
             -TAL;
 132   2      
 133   2              /* IMO -  set IMOCLK source to MHz OSC */
 134   2              CyIMO_SetSource(CY_IMO_SOURCE_IMO);
 135   2          }
 136   1          else
 137   1          {
 138   2              /* IMO */
 139   2              cyPmClockBackup.imoClkSrc = CY_IMO_SOURCE_IMO;
 140   2          }
 141   1      
 142   1          /* Save clk_imo source */
 143   1          cyPmClockBackup.clkImoSrc = CY_PM_CLKDIST_CR_REG & CY_PM_CLKDIST_IMO_OUT_MASK;
 144   1      
 145   1          /* If IMOCLK2X or SPC OSC is source for clk_imo, set it to IMOCLK */
 146   1          if(CY_PM_CLKDIST_IMO_OUT_IMO != cyPmClockBackup.clkImoSrc)
 147   1          {
 148   2              /* Set IMOCLK to source for clk_imo */
 149   2              CY_PM_CLKDIST_CR_REG = (CY_PM_CLKDIST_CR_REG & ((uint8)(~CY_PM_CLKDIST_IMO_OUT_MASK))) |
 150   2                                      CY_PM_CLKDIST_IMO_OUT_IMO;
 151   2          }    /* Need to change nothing if IMOCLK is source clk_imo */
 152   1      
 153   1          /* IMO doubler - disable it (saved above) */
 154   1          if(0u != (CY_PM_FASTCLK_IMO_CR_REG & CY_PM_FASTCLK_IMO_CR_F2XON))
 155   1          {
 156   2              CyIMO_DisableDoubler();
 157   2          }
 158   1      
 159   1          /* Master clock - save divider and set it to divide-by-one (if no yet) */
 160   1          cyPmClockBackup.clkSyncDiv = CY_PM_CLKDIST_MSTR0_REG;
 161   1          if(CY_PM_DIV_BY_ONE != cyPmClockBackup.clkSyncDiv)
 162   1          {
 163   2              CyMasterClk_SetDivider(CY_PM_DIV_BY_ONE);
 164   2          }    /* Need to change nothing if master clock divider is 1 */
 165   1      
 166   1          /* Master clock - save current source */
 167   1          cyPmClockBackup.masterClkSrc = CY_PM_CLKDIST_MSTR1_REG & CY_PM_MASTER_CLK_SRC_MASK;
 168   1      
 169   1          /* Master clock source - set it to IMO if not yet. */
 170   1          if(CY_MASTER_SOURCE_IMO != cyPmClockBackup.masterClkSrc)
 171   1          {
 172   2              CyMasterClk_SetSource(CY_MASTER_SOURCE_IMO);
 173   2          }    /* Need to change nothing if master clock source is IMO */
 174   1      
 175   1          /* Bus clock - save divider and set it, if needed, to divide-by-one */
 176   1          cyPmClockBackup.clkBusDiv = (uint16) ((uint16) CY_PM_CLK_BUS_MSB_DIV_REG << 8u);
C51 COMPILER V9.51   CYPM                                                                  12/22/2013 23:27:30 PAGE 4   

 177   1          cyPmClockBackup.clkBusDiv |= CY_PM_CLK_BUS_LSB_DIV_REG;
 178   1          if(CY_PM_BUS_CLK_DIV_BY_ONE != cyPmClockBackup.clkBusDiv)
 179   1          {
 180   2              CyBusClk_SetDivider(CY_PM_BUS_CLK_DIV_BY_ONE);
 181   2          }    /* Do nothing if saved and actual values are equal */
 182   1      
 183   1          /* Set number of wait cycles for the flash according CPU frequency in MHz */
 184   1          CyFlash_SetWaitCycles((uint8)CY_PM_GET_CPU_FREQ_MHZ);
 185   1      
 186   1          /* PLL - check enable state, disable if needed */
 187   1          if(0u != (CY_PM_FASTCLK_PLL_CFG0_REG & CY_PM_PLL_CFG0_ENABLE))
 188   1          {
 189   2              /* PLL is enabled - save state and disable */
 190   2              cyPmClockBackup.pllEnableState = CY_PM_ENABLED;
 191   2              CyPLL_OUT_Stop();
 192   2          }
 193   1          else
 194   1          {
 195   2              /* PLL is disabled - save state */
 196   2              cyPmClockBackup.pllEnableState = CY_PM_DISABLED;
 197   2          }
 198   1      
 199   1          /* MHz ECO - check enable state and disable if needed */
 200   1          if(0u != (CY_PM_FASTCLK_XMHZ_CSR_REG & CY_PM_XMHZ_CSR_ENABLE))
 201   1          {
 202   2              /* MHz ECO is enabled - save state and disable */
 203   2              cyPmClockBackup.xmhzEnableState = CY_PM_ENABLED;
 204   2              CyXTAL_Stop();
 205   2          }
 206   1          else
 207   1          {
 208   2              /* MHz ECO is disabled - save state */
 209   2              cyPmClockBackup.xmhzEnableState = CY_PM_DISABLED;
 210   2          }
 211   1      
 212   1      
 213   1          /***************************************************************************
 214   1          * Save enable state of delay between the system bus clock and each of the
 215   1          * 4 individual analog clocks. This bit non-retention and it's value should
 216   1          * be restored on wakeup.
 217   1          ***************************************************************************/
 218   1          if(0u != (CY_PM_CLKDIST_DELAY_REG & CY_PM_CLKDIST_DELAY_EN))
 219   1          {
 220   2              cyPmClockBackup.clkDistDelay = CY_PM_ENABLED;
 221   2          }
 222   1          else
 223   1          {
 224   2              cyPmClockBackup.clkDistDelay = CY_PM_DISABLED;
 225   2          }
 226   1      }
 227          
 228          
 229          /*******************************************************************************
 230          * Function Name: CyPmRestoreClocks
 231          ********************************************************************************
 232          *
 233          * Summary:
 234          *  Restores any state that was preserved by the last call to CyPmSaveClocks().
 235          *  The Flash wait state setting is also restored.
 236          *
 237          *  Note If the Master Clock source is routed through the DSI inputs, then it
 238          *  must be set manually to another source before using the
C51 COMPILER V9.51   CYPM                                                                  12/22/2013 23:27:30 PAGE 5   

 239          *  CyPmSaveClocks()/CyPmRestoreClocks() functions.
 240          *
 241          *  PSoC 3 and PSoC 5LP:
 242          *  The merge region could be used to process state when the megahertz crystal is
 243          *  not ready after the hold-off timeout.
 244          *
 245          *  PSoC 5:
 246          *  The 130 ms is given for the megahertz crystal to stabilize. It's readiness is
 247          *  not verified after the hold-off timeout.
 248          *
 249          * Parameters:
 250          *  None
 251          *
 252          * Return:
 253          *  None
 254          *
 255          *******************************************************************************/
 256          void CyPmRestoreClocks(void) 
 257          {
 258   1          cystatus status = CYRET_TIMEOUT;
 259   1          uint16 i;
 260   1          uint16 clkBusDivTmp;
 261   1      
 262   1      
 263   1          /* Convertion table between CyIMO_SetFreq() parameters and register's value */
 264   1          const uint8 CYCODE cyPmImoFreqMhz2Reg[7u] = {
 265   1              CY_IMO_FREQ_12MHZ, CY_IMO_FREQ_6MHZ,  CY_IMO_FREQ_24MHZ, CY_IMO_FREQ_3MHZ,
 266   1              CY_IMO_FREQ_48MHZ, 5u, 6u};
 267   1      
 268   1          /* Restore enable state of delay between the system bus clock and ACLKs. */
 269   1          if(CY_PM_ENABLED == cyPmClockBackup.clkDistDelay)
 270   1          {
 271   2              /* Delay for both the bandgap and the delay line to settle out */
 272   2              CyDelayCycles((uint32)(CY_PM_CLK_DELAY_BANDGAP_SETTLE_US + CY_PM_CLK_DELAY_BIAS_SETTLE_US) *
 273   2                              CY_PM_GET_CPU_FREQ_MHZ);
 274   2      
 275   2              CY_PM_CLKDIST_DELAY_REG |= CY_PM_CLKDIST_DELAY_EN;
 276   2          }
 277   1      
 278   1          /* MHz ECO restore state */
 279   1          if(CY_PM_ENABLED == cyPmClockBackup.xmhzEnableState)
 280   1          {
 281   2              /***********************************************************************
 282   2              * Enabling XMHZ XTAL. The actual CyXTAL_Start() with non zero wait
 283   2              * period uses FTW for period measurement. This could cause a problem
 284   2              * if CTW/FTW is used as a wake up time in the low power modes APIs.
 285   2              * So, the XTAL wait procedure is implemented with a software delay.
 286   2              ***********************************************************************/
 287   2      
 288   2              /* Enable XMHZ XTAL with no wait */
 289   2              (void) CyXTAL_Start(CY_PM_XTAL_MHZ_NO_WAIT);
 290   2      
 291   2              /* Read XERR bit to clear it */
 292   2              (void) CY_PM_FASTCLK_XMHZ_CSR_REG;
 293   2      
 294   2              /* Wait */
 295   2              for(i = CY_PM_MHZ_XTAL_WAIT_NUM_OF_200_US; i > 0u; i--)
 296   2              {
 297   3                  /* Make a 200 microseconds delay */
 298   3                  CyDelayCycles((uint32)CY_PM_WAIT_200_US * CY_PM_GET_CPU_FREQ_MHZ);
 299   3      
 300   3                  /* High output indicates oscillator failure */
C51 COMPILER V9.51   CYPM                                                                  12/22/2013 23:27:30 PAGE 6   

 301   3                  if(0u == (CY_PM_FASTCLK_XMHZ_CSR_REG & CY_PM_XMHZ_CSR_XERR))
 302   3                  {
 303   4                      status = CYRET_SUCCESS;
 304   4                      break;
 305   4                  }
 306   3              }
 307   2      
 308   2              if(CYRET_TIMEOUT == status)
 309   2              {
 310   3                  /*******************************************************************
 311   3                  * Process the situation when megahertz crystal is not ready.
 312   3                  * Time to stabialize value is crystal specific.
 313   3                  *******************************************************************/
 314   3                 /* `#START_MHZ_ECO_TIMEOUT` */
 315   3      
 316   3                 /* `#END` */
 317   3              }
 318   2          }   /* (CY_PM_ENABLED == cyPmClockBackup.xmhzEnableState) */
 319   1      
 320   1      
 321   1          /* Temprorary set the maximum flash wait cycles */
 322   1          CyFlash_SetWaitCycles(CY_PM_MAX_FLASH_WAIT_CYCLES);
 323   1      
 324   1          /* The XTAL and DSI clocks are ready to be source for Master clock. */
 325   1          if((CY_PM_MASTER_CLK_SRC_XTAL == cyPmClockBackup.masterClkSrc) ||
 326   1             (CY_PM_MASTER_CLK_SRC_DSI  == cyPmClockBackup.masterClkSrc))
 327   1          {
 328   2              /* Restore Master clock's divider */
 329   2              if(CY_PM_CLKDIST_MSTR0_REG != cyPmClockBackup.clkSyncDiv)
 330   2              {
 331   3                  /* Restore Master clock divider */
 332   3                  CyMasterClk_SetDivider(cyPmClockBackup.clkSyncDiv);
 333   3              }
 334   2      
 335   2              /* Restore Master clock source */
 336   2              CyMasterClk_SetSource(cyPmClockBackup.masterClkSrc);
 337   2          }
 338   1      
 339   1          /* IMO - restore IMO frequency */
 340   1          if((0u != (cyPmClockBackup.imoUsbClk & CY_PM_FASTCLK_IMO_CR_USB)) &&
 341   1              (CY_IMO_FREQ_24MHZ == cyPmImoFreqMhz2Reg[cyPmClockBackup.imoFreq]))
 342   1          {
 343   2              /* Restore IMO frequency (24 MHz) and trim it for USB */
 344   2              CyIMO_SetFreq(CY_IMO_FREQ_USB);
 345   2          }
 346   1          else
 347   1          {
 348   2              /* Restore IMO frequency */
 349   2              CyIMO_SetFreq(cyPmImoFreqMhz2Reg[cyPmClockBackup.imoFreq]);
 350   2      
 351   2              if(0u != (cyPmClockBackup.imoUsbClk & CY_PM_FASTCLK_IMO_CR_USB))
 352   2              {
 353   3                  CY_PM_FASTCLK_IMO_CR_REG |= CY_PM_FASTCLK_IMO_CR_USB;
 354   3              }
 355   2              else
 356   2              {
 357   3                  CY_PM_FASTCLK_IMO_CR_REG &= ((uint8)(~CY_PM_FASTCLK_IMO_CR_USB));
 358   3              }
 359   2          }
 360   1      
 361   1          /* IMO - restore enable state if needed */
 362   1          if((CY_PM_ENABLED == cyPmClockBackup.imoEnable) &&
C51 COMPILER V9.51   CYPM                                                                  12/22/2013 23:27:30 PAGE 7   

 363   1             (0u == (CY_PM_ACT_CFG0_IMO & CY_PM_ACT_CFG0_REG)))
 364   1          {
 365   2              /* IMO - restore enabled state */
 366   2              CyIMO_Start(CY_PM_IMO_NO_WAIT_TO_SETTLE);
 367   2          }
 368   1      
 369   1          /* IMO - restore disable state if needed */
 370   1          if((CY_PM_DISABLED == cyPmClockBackup.imoEnable) &&
 371   1             (0u != (CY_PM_ACT_CFG0_IMO & CY_PM_ACT_CFG0_REG)))
 372   1          {
 373   2              CyIMO_Stop();
 374   2          }
 375   1      
 376   1          /* IMO - restore IMOCLK source */
 377   1          CyIMO_SetSource(cyPmClockBackup.imoClkSrc);
 378   1      
 379   1          /* Restore IMO doubler enable state (turned off by CyPmSaveClocks()) */
 380   1          if(CY_PM_ENABLED == cyPmClockBackup.imo2x)
 381   1          {
 382   2              CyIMO_EnableDoubler();
 383   2          }
 384   1      
 385   1          /* IMO - restore clk_imo source, if needed */
 386   1          if(cyPmClockBackup.clkImoSrc != (CY_PM_CLKDIST_CR_REG & CY_PM_CLKDIST_IMO_OUT_MASK))
 387   1          {
 388   2              CY_PM_CLKDIST_CR_REG = (CY_PM_CLKDIST_CR_REG & ((uint8)(~CY_PM_CLKDIST_IMO_OUT_MASK))) |
 389   2                                      cyPmClockBackup.clkImoSrc;
 390   2          }
 391   1      
 392   1          /* PLL restore state */
 393   1          if(CY_PM_ENABLED == cyPmClockBackup.pllEnableState)
 394   1          {
 395   2              /***********************************************************************
 396   2              * Enable PLL. The actual CyPLL_OUT_Start() without wait period uses FTW
 397   2              * for period measurement. This could cause a problem if CTW/FTW is used
 398   2              * as a wakeup time in the low power modes APIs. To omit this issue PLL
 399   2              * wait procedure is implemented with a software delay.
 400   2              ***********************************************************************/
 401   2      
 402   2              /* Enable PLL */
 403   2              (void) CyPLL_OUT_Start(CY_PM_PLL_OUT_NO_WAIT);
 404   2      
 405   2              /* Make a 250 us delay */
 406   2              CyDelayCycles((uint32)CY_PM_WAIT_250_US * CY_PM_GET_CPU_FREQ_MHZ);
 407   2          }   /* (CY_PM_ENABLED == cyPmClockBackup.pllEnableState) */
 408   1      
 409   1      
 410   1          /* PLL and IMO is ready to be source for Master clock */
 411   1          if((CY_PM_MASTER_CLK_SRC_IMO == cyPmClockBackup.masterClkSrc) ||
 412   1             (CY_PM_MASTER_CLK_SRC_PLL == cyPmClockBackup.masterClkSrc))
 413   1          {
 414   2              /* Restore Master clock divider */
 415   2              if(CY_PM_CLKDIST_MSTR0_REG != cyPmClockBackup.clkSyncDiv)
 416   2              {
 417   3                  CyMasterClk_SetDivider(cyPmClockBackup.clkSyncDiv);
 418   3              }
 419   2      
 420   2              /* Restore Master clock source */
 421   2              CyMasterClk_SetSource(cyPmClockBackup.masterClkSrc);
 422   2          }
 423   1      
 424   1          /* Bus clock - restore divider, if needed */
C51 COMPILER V9.51   CYPM                                                                  12/22/2013 23:27:30 PAGE 8   

 425   1          clkBusDivTmp = (uint16) ((uint16)CY_PM_CLK_BUS_MSB_DIV_REG << 8u);
 426   1          clkBusDivTmp |= CY_PM_CLK_BUS_LSB_DIV_REG;
 427   1          if(cyPmClockBackup.clkBusDiv != clkBusDivTmp)
 428   1          {
 429   2              CyBusClk_SetDivider(cyPmClockBackup.clkBusDiv);
 430   2          }
 431   1      
 432   1          /* Restore flash wait cycles */
 433   1          CY_PM_CACHE_CR_REG = ((CY_PM_CACHE_CR_REG & ((uint8)(~CY_PM_CACHE_CR_CYCLES_MASK))) |
 434   1                                 cyPmClockBackup.flashWaitCycles);
 435   1      
 436   1          /* Digital and analog clocks - restore state */
 437   1          CY_PM_ACT_CFG1_REG = cyPmClockBackup.enClkA;
 438   1          CY_PM_ACT_CFG2_REG = cyPmClockBackup.enClkD;
 439   1      }
 440          
 441          
 442          /*******************************************************************************
 443          * Function Name: CyPmAltAct
 444          ********************************************************************************
 445          *
 446          * Summary:
 447          *  Puts the part into the Alternate Active (Standby) state. The Alternate Active
 448          *  state can allow for any of the capabilities of the device to be active, but
 449          *  the operation of this function is dependent on the CPU being disabled during
 450          *  the Alternate Active state. The configuration code and the component APIs
 451          *  will configure the template for the Alternate Active state to be the same as
 452          *  the Active state with the exception that the CPU will be disabled during
 453          *  Alternate Active.
 454          *
 455          *  Note Before calling this function, you must manually configure the power mode
 456          *  of the source clocks for the timer that is used as the wakeup timer.
 457          *
 458          *  PSoC 3:
 459          *  Before switching to Alternate Active, if a wakeupTime other than NONE is
 460          *  specified, then the appropriate timer state is configured as specified with
 461          *  the interrupt for that timer disabled.  The wakeup source will be the
 462          *  combination of the values specified in the wakeupSource and any timer
 463          *  specified in the wakeupTime argument.  Once the wakeup condition is
 464          *  satisfied, then all saved state is restored and the function returns in the
 465          *  Active state.
 466          *
 467          *  Note that if the wakeupTime is made with a different value, the period before
 468          *  the wakeup occurs can be significantly shorter than the specified time.  If
 469          *  the next call is made with the same wakeupTime value, then the wakeup will
 470          *  occur the specified period after the previous wakeup occurred.
 471          *
 472          *  If a wakeupTime other than NONE is specified, then upon exit the state of the
 473          *  specified timer will be left as specified by wakeupTime with the timer
 474          *  enabled and the interrupt disabled.  If the CTW, FTW or One PPS is already
 475          *  configured for wakeup, for example with the SleepTimer or RTC components,
 476          *  then specify NONE for the wakeupTime and include the appropriate source for
 477          *  wakeupSource.
 478          *
 479          *  PSoC 5LP:
 480          *  This function is used to both enter the Alternate Active mode and halt the
 481          *  processor.  For PSoC 3 these two actions must be paired together.  With PSoC
 482          *  5LP the processor can be halted independently with the __WFI() function from
 483          *  the CMSIS library that is included in Creator.  This function should be used
 484          *  instead when the action required is just to halt the processor until an
 485          *  enabled interrupt occurs.
 486          *
C51 COMPILER V9.51   CYPM                                                                  12/22/2013 23:27:30 PAGE 9   

 487          *  The wakeupTime parameter is not used for this device. It must be set to zero
 488          *  (PM_ALT_ACT_TIME_NONE). The wake up time configuration can be done by a
 489          *  separate component: the CTW wakeup interval should be configured with the
 490          *  Sleep Timer component and one second interval should be configured with the
 491          *  RTC component.
 492          *
 493          *  The wakeup behavior depends on wakeupSource parameter in the following
 494          *  manner: upon function execution the device will be switched from Active to
 495          *  Alternate Active mode and then the CPU will be halted. When an enabled wakeup
 496          *  event occurs the device will return to Active mode.  Similarly when an
 497          *  enabled interrupt occurs the CPU will be started. These two actions will
 498          *  occur together provided that the event that occurs is an enabled wakeup
 499          *  source and also generates an interrupt. If just the wakeup event occurs then
 500          *  the device will be in Active mode, but the CPU will remain halted waiting for
 501          *  an interrupt. If an interrupt occurs from something other than a wakeup
 502          *  source, then the CPU will restart with the device in Alternate Active mode
 503          *  until a wakeup event occurs.
 504          *
 505          *  For example, if CyPmAltAct(PM_ALT_ACT_TIME_NONE, PM_ALT_ACT_SRC_PICU) is
 506          *  called and PICU interrupt occurs, the CPU will be started and device will be
 507          *  switched into Active mode. And if CyPmAltAct(PM_ALT_ACT_TIME_NONE,
 508          *  PM_ALT_ACT_SRC_NONE) is called and PICU interrupt occurs, the CPU will be
 509          *  started while device remains in Alternate Active mode.
 510          *
 511          * Parameters:
 512          *  wakeupTime: Specifies a timer wakeup source and the frequency of that
 513          *              source. For PSoC 5LP this parameter is ignored.
 514          *
 515          *           Define                      Time
 516          *  PM_ALT_ACT_TIME_NONE             None
 517          *  PM_ALT_ACT_TIME_ONE_PPS          One PPS: 1 second
 518          *  PM_ALT_ACT_TIME_CTW_2MS          CTW: 2 ms
 519          *  PM_ALT_ACT_TIME_CTW_4MS          CTW: 4 ms
 520          *  PM_ALT_ACT_TIME_CTW_8MS          CTW: 8 ms
 521          *  PM_ALT_ACT_TIME_CTW_16MS         CTW: 16 ms
 522          *  PM_ALT_ACT_TIME_CTW_32MS         CTW: 32 ms
 523          *  PM_ALT_ACT_TIME_CTW_64MS         CTW: 64 ms
 524          *  PM_ALT_ACT_TIME_CTW_128MS        CTW: 128 ms
 525          *  PM_ALT_ACT_TIME_CTW_256MS        CTW: 256 ms
 526          *  PM_ALT_ACT_TIME_CTW_512MS        CTW: 512 ms
 527          *  PM_ALT_ACT_TIME_CTW_1024MS       CTW: 1024 ms
 528          *  PM_ALT_ACT_TIME_CTW_2048MS       CTW: 2048 ms
 529          *  PM_ALT_ACT_TIME_CTW_4096MS       CTW: 4096 ms
 530          *  PM_ALT_ACT_TIME_FTW(1-256)*       FTW: 10us to 2.56 ms
 531          *
 532          *  *Note:   PM_ALT_ACT_TIME_FTW() is a macro that takes an argument that
 533          *           specifies how many increments of 10 us to delay.
 534                      For PSoC 3 silicon the valid range of  values is 1 to 256.
 535          *
 536          *  wakeUpSource:    Specifies a bitwise mask of wakeup sources. In addition, if
 537          *                   a wakeupTime has been specified the associated timer will be
 538          *                   included as a wakeup source.
 539          *
 540          *           Define                      Source
 541          *  PM_ALT_ACT_SRC_NONE              None
 542          *  PM_ALT_ACT_SRC_COMPARATOR0       Comparator 0
 543          *  PM_ALT_ACT_SRC_COMPARATOR1       Comparator 1
 544          *  PM_ALT_ACT_SRC_COMPARATOR2       Comparator 2
 545          *  PM_ALT_ACT_SRC_COMPARATOR3       Comparator 3
 546          *  PM_ALT_ACT_SRC_INTERRUPT         Interrupt
 547          *  PM_ALT_ACT_SRC_PICU              PICU
 548          *  PM_ALT_ACT_SRC_I2C               I2C
C51 COMPILER V9.51   CYPM                                                                  12/22/2013 23:27:30 PAGE 10  

 549          *  PM_ALT_ACT_SRC_BOOSTCONVERTER    Boost Converter
 550          *  PM_ALT_ACT_SRC_FTW               Fast Timewheel*
 551          *  PM_ALT_ACT_SRC_VD                High and Low Voltage Detection (HVI, LVI)*
 552          *  PM_ALT_ACT_SRC_CTW               Central Timewheel**
 553          *  PM_ALT_ACT_SRC_ONE_PPS           One PPS**
 554          *  PM_ALT_ACT_SRC_LCD               LCD
 555          *
 556          *  *Note : FTW and HVI/LVI wakeup signals are in the same mask bit.
 557          *  **Note: CTW and One PPS wakeup signals are in the same mask bit.
 558          *
 559          *  When specifying a Comparator as the wakeupSource an instance specific define
 560          *  should be used that will track with the specific comparator that the instance
 561          *  is placed into. As an example, for a Comparator instance named MyComp the
 562          *  value to OR into the mask is: MyComp_ctComp__CMP_MASK.
 563          *
 564          *  When CTW, FTW or One PPS is used as a wakeup source, the CyPmReadStatus()
 565          *  function must be called upon wakeup with corresponding parameter. Please
 566          *  refer to the CyPmReadStatus() API in the System Reference Guide for more
 567          *  information.
 568          *
 569          * Return:
 570          *  None
 571          *
 572          * Reentrant:
 573          *  No
 574          *
 575          * Side Effects:
 576          *  If a wakeupTime other than NONE is specified, then upon exit the state of the
 577          *  specified timer will be left as specified by wakeupTime with the timer
 578          *  enabled and the interrupt disabled.  Also, the ILO 1 KHz (if CTW timer is
 579          *  used as wakeup time) or ILO 100 KHz (if FTW timer is used as wakeup time)
 580          *  will be left started.
 581          *
 582          *******************************************************************************/
 583          void CyPmAltAct(uint16 wakeupTime, uint16 wakeupSource) 
 584          {
 585   1          #if(CY_PSOC5)
              
                      /* Arguments expected to be 0 */
                      CYASSERT(PM_ALT_ACT_TIME_NONE == wakeupTime);
              
                      if(0u != wakeupTime)
                      {
                          /* To remove unreferenced local variable warning */
                      }
              
                  #endif /* (CY_PSOC5) */
 596   1      
 597   1      
 598   1          #if(CY_PSOC3)
 599   1      
 600   1              /* FTW - save current and set new configuration */
 601   1              if((wakeupTime >= PM_ALT_ACT_TIME_FTW(1u)) && (wakeupTime <= PM_ALT_ACT_TIME_FTW(256u)))
 602   1              {
 603   2                  CyPmFtwSetInterval(PM_ALT_ACT_FTW_INTERVAL(wakeupTime));
 604   2      
 605   2                  /* Include associated timer to the wakeupSource */
 606   2                  wakeupSource |= PM_ALT_ACT_SRC_FTW;
 607   2              }
 608   1      
 609   1              /* CTW - save current and set new configuration */
 610   1              if((wakeupTime >= PM_ALT_ACT_TIME_CTW_2MS) && (wakeupTime <= PM_ALT_ACT_TIME_CTW_4096MS))
C51 COMPILER V9.51   CYPM                                                                  12/22/2013 23:27:30 PAGE 11  

 611   1              {
 612   2                  /* Save current CTW configuration and set new one */
 613   2                  CyPmCtwSetInterval((uint8)(wakeupTime - 1u));
 614   2      
 615   2                  /* Include associated timer to the wakeupSource */
 616   2                  wakeupSource |= PM_ALT_ACT_SRC_CTW;
 617   2              }
 618   1      
 619   1              /* 1PPS - save current and set new configuration */
 620   1              if(PM_ALT_ACT_TIME_ONE_PPS == wakeupTime)
 621   1              {
 622   2                  /* Save current 1PPS configuration and set new one */
 623   2                  CyPmOppsSet();
 624   2      
 625   2                  /* Include associated timer to the wakeupSource */
 626   2                  wakeupSource |= PM_ALT_ACT_SRC_ONE_PPS;
 627   2              }
 628   1      
 629   1          #endif /* (CY_PSOC3) */
 630   1      
 631   1      
 632   1          /* Save and set new wake up configuration */
 633   1      
 634   1          /* Interrupt, PICU, I2C, Boost converter, CTW/1PPS */
 635   1          cyPmBackup.wakeupCfg0 = CY_PM_WAKEUP_CFG0_REG;
 636   1          CY_PM_WAKEUP_CFG0_REG = (uint8) (wakeupSource >> 4u);
 637   1      
 638   1          /* Comparators */
 639   1          cyPmBackup.wakeupCfg1 = CY_PM_WAKEUP_CFG1_REG;
 640   1          CY_PM_WAKEUP_CFG1_REG = (((uint8) wakeupSource) & CY_PM_WAKEUP_SRC_CMPS_MASK);
 641   1      
 642   1          /* LCD */
 643   1          cyPmBackup.wakeupCfg2 = CY_PM_WAKEUP_CFG2_REG;
 644   1          CY_PM_WAKEUP_CFG2_REG = ((uint8) ((wakeupSource >> 12u) & 0x01u));
 645   1      
 646   1      
 647   1          /* Switch to the Alternate Active mode */
 648   1          CY_PM_MODE_CSR_REG = ((CY_PM_MODE_CSR_REG & ((uint8)(~CY_PM_MODE_CSR_MASK))) | CY_PM_MODE_CSR_ALT_ACT)
             -;
 649   1      
 650   1          /* Recommended readback. */
 651   1          (void) CY_PM_MODE_CSR_REG;
 652   1      
 653   1          /* Two recommended NOPs to get into the mode. */
 654   1          CY_NOP;
 655   1          CY_NOP;
 656   1      
 657   1          /* Execute WFI instruction (for ARM-based devices only) */
 658   1          CY_PM_WFI;
 659   1      
 660   1          /* Point of return from Alternate Active Mode */
 661   1      
 662   1          /* Restore wake up configuration */
 663   1          CY_PM_WAKEUP_CFG0_REG = cyPmBackup.wakeupCfg0;
 664   1          CY_PM_WAKEUP_CFG1_REG = cyPmBackup.wakeupCfg1;
 665   1          CY_PM_WAKEUP_CFG2_REG = cyPmBackup.wakeupCfg2;
 666   1      }
 667          
 668          
 669          /*******************************************************************************
 670          * Function Name: CyPmSleep
 671          ********************************************************************************
C51 COMPILER V9.51   CYPM                                                                  12/22/2013 23:27:30 PAGE 12  

 672          *
 673          * Summary:
 674          *  Puts the part into the Sleep state.
 675          *
 676          *  Note Before calling this function, you must manually configure the power
 677          *  mode of the source clocks for the timer that is used as wakeup timer.
 678          *
 679          *  Note Before calling this function, you must prepare clock tree configuration
 680          *  for the low power mode by calling CyPmSaveClocks(). And restore clock
 681          *  configuration after CyPmSleep() execution by calling CyPmRestoreClocks(). See
 682          *  Power Management section, Clock Configuration subsection of the System
 683          *  Reference Guide for more information.
 684          *
 685          *  PSoC 3:
 686          *  Before switching to Sleep, if a wakeupTime other than NONE is specified,
 687          *  then the appropriate timer state is configured as specified with the
 688          *  interrupt for that timer disabled.  The wakeup source will be the combination
 689          *  of the values specified in the wakeupSource and any timer specified in the
 690          *  wakeupTime argument.  Once the wakeup condition is satisfied, then all saved
 691          *  state is restored and the function returns in the Active state.
 692          *
 693          *  Note that if the wakeupTime is made with a different value, the period before
 694          *  the wakeup occurs can be significantly shorter than the specified time.  If
 695          *  the next call is made with the same wakeupTime value, then the wakeup will
 696          *  occur the specified period after the previous wakeup occurred.
 697          *
 698          *  If a wakeupTime other than NONE is specified, then upon exit the state of the
 699          *  specified timer will be left as specified by wakeupTime with the timer
 700          *  enabled and the interrupt disabled.  If the CTW or One PPS is already
 701          *  configured for wakeup, for example with the SleepTimer or RTC components,
 702          *  then specify NONE for the wakeupTime and include the appropriate source for
 703          *  wakeupSource.
 704          *
 705          *  PSoC 5LP:
 706          *  The wakeupTime parameter is not used and the only NONE can be specified.
 707          *  The wakeup time must be configured with the component, SleepTimer for CTW
 708          *  intervals and RTC for 1PPS interval. The component must be configured to
 709          *  generate an interrrupt.
 710          *
 711          * Parameters:
 712          *  wakeupTime:      Specifies a timer wakeup source and the frequency of that
 713          *                   source. For PSoC 5LP, this parameter is ignored.
 714          *
 715          *           Define                      Time
 716          *  PM_SLEEP_TIME_NONE               None
 717          *  PM_SLEEP_TIME_ONE_PPS            One PPS: 1 second
 718          *  PM_SLEEP_TIME_CTW_2MS            CTW: 2 ms
 719          *  PM_SLEEP_TIME_CTW_4MS            CTW: 4 ms
 720          *  PM_SLEEP_TIME_CTW_8MS            CTW: 8 ms
 721          *  PM_SLEEP_TIME_CTW_16MS           CTW: 16 ms
 722          *  PM_SLEEP_TIME_CTW_32MS           CTW: 32 ms
 723          *  PM_SLEEP_TIME_CTW_64MS           CTW: 64 ms
 724          *  PM_SLEEP_TIME_CTW_128MS          CTW: 128 ms
 725          *  PM_SLEEP_TIME_CTW_256MS          CTW: 256 ms
 726          *  PM_SLEEP_TIME_CTW_512MS          CTW: 512 ms
 727          *  PM_SLEEP_TIME_CTW_1024MS         CTW: 1024 ms
 728          *  PM_SLEEP_TIME_CTW_2048MS         CTW: 2048 ms
 729          *  PM_SLEEP_TIME_CTW_4096MS         CTW: 4096 ms
 730          *
 731          *  wakeUpSource:    Specifies a bitwise mask of wakeup sources. In addition, if
 732          *                   a wakeupTime has been specified the associated timer will be
 733          *                   included as a wakeup source.
C51 COMPILER V9.51   CYPM                                                                  12/22/2013 23:27:30 PAGE 13  

 734          *
 735          *           Define                      Source
 736          *  PM_SLEEP_SRC_NONE                None
 737          *  PM_SLEEP_SRC_COMPARATOR0         Comparator 0
 738          *  PM_SLEEP_SRC_COMPARATOR1         Comparator 1
 739          *  PM_SLEEP_SRC_COMPARATOR2         Comparator 2
 740          *  PM_SLEEP_SRC_COMPARATOR3         Comparator 3
 741          *  PM_SLEEP_SRC_PICU                PICU
 742          *  PM_SLEEP_SRC_I2C                 I2C
 743          *  PM_SLEEP_SRC_BOOSTCONVERTER      Boost Converter
 744          *  PM_SLEEP_SRC_VD                  High and Low Voltage Detection (HVI, LVI)
 745          *  PM_SLEEP_SRC_CTW                 Central Timewheel*
 746          *  PM_SLEEP_SRC_ONE_PPS             One PPS*
 747          *  PM_SLEEP_SRC_LCD                 LCD
 748          *
 749          *  *Note:   CTW and One PPS wakeup signals are in the same mask bit.
 750          *
 751          *  When specifying a Comparator as the wakeupSource an instance specific define
 752          *  should be used that will track with the specific comparator that the instance
 753          *  is placed into. As an example for a Comparator instance named MyComp the
 754          *  value to OR into the mask is: MyComp_ctComp__CMP_MASK.
 755          *
 756          *  When CTW or One PPS is used as a wakeup source, the CyPmReadStatus()
 757          *  function must be called upon wakeup with corresponding parameter. Please
 758          *  refer to the CyPmReadStatus() API in the System Reference Guide for more
 759          *  information.
 760          *
 761          * Return:
 762          *  None
 763          *
 764          * Reentrant:
 765          *  No
 766          *
 767          * Side Effects and Restrictions:
 768          *  If a wakeupTime other than NONE is specified, then upon exit the state of the
 769          *  specified timer will be left as specified by wakeupTime with the timer
 770          *  enabled and the interrupt disabled. Also, the ILO 1 KHz (if CTW timer is
 771          *  used as wake up time) will be left started.
 772          *
 773          *  The 1 kHz ILO clock is expected to be enabled for PSoC 3 and PSoC 5LP to
 774          *  measure Hibernate/Sleep regulator settling time after a reset. The holdoff
 775          *  delay is measured using rising edges of the 1 kHz ILO.
 776          *
 777          *  For PSoC 3 silicon hardware buzz should be disabled before entering a sleep
 778          *  power mode. It is disabled by PSoC Creator during startup.
 779          *  If a Low Voltage Interrupt (LVI), High Voltage Interrupt (HVI) or Brown Out
 780          *  detect (power supply supervising capabilities) are required in a design
 781          *  during sleep, use the Central Time Wheel (CTW) to periodically wake the
 782          *  device, perform software buzz, and refresh the supervisory services. If LVI,
 783          *  HVI, or Brown Out is not required, then use of the CTW is not required.
 784          *  Refer to the device errata for more information.
 785          *
 786          *******************************************************************************/
 787          void CyPmSleep(uint8 wakeupTime, uint16 wakeupSource) 
 788          {
 789   1          uint8 interruptState;
 790   1      
 791   1          /* Save current global interrupt enable and disable it */
 792   1          interruptState = CyEnterCriticalSection();
 793   1      
 794   1      
 795   1          /***********************************************************************
C51 COMPILER V9.51   CYPM                                                                  12/22/2013 23:27:30 PAGE 14  

 796   1          * The Hibernate/Sleep regulator has a settling time after a reset.
 797   1          * During this time, the system ignores requests to enter Sleep and
 798   1          * Hibernate modes. The holdoff delay is measured using rising edges of
 799   1          * the 1 kHz ILO.
 800   1          ***********************************************************************/
 801   1          if(0u == (CY_PM_MODE_CSR_REG & CY_PM_MODE_CSR_PWRUP_PULSE_Q))
 802   1          {
 803   2              /* Disable hold off - no action on restore */
 804   2              CY_PM_PWRSYS_SLP_TR_REG &= CY_PM_PWRSYS_SLP_TR_HIBSLP_HOLDOFF_MASK;
 805   2          }
 806   1          else
 807   1          {
 808   2              /* Abort, device is not ready for low power mode entry */
 809   2      
 810   2              /* Restore global interrupt enable state */
 811   2              CyExitCriticalSection(interruptState);
 812   2      
 813   2              return;
 814   2          }
 815   1      
 816   1      
 817   1          /***********************************************************************
 818   1          * PSoC3 < TO6:
 819   1          * - Hardware buzz must be disabled before sleep mode entry.
 820   1          * - Voltage supervision (HVI/LVI) requires hardware buzz, so they must
 821   1          *   be aslo disabled.
 822   1          *
 823   1          * PSoC3 >= TO6:
 824   1          * - Voltage supervision (HVI/LVI) requires hardware buzz, so hardware buzz must be
 825   1          *   enabled before sleep mode entry and restored on wakeup.
 826   1          ***********************************************************************/
 827   1          #if(CY_PSOC3)
 828   1      
 829   1              /* Silicon Revision ID is below TO6 */
 830   1              if(CYDEV_CHIP_REV_ACTUAL < 5u)
 831   1              {
 832   2                  /* Hardware buzz expected to be disabled in Sleep mode */
 833   2                  CYASSERT(0u == (CY_PM_PWRSYS_WAKE_TR2_REG & CY_PM_PWRSYS_WAKE_TR2_EN_BUZZ));
 834   2              }
 835   1      
 836   1      
 837   1              if(0u != (CY_PM_RESET_CR1_REG & (CY_PM_RESET_CR1_HVIA_EN |
 838   1                  CY_PM_RESET_CR1_LVIA_EN | CY_PM_RESET_CR1_LVID_EN)))
 839   1              {
 840   2                  if(CYDEV_CHIP_REV_ACTUAL < 5u)
 841   2                  {
 842   3                      /* LVI/HVI requires hardware buzz to be enabled */
 843   3                      CYASSERT(0u != 0u);
 844   3                  }
 845   2                  else
 846   2                  {
 847   3                      if (0u == (CY_PM_PWRSYS_WAKE_TR2_REG & CY_PM_PWRSYS_WAKE_TR2_EN_BUZZ))
 848   3                      {
 849   4                          cyPmBackup.hardwareBuzz = CY_PM_DISABLED;
 850   4                          CY_PM_PWRSYS_WAKE_TR2_REG |= CY_PM_PWRSYS_WAKE_TR2_EN_BUZZ;
 851   4                      }
 852   3                      else
 853   3                      {
 854   4                          cyPmBackup.hardwareBuzz = CY_PM_ENABLED;
 855   4                      }
 856   3                  }
 857   2              }
C51 COMPILER V9.51   CYPM                                                                  12/22/2013 23:27:30 PAGE 15  

 858   1      
 859   1          #endif /* (CY_PSOC3) */
 860   1      
 861   1      
 862   1          /*******************************************************************************
 863   1          * For ARM-based devices, an interrupt is required for the CPU to wake up. The
 864   1          * Power Management implementation assumes that wakeup time is configured with a
 865   1          * separate component (component-based wakeup time configuration) for an
 866   1          * interrupt to be issued on terminal count. For more information, refer to the
 867   1          * Wakeup Time Configuration section of System Reference Guide.
 868   1          *******************************************************************************/
 869   1          #if(CY_PSOC5)
              
                      /* Arguments expected to be 0 */
                      CYASSERT(PM_SLEEP_TIME_NONE == wakeupTime);
              
                      if(0u != wakeupTime)
                      {
                          /* To remove unreferenced local variable warning */
                      }
              
                  #endif /* (CY_PSOC5) */
 880   1      
 881   1      
 882   1          CyPmHibSlpSaveSet();
 883   1      
 884   1      
 885   1          #if(CY_PSOC3)
 886   1      
 887   1              /* CTW - save current and set new configuration */
 888   1              if((wakeupTime >= PM_SLEEP_TIME_CTW_2MS) && (wakeupTime <= PM_SLEEP_TIME_CTW_4096MS))
 889   1              {
 890   2                  /* Save current and set new configuration of the CTW */
 891   2                  CyPmCtwSetInterval((uint8)(wakeupTime - 1u));
 892   2      
 893   2                  /* Include associated timer to the wakeupSource */
 894   2                  wakeupSource |= PM_SLEEP_SRC_CTW;
 895   2              }
 896   1      
 897   1              /* 1PPS - save current and set new configuration */
 898   1              if(PM_SLEEP_TIME_ONE_PPS == wakeupTime)
 899   1              {
 900   2                  /* Save current and set new configuration of the 1PPS */
 901   2                  CyPmOppsSet();
 902   2      
 903   2                  /* Include associated timer to the wakeupSource */
 904   2                  wakeupSource |= PM_SLEEP_SRC_ONE_PPS;
 905   2              }
 906   1      
 907   1          #endif /* (CY_PSOC3) */
 908   1      
 909   1      
 910   1          /* Save and set new wake up configuration */
 911   1      
 912   1          /* Interrupt, PICU, I2C, Boost converter, CTW/1PPS */
 913   1          cyPmBackup.wakeupCfg0 = CY_PM_WAKEUP_CFG0_REG;
 914   1          CY_PM_WAKEUP_CFG0_REG = (uint8) (wakeupSource >> 4u);
 915   1      
 916   1          /* Comparators */
 917   1          cyPmBackup.wakeupCfg1 = CY_PM_WAKEUP_CFG1_REG;
 918   1          CY_PM_WAKEUP_CFG1_REG = (((uint8) wakeupSource) & CY_PM_WAKEUP_SRC_CMPS_MASK);
 919   1      
C51 COMPILER V9.51   CYPM                                                                  12/22/2013 23:27:30 PAGE 16  

 920   1          /* LCD */
 921   1          cyPmBackup.wakeupCfg2 = CY_PM_WAKEUP_CFG2_REG;
 922   1          CY_PM_WAKEUP_CFG2_REG = ((uint8) ((wakeupSource >> 12u) & 0x01u));
 923   1      
 924   1      
 925   1          /*******************************************************************
 926   1          * Do not use merge region below unless any component datasheet
 927   1          * suggest to do so.
 928   1          *******************************************************************/
 929   1          /* `#START CY_PM_JUST_BEFORE_SLEEP` */
 930   1      
 931   1          /* `#END` */
 932   1      
 933   1      
 934   1          /* Last moment IMO frequency change */
 935   1          if(0u == (CY_PM_FASTCLK_IMO_CR_REG & CY_PM_FASTCLK_IMO_CR_FREQ_MASK))
 936   1          {
 937   2              /* IMO frequency is 12 MHz */
 938   2              cyPmBackup.imoActFreq12Mhz = CY_PM_ENABLED;
 939   2          }
 940   1          else
 941   1          {
 942   2              /* IMO frequency is not 12 MHz */
 943   2              cyPmBackup.imoActFreq12Mhz = CY_PM_DISABLED;
 944   2      
 945   2              /* Save IMO frequency */
 946   2              cyPmBackup.imoActFreq = CY_PM_FASTCLK_IMO_CR_REG & CY_PM_FASTCLK_IMO_CR_FREQ_MASK;
 947   2      
 948   2              /* Set IMO frequency to 12 MHz */
 949   2              CY_PM_FASTCLK_IMO_CR_REG &= ((uint8) (~CY_PM_FASTCLK_IMO_CR_FREQ_MASK));
 950   2          }
 951   1      
 952   1          /* Switch to the Sleep mode */
 953   1          CY_PM_MODE_CSR_REG = ((CY_PM_MODE_CSR_REG & ((uint8)(~CY_PM_MODE_CSR_MASK))) | CY_PM_MODE_CSR_SLEEP);
 954   1      
 955   1          /* Recommended readback. */
 956   1          (void) CY_PM_MODE_CSR_REG;
 957   1      
 958   1          /* Two recommended NOPs to get into the mode. */
 959   1          CY_NOP;
 960   1          CY_NOP;
 961   1      
 962   1          /* Execute WFI instruction (for ARM-based devices only) */
 963   1          CY_PM_WFI;
 964   1      
 965   1          /* Point of return from Sleep Mode */
 966   1      
 967   1          /* Restore last moment IMO frequency change */
 968   1          if(CY_PM_ENABLED != cyPmBackup.imoActFreq12Mhz)
 969   1          {
 970   2              CY_PM_FASTCLK_IMO_CR_REG  = (CY_PM_FASTCLK_IMO_CR_REG & ((uint8)(~CY_PM_FASTCLK_IMO_CR_FREQ_MASK))
             -) |
 971   2                                          cyPmBackup.imoActFreq;
 972   2          }
 973   1      
 974   1      
 975   1          /*******************************************************************
 976   1          * Do not use merge region below unless any component datasheet
 977   1          * suggest to do so.
 978   1          *******************************************************************/
 979   1          /* `#START CY_PM_JUST_AFTER_WAKEUP_FROM_SLEEP` */
 980   1      
C51 COMPILER V9.51   CYPM                                                                  12/22/2013 23:27:30 PAGE 17  

 981   1          /* `#END` */
 982   1      
 983   1      
 984   1          /* Restore hardware configuration */
 985   1          CyPmHibSlpRestore();
 986   1      
 987   1      
 988   1          /* Disable hardware buzz, if it was previously enabled */
 989   1          #if(CY_PSOC3)
 990   1      
 991   1              if(0u != (CY_PM_RESET_CR1_REG & (CY_PM_RESET_CR1_HVIA_EN |
 992   1                  CY_PM_RESET_CR1_LVIA_EN | CY_PM_RESET_CR1_LVID_EN)))
 993   1              {
 994   2                  if(CYDEV_CHIP_REV_ACTUAL >= 5u)
 995   2                  {
 996   3                      if (CY_PM_DISABLED == cyPmBackup.hardwareBuzz)
 997   3                      {
 998   4                          CY_PM_PWRSYS_WAKE_TR2_REG &= (uint8)(~CY_PM_PWRSYS_WAKE_TR2_EN_BUZZ);
 999   4                      }
1000   3                  }
1001   2              }
1002   1      
1003   1          #endif /* (CY_PSOC3) */
1004   1      
1005   1      
1006   1          /* Restore current wake up configuration */
1007   1          CY_PM_WAKEUP_CFG0_REG = cyPmBackup.wakeupCfg0;
1008   1          CY_PM_WAKEUP_CFG1_REG = cyPmBackup.wakeupCfg1;
1009   1          CY_PM_WAKEUP_CFG2_REG = cyPmBackup.wakeupCfg2;
1010   1      
1011   1          /* Restore global interrupt enable state */
1012   1          CyExitCriticalSection(interruptState);
1013   1      }
1014          
1015          
1016          /*******************************************************************************
1017          * Function Name: CyPmHibernate
1018          ********************************************************************************
1019          *
1020          * Summary:
1021          *  Puts the part into the Hibernate state.
1022          *
1023          *  PSoC 3 and PSoC 5LP:
1024          *  Before switching to Hibernate, the current status of the PICU wakeup source
1025          *  bit is saved and then set. This configures the device to wake up from the
1026          *  PICU. Make sure you have at least one pin configured to generate a PICU
1027          *  interrupt. For pin Px.y, the register "PICU_INTTYPE_PICUx_INTTYPEy" controls
1028          *  the PICU behavior. In the TRM, this register is "PICU[0..15]_INTTYPE[0..7]."
1029          *  In the Pins component datasheet, this register is referred to as the IRQ
1030          *  option. Once the wakeup occurs, the PICU wakeup source bit is restored and
1031          *  the PSoC returns to the Active state.
1032          *
1033          * Parameters:
1034          *  None
1035          *
1036          * Return:
1037          *  None
1038          *
1039          * Reentrant:
1040          *  No
1041          *
1042          * Side Effects:
C51 COMPILER V9.51   CYPM                                                                  12/22/2013 23:27:30 PAGE 18  

1043          *  Applications must wait 20 us before re-entering hibernate or sleep after
1044          *  waking up from hibernate. The 20 us allows the sleep regulator time to
1045          *  stabilize before the next hibernate / sleep event occurs. The 20 us
1046          *  requirement begins when the device wakes up. There is no hardware check that
1047          *  this requirement is met. The specified delay should be done on ISR entry.
1048          *
1049          *  After wakeup PICU interrupt occurs, the Pin_ClearInterrupt() (where Pin is
1050          *  instance name of the Pins component) function must be called to clear the
1051          *  latched pin events to allow proper Hibernate mode entry andd to enable
1052          *  detection of future events.
1053          *
1054          *  The 1 kHz ILO clock is expected to be enabled for PSoC 3 and PSoC 5LP to
1055          *  measure Hibernate/Sleep regulator settling time after a reset. The holdoff
1056          *  delay is measured using rising edges of the 1 kHz ILO.
1057          *
1058          *******************************************************************************/
1059          void CyPmHibernate(void) 
1060          {
1061   1          uint8 interruptState;
1062   1      
1063   1          /* Save current global interrupt enable and disable it */
1064   1          interruptState = CyEnterCriticalSection();
1065   1      
1066   1              /***********************************************************************
1067   1              * The Hibernate/Sleep regulator has a settling time after a reset.
1068   1              * During this time, the system ignores requests to enter Sleep and
1069   1              * Hibernate modes. The holdoff delay is measured using rising edges of
1070   1              * the 1 kHz ILO.
1071   1              ***********************************************************************/
1072   1              if(0u == (CY_PM_MODE_CSR_REG & CY_PM_MODE_CSR_PWRUP_PULSE_Q))
1073   1              {
1074   2                  /* Disable hold off - no action on restore */
1075   2                  CY_PM_PWRSYS_SLP_TR_REG &= CY_PM_PWRSYS_SLP_TR_HIBSLP_HOLDOFF_MASK;
1076   2              }
1077   1              else
1078   1              {
1079   2                  /* Abort, device is not ready for low power mode entry */
1080   2      
1081   2                  /* Restore global interrupt enable state */
1082   2                  CyExitCriticalSection(interruptState);
1083   2      
1084   2                  return;
1085   2              }
1086   1      
1087   1          CyPmHibSaveSet();
1088   1      
1089   1      
1090   1          /* Save and enable only wakeup on PICU */
1091   1          cyPmBackup.wakeupCfg0 = CY_PM_WAKEUP_CFG0_REG;
1092   1          CY_PM_WAKEUP_CFG0_REG = CY_PM_WAKEUP_PICU;
1093   1      
1094   1          cyPmBackup.wakeupCfg1 = CY_PM_WAKEUP_CFG1_REG;
1095   1          CY_PM_WAKEUP_CFG1_REG = 0x00u;
1096   1      
1097   1          cyPmBackup.wakeupCfg2 = CY_PM_WAKEUP_CFG2_REG;
1098   1          CY_PM_WAKEUP_CFG2_REG = 0x00u;
1099   1      
1100   1      
1101   1          /* Last moment IMO frequency change */
1102   1          if(0u == (CY_PM_FASTCLK_IMO_CR_REG & CY_PM_FASTCLK_IMO_CR_FREQ_MASK))
1103   1          {
1104   2              /* IMO frequency is 12 MHz */
C51 COMPILER V9.51   CYPM                                                                  12/22/2013 23:27:30 PAGE 19  

1105   2              cyPmBackup.imoActFreq12Mhz = CY_PM_ENABLED;
1106   2          }
1107   1          else
1108   1          {
1109   2              /* IMO frequency is not 12 MHz */
1110   2              cyPmBackup.imoActFreq12Mhz = CY_PM_DISABLED;
1111   2      
1112   2              /* Save IMO frequency */
1113   2              cyPmBackup.imoActFreq = CY_PM_FASTCLK_IMO_CR_REG & CY_PM_FASTCLK_IMO_CR_FREQ_MASK;
1114   2      
1115   2              /* Set IMO frequency to 12 MHz */
1116   2              CY_PM_FASTCLK_IMO_CR_REG &= ((uint8) (~CY_PM_FASTCLK_IMO_CR_FREQ_MASK));
1117   2          }
1118   1      
1119   1      
1120   1          /* Switch to Hibernate Mode */
1121   1          CY_PM_MODE_CSR_REG = (CY_PM_MODE_CSR_REG & ((uint8) (~CY_PM_MODE_CSR_MASK))) | CY_PM_MODE_CSR_HIBERNAT
             -E;
1122   1      
1123   1          /* Recommended readback. */
1124   1          (void) CY_PM_MODE_CSR_REG;
1125   1      
1126   1          /* Two recommended NOPs to get into the mode. */
1127   1          CY_NOP;
1128   1          CY_NOP;
1129   1      
1130   1          /* Execute WFI instruction (for ARM-based devices only) */
1131   1          CY_PM_WFI;
1132   1      
1133   1      
1134   1          /* Point of return from Hibernate mode */
1135   1      
1136   1      
1137   1          /* Restore last moment IMO frequency change */
1138   1          if(CY_PM_ENABLED != cyPmBackup.imoActFreq12Mhz)
1139   1          {
1140   2              CY_PM_FASTCLK_IMO_CR_REG  = (CY_PM_FASTCLK_IMO_CR_REG & ((uint8)(~CY_PM_FASTCLK_IMO_CR_FREQ_MASK))
             -) |
1141   2                                          cyPmBackup.imoActFreq;
1142   2          }
1143   1      
1144   1      
1145   1          /* Restore device for proper Hibernate mode exit*/
1146   1          CyPmHibRestore();
1147   1      
1148   1          /* Restore current wake up configuration */
1149   1          CY_PM_WAKEUP_CFG0_REG = cyPmBackup.wakeupCfg0;
1150   1          CY_PM_WAKEUP_CFG1_REG = cyPmBackup.wakeupCfg1;
1151   1          CY_PM_WAKEUP_CFG2_REG = cyPmBackup.wakeupCfg2;
1152   1      
1153   1          /* Restore global interrupt enable state */
1154   1          CyExitCriticalSection(interruptState);
1155   1      }
1156          
1157          
1158          /*******************************************************************************
1159          * Function Name: CyPmReadStatus
1160          ********************************************************************************
1161          *
1162          * Summary:
1163          *  Manages the Power Manager Interrupt Status Register.  This register has the
1164          *  interrupt status for the one pulse per second, central timewheel and fast
C51 COMPILER V9.51   CYPM                                                                  12/22/2013 23:27:30 PAGE 20  

1165          *  timewheel timers.  This hardware register clears on read.  To allow for only
1166          *  clearing the bits of interest and preserving the other bits, this function
1167          *  uses a shadow register that retains the state.  This function reads the
1168          *  status register and ORs that value with the shadow register.  That is the
1169          *  value that is returned.  Then the bits in the mask that are set are cleared
1170          *  from this value and written back to the shadow register.
1171          *
1172          *  Note You must call this function within 1 ms (1 clock cycle of the ILO)
1173          *  after a CTW event has occurred.
1174          *
1175          * Parameters:
1176          *  mask: Bits in the shadow register to clear.
1177          *
1178          *       Define                      Source
1179          *  CY_PM_FTW_INT                Fast Timewheel
1180          *  CY_PM_CTW_INT                Central Timewheel
1181          *  CY_PM_ONEPPS_INT             One Pulse Per Second
1182          *
1183          * Return:
1184          *  Status.  Same bits values as the mask parameter.
1185          *
1186          *******************************************************************************/
1187          uint8 CyPmReadStatus(uint8 mask) 
1188          {
1189   1          static uint8 interruptStatus;
1190   1          uint8 interruptState;
1191   1          uint8 tmpStatus;
1192   1      
1193   1          /* Enter critical section */
1194   1          interruptState = CyEnterCriticalSection();
1195   1      
1196   1          /* Save value of the register, copy it and clear desired bit */
1197   1          interruptStatus |= CY_PM_INT_SR_REG;
1198   1          tmpStatus = interruptStatus;
1199   1          interruptStatus &= ((uint8)(~mask));
1200   1      
1201   1          /* Exit critical section */
1202   1          CyExitCriticalSection(interruptState);
1203   1      
1204   1          return(tmpStatus);
1205   1      }
1206          
1207          
1208          /*******************************************************************************
1209          * Function Name: CyPmHibSaveSet
1210          ********************************************************************************
1211          *
1212          * Summary:
1213          *  Prepare device for proper Hibernate low power mode entry:
1214          *  - Disables I2C backup regulator
1215          *  - Saves ILO power down mode state and enable it
1216          *  - Saves state of 1 kHz and 100 kHz ILO and disable them
1217          *  - Disables sleep regulator and shorts vccd to vpwrsleep
1218          *  - Save LVI/HVI configuration and disable them - CyPmHviLviSaveDisable()
1219          *  - CyPmHibSlpSaveSet() function is called
1220          *
1221          * Parameters:
1222          *  None
1223          *
1224          * Return:
1225          *  None
1226          *
C51 COMPILER V9.51   CYPM                                                                  12/22/2013 23:27:30 PAGE 21  

1227          * Reentrant:
1228          *  No
1229          *
1230          *******************************************************************************/
1231          static void CyPmHibSaveSet(void) 
1232          {
1233   1          /* I2C backup reg must be off when the sleep regulator is unavailable */
1234   1          if(0u != (CY_PM_PWRSYS_CR1_REG & CY_PM_PWRSYS_CR1_I2CREG_BACKUP))
1235   1          {
1236   2              /***********************************************************************
1237   2              * If I2C backup regulator is enabled, all the fixed-function registers
1238   2              * store their values while device is in low power mode, otherwise their
1239   2              * configuration is lost. The I2C API makes a decision to restore or not
1240   2              * to restore I2C registers based on this. If this regulator will be
1241   2              * disabled and then enabled, I2C API will suppose that I2C block
1242   2              * registers preserved their values, while this is not true. So, the
1243   2              * backup regulator is disabled. The I2C sleep APIs is responsible for
1244   2              * restoration.
1245   2              ***********************************************************************/
1246   2      
1247   2              /* Disable I2C backup register */
1248   2              CY_PM_PWRSYS_CR1_REG &= ((uint8)(~CY_PM_PWRSYS_CR1_I2CREG_BACKUP));
1249   2          }
1250   1      
1251   1      
1252   1          /* Save current ILO power mode and ensure low power mode */
1253   1          cyPmBackup.iloPowerMode = CyILO_SetPowerMode(CY_PM_POWERDOWN_MODE);
1254   1      
1255   1          /* Save current 1kHz ILO enable state. Disabled automatically. */
1256   1          cyPmBackup.ilo1kEnable = (0u == (CY_PM_SLOWCLK_ILO_CR0_REG & CY_PM_ILO_CR0_EN_1K)) ?
1257   1                                      CY_PM_DISABLED : CY_PM_ENABLED;
1258   1      
1259   1          /* Save current 100kHz ILO enable state. Disabled automatically. */
1260   1          cyPmBackup.ilo100kEnable = (0u == (CY_PM_SLOWCLK_ILO_CR0_REG & CY_PM_ILO_CR0_EN_100K)) ?
1261   1                                      CY_PM_DISABLED : CY_PM_ENABLED;
1262   1      
1263   1      
1264   1          /* Disable the sleep regulator and shorts vccd to vpwrsleep */
1265   1          if(0u == (CY_PM_PWRSYS_SLP_TR_REG & CY_PM_PWRSYS_SLP_TR_BYPASS))
1266   1          {
1267   2              /* Save current bypass state */
1268   2              cyPmBackup.slpTrBypass = CY_PM_DISABLED;
1269   2              CY_PM_PWRSYS_SLP_TR_REG |= CY_PM_PWRSYS_SLP_TR_BYPASS;
1270   2          }
1271   1          else
1272   1          {
1273   2              cyPmBackup.slpTrBypass = CY_PM_ENABLED;
1274   2          }
1275   1      
1276   1          /* LPCOMPs are always enabled (even when BOTH ext_vccd=1 and ext_vcca=1)*/
1277   1      
1278   1      
1279   1          /***************************************************************************
1280   1          * LVI/HVI must be disabled in Hibernate
1281   1          ***************************************************************************/
1282   1      
1283   1          /* Save LVI/HVI configuration and disable them */
1284   1          CyPmHviLviSaveDisable();
1285   1      
1286   1      
1287   1          /* Make the same preparations for Hibernate and Sleep modes */
1288   1          CyPmHibSlpSaveSet();
C51 COMPILER V9.51   CYPM                                                                  12/22/2013 23:27:30 PAGE 22  

1289   1      
1290   1      
1291   1          /***************************************************************************
1292   1          * Save and set power mode wakeup trim registers
1293   1          ***************************************************************************/
1294   1          cyPmBackup.wakeupTrim0 = CY_PM_PWRSYS_WAKE_TR0_REG;
1295   1          cyPmBackup.wakeupTrim1 = CY_PM_PWRSYS_WAKE_TR1_REG;
1296   1      
1297   1          CY_PM_PWRSYS_WAKE_TR0_REG = CY_PM_PWRSYS_WAKE_TR0;
1298   1          CY_PM_PWRSYS_WAKE_TR1_REG = CY_PM_PWRSYS_WAKE_TR1;
1299   1      }
1300          
1301          
1302          /*******************************************************************************
1303          * Function Name: CyPmHibRestore
1304          ********************************************************************************
1305          *
1306          * Summary:
1307          *  Restore device for proper Hibernate mode exit:
1308          *  - Restore LVI/HVI configuration - call CyPmHviLviRestore()
1309          *  - CyPmHibSlpSaveRestore() function is called
1310          *  - Restores ILO power down mode state and enable it
1311          *  - Restores state of 1 kHz and 100 kHz ILO and disable them
1312          *  - Restores sleep regulator settings
1313          *
1314          * Parameters:
1315          *  None
1316          *
1317          * Return:
1318          *  None
1319          *
1320          *******************************************************************************/
1321          static void CyPmHibRestore(void) 
1322          {
1323   1          /* Restore LVI/HVI configuration */
1324   1          CyPmHviLviRestore();
1325   1      
1326   1          /* Restore the same configuration for Hibernate and Sleep modes */
1327   1          CyPmHibSlpRestore();
1328   1      
1329   1          /* Restore 1kHz ILO enable state */
1330   1          if(CY_PM_ENABLED == cyPmBackup.ilo1kEnable)
1331   1          {
1332   2              /* Enable 1kHz ILO */
1333   2              CyILO_Start1K();
1334   2          }
1335   1      
1336   1          /* Restore 100kHz ILO enable state */
1337   1          if(CY_PM_ENABLED == cyPmBackup.ilo100kEnable)
1338   1          {
1339   2              /* Enable 100kHz ILO */
1340   2              CyILO_Start100K();
1341   2          }
1342   1      
1343   1          /* Restore ILO power mode */
1344   1          (void) CyILO_SetPowerMode(cyPmBackup.iloPowerMode);
1345   1      
1346   1      
1347   1          if(CY_PM_DISABLED == cyPmBackup.slpTrBypass)
1348   1          {
1349   2              /* Enable the sleep regulator */
1350   2              CY_PM_PWRSYS_SLP_TR_REG &= ((uint8)(~CY_PM_PWRSYS_SLP_TR_BYPASS));
C51 COMPILER V9.51   CYPM                                                                  12/22/2013 23:27:30 PAGE 23  

1351   2          }
1352   1      
1353   1      
1354   1          /***************************************************************************
1355   1          * Restore power mode wakeup trim registers
1356   1          ***************************************************************************/
1357   1          CY_PM_PWRSYS_WAKE_TR0_REG = cyPmBackup.wakeupTrim0;
1358   1          CY_PM_PWRSYS_WAKE_TR1_REG = cyPmBackup.wakeupTrim1;
1359   1      }
1360          
1361          
1362          /*******************************************************************************
1363          * Function Name: CyPmCtwSetInterval
1364          ********************************************************************************
1365          *
1366          * Summary:
1367          *  Performs CTW configuration:
1368          *  - Disables CTW interrupt
1369          *  - Enables 1 kHz ILO
1370          *  - Sets new CTW interval
1371          *
1372          * Parameters:
1373          *  ctwInterval: the CTW interval to be set.
1374          *
1375          * Return:
1376          *  None
1377          *
1378          * Side Effects:
1379          *  Enables ILO 1 KHz clock and leaves it enabled.
1380          *
1381          *******************************************************************************/
1382          void CyPmCtwSetInterval(uint8 ctwInterval) 
1383          {
1384   1          /* Disable CTW interrupt enable */
1385   1          CY_PM_TW_CFG2_REG &= ((uint8)(~CY_PM_CTW_IE));
1386   1      
1387   1          /* Enable 1kHz ILO (required for CTW operation) */
1388   1          CyILO_Start1K();
1389   1      
1390   1          /* Interval could be set only while CTW is disabled */
1391   1          if(0u != (CY_PM_TW_CFG2_REG & CY_PM_CTW_EN))
1392   1          {
1393   2              /* Set CTW interval if needed */
1394   2              if(CY_PM_TW_CFG1_REG != ctwInterval)
1395   2              {
1396   3                  /* Disable the CTW, set new CTW interval and enable it again */
1397   3                  CY_PM_TW_CFG2_REG &= ((uint8)(~CY_PM_CTW_EN));
1398   3                  CY_PM_TW_CFG1_REG = ctwInterval;
1399   3                  CY_PM_TW_CFG2_REG |= CY_PM_CTW_EN;
1400   3              }   /* Required interval is already set */
1401   2          }
1402   1          else
1403   1          {
1404   2              /* Set CTW interval if needed */
1405   2              if(CY_PM_TW_CFG1_REG != ctwInterval)
1406   2              {
1407   3                  /* Set the new CTW interval. Could be changed if CTW is disabled */
1408   3                  CY_PM_TW_CFG1_REG = ctwInterval;
1409   3              }   /* Required interval is already set */
1410   2      
1411   2              /* Enable the CTW */
1412   2              CY_PM_TW_CFG2_REG |= CY_PM_CTW_EN;
C51 COMPILER V9.51   CYPM                                                                  12/22/2013 23:27:30 PAGE 24  

1413   2          }
1414   1      }
1415          
1416          
1417          /*******************************************************************************
1418          * Function Name: CyPmOppsSet
1419          ********************************************************************************
1420          *
1421          * Summary:
1422          *  Performs 1PPS configuration:
1423          *  - Starts 32 KHz XTAL
1424          *  - Disables 1PPS interupts
1425          *  - Enables 1PPS
1426          *
1427          * Parameters:
1428          *  None
1429          *
1430          * Return:
1431          *  None
1432          *
1433          *******************************************************************************/
1434          void CyPmOppsSet(void) 
1435          {
1436   1          /* Enable 32kHz XTAL if needed */
1437   1          if(0u == (CY_PM_SLOWCLK_X32_CR_REG & CY_PM_X32_CR_X32EN))
1438   1          {
1439   2              /* Enable 32kHz XTAL */
1440   2              CyXTAL_32KHZ_Start();
1441   2          }
1442   1      
1443   1          /* Disable 1PPS interrupt enable */
1444   1          CY_PM_TW_CFG2_REG &= ((uint8)(~CY_PM_1PPS_IE));
1445   1      
1446   1          /* Enable 1PPS operation */
1447   1          CY_PM_TW_CFG2_REG |= CY_PM_1PPS_EN;
1448   1      }
1449          
1450          
1451          /*******************************************************************************
1452          * Function Name: CyPmFtwSetInterval
1453          ********************************************************************************
1454          *
1455          * Summary:
1456          *  Performs FTW configuration:
1457          *  - Disables FTW interrupt
1458          *  - Enables 100 kHz ILO
1459          *  - Sets new FTW interval.
1460          *
1461          * Parameters:
1462          *  ftwInterval - FTW counter interval.
1463          *
1464          * Return:
1465          *  None
1466          *
1467          * Side Effects:
1468          *  Enables ILO 100 KHz clock and leaves it enabled.
1469          *
1470          *******************************************************************************/
1471          void CyPmFtwSetInterval(uint8 ftwInterval) 
1472          {
1473   1          /* Disable FTW interrupt enable */
1474   1          CY_PM_TW_CFG2_REG &= ((uint8)(~CY_PM_FTW_IE));
C51 COMPILER V9.51   CYPM                                                                  12/22/2013 23:27:30 PAGE 25  

1475   1      
1476   1          /* Enable 100kHz ILO */
1477   1          CyILO_Start100K();
1478   1      
1479   1          /* Iterval could be set only while FTW is disabled */
1480   1          if(0u != (CY_PM_TW_CFG2_REG & CY_PM_FTW_EN))
1481   1          {
1482   2              /* Disable FTW, set new FTW interval if needed and enable it again */
1483   2              if(CY_PM_TW_CFG0_REG != ftwInterval)
1484   2              {
1485   3                  /* Disable the CTW, set new CTW interval and enable it again */
1486   3                  CY_PM_TW_CFG2_REG &= ((uint8)(~CY_PM_FTW_EN));
1487   3                  CY_PM_TW_CFG0_REG = ftwInterval;
1488   3                  CY_PM_TW_CFG2_REG |= CY_PM_FTW_EN;
1489   3              }   /* Required interval is already set */
1490   2          }
1491   1          else
1492   1          {
1493   2              /* Set new FTW counter interval if needed. FTW is disabled. */
1494   2              if(CY_PM_TW_CFG0_REG != ftwInterval)
1495   2              {
1496   3                  /* Set the new CTW interval. Could be changed if CTW is disabled */
1497   3                  CY_PM_TW_CFG0_REG = ftwInterval;
1498   3              }   /* Required interval is already set */
1499   2      
1500   2              /* Enable the FTW */
1501   2              CY_PM_TW_CFG2_REG |= CY_PM_FTW_EN;
1502   2          }
1503   1      }
1504          
1505          
1506          /*******************************************************************************
1507          * Function Name: CyPmHibSlpSaveSet
1508          ********************************************************************************
1509          *
1510          * Summary:
1511          *  This API is used for preparing device for Sleep and Hibernate low power
1512          *  modes entry:
1513          *  - Saves COMP, VIDAC, DSM and SAR routing connections (PSoC 5)
1514          *  - Saves SC/CT routing connections (PSoC 3/5/5LP)
1515          *  - Disables Serial Wire Viewer (SWV) (PSoC 3)
1516          *  - Save boost reference selection and set it to internal
1517          *
1518          * Parameters:
1519          *  None
1520          *
1521          * Return:
1522          *  None
1523          *
1524          * Reentrant:
1525          *  No
1526          *
1527          *******************************************************************************/
1528          static void CyPmHibSlpSaveSet(void) 
1529          {
1530   1          /* Save SC/CT routing registers */
1531   1          cyPmBackup.scctData[0u]   = CY_GET_REG8(CYREG_SC0_SW0 );
1532   1          cyPmBackup.scctData[1u]   = CY_GET_REG8(CYREG_SC0_SW2 );
1533   1          cyPmBackup.scctData[2u]   = CY_GET_REG8(CYREG_SC0_SW3 );
1534   1          cyPmBackup.scctData[3u]   = CY_GET_REG8(CYREG_SC0_SW4 );
1535   1          cyPmBackup.scctData[4u]   = CY_GET_REG8(CYREG_SC0_SW6 );
1536   1          cyPmBackup.scctData[5u]   = CY_GET_REG8(CYREG_SC0_SW8 );
C51 COMPILER V9.51   CYPM                                                                  12/22/2013 23:27:30 PAGE 26  

1537   1          cyPmBackup.scctData[6u]   = CY_GET_REG8(CYREG_SC0_SW10);
1538   1      
1539   1          cyPmBackup.scctData[7u]   = CY_GET_REG8(CYREG_SC1_SW0 );
1540   1          cyPmBackup.scctData[8u]   = CY_GET_REG8(CYREG_SC1_SW2 );
1541   1          cyPmBackup.scctData[9u]   = CY_GET_REG8(CYREG_SC1_SW3 );
1542   1          cyPmBackup.scctData[10u]  = CY_GET_REG8(CYREG_SC1_SW4 );
1543   1          cyPmBackup.scctData[11u]  = CY_GET_REG8(CYREG_SC1_SW6 );
1544   1          cyPmBackup.scctData[12u]  = CY_GET_REG8(CYREG_SC1_SW8 );
1545   1          cyPmBackup.scctData[13u]  = CY_GET_REG8(CYREG_SC1_SW10);
1546   1      
1547   1          cyPmBackup.scctData[14u]  = CY_GET_REG8(CYREG_SC2_SW0 );
1548   1          cyPmBackup.scctData[15u]  = CY_GET_REG8(CYREG_SC2_SW2 );
1549   1          cyPmBackup.scctData[16u]  = CY_GET_REG8(CYREG_SC2_SW3 );
1550   1          cyPmBackup.scctData[17u]  = CY_GET_REG8(CYREG_SC2_SW4 );
1551   1          cyPmBackup.scctData[18u]  = CY_GET_REG8(CYREG_SC2_SW6 );
1552   1          cyPmBackup.scctData[19u]  = CY_GET_REG8(CYREG_SC2_SW8 );
1553   1          cyPmBackup.scctData[20u]  = CY_GET_REG8(CYREG_SC2_SW10);
1554   1      
1555   1          cyPmBackup.scctData[21u]  = CY_GET_REG8(CYREG_SC3_SW0 );
1556   1          cyPmBackup.scctData[22u]  = CY_GET_REG8(CYREG_SC3_SW2 );
1557   1          cyPmBackup.scctData[23u]  = CY_GET_REG8(CYREG_SC3_SW3 );
1558   1          cyPmBackup.scctData[24u]  = CY_GET_REG8(CYREG_SC3_SW4 );
1559   1          cyPmBackup.scctData[25u]  = CY_GET_REG8(CYREG_SC3_SW6 );
1560   1          cyPmBackup.scctData[26u]  = CY_GET_REG8(CYREG_SC3_SW8 );
1561   1          cyPmBackup.scctData[27u]  = CY_GET_REG8(CYREG_SC3_SW10);
1562   1      
1563   1          CY_SET_REG8(CYREG_SC0_SW0 , 0u);
1564   1          CY_SET_REG8(CYREG_SC0_SW2 , 0u);
1565   1          CY_SET_REG8(CYREG_SC0_SW3 , 0u);
1566   1          CY_SET_REG8(CYREG_SC0_SW4 , 0u);
1567   1          CY_SET_REG8(CYREG_SC0_SW6 , 0u);
1568   1          CY_SET_REG8(CYREG_SC0_SW8 , 0u);
1569   1          CY_SET_REG8(CYREG_SC0_SW10, 0u);
1570   1      
1571   1          CY_SET_REG8(CYREG_SC1_SW0 , 0u);
1572   1          CY_SET_REG8(CYREG_SC1_SW2 , 0u);
1573   1          CY_SET_REG8(CYREG_SC1_SW3 , 0u);
1574   1          CY_SET_REG8(CYREG_SC1_SW4 , 0u);
1575   1          CY_SET_REG8(CYREG_SC1_SW6 , 0u);
1576   1          CY_SET_REG8(CYREG_SC1_SW8 , 0u);
1577   1          CY_SET_REG8(CYREG_SC1_SW10, 0u);
1578   1      
1579   1          CY_SET_REG8(CYREG_SC2_SW0 , 0u);
1580   1          CY_SET_REG8(CYREG_SC2_SW2 , 0u);
1581   1          CY_SET_REG8(CYREG_SC2_SW3 , 0u);
1582   1          CY_SET_REG8(CYREG_SC2_SW4 , 0u);
1583   1          CY_SET_REG8(CYREG_SC2_SW6 , 0u);
1584   1          CY_SET_REG8(CYREG_SC2_SW8 , 0u);
1585   1          CY_SET_REG8(CYREG_SC2_SW10, 0u);
1586   1      
1587   1          CY_SET_REG8(CYREG_SC3_SW0 , 0u);
1588   1          CY_SET_REG8(CYREG_SC3_SW2 , 0u);
1589   1          CY_SET_REG8(CYREG_SC3_SW3 , 0u);
1590   1          CY_SET_REG8(CYREG_SC3_SW4 , 0u);
1591   1          CY_SET_REG8(CYREG_SC3_SW6 , 0u);
1592   1          CY_SET_REG8(CYREG_SC3_SW8 , 0u);
1593   1          CY_SET_REG8(CYREG_SC3_SW10, 0u);
1594   1      
1595   1      
1596   1          #if(CY_PSOC3)
1597   1      
1598   1              /* Serial Wire Viewer (SWV) workaround */
C51 COMPILER V9.51   CYPM                                                                  12/22/2013 23:27:30 PAGE 27  

1599   1      
1600   1              /* Disable SWV before entering low power mode */
1601   1              if(0u != (CY_PM_MLOGIC_DBG_REG & CY_PM_MLOGIC_DBG_SWV_CLK_EN))
1602   1              {
1603   2                  /* Save SWV clock enabled state */
1604   2                  cyPmBackup.swvClkEnabled = CY_PM_ENABLED;
1605   2      
1606   2                  /* Save current ports drive mode settings */
1607   2                  cyPmBackup.prt1Dm = CY_PM_PRT1_PC3_REG & ((uint8)(~CY_PM_PRT1_PC3_DM_MASK));
1608   2      
1609   2                  /* Set drive mode to strong output */
1610   2                  CY_PM_PRT1_PC3_REG = (CY_PM_PRT1_PC3_REG & CY_PM_PRT1_PC3_DM_MASK) |
1611   2                                      CY_PM_PRT1_PC3_DM_STRONG;
1612   2      
1613   2                  /* Disable SWV clocks */
1614   2                  CY_PM_MLOGIC_DBG_REG &= ((uint8)(~CY_PM_MLOGIC_DBG_SWV_CLK_EN));
1615   2              }
1616   1              else
1617   1              {
1618   2                  /* Save SWV clock disabled state */
1619   2                  cyPmBackup.swvClkEnabled = CY_PM_DISABLED;
1620   2              }
1621   1      
1622   1          #endif  /* (CY_PSOC3) */
1623   1      
1624   1      
1625   1          /***************************************************************************
1626   1          * Save boost reference and set it to boost's internal by clearing the bit.
1627   1          * External (chip bandgap) reference is not available in Sleep and Hibernate.
1628   1          ***************************************************************************/
1629   1          if(0u != (CY_PM_BOOST_CR2_REG & CY_PM_BOOST_CR2_EREFSEL_EXT))
1630   1          {
1631   2              cyPmBackup.boostRefExt = CY_PM_ENABLED;
1632   2              CY_PM_BOOST_CR2_REG &= ((uint8)(~CY_PM_BOOST_CR2_EREFSEL_EXT));
1633   2          }
1634   1          else
1635   1          {
1636   2              cyPmBackup.boostRefExt = CY_PM_DISABLED;
1637   2          }
1638   1      }
1639          
1640          
1641          /*******************************************************************************
1642          * Function Name: CyPmHibSlpRestore
1643          ********************************************************************************
1644          *
1645          * Summary:
1646          *  This API is used for restoring device configurations after wakeup from Sleep
1647          *  and Hibernate low power modes:
1648          *  - Restores SC/CT routing connections
1649          *  - Restores enable state of Serial Wire Viewer (SWV) (PSoC 3)
1650          *  - Restore boost reference selection
1651          *
1652          * Parameters:
1653          *  None
1654          *
1655          * Return:
1656          *  None
1657          *
1658          *******************************************************************************/
1659          static void CyPmHibSlpRestore(void) 
1660          {
C51 COMPILER V9.51   CYPM                                                                  12/22/2013 23:27:30 PAGE 28  

1661   1          /* Restore SC/CT routing registers */
1662   1          CY_SET_REG8(CYREG_SC0_SW0 , cyPmBackup.scctData[0u] );
1663   1          CY_SET_REG8(CYREG_SC0_SW2 , cyPmBackup.scctData[1u] );
1664   1          CY_SET_REG8(CYREG_SC0_SW3 , cyPmBackup.scctData[2u] );
1665   1          CY_SET_REG8(CYREG_SC0_SW4 , cyPmBackup.scctData[3u] );
1666   1          CY_SET_REG8(CYREG_SC0_SW6 , cyPmBackup.scctData[4u] );
1667   1          CY_SET_REG8(CYREG_SC0_SW8 , cyPmBackup.scctData[5u] );
1668   1          CY_SET_REG8(CYREG_SC0_SW10, cyPmBackup.scctData[6u] );
1669   1      
1670   1          CY_SET_REG8(CYREG_SC1_SW0 , cyPmBackup.scctData[7u] );
1671   1          CY_SET_REG8(CYREG_SC1_SW2 , cyPmBackup.scctData[8u] );
1672   1          CY_SET_REG8(CYREG_SC1_SW3 , cyPmBackup.scctData[9u] );
1673   1          CY_SET_REG8(CYREG_SC1_SW4 , cyPmBackup.scctData[10u]);
1674   1          CY_SET_REG8(CYREG_SC1_SW6 , cyPmBackup.scctData[11u]);
1675   1          CY_SET_REG8(CYREG_SC1_SW8 , cyPmBackup.scctData[12u]);
1676   1          CY_SET_REG8(CYREG_SC1_SW10, cyPmBackup.scctData[13u]);
1677   1      
1678   1          CY_SET_REG8(CYREG_SC2_SW0 , cyPmBackup.scctData[14u]);
1679   1          CY_SET_REG8(CYREG_SC2_SW2 , cyPmBackup.scctData[15u]);
1680   1          CY_SET_REG8(CYREG_SC2_SW3 , cyPmBackup.scctData[16u]);
1681   1          CY_SET_REG8(CYREG_SC2_SW4 , cyPmBackup.scctData[17u]);
1682   1          CY_SET_REG8(CYREG_SC2_SW6 , cyPmBackup.scctData[18u]);
1683   1          CY_SET_REG8(CYREG_SC2_SW8 , cyPmBackup.scctData[19u]);
1684   1          CY_SET_REG8(CYREG_SC2_SW10, cyPmBackup.scctData[20u]);
1685   1      
1686   1          CY_SET_REG8(CYREG_SC3_SW0 , cyPmBackup.scctData[21u]);
1687   1          CY_SET_REG8(CYREG_SC3_SW2 , cyPmBackup.scctData[22u]);
1688   1          CY_SET_REG8(CYREG_SC3_SW3 , cyPmBackup.scctData[23u]);
1689   1          CY_SET_REG8(CYREG_SC3_SW4 , cyPmBackup.scctData[24u]);
1690   1          CY_SET_REG8(CYREG_SC3_SW6 , cyPmBackup.scctData[25u]);
1691   1          CY_SET_REG8(CYREG_SC3_SW8 , cyPmBackup.scctData[26u]);
1692   1          CY_SET_REG8(CYREG_SC3_SW10, cyPmBackup.scctData[27u]);
1693   1      
1694   1      
1695   1          #if(CY_PSOC3)
1696   1      
1697   1              /* Serial Wire Viewer (SWV) workaround */
1698   1              if(CY_PM_ENABLED == cyPmBackup.swvClkEnabled)
1699   1              {
1700   2                  /* Restore ports drive mode */
1701   2                  CY_PM_PRT1_PC3_REG = (CY_PM_PRT1_PC3_REG & CY_PM_PRT1_PC3_DM_MASK) |
1702   2                                          cyPmBackup.prt1Dm;
1703   2      
1704   2                  /* Enable SWV clocks */
1705   2                  CY_PM_MLOGIC_DBG_REG |= CY_PM_MLOGIC_DBG_SWV_CLK_EN;
1706   2              }
1707   1      
1708   1          #endif /* (CY_PSOC3) */
1709   1      
1710   1      
1711   1          /* Restore boost reference */
1712   1          if(CY_PM_ENABLED == cyPmBackup.boostRefExt)
1713   1          {
1714   2              CY_PM_BOOST_CR2_REG |= CY_PM_BOOST_CR2_EREFSEL_EXT;
1715   2          }
1716   1      }
1717          
1718          
1719          /*******************************************************************************
1720          * Function Name: CyPmHviLviSaveDisable
1721          ********************************************************************************
1722          *
C51 COMPILER V9.51   CYPM                                                                  12/22/2013 23:27:30 PAGE 29  

1723          * Summary:
1724          *  Saves analog and digital LVI and HVI configuration and disables them.
1725          *
1726          * Parameters:
1727          *  None
1728          *
1729          * Return:
1730          *  None
1731          *
1732          * Reentrant:
1733          *  No
1734          *
1735          *******************************************************************************/
1736          static void CyPmHviLviSaveDisable(void) 
1737          {
1738   1          if(0u != (CY_VD_LVI_HVI_CONTROL_REG & CY_VD_LVID_EN))
1739   1          {
1740   2              cyPmBackup.lvidEn = CY_PM_ENABLED;
1741   2              cyPmBackup.lvidTrip = CY_VD_LVI_TRIP_REG & CY_VD_LVI_TRIP_LVID_MASK;
1742   2      
1743   2              /* Save state of reset device at a specified Vddd threshold */
1744   2              cyPmBackup.lvidRst = (0u == (CY_VD_PRES_CONTROL_REG & CY_VD_PRESD_EN)) ? \
1745   2                                   CY_PM_DISABLED : CY_PM_ENABLED;
1746   2      
1747   2              CyVdLvDigitDisable();
1748   2          }
1749   1          else
1750   1          {
1751   2              cyPmBackup.lvidEn = CY_PM_DISABLED;
1752   2          }
1753   1      
1754   1          if(0u != (CY_VD_LVI_HVI_CONTROL_REG & CY_VD_LVIA_EN))
1755   1          {
1756   2              cyPmBackup.lviaEn = CY_PM_ENABLED;
1757   2              cyPmBackup.lviaTrip = CY_VD_LVI_TRIP_REG >> 4u;
1758   2      
1759   2              /* Save state of reset device at a specified Vdda threshold */
1760   2              cyPmBackup.lviaRst = (0u == (CY_VD_PRES_CONTROL_REG & CY_VD_PRESA_EN)) ? \
1761   2                                   CY_PM_DISABLED : CY_PM_ENABLED;
1762   2      
1763   2              CyVdLvAnalogDisable();
1764   2          }
1765   1          else
1766   1          {
1767   2              cyPmBackup.lviaEn = CY_PM_DISABLED;
1768   2          }
1769   1      
1770   1          if(0u != (CY_VD_LVI_HVI_CONTROL_REG & CY_VD_HVIA_EN))
1771   1          {
1772   2              cyPmBackup.hviaEn = CY_PM_ENABLED;
1773   2              CyVdHvAnalogDisable();
1774   2          }
1775   1          else
1776   1          {
1777   2              cyPmBackup.hviaEn = CY_PM_DISABLED;
1778   2          }
1779   1      }
1780          
1781          
1782          /*******************************************************************************
1783          * Function Name: CyPmHviLviRestore
1784          ********************************************************************************
C51 COMPILER V9.51   CYPM                                                                  12/22/2013 23:27:30 PAGE 30  

1785          *
1786          * Summary:
1787          *  Restores analog and digital LVI and HVI configuration.
1788          *
1789          * Parameters:
1790          *  None
1791          *
1792          * Return:
1793          *  None
1794          *
1795          * Reentrant:
1796          *  No
1797          *
1798          *******************************************************************************/
1799          static void CyPmHviLviRestore(void) 
1800          {
1801   1          /* Restore LVI/HVI configuration */
1802   1          if(CY_PM_ENABLED == cyPmBackup.lvidEn)
1803   1          {
1804   2              CyVdLvDigitEnable(cyPmBackup.lvidRst, cyPmBackup.lvidTrip);
1805   2          }
1806   1      
1807   1          if(CY_PM_ENABLED == cyPmBackup.lviaEn)
1808   1          {
1809   2              CyVdLvAnalogEnable(cyPmBackup.lviaRst, cyPmBackup.lviaTrip);
1810   2          }
1811   1      
1812   1          if(CY_PM_ENABLED == cyPmBackup.hviaEn)
1813   1          {
1814   2              CyVdHvAnalogEnable();
1815   2          }
1816   1      }
1817          
1818          
1819          /* [] END OF FILE */
C51 COMPILER V9.51   CYPM                                                                  12/22/2013 23:27:30 PAGE 31  

ASSEMBLY LISTING OF GENERATED OBJECT CODE


             ; FUNCTION CyPmSaveClocks (BEGIN)
                                           ; SOURCE LINE # 80
                                           ; SOURCE LINE # 81
                                           ; SOURCE LINE # 83
0000 9043A1            MOV     DPTR,#043A1H
0003 E0                MOVX    A,@DPTR
0004 FF                MOV     R7,A
0005 EF                MOV     A,R7
0006 540F              ANL     A,#0FH
0008 FF                MOV     R7,A
0009 900000      R     MOV     DPTR,#cyPmClockBackup
000C EF                MOV     A,R7
000D F0                MOVX    @DPTR,A
                                           ; SOURCE LINE # 84
000E 9043A2            MOV     DPTR,#043A2H
0011 E0                MOVX    A,@DPTR
0012 FF                MOV     R7,A
0013 900000      R     MOV     DPTR,#cyPmClockBackup+01H
0016 EF                MOV     A,R7
0017 F0                MOVX    @DPTR,A
                                           ; SOURCE LINE # 85
0018 9043A1            MOV     DPTR,#043A1H
001B E0                MOVX    A,@DPTR
001C FF                MOV     R7,A
001D EF                MOV     A,R7
001E 54F0              ANL     A,#0F0H
0020 FF                MOV     R7,A
0021 EF                MOV     A,R7
0022 F0                MOVX    @DPTR,A
                                           ; SOURCE LINE # 86
0023 9043A2            MOV     DPTR,#043A2H
0026 E0                MOVX    A,@DPTR
0027 FF                MOV     R7,A
0028 EF                MOV     A,R7
0029 5400              ANL     A,#00H
002B FF                MOV     R7,A
002C EF                MOV     A,R7
002D F0                MOVX    @DPTR,A
                                           ; SOURCE LINE # 89
002E 904800            MOV     DPTR,#04800H
0031 E0                MOVX    A,@DPTR
0032 FF                MOV     R7,A
0033 EF                MOV     A,R7
0034 54C0              ANL     A,#0C0H
0036 FF                MOV     R7,A
0037 900000      R     MOV     DPTR,#cyPmClockBackup+05H
003A EF                MOV     A,R7
003B F0                MOVX    @DPTR,A
                                           ; SOURCE LINE # 90
003C 7F2D              MOV     R7,#02DH
003E 120000      E     LCALL   _CyFlash_SetWaitCycles
                                           ; SOURCE LINE # 93
0041 904200            MOV     DPTR,#04200H
0044 E0                MOVX    A,@DPTR
0045 FF                MOV     R7,A
0046 EF                MOV     A,R7
0047 5407              ANL     A,#07H
0049 FF                MOV     R7,A
004A 900000      R     MOV     DPTR,#cyPmClockBackup+03H
C51 COMPILER V9.51   CYPM                                                                  12/22/2013 23:27:30 PAGE 32  

004D EF                MOV     A,R7
004E F0                MOVX    @DPTR,A
                                           ; SOURCE LINE # 94
004F 904200            MOV     DPTR,#04200H
0052 E0                MOVX    A,@DPTR
0053 FF                MOV     R7,A
0054 EF                MOV     A,R7
0055 5440              ANL     A,#040H
0057 FF                MOV     R7,A
0058 900000      R     MOV     DPTR,#cyPmClockBackup+04H
005B EF                MOV     A,R7
005C F0                MOVX    @DPTR,A
                                           ; SOURCE LINE # 97
005D 904200            MOV     DPTR,#04200H
0060 E0                MOVX    A,@DPTR
0061 FF                MOV     R7,A
0062 EF                MOV     A,R7
0063 5410              ANL     A,#010H
0065 FF                MOV     R7,A
0066 7E00              MOV     R6,#00H
0068 EF                MOV     A,R7
0069 4E                ORL     A,R6
006A 6008              JZ      ?C0001
                                           ; SOURCE LINE # 98
                                           ; SOURCE LINE # 100
006C 900000      R     MOV     DPTR,#cyPmClockBackup+09H
006F 7401              MOV     A,#01H
0071 F0                MOVX    @DPTR,A
                                           ; SOURCE LINE # 101
0072 8005              SJMP    ?C0002
0074         ?C0001:
                                           ; SOURCE LINE # 103
                                           ; SOURCE LINE # 105
0074 900000      R     MOV     DPTR,#cyPmClockBackup+09H
0077 E4                CLR     A
0078 F0                MOVX    @DPTR,A
                                           ; SOURCE LINE # 106
0079         ?C0002:
                                           ; SOURCE LINE # 109
0079 7F04              MOV     R7,#04H
007B 120000      E     LCALL   _CyIMO_SetFreq
                                           ; SOURCE LINE # 112
007E 9043A0            MOV     DPTR,#043A0H
0081 E0                MOVX    A,@DPTR
0082 FF                MOV     R7,A
0083 EF                MOV     A,R7
0084 5410              ANL     A,#010H
0086 FF                MOV     R7,A
0087 7E00              MOV     R6,#00H
0089 EF                MOV     A,R7
008A 4E                ORL     A,R6
008B 6008              JZ      ?C0003
                                           ; SOURCE LINE # 113
                                           ; SOURCE LINE # 115
008D 900000      R     MOV     DPTR,#cyPmClockBackup+06H
0090 7401              MOV     A,#01H
0092 F0                MOVX    @DPTR,A
                                           ; SOURCE LINE # 116
0093 800A              SJMP    ?C0004
0095         ?C0003:
                                           ; SOURCE LINE # 118
                                           ; SOURCE LINE # 120
C51 COMPILER V9.51   CYPM                                                                  12/22/2013 23:27:30 PAGE 33  

0095 900000      R     MOV     DPTR,#cyPmClockBackup+06H
0098 E4                CLR     A
0099 F0                MOVX    @DPTR,A
                                           ; SOURCE LINE # 123
009A 7F00              MOV     R7,#00H
009C 120000      E     LCALL   _CyIMO_Start
                                           ; SOURCE LINE # 124
009F         ?C0004:
                                           ; SOURCE LINE # 127
009F 904200            MOV     DPTR,#04200H
00A2 E0                MOVX    A,@DPTR
00A3 FF                MOV     R7,A
00A4 EF                MOV     A,R7
00A5 5420              ANL     A,#020H
00A7 FF                MOV     R7,A
00A8 7E00              MOV     R6,#00H
00AA EF                MOV     A,R7
00AB 4E                ORL     A,R6
00AC 6021              JZ      ?C0005
                                           ; SOURCE LINE # 128
                                           ; SOURCE LINE # 131
00AE 904000            MOV     DPTR,#04000H
00B1 E0                MOVX    A,@DPTR
00B2 FF                MOV     R7,A
00B3 EF                MOV     A,R7
00B4 5440              ANL     A,#040H
00B6 FF                MOV     R7,A
00B7 7E00              MOV     R6,#00H
00B9 EF                MOV     A,R7
00BA 4E                ORL     A,R6
00BB 7004              JNZ     ?C0006
00BD 7F02              MOV     R7,#02H
00BF 8002              SJMP    ?C0007
00C1         ?C0006:
00C1 7F01              MOV     R7,#01H
00C3         ?C0007:
00C3 900000      R     MOV     DPTR,#cyPmClockBackup+07H
00C6 EF                MOV     A,R7
00C7 F0                MOVX    @DPTR,A
                                           ; SOURCE LINE # 134
00C8 7F00              MOV     R7,#00H
00CA 120000      E     LCALL   _CyIMO_SetSource
                                           ; SOURCE LINE # 135
00CD 8005              SJMP    ?C0008
00CF         ?C0005:
                                           ; SOURCE LINE # 137
                                           ; SOURCE LINE # 139
00CF 900000      R     MOV     DPTR,#cyPmClockBackup+07H
00D2 E4                CLR     A
00D3 F0                MOVX    @DPTR,A
                                           ; SOURCE LINE # 140
00D4         ?C0008:
                                           ; SOURCE LINE # 143
00D4 904000            MOV     DPTR,#04000H
00D7 E0                MOVX    A,@DPTR
00D8 FF                MOV     R7,A
00D9 EF                MOV     A,R7
00DA 5430              ANL     A,#030H
00DC FF                MOV     R7,A
00DD 900000      R     MOV     DPTR,#cyPmClockBackup+08H
00E0 EF                MOV     A,R7
00E1 F0                MOVX    @DPTR,A
C51 COMPILER V9.51   CYPM                                                                  12/22/2013 23:27:30 PAGE 34  

                                           ; SOURCE LINE # 146
00E2 900000      R     MOV     DPTR,#cyPmClockBackup+08H
00E5 E0                MOVX    A,@DPTR
00E6 FF                MOV     R7,A
00E7 EF                MOV     A,R7
00E8 600B              JZ      ?C0009
                                           ; SOURCE LINE # 147
                                           ; SOURCE LINE # 149
00EA 904000            MOV     DPTR,#04000H
00ED E0                MOVX    A,@DPTR
00EE FF                MOV     R7,A
00EF EF                MOV     A,R7
00F0 54CF              ANL     A,#0CFH
00F2 FF                MOV     R7,A
00F3 EF                MOV     A,R7
00F4 F0                MOVX    @DPTR,A
                                           ; SOURCE LINE # 151
00F5         ?C0009:
                                           ; SOURCE LINE # 154
00F5 904200            MOV     DPTR,#04200H
00F8 E0                MOVX    A,@DPTR
00F9 FF                MOV     R7,A
00FA EF                MOV     A,R7
00FB 5410              ANL     A,#010H
00FD FF                MOV     R7,A
00FE 7E00              MOV     R6,#00H
0100 EF                MOV     A,R7
0101 4E                ORL     A,R6
0102 6003              JZ      ?C0010
                                           ; SOURCE LINE # 155
                                           ; SOURCE LINE # 156
0104 120000      E     LCALL   CyIMO_DisableDoubler
                                           ; SOURCE LINE # 157
0107         ?C0010:
                                           ; SOURCE LINE # 160
0107 904004            MOV     DPTR,#04004H
010A E0                MOVX    A,@DPTR
010B FF                MOV     R7,A
010C 900000      R     MOV     DPTR,#cyPmClockBackup+0AH
010F EF                MOV     A,R7
0110 F0                MOVX    @DPTR,A
                                           ; SOURCE LINE # 161
0111 900000      R     MOV     DPTR,#cyPmClockBackup+0AH
0114 E0                MOVX    A,@DPTR
0115 FF                MOV     R7,A
0116 EF                MOV     A,R7
0117 6005              JZ      ?C0011
                                           ; SOURCE LINE # 162
                                           ; SOURCE LINE # 163
0119 7F00              MOV     R7,#00H
011B 120000      E     LCALL   _CyMasterClk_SetDivider
                                           ; SOURCE LINE # 164
011E         ?C0011:
                                           ; SOURCE LINE # 167
011E 904005            MOV     DPTR,#04005H
0121 E0                MOVX    A,@DPTR
0122 FF                MOV     R7,A
0123 EF                MOV     A,R7
0124 5403              ANL     A,#03H
0126 FF                MOV     R7,A
0127 900000      R     MOV     DPTR,#cyPmClockBackup+02H
012A EF                MOV     A,R7
C51 COMPILER V9.51   CYPM                                                                  12/22/2013 23:27:30 PAGE 35  

012B F0                MOVX    @DPTR,A
                                           ; SOURCE LINE # 170
012C 900000      R     MOV     DPTR,#cyPmClockBackup+02H
012F E0                MOVX    A,@DPTR
0130 FF                MOV     R7,A
0131 EF                MOV     A,R7
0132 6005              JZ      ?C0012
                                           ; SOURCE LINE # 171
                                           ; SOURCE LINE # 172
0134 7F00              MOV     R7,#00H
0136 120000      E     LCALL   _CyMasterClk_SetSource
                                           ; SOURCE LINE # 173
0139         ?C0012:
                                           ; SOURCE LINE # 176
0139 904007            MOV     DPTR,#04007H
013C E0                MOVX    A,@DPTR
013D FF                MOV     R7,A
013E 7E00              MOV     R6,#00H
0140 EF                MOV     A,R7
0141 7F00              MOV     R7,#00H
0143 FE                MOV     R6,A
0144 900000      R     MOV     DPTR,#cyPmClockBackup+0BH
0147 EE                MOV     A,R6
0148 F0                MOVX    @DPTR,A
0149 A3                INC     DPTR
014A EF                MOV     A,R7
014B F0                MOVX    @DPTR,A
                                           ; SOURCE LINE # 177
014C 900000      R     MOV     DPTR,#cyPmClockBackup+0BH
014F E0                MOVX    A,@DPTR
0150 FE                MOV     R6,A
0151 A3                INC     DPTR
0152 E0                MOVX    A,@DPTR
0153 FF                MOV     R7,A
0154 904006            MOV     DPTR,#04006H
0157 E0                MOVX    A,@DPTR
0158 FD                MOV     R5,A
0159 7C00              MOV     R4,#00H
015B EE                MOV     A,R6
015C 4C                ORL     A,R4
015D FE                MOV     R6,A
015E EF                MOV     A,R7
015F 4D                ORL     A,R5
0160 FF                MOV     R7,A
0161 900000      R     MOV     DPTR,#cyPmClockBackup+0BH
0164 EE                MOV     A,R6
0165 F0                MOVX    @DPTR,A
0166 A3                INC     DPTR
0167 EF                MOV     A,R7
0168 F0                MOVX    @DPTR,A
                                           ; SOURCE LINE # 178
0169 900000      R     MOV     DPTR,#cyPmClockBackup+0BH
016C E0                MOVX    A,@DPTR
016D FE                MOV     R6,A
016E A3                INC     DPTR
016F E0                MOVX    A,@DPTR
0170 FF                MOV     R7,A
0171 EF                MOV     A,R7
0172 4E                ORL     A,R6
0173 6007              JZ      ?C0013
                                           ; SOURCE LINE # 179
                                           ; SOURCE LINE # 180
C51 COMPILER V9.51   CYPM                                                                  12/22/2013 23:27:30 PAGE 36  

0175 7F00              MOV     R7,#00H
0177 7E00              MOV     R6,#00H
0179 120000      E     LCALL   _CyBusClk_SetDivider
                                           ; SOURCE LINE # 181
017C         ?C0013:
                                           ; SOURCE LINE # 184
017C 904005            MOV     DPTR,#04005H
017F E0                MOVX    A,@DPTR
0180 FF                MOV     R7,A
0181 EF                MOV     A,R7
0182 54F0              ANL     A,#0F0H
0184 FF                MOV     R7,A
0185 7E00              MOV     R6,#00H
0187 EE                MOV     A,R6
0188 C4                SWAP    A
0189 F8                MOV     R0,A
018A 54F0              ANL     A,#0F0H
018C C8                XCH     A,R0
018D 68                XRL     A,R0
018E FE                MOV     R6,A
018F EF                MOV     A,R7
0190 C4                SWAP    A
0191 540F              ANL     A,#0FH
0193 48                ORL     A,R0
0194 FF                MOV     R7,A
0195 EF                MOV     A,R7
0196 04                INC     A
0197 FF                MOV     R7,A
0198 AB07              MOV     R3,AR7
019A E4                CLR     A
019B FA                MOV     R2,A
019C F9                MOV     R1,A
019D F8                MOV     R0,A
019E 904200            MOV     DPTR,#04200H
01A1 E0                MOVX    A,@DPTR
01A2 FF                MOV     R7,A
01A3 EF                MOV     A,R7
01A4 5407              ANL     A,#07H
01A6 FF                MOV     R7,A
01A7 EF                MOV     A,R7
01A8 900000      R     MOV     DPTR,#cyPmImoFreqReg2Mhz
01AB 93                MOVC    A,@A+DPTR
01AC FF                MOV     R7,A
01AD E4                CLR     A
01AE FC                MOV     R4,A
01AF FD                MOV     R5,A
01B0 FE                MOV     R6,A
01B1 120000      E     LCALL   ?C?ULDIV
01B4 120000      E     LCALL   _CyFlash_SetWaitCycles
                                           ; SOURCE LINE # 187
01B7 904220            MOV     DPTR,#04220H
01BA E0                MOVX    A,@DPTR
01BB FF                MOV     R7,A
01BC EF                MOV     A,R7
01BD 5401              ANL     A,#01H
01BF FF                MOV     R7,A
01C0 7E00              MOV     R6,#00H
01C2 EF                MOV     A,R7
01C3 4E                ORL     A,R6
01C4 600B              JZ      ?C0014
                                           ; SOURCE LINE # 188
                                           ; SOURCE LINE # 190
C51 COMPILER V9.51   CYPM                                                                  12/22/2013 23:27:30 PAGE 37  

01C6 900000      R     MOV     DPTR,#cyPmClockBackup+0DH
01C9 7401              MOV     A,#01H
01CB F0                MOVX    @DPTR,A
                                           ; SOURCE LINE # 191
01CC 120000      E     LCALL   CyPLL_OUT_Stop
                                           ; SOURCE LINE # 192
01CF 8005              SJMP    ?C0015
01D1         ?C0014:
                                           ; SOURCE LINE # 194
                                           ; SOURCE LINE # 196
01D1 900000      R     MOV     DPTR,#cyPmClockBackup+0DH
01D4 E4                CLR     A
01D5 F0                MOVX    @DPTR,A
                                           ; SOURCE LINE # 197
01D6         ?C0015:
                                           ; SOURCE LINE # 200
01D6 904210            MOV     DPTR,#04210H
01D9 E0                MOVX    A,@DPTR
01DA FF                MOV     R7,A
01DB EF                MOV     A,R7
01DC 5401              ANL     A,#01H
01DE FF                MOV     R7,A
01DF 7E00              MOV     R6,#00H
01E1 EF                MOV     A,R7
01E2 4E                ORL     A,R6
01E3 600B              JZ      ?C0016
                                           ; SOURCE LINE # 201
                                           ; SOURCE LINE # 203
01E5 900000      R     MOV     DPTR,#cyPmClockBackup+0EH
01E8 7401              MOV     A,#01H
01EA F0                MOVX    @DPTR,A
                                           ; SOURCE LINE # 204
01EB 120000      E     LCALL   CyXTAL_Stop
                                           ; SOURCE LINE # 205
01EE 8005              SJMP    ?C0017
01F0         ?C0016:
                                           ; SOURCE LINE # 207
                                           ; SOURCE LINE # 209
01F0 900000      R     MOV     DPTR,#cyPmClockBackup+0EH
01F3 E4                CLR     A
01F4 F0                MOVX    @DPTR,A
                                           ; SOURCE LINE # 210
01F5         ?C0017:
                                           ; SOURCE LINE # 218
01F5 90400B            MOV     DPTR,#0400BH
01F8 E0                MOVX    A,@DPTR
01F9 FF                MOV     R7,A
01FA EF                MOV     A,R7
01FB 5404              ANL     A,#04H
01FD FF                MOV     R7,A
01FE 7E00              MOV     R6,#00H
0200 EF                MOV     A,R7
0201 4E                ORL     A,R6
0202 6007              JZ      ?C0018
                                           ; SOURCE LINE # 219
                                           ; SOURCE LINE # 220
0204 900000      R     MOV     DPTR,#cyPmClockBackup+0FH
0207 7401              MOV     A,#01H
0209 F0                MOVX    @DPTR,A
                                           ; SOURCE LINE # 221
020A 22                RET     
020B         ?C0018:
C51 COMPILER V9.51   CYPM                                                                  12/22/2013 23:27:30 PAGE 38  

                                           ; SOURCE LINE # 223
                                           ; SOURCE LINE # 224
020B 900000      R     MOV     DPTR,#cyPmClockBackup+0FH
020E E4                CLR     A
020F F0                MOVX    @DPTR,A
                                           ; SOURCE LINE # 225
                                           ; SOURCE LINE # 226
0210         ?C0020:
0210 22                RET     
             ; FUNCTION CyPmSaveClocks (END)

             ; FUNCTION CyPmRestoreClocks (BEGIN)
                                           ; SOURCE LINE # 256
                                           ; SOURCE LINE # 257
                                           ; SOURCE LINE # 258
0000 900000      R     MOV     DPTR,#status
0003 7410              MOV     A,#010H
0005 F0                MOVX    @DPTR,A
                                           ; SOURCE LINE # 269
0006 900000      R     MOV     DPTR,#cyPmClockBackup+0FH
0009 E0                MOVX    A,@DPTR
000A FF                MOV     R7,A
000B EF                MOV     A,R7
000C 6401              XRL     A,#01H
000E 7051              JNZ     ?C0021
                                           ; SOURCE LINE # 270
                                           ; SOURCE LINE # 273
0010 904005            MOV     DPTR,#04005H
0013 E0                MOVX    A,@DPTR
0014 FF                MOV     R7,A
0015 EF                MOV     A,R7
0016 54F0              ANL     A,#0F0H
0018 FF                MOV     R7,A
0019 7E00              MOV     R6,#00H
001B EE                MOV     A,R6
001C C4                SWAP    A
001D F8                MOV     R0,A
001E 54F0              ANL     A,#0F0H
0020 C8                XCH     A,R0
0021 68                XRL     A,R0
0022 FE                MOV     R6,A
0023 EF                MOV     A,R7
0024 C4                SWAP    A
0025 540F              ANL     A,#0FH
0027 48                ORL     A,R0
0028 FF                MOV     R7,A
0029 EF                MOV     A,R7
002A 04                INC     A
002B FF                MOV     R7,A
002C AB07              MOV     R3,AR7
002E E4                CLR     A
002F FA                MOV     R2,A
0030 F9                MOV     R1,A
0031 F8                MOV     R0,A
0032 904200            MOV     DPTR,#04200H
0035 E0                MOVX    A,@DPTR
0036 FF                MOV     R7,A
0037 EF                MOV     A,R7
0038 5407              ANL     A,#07H
003A FF                MOV     R7,A
003B EF                MOV     A,R7
003C 900000      R     MOV     DPTR,#cyPmImoFreqReg2Mhz
C51 COMPILER V9.51   CYPM                                                                  12/22/2013 23:27:30 PAGE 39  

003F 93                MOVC    A,@A+DPTR
0040 FF                MOV     R7,A
0041 E4                CLR     A
0042 FC                MOV     R4,A
0043 FD                MOV     R5,A
0044 FE                MOV     R6,A
0045 120000      E     LCALL   ?C?ULDIV
0048 7B4B              MOV     R3,#04BH
004A 7A00              MOV     R2,#00H
004C 7900              MOV     R1,#00H
004E 7800              MOV     R0,#00H
0050 120000      E     LCALL   ?C?LMUL
0053 120000      E     LCALL   _CyDelayCycles
                                           ; SOURCE LINE # 275
0056 90400B            MOV     DPTR,#0400BH
0059 E0                MOVX    A,@DPTR
005A FF                MOV     R7,A
005B EF                MOV     A,R7
005C 4404              ORL     A,#04H
005E FF                MOV     R7,A
005F EF                MOV     A,R7
0060 F0                MOVX    @DPTR,A
                                           ; SOURCE LINE # 276
0061         ?C0021:
                                           ; SOURCE LINE # 279
0061 900000      R     MOV     DPTR,#cyPmClockBackup+0EH
0064 E0                MOVX    A,@DPTR
0065 FF                MOV     R7,A
0066 EF                MOV     A,R7
0067 6401              XRL     A,#01H
0069 6003              JZ      $ + 5H
006B 020000      R     LJMP    ?C0022
                                           ; SOURCE LINE # 280
                                           ; SOURCE LINE # 289
006E 7F00              MOV     R7,#00H
0070 120000      E     LCALL   _CyXTAL_Start
                                           ; SOURCE LINE # 292
0073 904210            MOV     DPTR,#04210H
0076 E0                MOVX    A,@DPTR
0077 FF                MOV     R7,A
                                           ; SOURCE LINE # 295
0078 900000      R     MOV     DPTR,#i
007B E4                CLR     A
007C F0                MOVX    @DPTR,A
007D A3                INC     DPTR
007E 7405              MOV     A,#05H
0080 F0                MOVX    @DPTR,A
0081         ?C0023:
0081 900000      R     MOV     DPTR,#i
0084 E0                MOVX    A,@DPTR
0085 FE                MOV     R6,A
0086 A3                INC     DPTR
0087 E0                MOVX    A,@DPTR
0088 FF                MOV     R7,A
0089 D3                SETB    C
008A EF                MOV     A,R7
008B 9400              SUBB    A,#00H
008D EE                MOV     A,R6
008E 9400              SUBB    A,#00H
0090 4069              JC      ?C0024
                                           ; SOURCE LINE # 296
                                           ; SOURCE LINE # 298
C51 COMPILER V9.51   CYPM                                                                  12/22/2013 23:27:30 PAGE 40  

0092 904005            MOV     DPTR,#04005H
0095 E0                MOVX    A,@DPTR
0096 FF                MOV     R7,A
0097 EF                MOV     A,R7
0098 54F0              ANL     A,#0F0H
009A FF                MOV     R7,A
009B 7E00              MOV     R6,#00H
009D EE                MOV     A,R6
009E C4                SWAP    A
009F F8                MOV     R0,A
00A0 54F0              ANL     A,#0F0H
00A2 C8                XCH     A,R0
00A3 68                XRL     A,R0
00A4 FE                MOV     R6,A
00A5 EF                MOV     A,R7
00A6 C4                SWAP    A
00A7 540F              ANL     A,#0FH
00A9 48                ORL     A,R0
00AA FF                MOV     R7,A
00AB EF                MOV     A,R7
00AC 04                INC     A
00AD FF                MOV     R7,A
00AE AB07              MOV     R3,AR7
00B0 E4                CLR     A
00B1 FA                MOV     R2,A
00B2 F9                MOV     R1,A
00B3 F8                MOV     R0,A
00B4 904200            MOV     DPTR,#04200H
00B7 E0                MOVX    A,@DPTR
00B8 FF                MOV     R7,A
00B9 EF                MOV     A,R7
00BA 5407              ANL     A,#07H
00BC FF                MOV     R7,A
00BD EF                MOV     A,R7
00BE 900000      R     MOV     DPTR,#cyPmImoFreqReg2Mhz
00C1 93                MOVC    A,@A+DPTR
00C2 FF                MOV     R7,A
00C3 E4                CLR     A
00C4 FC                MOV     R4,A
00C5 FD                MOV     R5,A
00C6 FE                MOV     R6,A
00C7 120000      E     LCALL   ?C?ULDIV
00CA 7BC8              MOV     R3,#0C8H
00CC 7A00              MOV     R2,#00H
00CE 7900              MOV     R1,#00H
00D0 7800              MOV     R0,#00H
00D2 120000      E     LCALL   ?C?LMUL
00D5 120000      E     LCALL   _CyDelayCycles
                                           ; SOURCE LINE # 301
00D8 904210            MOV     DPTR,#04210H
00DB E0                MOVX    A,@DPTR
00DC FF                MOV     R7,A
00DD EF                MOV     A,R7
00DE 5480              ANL     A,#080H
00E0 FF                MOV     R7,A
00E1 7E00              MOV     R6,#00H
00E3 EF                MOV     A,R7
00E4 4E                ORL     A,R6
00E5 7007              JNZ     ?C0025
                                           ; SOURCE LINE # 302
                                           ; SOURCE LINE # 303
00E7 900000      R     MOV     DPTR,#status
C51 COMPILER V9.51   CYPM                                                                  12/22/2013 23:27:30 PAGE 41  

00EA E4                CLR     A
00EB F0                MOVX    @DPTR,A
                                           ; SOURCE LINE # 304
00EC 800D              SJMP    ?C0024
                                           ; SOURCE LINE # 305
                                           ; SOURCE LINE # 306
00EE         ?C0025:
00EE 900000      R     MOV     DPTR,#i
00F1 74FF              MOV     A,#0FFH
00F3 75F0FF            MOV     B,#0FFH
00F6 120000      E     LCALL   ?C?IILDX
00F9 8086              SJMP    ?C0023
00FB         ?C0024:
                                           ; SOURCE LINE # 308
                                           ; SOURCE LINE # 309
                                           ; SOURCE LINE # 317
                                           ; SOURCE LINE # 318
00FB         ?C0022:
                                           ; SOURCE LINE # 322
00FB 7F2D              MOV     R7,#02DH
00FD 120000      E     LCALL   _CyFlash_SetWaitCycles
                                           ; SOURCE LINE # 325
0100 900000      R     MOV     DPTR,#cyPmClockBackup+02H
0103 E0                MOVX    A,@DPTR
0104 FF                MOV     R7,A
0105 EF                MOV     A,R7
0106 6402              XRL     A,#02H
0108 6009              JZ      ?C0029
010A 900000      R     MOV     DPTR,#cyPmClockBackup+02H
010D E0                MOVX    A,@DPTR
010E FF                MOV     R7,A
010F EF                MOV     A,R7
0110 B4031E            CJNE    A,#03H,?C0028
0113         ?C0029:
                                           ; SOURCE LINE # 327
                                           ; SOURCE LINE # 329
0113 900000      R     MOV     DPTR,#cyPmClockBackup+0AH
0116 E0                MOVX    A,@DPTR
0117 FF                MOV     R7,A
0118 904004            MOV     DPTR,#04004H
011B E0                MOVX    A,@DPTR
011C FE                MOV     R6,A
011D EE                MOV     A,R6
011E 6F                XRL     A,R7
011F 6008              JZ      ?C0030
                                           ; SOURCE LINE # 330
                                           ; SOURCE LINE # 332
0121 900000      R     MOV     DPTR,#cyPmClockBackup+0AH
0124 E0                MOVX    A,@DPTR
0125 FF                MOV     R7,A
0126 120000      E     LCALL   _CyMasterClk_SetDivider
                                           ; SOURCE LINE # 333
0129         ?C0030:
                                           ; SOURCE LINE # 336
0129 900000      R     MOV     DPTR,#cyPmClockBackup+02H
012C E0                MOVX    A,@DPTR
012D FF                MOV     R7,A
012E 120000      E     LCALL   _CyMasterClk_SetSource
                                           ; SOURCE LINE # 337
0131         ?C0028:
                                           ; SOURCE LINE # 340
0131 900000      R     MOV     DPTR,#cyPmClockBackup+04H
C51 COMPILER V9.51   CYPM                                                                  12/22/2013 23:27:30 PAGE 42  

0134 E0                MOVX    A,@DPTR
0135 FF                MOV     R7,A
0136 EF                MOV     A,R7
0137 5440              ANL     A,#040H
0139 FF                MOV     R7,A
013A 7E00              MOV     R6,#00H
013C EF                MOV     A,R7
013D 4E                ORL     A,R6
013E 6016              JZ      ?C0031
0140 900000      R     MOV     DPTR,#cyPmClockBackup+03H
0143 E0                MOVX    A,@DPTR
0144 FF                MOV     R7,A
0145 EF                MOV     A,R7
0146 900000      R     MOV     DPTR,#cyPmImoFreqMhz2Reg
0149 93                MOVC    A,@A+DPTR
014A FF                MOV     R7,A
014B EF                MOV     A,R7
014C B40307            CJNE    A,#03H,?C0031
                                           ; SOURCE LINE # 342
                                           ; SOURCE LINE # 344
014F 7F08              MOV     R7,#08H
0151 120000      E     LCALL   _CyIMO_SetFreq
                                           ; SOURCE LINE # 345
0154 8035              SJMP    ?C0032
0156         ?C0031:
                                           ; SOURCE LINE # 347
                                           ; SOURCE LINE # 349
0156 900000      R     MOV     DPTR,#cyPmClockBackup+03H
0159 E0                MOVX    A,@DPTR
015A FF                MOV     R7,A
015B EF                MOV     A,R7
015C 900000      R     MOV     DPTR,#cyPmImoFreqMhz2Reg
015F 93                MOVC    A,@A+DPTR
0160 FF                MOV     R7,A
0161 120000      E     LCALL   _CyIMO_SetFreq
                                           ; SOURCE LINE # 351
0164 900000      R     MOV     DPTR,#cyPmClockBackup+04H
0167 E0                MOVX    A,@DPTR
0168 FF                MOV     R7,A
0169 EF                MOV     A,R7
016A 5440              ANL     A,#040H
016C FF                MOV     R7,A
016D 7E00              MOV     R6,#00H
016F EF                MOV     A,R7
0170 4E                ORL     A,R6
0171 600D              JZ      ?C0033
                                           ; SOURCE LINE # 352
                                           ; SOURCE LINE # 353
0173 904200            MOV     DPTR,#04200H
0176 E0                MOVX    A,@DPTR
0177 FF                MOV     R7,A
0178 EF                MOV     A,R7
0179 4440              ORL     A,#040H
017B FF                MOV     R7,A
017C EF                MOV     A,R7
017D F0                MOVX    @DPTR,A
                                           ; SOURCE LINE # 354
017E 800B              SJMP    ?C0032
0180         ?C0033:
                                           ; SOURCE LINE # 356
                                           ; SOURCE LINE # 357
0180 904200            MOV     DPTR,#04200H
C51 COMPILER V9.51   CYPM                                                                  12/22/2013 23:27:30 PAGE 43  

0183 E0                MOVX    A,@DPTR
0184 FF                MOV     R7,A
0185 EF                MOV     A,R7
0186 54BF              ANL     A,#0BFH
0188 FF                MOV     R7,A
0189 EF                MOV     A,R7
018A F0                MOVX    @DPTR,A
                                           ; SOURCE LINE # 358
                                           ; SOURCE LINE # 359
018B         ?C0032:
                                           ; SOURCE LINE # 363
018B 900000      R     MOV     DPTR,#cyPmClockBackup+06H
018E E0                MOVX    A,@DPTR
018F FF                MOV     R7,A
0190 EF                MOV     A,R7
0191 B40114            CJNE    A,#01H,?C0035
0194 9043A0            MOV     DPTR,#043A0H
0197 E0                MOVX    A,@DPTR
0198 FF                MOV     R7,A
0199 EF                MOV     A,R7
019A 5410              ANL     A,#010H
019C FF                MOV     R7,A
019D 7E00              MOV     R6,#00H
019F EF                MOV     A,R7
01A0 4E                ORL     A,R6
01A1 7005              JNZ     ?C0035
                                           ; SOURCE LINE # 364
                                           ; SOURCE LINE # 366
01A3 7F00              MOV     R7,#00H
01A5 120000      E     LCALL   _CyIMO_Start
                                           ; SOURCE LINE # 367
01A8         ?C0035:
                                           ; SOURCE LINE # 371
01A8 900000      R     MOV     DPTR,#cyPmClockBackup+06H
01AB E0                MOVX    A,@DPTR
01AC FF                MOV     R7,A
01AD EF                MOV     A,R7
01AE 7012              JNZ     ?C0036
01B0 9043A0            MOV     DPTR,#043A0H
01B3 E0                MOVX    A,@DPTR
01B4 FF                MOV     R7,A
01B5 EF                MOV     A,R7
01B6 5410              ANL     A,#010H
01B8 FF                MOV     R7,A
01B9 7E00              MOV     R6,#00H
01BB EF                MOV     A,R7
01BC 4E                ORL     A,R6
01BD 6003              JZ      ?C0036
                                           ; SOURCE LINE # 372
                                           ; SOURCE LINE # 373
01BF 120000      E     LCALL   CyIMO_Stop
                                           ; SOURCE LINE # 374
01C2         ?C0036:
                                           ; SOURCE LINE # 377
01C2 900000      R     MOV     DPTR,#cyPmClockBackup+07H
01C5 E0                MOVX    A,@DPTR
01C6 FF                MOV     R7,A
01C7 120000      E     LCALL   _CyIMO_SetSource
                                           ; SOURCE LINE # 380
01CA 900000      R     MOV     DPTR,#cyPmClockBackup+09H
01CD E0                MOVX    A,@DPTR
01CE FF                MOV     R7,A
C51 COMPILER V9.51   CYPM                                                                  12/22/2013 23:27:30 PAGE 44  

01CF EF                MOV     A,R7
01D0 B40103            CJNE    A,#01H,?C0037
                                           ; SOURCE LINE # 381
                                           ; SOURCE LINE # 382
01D3 120000      E     LCALL   CyIMO_EnableDoubler
                                           ; SOURCE LINE # 383
01D6         ?C0037:
                                           ; SOURCE LINE # 386
01D6 904000            MOV     DPTR,#04000H
01D9 E0                MOVX    A,@DPTR
01DA FF                MOV     R7,A
01DB EF                MOV     A,R7
01DC 5430              ANL     A,#030H
01DE FF                MOV     R7,A
01DF 7E00              MOV     R6,#00H
01E1 900000      R     MOV     DPTR,#cyPmClockBackup+08H
01E4 E0                MOVX    A,@DPTR
01E5 FD                MOV     R5,A
01E6 7C00              MOV     R4,#00H
01E8 ED                MOV     A,R5
01E9 6F                XRL     A,R7
01EA 7002              JNZ     ?C0124
01EC EC                MOV     A,R4
01ED 6E                XRL     A,R6
01EE         ?C0124:
01EE 6016              JZ      ?C0038
                                           ; SOURCE LINE # 387
                                           ; SOURCE LINE # 388
01F0 904000            MOV     DPTR,#04000H
01F3 E0                MOVX    A,@DPTR
01F4 FF                MOV     R7,A
01F5 EF                MOV     A,R7
01F6 54CF              ANL     A,#0CFH
01F8 FF                MOV     R7,A
01F9 900000      R     MOV     DPTR,#cyPmClockBackup+08H
01FC E0                MOVX    A,@DPTR
01FD FE                MOV     R6,A
01FE EF                MOV     A,R7
01FF 4E                ORL     A,R6
0200 FF                MOV     R7,A
0201 904000            MOV     DPTR,#04000H
0204 EF                MOV     A,R7
0205 F0                MOVX    @DPTR,A
                                           ; SOURCE LINE # 390
0206         ?C0038:
                                           ; SOURCE LINE # 393
0206 900000      R     MOV     DPTR,#cyPmClockBackup+0DH
0209 E0                MOVX    A,@DPTR
020A FF                MOV     R7,A
020B EF                MOV     A,R7
020C 6401              XRL     A,#01H
020E 704B              JNZ     ?C0039
                                           ; SOURCE LINE # 394
                                           ; SOURCE LINE # 403
0210 7F00              MOV     R7,#00H
0212 120000      E     LCALL   _CyPLL_OUT_Start
                                           ; SOURCE LINE # 406
0215 904005            MOV     DPTR,#04005H
0218 E0                MOVX    A,@DPTR
0219 FF                MOV     R7,A
021A EF                MOV     A,R7
021B 54F0              ANL     A,#0F0H
C51 COMPILER V9.51   CYPM                                                                  12/22/2013 23:27:30 PAGE 45  

021D FF                MOV     R7,A
021E 7E00              MOV     R6,#00H
0220 EE                MOV     A,R6
0221 C4                SWAP    A
0222 F8                MOV     R0,A
0223 54F0              ANL     A,#0F0H
0225 C8                XCH     A,R0
0226 68                XRL     A,R0
0227 FE                MOV     R6,A
0228 EF                MOV     A,R7
0229 C4                SWAP    A
022A 540F              ANL     A,#0FH
022C 48                ORL     A,R0
022D FF                MOV     R7,A
022E EF                MOV     A,R7
022F 04                INC     A
0230 FF                MOV     R7,A
0231 AB07              MOV     R3,AR7
0233 E4                CLR     A
0234 FA                MOV     R2,A
0235 F9                MOV     R1,A
0236 F8                MOV     R0,A
0237 904200            MOV     DPTR,#04200H
023A E0                MOVX    A,@DPTR
023B FF                MOV     R7,A
023C EF                MOV     A,R7
023D 5407              ANL     A,#07H
023F FF                MOV     R7,A
0240 EF                MOV     A,R7
0241 900000      R     MOV     DPTR,#cyPmImoFreqReg2Mhz
0244 93                MOVC    A,@A+DPTR
0245 FF                MOV     R7,A
0246 E4                CLR     A
0247 FC                MOV     R4,A
0248 FD                MOV     R5,A
0249 FE                MOV     R6,A
024A 120000      E     LCALL   ?C?ULDIV
024D 7BFA              MOV     R3,#0FAH
024F 7A00              MOV     R2,#00H
0251 7900              MOV     R1,#00H
0253 7800              MOV     R0,#00H
0255 120000      E     LCALL   ?C?LMUL
0258 120000      E     LCALL   _CyDelayCycles
                                           ; SOURCE LINE # 407
025B         ?C0039:
                                           ; SOURCE LINE # 411
025B 900000      R     MOV     DPTR,#cyPmClockBackup+02H
025E E0                MOVX    A,@DPTR
025F FF                MOV     R7,A
0260 EF                MOV     A,R7
0261 6009              JZ      ?C0041
0263 900000      R     MOV     DPTR,#cyPmClockBackup+02H
0266 E0                MOVX    A,@DPTR
0267 FF                MOV     R7,A
0268 EF                MOV     A,R7
0269 B4011E            CJNE    A,#01H,?C0040
026C         ?C0041:
                                           ; SOURCE LINE # 413
                                           ; SOURCE LINE # 415
026C 900000      R     MOV     DPTR,#cyPmClockBackup+0AH
026F E0                MOVX    A,@DPTR
0270 FF                MOV     R7,A
C51 COMPILER V9.51   CYPM                                                                  12/22/2013 23:27:30 PAGE 46  

0271 904004            MOV     DPTR,#04004H
0274 E0                MOVX    A,@DPTR
0275 FE                MOV     R6,A
0276 EE                MOV     A,R6
0277 6F                XRL     A,R7
0278 6008              JZ      ?C0042
                                           ; SOURCE LINE # 416
                                           ; SOURCE LINE # 417
027A 900000      R     MOV     DPTR,#cyPmClockBackup+0AH
027D E0                MOVX    A,@DPTR
027E FF                MOV     R7,A
027F 120000      E     LCALL   _CyMasterClk_SetDivider
                                           ; SOURCE LINE # 418
0282         ?C0042:
                                           ; SOURCE LINE # 421
0282 900000      R     MOV     DPTR,#cyPmClockBackup+02H
0285 E0                MOVX    A,@DPTR
0286 FF                MOV     R7,A
0287 120000      E     LCALL   _CyMasterClk_SetSource
                                           ; SOURCE LINE # 422
028A         ?C0040:
                                           ; SOURCE LINE # 425
028A 904007            MOV     DPTR,#04007H
028D E0                MOVX    A,@DPTR
028E FF                MOV     R7,A
028F 7E00              MOV     R6,#00H
0291 EF                MOV     A,R7
0292 7F00              MOV     R7,#00H
0294 FE                MOV     R6,A
0295 900000      R     MOV     DPTR,#clkBusDivTmp
0298 EE                MOV     A,R6
0299 F0                MOVX    @DPTR,A
029A A3                INC     DPTR
029B EF                MOV     A,R7
029C F0                MOVX    @DPTR,A
                                           ; SOURCE LINE # 426
029D 900000      R     MOV     DPTR,#clkBusDivTmp
02A0 E0                MOVX    A,@DPTR
02A1 FE                MOV     R6,A
02A2 A3                INC     DPTR
02A3 E0                MOVX    A,@DPTR
02A4 FF                MOV     R7,A
02A5 904006            MOV     DPTR,#04006H
02A8 E0                MOVX    A,@DPTR
02A9 FD                MOV     R5,A
02AA 7C00              MOV     R4,#00H
02AC EE                MOV     A,R6
02AD 4C                ORL     A,R4
02AE FE                MOV     R6,A
02AF EF                MOV     A,R7
02B0 4D                ORL     A,R5
02B1 FF                MOV     R7,A
02B2 900000      R     MOV     DPTR,#clkBusDivTmp
02B5 EE                MOV     A,R6
02B6 F0                MOVX    @DPTR,A
02B7 A3                INC     DPTR
02B8 EF                MOV     A,R7
02B9 F0                MOVX    @DPTR,A
                                           ; SOURCE LINE # 427
02BA 900000      R     MOV     DPTR,#clkBusDivTmp
02BD E0                MOVX    A,@DPTR
02BE FE                MOV     R6,A
C51 COMPILER V9.51   CYPM                                                                  12/22/2013 23:27:30 PAGE 47  

02BF A3                INC     DPTR
02C0 E0                MOVX    A,@DPTR
02C1 FF                MOV     R7,A
02C2 900000      R     MOV     DPTR,#cyPmClockBackup+0BH
02C5 E0                MOVX    A,@DPTR
02C6 FC                MOV     R4,A
02C7 A3                INC     DPTR
02C8 E0                MOVX    A,@DPTR
02C9 FD                MOV     R5,A
02CA ED                MOV     A,R5
02CB 6F                XRL     A,R7
02CC 7002              JNZ     ?C0125
02CE EC                MOV     A,R4
02CF 6E                XRL     A,R6
02D0         ?C0125:
02D0 600B              JZ      ?C0043
                                           ; SOURCE LINE # 428
                                           ; SOURCE LINE # 429
02D2 900000      R     MOV     DPTR,#cyPmClockBackup+0BH
02D5 E0                MOVX    A,@DPTR
02D6 FE                MOV     R6,A
02D7 A3                INC     DPTR
02D8 E0                MOVX    A,@DPTR
02D9 FF                MOV     R7,A
02DA 120000      E     LCALL   _CyBusClk_SetDivider
                                           ; SOURCE LINE # 430
02DD         ?C0043:
                                           ; SOURCE LINE # 433
02DD 904800            MOV     DPTR,#04800H
02E0 E0                MOVX    A,@DPTR
02E1 FF                MOV     R7,A
02E2 EF                MOV     A,R7
02E3 543F              ANL     A,#03FH
02E5 FF                MOV     R7,A
02E6 900000      R     MOV     DPTR,#cyPmClockBackup+05H
02E9 E0                MOVX    A,@DPTR
02EA FE                MOV     R6,A
02EB EF                MOV     A,R7
02EC 4E                ORL     A,R6
02ED FF                MOV     R7,A
02EE 904800            MOV     DPTR,#04800H
02F1 EF                MOV     A,R7
02F2 F0                MOVX    @DPTR,A
                                           ; SOURCE LINE # 437
02F3 900000      R     MOV     DPTR,#cyPmClockBackup
02F6 E0                MOVX    A,@DPTR
02F7 FF                MOV     R7,A
02F8 9043A1            MOV     DPTR,#043A1H
02FB EF                MOV     A,R7
02FC F0                MOVX    @DPTR,A
                                           ; SOURCE LINE # 438
02FD 900000      R     MOV     DPTR,#cyPmClockBackup+01H
0300 E0                MOVX    A,@DPTR
0301 FF                MOV     R7,A
0302 9043A2            MOV     DPTR,#043A2H
0305 EF                MOV     A,R7
0306 F0                MOVX    @DPTR,A
                                           ; SOURCE LINE # 439
0307 22                RET     
             ; FUNCTION CyPmRestoreClocks (END)

             ; FUNCTION _CyPmAltAct (BEGIN)
C51 COMPILER V9.51   CYPM                                                                  12/22/2013 23:27:30 PAGE 48  

                                           ; SOURCE LINE # 583
0000 900000      R     MOV     DPTR,#wakeupTime
0003 EE                MOV     A,R6
0004 F0                MOVX    @DPTR,A
0005 A3                INC     DPTR
0006 EF                MOV     A,R7
0007 F0                MOVX    @DPTR,A
0008 900000      R     MOV     DPTR,#wakeupSource
000B EC                MOV     A,R4
000C F0                MOVX    @DPTR,A
000D A3                INC     DPTR
000E ED                MOV     A,R5
000F F0                MOVX    @DPTR,A
                                           ; SOURCE LINE # 584
                                           ; SOURCE LINE # 601
0010 900000      R     MOV     DPTR,#wakeupTime
0013 E0                MOVX    A,@DPTR
0014 FE                MOV     R6,A
0015 A3                INC     DPTR
0016 E0                MOVX    A,@DPTR
0017 FF                MOV     R7,A
0018 C3                CLR     C
0019 EF                MOV     A,R7
001A 940F              SUBB    A,#0FH
001C EE                MOV     A,R6
001D 9400              SUBB    A,#00H
001F 4034              JC      ?C0045
0021 900000      R     MOV     DPTR,#wakeupTime
0024 E0                MOVX    A,@DPTR
0025 FE                MOV     R6,A
0026 A3                INC     DPTR
0027 E0                MOVX    A,@DPTR
0028 FF                MOV     R7,A
0029 D3                SETB    C
002A EF                MOV     A,R7
002B 940E              SUBB    A,#0EH
002D EE                MOV     A,R6
002E 9401              SUBB    A,#01H
0030 5023              JNC     ?C0045
                                           ; SOURCE LINE # 602
                                           ; SOURCE LINE # 603
0032 900000      R     MOV     DPTR,#wakeupTime
0035 E0                MOVX    A,@DPTR
0036 FE                MOV     R6,A
0037 A3                INC     DPTR
0038 E0                MOVX    A,@DPTR
0039 FF                MOV     R7,A
003A EF                MOV     A,R7
003B 24F2              ADD     A,#0F2H
003D FF                MOV     R7,A
003E 120000      R     LCALL   _CyPmFtwSetInterval
                                           ; SOURCE LINE # 606
0041 900000      R     MOV     DPTR,#wakeupSource
0044 E0                MOVX    A,@DPTR
0045 FE                MOV     R6,A
0046 A3                INC     DPTR
0047 E0                MOVX    A,@DPTR
0048 FF                MOV     R7,A
0049 EE                MOV     A,R6
004A 4404              ORL     A,#04H
004C FE                MOV     R6,A
004D 900000      R     MOV     DPTR,#wakeupSource
C51 COMPILER V9.51   CYPM                                                                  12/22/2013 23:27:30 PAGE 49  

0050 EE                MOV     A,R6
0051 F0                MOVX    @DPTR,A
0052 A3                INC     DPTR
0053 EF                MOV     A,R7
0054 F0                MOVX    @DPTR,A
                                           ; SOURCE LINE # 607
0055         ?C0045:
                                           ; SOURCE LINE # 610
0055 900000      R     MOV     DPTR,#wakeupTime
0058 E0                MOVX    A,@DPTR
0059 FE                MOV     R6,A
005A A3                INC     DPTR
005B E0                MOVX    A,@DPTR
005C FF                MOV     R7,A
005D C3                CLR     C
005E EF                MOV     A,R7
005F 9402              SUBB    A,#02H
0061 EE                MOV     A,R6
0062 9400              SUBB    A,#00H
0064 4033              JC      ?C0046
0066 900000      R     MOV     DPTR,#wakeupTime
0069 E0                MOVX    A,@DPTR
006A FE                MOV     R6,A
006B A3                INC     DPTR
006C E0                MOVX    A,@DPTR
006D FF                MOV     R7,A
006E D3                SETB    C
006F EF                MOV     A,R7
0070 940D              SUBB    A,#0DH
0072 EE                MOV     A,R6
0073 9400              SUBB    A,#00H
0075 5022              JNC     ?C0046
                                           ; SOURCE LINE # 611
                                           ; SOURCE LINE # 613
0077 900000      R     MOV     DPTR,#wakeupTime
007A E0                MOVX    A,@DPTR
007B FE                MOV     R6,A
007C A3                INC     DPTR
007D E0                MOVX    A,@DPTR
007E FF                MOV     R7,A
007F EF                MOV     A,R7
0080 14                DEC     A
0081 FF                MOV     R7,A
0082 120000      R     LCALL   _CyPmCtwSetInterval
                                           ; SOURCE LINE # 616
0085 900000      R     MOV     DPTR,#wakeupSource
0088 E0                MOVX    A,@DPTR
0089 FE                MOV     R6,A
008A A3                INC     DPTR
008B E0                MOVX    A,@DPTR
008C FF                MOV     R7,A
008D EE                MOV     A,R6
008E 4408              ORL     A,#08H
0090 FE                MOV     R6,A
0091 900000      R     MOV     DPTR,#wakeupSource
0094 EE                MOV     A,R6
0095 F0                MOVX    @DPTR,A
0096 A3                INC     DPTR
0097 EF                MOV     A,R7
0098 F0                MOVX    @DPTR,A
                                           ; SOURCE LINE # 617
0099         ?C0046:
C51 COMPILER V9.51   CYPM                                                                  12/22/2013 23:27:30 PAGE 50  

                                           ; SOURCE LINE # 620
0099 900000      R     MOV     DPTR,#wakeupTime
009C E0                MOVX    A,@DPTR
009D FE                MOV     R6,A
009E A3                INC     DPTR
009F E0                MOVX    A,@DPTR
00A0 FF                MOV     R7,A
00A1 EF                MOV     A,R7
00A2 6401              XRL     A,#01H
00A4 4E                ORL     A,R6
00A5 7017              JNZ     ?C0047
                                           ; SOURCE LINE # 621
                                           ; SOURCE LINE # 623
00A7 120000      R     LCALL   CyPmOppsSet
                                           ; SOURCE LINE # 626
00AA 900000      R     MOV     DPTR,#wakeupSource
00AD E0                MOVX    A,@DPTR
00AE FE                MOV     R6,A
00AF A3                INC     DPTR
00B0 E0                MOVX    A,@DPTR
00B1 FF                MOV     R7,A
00B2 EE                MOV     A,R6
00B3 4408              ORL     A,#08H
00B5 FE                MOV     R6,A
00B6 900000      R     MOV     DPTR,#wakeupSource
00B9 EE                MOV     A,R6
00BA F0                MOVX    @DPTR,A
00BB A3                INC     DPTR
00BC EF                MOV     A,R7
00BD F0                MOVX    @DPTR,A
                                           ; SOURCE LINE # 627
00BE         ?C0047:
                                           ; SOURCE LINE # 635
00BE 904398            MOV     DPTR,#04398H
00C1 E0                MOVX    A,@DPTR
00C2 FF                MOV     R7,A
00C3 900000      R     MOV     DPTR,#cyPmBackup+07H
00C6 EF                MOV     A,R7
00C7 F0                MOVX    @DPTR,A
                                           ; SOURCE LINE # 636
00C8 900000      R     MOV     DPTR,#wakeupSource
00CB E0                MOVX    A,@DPTR
00CC FE                MOV     R6,A
00CD A3                INC     DPTR
00CE E0                MOVX    A,@DPTR
00CF FF                MOV     R7,A
00D0 EE                MOV     A,R6
00D1 C4                SWAP    A
00D2 F8                MOV     R0,A
00D3 54F0              ANL     A,#0F0H
00D5 C8                XCH     A,R0
00D6 68                XRL     A,R0
00D7 FE                MOV     R6,A
00D8 EF                MOV     A,R7
00D9 C4                SWAP    A
00DA 540F              ANL     A,#0FH
00DC 48                ORL     A,R0
00DD FF                MOV     R7,A
00DE 904398            MOV     DPTR,#04398H
00E1 EF                MOV     A,R7
00E2 F0                MOVX    @DPTR,A
                                           ; SOURCE LINE # 639
C51 COMPILER V9.51   CYPM                                                                  12/22/2013 23:27:30 PAGE 51  

00E3 904399            MOV     DPTR,#04399H
00E6 E0                MOVX    A,@DPTR
00E7 FF                MOV     R7,A
00E8 900000      R     MOV     DPTR,#cyPmBackup+08H
00EB EF                MOV     A,R7
00EC F0                MOVX    @DPTR,A
                                           ; SOURCE LINE # 640
00ED 900000      R     MOV     DPTR,#wakeupSource
00F0 E0                MOVX    A,@DPTR
00F1 FE                MOV     R6,A
00F2 A3                INC     DPTR
00F3 E0                MOVX    A,@DPTR
00F4 FF                MOV     R7,A
00F5 EF                MOV     A,R7
00F6 540F              ANL     A,#0FH
00F8 FF                MOV     R7,A
00F9 904399            MOV     DPTR,#04399H
00FC EF                MOV     A,R7
00FD F0                MOVX    @DPTR,A
                                           ; SOURCE LINE # 643
00FE 90439A            MOV     DPTR,#0439AH
0101 E0                MOVX    A,@DPTR
0102 FF                MOV     R7,A
0103 900000      R     MOV     DPTR,#cyPmBackup+09H
0106 EF                MOV     A,R7
0107 F0                MOVX    @DPTR,A
                                           ; SOURCE LINE # 644
0108 900000      R     MOV     DPTR,#wakeupSource
010B E0                MOVX    A,@DPTR
010C FE                MOV     R6,A
010D A3                INC     DPTR
010E E0                MOVX    A,@DPTR
010F FF                MOV     R7,A
0110 EE                MOV     A,R6
0111 C4                SWAP    A
0112 540F              ANL     A,#0FH
0114 FF                MOV     R7,A
0115 7E00              MOV     R6,#00H
0117 EF                MOV     A,R7
0118 5401              ANL     A,#01H
011A FF                MOV     R7,A
011B 90439A            MOV     DPTR,#0439AH
011E EF                MOV     A,R7
011F F0                MOVX    @DPTR,A
                                           ; SOURCE LINE # 648
0120 904393            MOV     DPTR,#04393H
0123 E0                MOVX    A,@DPTR
0124 FF                MOV     R7,A
0125 EF                MOV     A,R7
0126 54F8              ANL     A,#0F8H
0128 FF                MOV     R7,A
0129 EF                MOV     A,R7
012A 4401              ORL     A,#01H
012C FF                MOV     R7,A
012D 904393            MOV     DPTR,#04393H
0130 EF                MOV     A,R7
0131 F0                MOVX    @DPTR,A
                                           ; SOURCE LINE # 651
0132 904393            MOV     DPTR,#04393H
0135 E0                MOVX    A,@DPTR
0136 FF                MOV     R7,A
                                           ; SOURCE LINE # 654
C51 COMPILER V9.51   CYPM                                                                  12/22/2013 23:27:30 PAGE 52  

0137 00                NOP     
                                           ; SOURCE LINE # 655
0138 00                NOP     
                                           ; SOURCE LINE # 658
0139 00                NOP     
                                           ; SOURCE LINE # 663
013A 900000      R     MOV     DPTR,#cyPmBackup+07H
013D E0                MOVX    A,@DPTR
013E FF                MOV     R7,A
013F 904398            MOV     DPTR,#04398H
0142 EF                MOV     A,R7
0143 F0                MOVX    @DPTR,A
                                           ; SOURCE LINE # 664
0144 900000      R     MOV     DPTR,#cyPmBackup+08H
0147 E0                MOVX    A,@DPTR
0148 FF                MOV     R7,A
0149 904399            MOV     DPTR,#04399H
014C EF                MOV     A,R7
014D F0                MOVX    @DPTR,A
                                           ; SOURCE LINE # 665
014E 900000      R     MOV     DPTR,#cyPmBackup+09H
0151 E0                MOVX    A,@DPTR
0152 FF                MOV     R7,A
0153 90439A            MOV     DPTR,#0439AH
0156 EF                MOV     A,R7
0157 F0                MOVX    @DPTR,A
                                           ; SOURCE LINE # 666
0158 22                RET     
             ; FUNCTION _CyPmAltAct (END)

             ; FUNCTION _CyPmSleep (BEGIN)
                                           ; SOURCE LINE # 787
0000 900000      R     MOV     DPTR,#wakeupTime
0003 EF                MOV     A,R7
0004 F0                MOVX    @DPTR,A
0005 900000      R     MOV     DPTR,#wakeupSource
0008 EC                MOV     A,R4
0009 F0                MOVX    @DPTR,A
000A A3                INC     DPTR
000B ED                MOV     A,R5
000C F0                MOVX    @DPTR,A
                                           ; SOURCE LINE # 788
                                           ; SOURCE LINE # 792
000D 120000      E     LCALL   CyEnterCriticalSection
0010 900000      R     MOV     DPTR,#interruptState
0013 EF                MOV     A,R7
0014 F0                MOVX    @DPTR,A
                                           ; SOURCE LINE # 801
0015 904393            MOV     DPTR,#04393H
0018 E0                MOVX    A,@DPTR
0019 FF                MOV     R7,A
001A EF                MOV     A,R7
001B 5408              ANL     A,#08H
001D FF                MOV     R7,A
001E 7E00              MOV     R6,#00H
0020 EF                MOV     A,R7
0021 4E                ORL     A,R6
0022 700D              JNZ     ?C0049
                                           ; SOURCE LINE # 802
                                           ; SOURCE LINE # 804
0024 904683            MOV     DPTR,#04683H
0027 E0                MOVX    A,@DPTR
C51 COMPILER V9.51   CYPM                                                                  12/22/2013 23:27:30 PAGE 53  

0028 FF                MOV     R7,A
0029 EF                MOV     A,R7
002A 541F              ANL     A,#01FH
002C FF                MOV     R7,A
002D EF                MOV     A,R7
002E F0                MOVX    @DPTR,A
                                           ; SOURCE LINE # 805
002F 8009              SJMP    ?C0050
0031         ?C0049:
                                           ; SOURCE LINE # 807
                                           ; SOURCE LINE # 811
0031 900000      R     MOV     DPTR,#interruptState
0034 E0                MOVX    A,@DPTR
0035 FF                MOV     R7,A
0036 120000      E     LCALL   _CyExitCriticalSection
0039 22                RET     
                                           ; SOURCE LINE # 814
003A         ?C0050:
                                           ; SOURCE LINE # 830
003A 9046EC            MOV     DPTR,#046ECH
003D E0                MOVX    A,@DPTR
003E FF                MOV     R7,A
003F EF                MOV     A,R7
0040 C3                CLR     C
0041 9405              SUBB    A,#05H
0043 501A              JNC     ?C0052
                                           ; SOURCE LINE # 831
                                           ; SOURCE LINE # 833
0045 904689            MOV     DPTR,#04689H
0048 E0                MOVX    A,@DPTR
0049 FF                MOV     R7,A
004A EF                MOV     A,R7
004B 5401              ANL     A,#01H
004D FF                MOV     R7,A
004E 7E00              MOV     R6,#00H
0050 EF                MOV     A,R7
0051 4E                ORL     A,R6
0052 7003              JNZ     ?C0054
0054 D3                SETB    C
0055 8001              SJMP    ?C0055
0057         ?C0054:
0057 C3                CLR     C
0058         ?C0055:
0058 4005              JC      ?C0052
005A 7F00              MOV     R7,#00H
005C 120000      E     LCALL   _?CyHalt
                                           ; SOURCE LINE # 834
005F         ?C0052:
                                           ; SOURCE LINE # 837
005F 9046F5            MOV     DPTR,#046F5H
0062 E0                MOVX    A,@DPTR
0063 FF                MOV     R7,A
0064 EF                MOV     A,R7
0065 5407              ANL     A,#07H
0067 FF                MOV     R7,A
0068 7E00              MOV     R6,#00H
006A EF                MOV     A,R7
006B 4E                ORL     A,R6
006C 6039              JZ      ?C0056
                                           ; SOURCE LINE # 839
                                           ; SOURCE LINE # 840
006E 9046EC            MOV     DPTR,#046ECH
C51 COMPILER V9.51   CYPM                                                                  12/22/2013 23:27:30 PAGE 54  

0071 E0                MOVX    A,@DPTR
0072 FF                MOV     R7,A
0073 EF                MOV     A,R7
0074 C3                CLR     C
0075 9405              SUBB    A,#05H
0077 5007              JNC     ?C0057
                                           ; SOURCE LINE # 841
                                           ; SOURCE LINE # 843
0079 7F00              MOV     R7,#00H
007B 120000      E     LCALL   _?CyHalt
                                           ; SOURCE LINE # 844
007E 8027              SJMP    ?C0056
0080         ?C0057:
                                           ; SOURCE LINE # 846
                                           ; SOURCE LINE # 847
0080 904689            MOV     DPTR,#04689H
0083 E0                MOVX    A,@DPTR
0084 FF                MOV     R7,A
0085 EF                MOV     A,R7
0086 5401              ANL     A,#01H
0088 FF                MOV     R7,A
0089 7E00              MOV     R6,#00H
008B EF                MOV     A,R7
008C 4E                ORL     A,R6
008D 7012              JNZ     ?C0060
                                           ; SOURCE LINE # 848
                                           ; SOURCE LINE # 849
008F 900000      R     MOV     DPTR,#cyPmBackup+06H
0092 E4                CLR     A
0093 F0                MOVX    @DPTR,A
                                           ; SOURCE LINE # 850
0094 904689            MOV     DPTR,#04689H
0097 E0                MOVX    A,@DPTR
0098 FF                MOV     R7,A
0099 EF                MOV     A,R7
009A 4401              ORL     A,#01H
009C FF                MOV     R7,A
009D EF                MOV     A,R7
009E F0                MOVX    @DPTR,A
                                           ; SOURCE LINE # 851
009F 8006              SJMP    ?C0056
00A1         ?C0060:
                                           ; SOURCE LINE # 853
                                           ; SOURCE LINE # 854
00A1 900000      R     MOV     DPTR,#cyPmBackup+06H
00A4 7401              MOV     A,#01H
00A6 F0                MOVX    @DPTR,A
                                           ; SOURCE LINE # 855
                                           ; SOURCE LINE # 856
                                           ; SOURCE LINE # 857
00A7         ?C0056:
                                           ; SOURCE LINE # 882
00A7 120000      R     LCALL   CyPmHibSlpSaveSet
                                           ; SOURCE LINE # 888
00AA 900000      R     MOV     DPTR,#wakeupTime
00AD E0                MOVX    A,@DPTR
00AE FF                MOV     R7,A
00AF EF                MOV     A,R7
00B0 C3                CLR     C
00B1 9402              SUBB    A,#02H
00B3 402A              JC      ?C0062
00B5 900000      R     MOV     DPTR,#wakeupTime
C51 COMPILER V9.51   CYPM                                                                  12/22/2013 23:27:30 PAGE 55  

00B8 E0                MOVX    A,@DPTR
00B9 FF                MOV     R7,A
00BA EF                MOV     A,R7
00BB D3                SETB    C
00BC 940D              SUBB    A,#0DH
00BE 501F              JNC     ?C0062
                                           ; SOURCE LINE # 889
                                           ; SOURCE LINE # 891
00C0 900000      R     MOV     DPTR,#wakeupTime
00C3 E0                MOVX    A,@DPTR
00C4 FF                MOV     R7,A
00C5 EF                MOV     A,R7
00C6 14                DEC     A
00C7 FF                MOV     R7,A
00C8 120000      R     LCALL   _CyPmCtwSetInterval
                                           ; SOURCE LINE # 894
00CB 900000      R     MOV     DPTR,#wakeupSource
00CE E0                MOVX    A,@DPTR
00CF FE                MOV     R6,A
00D0 A3                INC     DPTR
00D1 E0                MOVX    A,@DPTR
00D2 FF                MOV     R7,A
00D3 EE                MOV     A,R6
00D4 4408              ORL     A,#08H
00D6 FE                MOV     R6,A
00D7 900000      R     MOV     DPTR,#wakeupSource
00DA EE                MOV     A,R6
00DB F0                MOVX    @DPTR,A
00DC A3                INC     DPTR
00DD EF                MOV     A,R7
00DE F0                MOVX    @DPTR,A
                                           ; SOURCE LINE # 895
00DF         ?C0062:
                                           ; SOURCE LINE # 898
00DF 900000      R     MOV     DPTR,#wakeupTime
00E2 E0                MOVX    A,@DPTR
00E3 FF                MOV     R7,A
00E4 EF                MOV     A,R7
00E5 B40117            CJNE    A,#01H,?C0063
                                           ; SOURCE LINE # 899
                                           ; SOURCE LINE # 901
00E8 120000      R     LCALL   CyPmOppsSet
                                           ; SOURCE LINE # 904
00EB 900000      R     MOV     DPTR,#wakeupSource
00EE E0                MOVX    A,@DPTR
00EF FE                MOV     R6,A
00F0 A3                INC     DPTR
00F1 E0                MOVX    A,@DPTR
00F2 FF                MOV     R7,A
00F3 EE                MOV     A,R6
00F4 4408              ORL     A,#08H
00F6 FE                MOV     R6,A
00F7 900000      R     MOV     DPTR,#wakeupSource
00FA EE                MOV     A,R6
00FB F0                MOVX    @DPTR,A
00FC A3                INC     DPTR
00FD EF                MOV     A,R7
00FE F0                MOVX    @DPTR,A
                                           ; SOURCE LINE # 905
00FF         ?C0063:
                                           ; SOURCE LINE # 913
00FF 904398            MOV     DPTR,#04398H
C51 COMPILER V9.51   CYPM                                                                  12/22/2013 23:27:30 PAGE 56  

0102 E0                MOVX    A,@DPTR
0103 FF                MOV     R7,A
0104 900000      R     MOV     DPTR,#cyPmBackup+07H
0107 EF                MOV     A,R7
0108 F0                MOVX    @DPTR,A
                                           ; SOURCE LINE # 914
0109 900000      R     MOV     DPTR,#wakeupSource
010C E0                MOVX    A,@DPTR
010D FE                MOV     R6,A
010E A3                INC     DPTR
010F E0                MOVX    A,@DPTR
0110 FF                MOV     R7,A
0111 EE                MOV     A,R6
0112 C4                SWAP    A
0113 F8                MOV     R0,A
0114 54F0              ANL     A,#0F0H
0116 C8                XCH     A,R0
0117 68                XRL     A,R0
0118 FE                MOV     R6,A
0119 EF                MOV     A,R7
011A C4                SWAP    A
011B 540F              ANL     A,#0FH
011D 48                ORL     A,R0
011E FF                MOV     R7,A
011F 904398            MOV     DPTR,#04398H
0122 EF                MOV     A,R7
0123 F0                MOVX    @DPTR,A
                                           ; SOURCE LINE # 917
0124 904399            MOV     DPTR,#04399H
0127 E0                MOVX    A,@DPTR
0128 FF                MOV     R7,A
0129 900000      R     MOV     DPTR,#cyPmBackup+08H
012C EF                MOV     A,R7
012D F0                MOVX    @DPTR,A
                                           ; SOURCE LINE # 918
012E 900000      R     MOV     DPTR,#wakeupSource
0131 E0                MOVX    A,@DPTR
0132 FE                MOV     R6,A
0133 A3                INC     DPTR
0134 E0                MOVX    A,@DPTR
0135 FF                MOV     R7,A
0136 EF                MOV     A,R7
0137 540F              ANL     A,#0FH
0139 FF                MOV     R7,A
013A 904399            MOV     DPTR,#04399H
013D EF                MOV     A,R7
013E F0                MOVX    @DPTR,A
                                           ; SOURCE LINE # 921
013F 90439A            MOV     DPTR,#0439AH
0142 E0                MOVX    A,@DPTR
0143 FF                MOV     R7,A
0144 900000      R     MOV     DPTR,#cyPmBackup+09H
0147 EF                MOV     A,R7
0148 F0                MOVX    @DPTR,A
                                           ; SOURCE LINE # 922
0149 900000      R     MOV     DPTR,#wakeupSource
014C E0                MOVX    A,@DPTR
014D FE                MOV     R6,A
014E A3                INC     DPTR
014F E0                MOVX    A,@DPTR
0150 FF                MOV     R7,A
0151 EE                MOV     A,R6
C51 COMPILER V9.51   CYPM                                                                  12/22/2013 23:27:30 PAGE 57  

0152 C4                SWAP    A
0153 540F              ANL     A,#0FH
0155 FF                MOV     R7,A
0156 7E00              MOV     R6,#00H
0158 EF                MOV     A,R7
0159 5401              ANL     A,#01H
015B FF                MOV     R7,A
015C 90439A            MOV     DPTR,#0439AH
015F EF                MOV     A,R7
0160 F0                MOVX    @DPTR,A
                                           ; SOURCE LINE # 935
0161 904200            MOV     DPTR,#04200H
0164 E0                MOVX    A,@DPTR
0165 FF                MOV     R7,A
0166 EF                MOV     A,R7
0167 5407              ANL     A,#07H
0169 FF                MOV     R7,A
016A 7E00              MOV     R6,#00H
016C EF                MOV     A,R7
016D 4E                ORL     A,R6
016E 7008              JNZ     ?C0064
                                           ; SOURCE LINE # 936
                                           ; SOURCE LINE # 938
0170 900000      R     MOV     DPTR,#cyPmBackup+030H
0173 7401              MOV     A,#01H
0175 F0                MOVX    @DPTR,A
                                           ; SOURCE LINE # 939
0176 801E              SJMP    ?C0065
0178         ?C0064:
                                           ; SOURCE LINE # 941
                                           ; SOURCE LINE # 943
0178 900000      R     MOV     DPTR,#cyPmBackup+030H
017B E4                CLR     A
017C F0                MOVX    @DPTR,A
                                           ; SOURCE LINE # 946
017D 904200            MOV     DPTR,#04200H
0180 E0                MOVX    A,@DPTR
0181 FF                MOV     R7,A
0182 EF                MOV     A,R7
0183 5407              ANL     A,#07H
0185 FF                MOV     R7,A
0186 900000      R     MOV     DPTR,#cyPmBackup+02FH
0189 EF                MOV     A,R7
018A F0                MOVX    @DPTR,A
                                           ; SOURCE LINE # 949
018B 904200            MOV     DPTR,#04200H
018E E0                MOVX    A,@DPTR
018F FF                MOV     R7,A
0190 EF                MOV     A,R7
0191 54F8              ANL     A,#0F8H
0193 FF                MOV     R7,A
0194 EF                MOV     A,R7
0195 F0                MOVX    @DPTR,A
                                           ; SOURCE LINE # 950
0196         ?C0065:
                                           ; SOURCE LINE # 953
0196 904393            MOV     DPTR,#04393H
0199 E0                MOVX    A,@DPTR
019A FF                MOV     R7,A
019B EF                MOV     A,R7
019C 54F8              ANL     A,#0F8H
019E FF                MOV     R7,A
C51 COMPILER V9.51   CYPM                                                                  12/22/2013 23:27:30 PAGE 58  

019F EF                MOV     A,R7
01A0 4403              ORL     A,#03H
01A2 FF                MOV     R7,A
01A3 904393            MOV     DPTR,#04393H
01A6 EF                MOV     A,R7
01A7 F0                MOVX    @DPTR,A
                                           ; SOURCE LINE # 956
01A8 904393            MOV     DPTR,#04393H
01AB E0                MOVX    A,@DPTR
01AC FF                MOV     R7,A
                                           ; SOURCE LINE # 959
01AD 00                NOP     
                                           ; SOURCE LINE # 960
01AE 00                NOP     
                                           ; SOURCE LINE # 963
01AF 00                NOP     
                                           ; SOURCE LINE # 968
01B0 900000      R     MOV     DPTR,#cyPmBackup+030H
01B3 E0                MOVX    A,@DPTR
01B4 FF                MOV     R7,A
01B5 EF                MOV     A,R7
01B6 6401              XRL     A,#01H
01B8 6016              JZ      ?C0066
                                           ; SOURCE LINE # 969
                                           ; SOURCE LINE # 970
01BA 904200            MOV     DPTR,#04200H
01BD E0                MOVX    A,@DPTR
01BE FF                MOV     R7,A
01BF EF                MOV     A,R7
01C0 54F8              ANL     A,#0F8H
01C2 FF                MOV     R7,A
01C3 900000      R     MOV     DPTR,#cyPmBackup+02FH
01C6 E0                MOVX    A,@DPTR
01C7 FE                MOV     R6,A
01C8 EF                MOV     A,R7
01C9 4E                ORL     A,R6
01CA FF                MOV     R7,A
01CB 904200            MOV     DPTR,#04200H
01CE EF                MOV     A,R7
01CF F0                MOVX    @DPTR,A
                                           ; SOURCE LINE # 972
01D0         ?C0066:
                                           ; SOURCE LINE # 985
01D0 120000      R     LCALL   CyPmHibSlpRestore
                                           ; SOURCE LINE # 991
01D3 9046F5            MOV     DPTR,#046F5H
01D6 E0                MOVX    A,@DPTR
01D7 FF                MOV     R7,A
01D8 EF                MOV     A,R7
01D9 5407              ANL     A,#07H
01DB FF                MOV     R7,A
01DC 7E00              MOV     R6,#00H
01DE EF                MOV     A,R7
01DF 4E                ORL     A,R6
01E0 601E              JZ      ?C0067
                                           ; SOURCE LINE # 993
                                           ; SOURCE LINE # 994
01E2 9046EC            MOV     DPTR,#046ECH
01E5 E0                MOVX    A,@DPTR
01E6 FF                MOV     R7,A
01E7 EF                MOV     A,R7
01E8 C3                CLR     C
C51 COMPILER V9.51   CYPM                                                                  12/22/2013 23:27:30 PAGE 59  

01E9 9405              SUBB    A,#05H
01EB 4013              JC      ?C0067
                                           ; SOURCE LINE # 995
                                           ; SOURCE LINE # 996
01ED 900000      R     MOV     DPTR,#cyPmBackup+06H
01F0 E0                MOVX    A,@DPTR
01F1 FF                MOV     R7,A
01F2 EF                MOV     A,R7
01F3 700B              JNZ     ?C0067
                                           ; SOURCE LINE # 997
                                           ; SOURCE LINE # 998
01F5 904689            MOV     DPTR,#04689H
01F8 E0                MOVX    A,@DPTR
01F9 FF                MOV     R7,A
01FA EF                MOV     A,R7
01FB 54FE              ANL     A,#0FEH
01FD FF                MOV     R7,A
01FE EF                MOV     A,R7
01FF F0                MOVX    @DPTR,A
                                           ; SOURCE LINE # 999
                                           ; SOURCE LINE # 1000
                                           ; SOURCE LINE # 1001
0200         ?C0067:
                                           ; SOURCE LINE # 1007
0200 900000      R     MOV     DPTR,#cyPmBackup+07H
0203 E0                MOVX    A,@DPTR
0204 FF                MOV     R7,A
0205 904398            MOV     DPTR,#04398H
0208 EF                MOV     A,R7
0209 F0                MOVX    @DPTR,A
                                           ; SOURCE LINE # 1008
020A 900000      R     MOV     DPTR,#cyPmBackup+08H
020D E0                MOVX    A,@DPTR
020E FF                MOV     R7,A
020F 904399            MOV     DPTR,#04399H
0212 EF                MOV     A,R7
0213 F0                MOVX    @DPTR,A
                                           ; SOURCE LINE # 1009
0214 900000      R     MOV     DPTR,#cyPmBackup+09H
0217 E0                MOVX    A,@DPTR
0218 FF                MOV     R7,A
0219 90439A            MOV     DPTR,#0439AH
021C EF                MOV     A,R7
021D F0                MOVX    @DPTR,A
                                           ; SOURCE LINE # 1012
021E 900000      R     MOV     DPTR,#interruptState
0221 E0                MOVX    A,@DPTR
0222 FF                MOV     R7,A
0223 120000      E     LCALL   _CyExitCriticalSection
                                           ; SOURCE LINE # 1013
0226         ?C0051:
0226 22                RET     
             ; FUNCTION _CyPmSleep (END)

             ; FUNCTION CyPmHibernate (BEGIN)
                                           ; SOURCE LINE # 1059
                                           ; SOURCE LINE # 1060
                                           ; SOURCE LINE # 1064
0000 120000      E     LCALL   CyEnterCriticalSection
0003 900000      R     MOV     DPTR,#interruptState
0006 EF                MOV     A,R7
0007 F0                MOVX    @DPTR,A
C51 COMPILER V9.51   CYPM                                                                  12/22/2013 23:27:30 PAGE 60  

                                           ; SOURCE LINE # 1072
0008 904393            MOV     DPTR,#04393H
000B E0                MOVX    A,@DPTR
000C FF                MOV     R7,A
000D EF                MOV     A,R7
000E 5408              ANL     A,#08H
0010 FF                MOV     R7,A
0011 7E00              MOV     R6,#00H
0013 EF                MOV     A,R7
0014 4E                ORL     A,R6
0015 700D              JNZ     ?C0070
                                           ; SOURCE LINE # 1073
                                           ; SOURCE LINE # 1075
0017 904683            MOV     DPTR,#04683H
001A E0                MOVX    A,@DPTR
001B FF                MOV     R7,A
001C EF                MOV     A,R7
001D 541F              ANL     A,#01FH
001F FF                MOV     R7,A
0020 EF                MOV     A,R7
0021 F0                MOVX    @DPTR,A
                                           ; SOURCE LINE # 1076
0022 8009              SJMP    ?C0071
0024         ?C0070:
                                           ; SOURCE LINE # 1078
                                           ; SOURCE LINE # 1082
0024 900000      R     MOV     DPTR,#interruptState
0027 E0                MOVX    A,@DPTR
0028 FF                MOV     R7,A
0029 120000      E     LCALL   _CyExitCriticalSection
002C 22                RET     
                                           ; SOURCE LINE # 1085
002D         ?C0071:
                                           ; SOURCE LINE # 1087
002D 120000      R     LCALL   CyPmHibSaveSet
                                           ; SOURCE LINE # 1091
0030 904398            MOV     DPTR,#04398H
0033 E0                MOVX    A,@DPTR
0034 FF                MOV     R7,A
0035 900000      R     MOV     DPTR,#cyPmBackup+07H
0038 EF                MOV     A,R7
0039 F0                MOVX    @DPTR,A
                                           ; SOURCE LINE # 1092
003A 904398            MOV     DPTR,#04398H
003D 7404              MOV     A,#04H
003F F0                MOVX    @DPTR,A
                                           ; SOURCE LINE # 1094
0040 904399            MOV     DPTR,#04399H
0043 E0                MOVX    A,@DPTR
0044 FF                MOV     R7,A
0045 900000      R     MOV     DPTR,#cyPmBackup+08H
0048 EF                MOV     A,R7
0049 F0                MOVX    @DPTR,A
                                           ; SOURCE LINE # 1095
004A 904399            MOV     DPTR,#04399H
004D E4                CLR     A
004E F0                MOVX    @DPTR,A
                                           ; SOURCE LINE # 1097
004F 90439A            MOV     DPTR,#0439AH
0052 E0                MOVX    A,@DPTR
0053 FF                MOV     R7,A
0054 900000      R     MOV     DPTR,#cyPmBackup+09H
C51 COMPILER V9.51   CYPM                                                                  12/22/2013 23:27:30 PAGE 61  

0057 EF                MOV     A,R7
0058 F0                MOVX    @DPTR,A
                                           ; SOURCE LINE # 1098
0059 90439A            MOV     DPTR,#0439AH
005C E4                CLR     A
005D F0                MOVX    @DPTR,A
                                           ; SOURCE LINE # 1102
005E 904200            MOV     DPTR,#04200H
0061 E0                MOVX    A,@DPTR
0062 FF                MOV     R7,A
0063 EF                MOV     A,R7
0064 5407              ANL     A,#07H
0066 FF                MOV     R7,A
0067 7E00              MOV     R6,#00H
0069 EF                MOV     A,R7
006A 4E                ORL     A,R6
006B 7008              JNZ     ?C0073
                                           ; SOURCE LINE # 1103
                                           ; SOURCE LINE # 1105
006D 900000      R     MOV     DPTR,#cyPmBackup+030H
0070 7401              MOV     A,#01H
0072 F0                MOVX    @DPTR,A
                                           ; SOURCE LINE # 1106
0073 801E              SJMP    ?C0074
0075         ?C0073:
                                           ; SOURCE LINE # 1108
                                           ; SOURCE LINE # 1110
0075 900000      R     MOV     DPTR,#cyPmBackup+030H
0078 E4                CLR     A
0079 F0                MOVX    @DPTR,A
                                           ; SOURCE LINE # 1113
007A 904200            MOV     DPTR,#04200H
007D E0                MOVX    A,@DPTR
007E FF                MOV     R7,A
007F EF                MOV     A,R7
0080 5407              ANL     A,#07H
0082 FF                MOV     R7,A
0083 900000      R     MOV     DPTR,#cyPmBackup+02FH
0086 EF                MOV     A,R7
0087 F0                MOVX    @DPTR,A
                                           ; SOURCE LINE # 1116
0088 904200            MOV     DPTR,#04200H
008B E0                MOVX    A,@DPTR
008C FF                MOV     R7,A
008D EF                MOV     A,R7
008E 54F8              ANL     A,#0F8H
0090 FF                MOV     R7,A
0091 EF                MOV     A,R7
0092 F0                MOVX    @DPTR,A
                                           ; SOURCE LINE # 1117
0093         ?C0074:
                                           ; SOURCE LINE # 1121
0093 904393            MOV     DPTR,#04393H
0096 E0                MOVX    A,@DPTR
0097 FF                MOV     R7,A
0098 EF                MOV     A,R7
0099 54F8              ANL     A,#0F8H
009B FF                MOV     R7,A
009C EF                MOV     A,R7
009D 4404              ORL     A,#04H
009F FF                MOV     R7,A
00A0 904393            MOV     DPTR,#04393H
C51 COMPILER V9.51   CYPM                                                                  12/22/2013 23:27:30 PAGE 62  

00A3 EF                MOV     A,R7
00A4 F0                MOVX    @DPTR,A
                                           ; SOURCE LINE # 1124
00A5 904393            MOV     DPTR,#04393H
00A8 E0                MOVX    A,@DPTR
00A9 FF                MOV     R7,A
                                           ; SOURCE LINE # 1127
00AA 00                NOP     
                                           ; SOURCE LINE # 1128
00AB 00                NOP     
                                           ; SOURCE LINE # 1131
00AC 00                NOP     
                                           ; SOURCE LINE # 1138
00AD 900000      R     MOV     DPTR,#cyPmBackup+030H
00B0 E0                MOVX    A,@DPTR
00B1 FF                MOV     R7,A
00B2 EF                MOV     A,R7
00B3 6401              XRL     A,#01H
00B5 6016              JZ      ?C0075
                                           ; SOURCE LINE # 1139
                                           ; SOURCE LINE # 1140
00B7 904200            MOV     DPTR,#04200H
00BA E0                MOVX    A,@DPTR
00BB FF                MOV     R7,A
00BC EF                MOV     A,R7
00BD 54F8              ANL     A,#0F8H
00BF FF                MOV     R7,A
00C0 900000      R     MOV     DPTR,#cyPmBackup+02FH
00C3 E0                MOVX    A,@DPTR
00C4 FE                MOV     R6,A
00C5 EF                MOV     A,R7
00C6 4E                ORL     A,R6
00C7 FF                MOV     R7,A
00C8 904200            MOV     DPTR,#04200H
00CB EF                MOV     A,R7
00CC F0                MOVX    @DPTR,A
                                           ; SOURCE LINE # 1142
00CD         ?C0075:
                                           ; SOURCE LINE # 1146
00CD 120000      R     LCALL   CyPmHibRestore
                                           ; SOURCE LINE # 1149
00D0 900000      R     MOV     DPTR,#cyPmBackup+07H
00D3 E0                MOVX    A,@DPTR
00D4 FF                MOV     R7,A
00D5 904398            MOV     DPTR,#04398H
00D8 EF                MOV     A,R7
00D9 F0                MOVX    @DPTR,A
                                           ; SOURCE LINE # 1150
00DA 900000      R     MOV     DPTR,#cyPmBackup+08H
00DD E0                MOVX    A,@DPTR
00DE FF                MOV     R7,A
00DF 904399            MOV     DPTR,#04399H
00E2 EF                MOV     A,R7
00E3 F0                MOVX    @DPTR,A
                                           ; SOURCE LINE # 1151
00E4 900000      R     MOV     DPTR,#cyPmBackup+09H
00E7 E0                MOVX    A,@DPTR
00E8 FF                MOV     R7,A
00E9 90439A            MOV     DPTR,#0439AH
00EC EF                MOV     A,R7
00ED F0                MOVX    @DPTR,A
                                           ; SOURCE LINE # 1154
C51 COMPILER V9.51   CYPM                                                                  12/22/2013 23:27:30 PAGE 63  

00EE 900000      R     MOV     DPTR,#interruptState
00F1 E0                MOVX    A,@DPTR
00F2 FF                MOV     R7,A
00F3 120000      E     LCALL   _CyExitCriticalSection
                                           ; SOURCE LINE # 1155
00F6         ?C0072:
00F6 22                RET     
             ; FUNCTION CyPmHibernate (END)

             ; FUNCTION _CyPmReadStatus (BEGIN)
                                           ; SOURCE LINE # 1187
0000 900000      R     MOV     DPTR,#mask
0003 EF                MOV     A,R7
0004 F0                MOVX    @DPTR,A
                                           ; SOURCE LINE # 1188
                                           ; SOURCE LINE # 1194
0005 120000      E     LCALL   CyEnterCriticalSection
0008 900000      R     MOV     DPTR,#interruptState
000B EF                MOV     A,R7
000C F0                MOVX    @DPTR,A
                                           ; SOURCE LINE # 1197
000D 900000      R     MOV     DPTR,#interruptStatus
0010 E0                MOVX    A,@DPTR
0011 FF                MOV     R7,A
0012 904390            MOV     DPTR,#04390H
0015 E0                MOVX    A,@DPTR
0016 FE                MOV     R6,A
0017 EF                MOV     A,R7
0018 4E                ORL     A,R6
0019 FF                MOV     R7,A
001A 900000      R     MOV     DPTR,#interruptStatus
001D EF                MOV     A,R7
001E F0                MOVX    @DPTR,A
                                           ; SOURCE LINE # 1198
001F 900000      R     MOV     DPTR,#interruptStatus
0022 E0                MOVX    A,@DPTR
0023 FF                MOV     R7,A
0024 900000      R     MOV     DPTR,#tmpStatus
0027 EF                MOV     A,R7
0028 F0                MOVX    @DPTR,A
                                           ; SOURCE LINE # 1199
0029 900000      R     MOV     DPTR,#interruptStatus
002C E0                MOVX    A,@DPTR
002D FF                MOV     R7,A
002E 900000      R     MOV     DPTR,#mask
0031 E0                MOVX    A,@DPTR
0032 FE                MOV     R6,A
0033 EE                MOV     A,R6
0034 F4                CPL     A
0035 FE                MOV     R6,A
0036 EF                MOV     A,R7
0037 5E                ANL     A,R6
0038 FF                MOV     R7,A
0039 900000      R     MOV     DPTR,#interruptStatus
003C EF                MOV     A,R7
003D F0                MOVX    @DPTR,A
                                           ; SOURCE LINE # 1202
003E 900000      R     MOV     DPTR,#interruptState
0041 E0                MOVX    A,@DPTR
0042 FF                MOV     R7,A
0043 120000      E     LCALL   _CyExitCriticalSection
                                           ; SOURCE LINE # 1204
C51 COMPILER V9.51   CYPM                                                                  12/22/2013 23:27:30 PAGE 64  

0046 900000      R     MOV     DPTR,#tmpStatus
0049 E0                MOVX    A,@DPTR
004A FF                MOV     R7,A
                                           ; SOURCE LINE # 1205
004B         ?C0076:
004B 22                RET     
             ; FUNCTION _CyPmReadStatus (END)

             ; FUNCTION CyPmHibSaveSet (BEGIN)
                                           ; SOURCE LINE # 1231
                                           ; SOURCE LINE # 1232
                                           ; SOURCE LINE # 1234
0000 904331            MOV     DPTR,#04331H
0003 E0                MOVX    A,@DPTR
0004 FF                MOV     R7,A
0005 EF                MOV     A,R7
0006 5404              ANL     A,#04H
0008 FF                MOV     R7,A
0009 7E00              MOV     R6,#00H
000B EF                MOV     A,R7
000C 4E                ORL     A,R6
000D 600B              JZ      ?C0077
                                           ; SOURCE LINE # 1235
                                           ; SOURCE LINE # 1248
000F 904331            MOV     DPTR,#04331H
0012 E0                MOVX    A,@DPTR
0013 FF                MOV     R7,A
0014 EF                MOV     A,R7
0015 54FB              ANL     A,#0FBH
0017 FF                MOV     R7,A
0018 EF                MOV     A,R7
0019 F0                MOVX    @DPTR,A
                                           ; SOURCE LINE # 1249
001A         ?C0077:
                                           ; SOURCE LINE # 1253
001A 7F01              MOV     R7,#01H
001C 120000      E     LCALL   _CyILO_SetPowerMode
001F 900000      R     MOV     DPTR,#cyPmBackup
0022 EF                MOV     A,R7
0023 F0                MOVX    @DPTR,A
                                           ; SOURCE LINE # 1256
0024 904300            MOV     DPTR,#04300H
0027 E0                MOVX    A,@DPTR
0028 FF                MOV     R7,A
0029 EF                MOV     A,R7
002A 5402              ANL     A,#02H
002C FF                MOV     R7,A
002D 7E00              MOV     R6,#00H
002F EF                MOV     A,R7
0030 4E                ORL     A,R6
0031 7004              JNZ     ?C0078
0033 7F00              MOV     R7,#00H
0035 8002              SJMP    ?C0079
0037         ?C0078:
0037 7F01              MOV     R7,#01H
0039         ?C0079:
0039 900000      R     MOV     DPTR,#cyPmBackup+01H
003C EF                MOV     A,R7
003D F0                MOVX    @DPTR,A
                                           ; SOURCE LINE # 1260
003E 904300            MOV     DPTR,#04300H
0041 E0                MOVX    A,@DPTR
C51 COMPILER V9.51   CYPM                                                                  12/22/2013 23:27:30 PAGE 65  

0042 FF                MOV     R7,A
0043 EF                MOV     A,R7
0044 5404              ANL     A,#04H
0046 FF                MOV     R7,A
0047 7E00              MOV     R6,#00H
0049 EF                MOV     A,R7
004A 4E                ORL     A,R6
004B 7004              JNZ     ?C0080
004D 7F00              MOV     R7,#00H
004F 8002              SJMP    ?C0081
0051         ?C0080:
0051 7F01              MOV     R7,#01H
0053         ?C0081:
0053 900000      R     MOV     DPTR,#cyPmBackup+02H
0056 EF                MOV     A,R7
0057 F0                MOVX    @DPTR,A
                                           ; SOURCE LINE # 1265
0058 904683            MOV     DPTR,#04683H
005B E0                MOVX    A,@DPTR
005C FF                MOV     R7,A
005D EF                MOV     A,R7
005E 5410              ANL     A,#010H
0060 FF                MOV     R7,A
0061 7E00              MOV     R6,#00H
0063 EF                MOV     A,R7
0064 4E                ORL     A,R6
0065 7012              JNZ     ?C0082
                                           ; SOURCE LINE # 1266
                                           ; SOURCE LINE # 1268
0067 900000      R     MOV     DPTR,#cyPmBackup+03H
006A E4                CLR     A
006B F0                MOVX    @DPTR,A
                                           ; SOURCE LINE # 1269
006C 904683            MOV     DPTR,#04683H
006F E0                MOVX    A,@DPTR
0070 FF                MOV     R7,A
0071 EF                MOV     A,R7
0072 4410              ORL     A,#010H
0074 FF                MOV     R7,A
0075 EF                MOV     A,R7
0076 F0                MOVX    @DPTR,A
                                           ; SOURCE LINE # 1270
0077 8006              SJMP    ?C0083
0079         ?C0082:
                                           ; SOURCE LINE # 1272
                                           ; SOURCE LINE # 1273
0079 900000      R     MOV     DPTR,#cyPmBackup+03H
007C 7401              MOV     A,#01H
007E F0                MOVX    @DPTR,A
                                           ; SOURCE LINE # 1274
007F         ?C0083:
                                           ; SOURCE LINE # 1284
007F 120000      R     LCALL   CyPmHviLviSaveDisable
                                           ; SOURCE LINE # 1288
0082 120000      R     LCALL   CyPmHibSlpSaveSet
                                           ; SOURCE LINE # 1294
0085 904685            MOV     DPTR,#04685H
0088 E0                MOVX    A,@DPTR
0089 FF                MOV     R7,A
008A 900000      R     MOV     DPTR,#cyPmBackup+0AH
008D EF                MOV     A,R7
008E F0                MOVX    @DPTR,A
C51 COMPILER V9.51   CYPM                                                                  12/22/2013 23:27:30 PAGE 66  

                                           ; SOURCE LINE # 1295
008F 904686            MOV     DPTR,#04686H
0092 E0                MOVX    A,@DPTR
0093 FF                MOV     R7,A
0094 900000      R     MOV     DPTR,#cyPmBackup+0BH
0097 EF                MOV     A,R7
0098 F0                MOVX    @DPTR,A
                                           ; SOURCE LINE # 1297
0099 904685            MOV     DPTR,#04685H
009C 74FF              MOV     A,#0FFH
009E F0                MOVX    @DPTR,A
                                           ; SOURCE LINE # 1298
009F 904686            MOV     DPTR,#04686H
00A2 7490              MOV     A,#090H
00A4 F0                MOVX    @DPTR,A
                                           ; SOURCE LINE # 1299
00A5 22                RET     
             ; FUNCTION CyPmHibSaveSet (END)

             ; FUNCTION CyPmHibRestore (BEGIN)
                                           ; SOURCE LINE # 1321
                                           ; SOURCE LINE # 1322
                                           ; SOURCE LINE # 1324
0000 120000      R     LCALL   CyPmHviLviRestore
                                           ; SOURCE LINE # 1327
0003 120000      R     LCALL   CyPmHibSlpRestore
                                           ; SOURCE LINE # 1330
0006 900000      R     MOV     DPTR,#cyPmBackup+01H
0009 E0                MOVX    A,@DPTR
000A FF                MOV     R7,A
000B EF                MOV     A,R7
000C B40103            CJNE    A,#01H,?C0085
                                           ; SOURCE LINE # 1331
                                           ; SOURCE LINE # 1333
000F 120000      E     LCALL   CyILO_Start1K
                                           ; SOURCE LINE # 1334
0012         ?C0085:
                                           ; SOURCE LINE # 1337
0012 900000      R     MOV     DPTR,#cyPmBackup+02H
0015 E0                MOVX    A,@DPTR
0016 FF                MOV     R7,A
0017 EF                MOV     A,R7
0018 B40103            CJNE    A,#01H,?C0086
                                           ; SOURCE LINE # 1338
                                           ; SOURCE LINE # 1340
001B 120000      E     LCALL   CyILO_Start100K
                                           ; SOURCE LINE # 1341
001E         ?C0086:
                                           ; SOURCE LINE # 1344
001E 900000      R     MOV     DPTR,#cyPmBackup
0021 E0                MOVX    A,@DPTR
0022 FF                MOV     R7,A
0023 120000      E     LCALL   _CyILO_SetPowerMode
                                           ; SOURCE LINE # 1347
0026 900000      R     MOV     DPTR,#cyPmBackup+03H
0029 E0                MOVX    A,@DPTR
002A FF                MOV     R7,A
002B EF                MOV     A,R7
002C 700B              JNZ     ?C0087
                                           ; SOURCE LINE # 1348
                                           ; SOURCE LINE # 1350
002E 904683            MOV     DPTR,#04683H
C51 COMPILER V9.51   CYPM                                                                  12/22/2013 23:27:30 PAGE 67  

0031 E0                MOVX    A,@DPTR
0032 FF                MOV     R7,A
0033 EF                MOV     A,R7
0034 54EF              ANL     A,#0EFH
0036 FF                MOV     R7,A
0037 EF                MOV     A,R7
0038 F0                MOVX    @DPTR,A
                                           ; SOURCE LINE # 1351
0039         ?C0087:
                                           ; SOURCE LINE # 1357
0039 900000      R     MOV     DPTR,#cyPmBackup+0AH
003C E0                MOVX    A,@DPTR
003D FF                MOV     R7,A
003E 904685            MOV     DPTR,#04685H
0041 EF                MOV     A,R7
0042 F0                MOVX    @DPTR,A
                                           ; SOURCE LINE # 1358
0043 900000      R     MOV     DPTR,#cyPmBackup+0BH
0046 E0                MOVX    A,@DPTR
0047 FF                MOV     R7,A
0048 904686            MOV     DPTR,#04686H
004B EF                MOV     A,R7
004C F0                MOVX    @DPTR,A
                                           ; SOURCE LINE # 1359
004D 22                RET     
             ; FUNCTION CyPmHibRestore (END)

             ; FUNCTION _CyPmCtwSetInterval (BEGIN)
                                           ; SOURCE LINE # 1382
0000 900000      R     MOV     DPTR,#ctwInterval
0003 EF                MOV     A,R7
0004 F0                MOVX    @DPTR,A
                                           ; SOURCE LINE # 1383
                                           ; SOURCE LINE # 1385
0005 904382            MOV     DPTR,#04382H
0008 E0                MOVX    A,@DPTR
0009 FF                MOV     R7,A
000A EF                MOV     A,R7
000B 54F7              ANL     A,#0F7H
000D FF                MOV     R7,A
000E EF                MOV     A,R7
000F F0                MOVX    @DPTR,A
                                           ; SOURCE LINE # 1388
0010 120000      E     LCALL   CyILO_Start1K
                                           ; SOURCE LINE # 1391
0013 904382            MOV     DPTR,#04382H
0016 E0                MOVX    A,@DPTR
0017 FF                MOV     R7,A
0018 EF                MOV     A,R7
0019 5404              ANL     A,#04H
001B FF                MOV     R7,A
001C 7E00              MOV     R6,#00H
001E EF                MOV     A,R7
001F 4E                ORL     A,R6
0020 602F              JZ      ?C0089
                                           ; SOURCE LINE # 1392
                                           ; SOURCE LINE # 1394
0022 900000      R     MOV     DPTR,#ctwInterval
0025 E0                MOVX    A,@DPTR
0026 FF                MOV     R7,A
0027 904381            MOV     DPTR,#04381H
002A E0                MOVX    A,@DPTR
C51 COMPILER V9.51   CYPM                                                                  12/22/2013 23:27:30 PAGE 68  

002B FE                MOV     R6,A
002C EE                MOV     A,R6
002D 6F                XRL     A,R7
002E 6044              JZ      ?C0093
                                           ; SOURCE LINE # 1395
                                           ; SOURCE LINE # 1397
0030 904382            MOV     DPTR,#04382H
0033 E0                MOVX    A,@DPTR
0034 FF                MOV     R7,A
0035 EF                MOV     A,R7
0036 54FB              ANL     A,#0FBH
0038 FF                MOV     R7,A
0039 EF                MOV     A,R7
003A F0                MOVX    @DPTR,A
                                           ; SOURCE LINE # 1398
003B 900000      R     MOV     DPTR,#ctwInterval
003E E0                MOVX    A,@DPTR
003F FF                MOV     R7,A
0040 904381            MOV     DPTR,#04381H
0043 EF                MOV     A,R7
0044 F0                MOVX    @DPTR,A
                                           ; SOURCE LINE # 1399
0045 904382            MOV     DPTR,#04382H
0048 E0                MOVX    A,@DPTR
0049 FF                MOV     R7,A
004A EF                MOV     A,R7
004B 4404              ORL     A,#04H
004D FF                MOV     R7,A
004E EF                MOV     A,R7
004F F0                MOVX    @DPTR,A
                                           ; SOURCE LINE # 1400
                                           ; SOURCE LINE # 1401
0050 22                RET     
0051         ?C0089:
                                           ; SOURCE LINE # 1403
                                           ; SOURCE LINE # 1405
