C51 COMPILER V9.51   HEARTBEAT                                                             12/22/2013 23:27:30 PAGE 1   


C51 COMPILER V9.51, COMPILATION OF MODULE HEARTBEAT
OBJECT MODULE PLACED IN .\DP8051\DP8051_Keil_951\Debug\heartBeat.obj
COMPILER INVOKED BY: C:\Program Files (x86)\Cypress\PSoC Creator\3.0\PSoC Creator\import\keil\pk51\9.51\C51\BIN\c51.exe 
                    -.\Generated_Source\PSoC3\heartBeat.c NOIV LARGE MODDP2 OMF2 VB(1) PR(.\DP8051\DP8051_Keil_951\Debug\heartBeat.lst) CD DB
                    - NOIP OT(2,SIZE) DF(DEBUG) INCDIR(.,.\Generated_Source\PSoC3) OJ(.\DP8051\DP8051_Keil_951\Debug\heartBeat.obj)

line level    source

   1          /*******************************************************************************
   2          * File Name: heartBeat.c  
   3          * Version 3.0
   4          *
   5          * Description:
   6          *  The PWM User Module consist of an 8 or 16-bit counter with two 8 or 16-bit
   7          *  comparitors. Each instance of this user module is capable of generating
   8          *  two PWM outputs with the same period. The pulse width is selectable between
   9          *  1 and 255/65535. The period is selectable between 2 and 255/65536 clocks. 
  10          *  The compare value output may be configured to be active when the present 
  11          *  counter is less than or less than/equal to the compare value.
  12          *  A terminal count output is also provided. It generates a pulse one clock
  13          *  width wide when the counter is equal to zero.
  14          *
  15          * Note:
  16          *
  17          *******************************************************************************
  18          * Copyright 2008-2012, Cypress Semiconductor Corporation.  All rights reserved.
  19          * You may use this file only in accordance with the license, terms, conditions, 
  20          * disclaimers, and limitations in the end user license agreement accompanying 
  21          * the software package with which this file was provided.
  22          ********************************************************************************/
  23          
  24          #include "cytypes.h"
  25          #include "heartBeat.h"
  26          
  27          uint8 heartBeat_initVar = 0u;
  28          
  29          
  30          /*******************************************************************************
  31          * Function Name: heartBeat_Start
  32          ********************************************************************************
  33          *
  34          * Summary:
  35          *  The start function initializes the pwm with the default values, the 
  36          *  enables the counter to begin counting.  It does not enable interrupts,
  37          *  the EnableInt command should be called if interrupt generation is required.
  38          *
  39          * Parameters:  
  40          *  None  
  41          *
  42          * Return: 
  43          *  None
  44          *
  45          * Global variables:
  46          *  heartBeat_initVar: Is modified when this function is called for the 
  47          *   first time. Is used to ensure that initialization happens only once.
  48          *
  49          *******************************************************************************/
  50          void heartBeat_Start(void) 
  51          {
  52   1          /* If not Initialized then initialize all required hardware and software */
  53   1          if(heartBeat_initVar == 0u)
C51 COMPILER V9.51   HEARTBEAT                                                             12/22/2013 23:27:30 PAGE 2   

  54   1          {
  55   2              heartBeat_Init();
  56   2              heartBeat_initVar = 1u;
  57   2          }
  58   1          heartBeat_Enable();
  59   1      
  60   1      }
  61          
  62          
  63          /*******************************************************************************
  64          * Function Name: heartBeat_Init
  65          ********************************************************************************
  66          *
  67          * Summary:
  68          *  Initialize component's parameters to the parameters set by user in the 
  69          *  customizer of the component placed onto schematic. Usually called in 
  70          *  heartBeat_Start().
  71          *
  72          * Parameters:  
  73          *  None
  74          *
  75          * Return: 
  76          *  None
  77          *
  78          *******************************************************************************/
  79          void heartBeat_Init(void) 
  80          {
  81   1          #if (heartBeat_UsingFixedFunction || heartBeat_UseControl)
  82   1              uint8 ctrl;
  83   1          #endif /* (heartBeat_UsingFixedFunction || heartBeat_UseControl) */
  84   1          
  85   1          #if(!heartBeat_UsingFixedFunction) 
  86   1              #if(heartBeat_UseStatus)
  87   1                  /* Interrupt State Backup for Critical Region*/
  88   1                  uint8 heartBeat_interruptState;
  89   1              #endif /* (heartBeat_UseStatus) */
  90   1          #endif /* (!heartBeat_UsingFixedFunction) */
  91   1          
  92   1          #if (heartBeat_UsingFixedFunction)
                      /* You are allowed to write the compare value (FF only) */
                      heartBeat_CONTROL |= heartBeat_CFG0_MODE;
                      #if (heartBeat_DeadBand2_4)
                          heartBeat_CONTROL |= heartBeat_CFG0_DB;
                      #endif /* (heartBeat_DeadBand2_4) */
                              
                      ctrl = heartBeat_CONTROL3 & ((uint8 )(~heartBeat_CTRL_CMPMODE1_MASK));
                      heartBeat_CONTROL3 = ctrl | heartBeat_DEFAULT_COMPARE1_MODE;
                      
                       /* Clear and Set SYNCTC and SYNCCMP bits of RT1 register */
                      heartBeat_RT1 &= ((uint8)(~heartBeat_RT1_MASK));
                      heartBeat_RT1 |= heartBeat_SYNC;     
                              
                      /*Enable DSI Sync all all inputs of the PWM*/
                      heartBeat_RT1 &= ((uint8)(~heartBeat_SYNCDSI_MASK));
                      heartBeat_RT1 |= heartBeat_SYNCDSI_EN;
                     
                  #elif (heartBeat_UseControl)
 111   1              /* Set the default compare mode defined in the parameter */
 112   1              ctrl = heartBeat_CONTROL & ((uint8)(~heartBeat_CTRL_CMPMODE2_MASK)) & ((uint8)(~heartBeat_CTRL_CMP
             -MODE1_MASK));
 113   1              heartBeat_CONTROL = ctrl | heartBeat_DEFAULT_COMPARE2_MODE | 
 114   1                                         heartBeat_DEFAULT_COMPARE1_MODE;
C51 COMPILER V9.51   HEARTBEAT                                                             12/22/2013 23:27:30 PAGE 3   

 115   1          #endif /* (heartBeat_UsingFixedFunction) */
 116   1              
 117   1          #if (!heartBeat_UsingFixedFunction)
 118   1              #if (heartBeat_Resolution == 8)
 119   1                  /* Set FIFO 0 to 1 byte register for period*/
 120   1                  heartBeat_AUX_CONTROLDP0 |= (heartBeat_AUX_CTRL_FIFO0_CLR);
 121   1              #else /* (heartBeat_Resolution == 16)*/
                          /* Set FIFO 0 to 1 byte register for period */
                          heartBeat_AUX_CONTROLDP0 |= (heartBeat_AUX_CTRL_FIFO0_CLR);
                          heartBeat_AUX_CONTROLDP1 |= (heartBeat_AUX_CTRL_FIFO0_CLR);
                      #endif /* (heartBeat_Resolution == 8) */
 126   1      
 127   1              heartBeat_WriteCounter(heartBeat_INIT_PERIOD_VALUE);
 128   1          #endif /* (!heartBeat_UsingFixedFunction) */
 129   1              
 130   1          heartBeat_WritePeriod(heartBeat_INIT_PERIOD_VALUE);
 131   1      
 132   1              #if (heartBeat_UseOneCompareMode)
 133   1                  heartBeat_WriteCompare(heartBeat_INIT_COMPARE_VALUE1);
 134   1              #else
                          heartBeat_WriteCompare1(heartBeat_INIT_COMPARE_VALUE1);
                          heartBeat_WriteCompare2(heartBeat_INIT_COMPARE_VALUE2);
                      #endif /* (heartBeat_UseOneCompareMode) */
 138   1              
 139   1              #if (heartBeat_KillModeMinTime)
                          heartBeat_WriteKillTime(heartBeat_MinimumKillTime);
                      #endif /* (heartBeat_KillModeMinTime) */
 142   1              
 143   1              #if (heartBeat_DeadBandUsed)
                          heartBeat_WriteDeadTime(heartBeat_INIT_DEAD_TIME);
                      #endif /* (heartBeat_DeadBandUsed) */
 146   1      
 147   1          #if (heartBeat_UseStatus || heartBeat_UsingFixedFunction)
 148   1              heartBeat_SetInterruptMode(heartBeat_INIT_INTERRUPTS_MODE);
 149   1          #endif /* (heartBeat_UseStatus || heartBeat_UsingFixedFunction) */
 150   1              
 151   1          #if (heartBeat_UsingFixedFunction)
                      /* Globally Enable the Fixed Function Block chosen */
                      heartBeat_GLOBAL_ENABLE |= heartBeat_BLOCK_EN_MASK;
                      /* Set the Interrupt source to come from the status register */
                      heartBeat_CONTROL2 |= heartBeat_CTRL2_IRQ_SEL;
                  #else
 157   1              #if(heartBeat_UseStatus)
 158   1                  
 159   1                  /* CyEnterCriticalRegion and CyExitCriticalRegion are used to mark following region critical*/
 160   1                  /* Enter Critical Region*/
 161   1                  heartBeat_interruptState = CyEnterCriticalSection();
 162   1                  /* Use the interrupt output of the status register for IRQ output */
 163   1                  heartBeat_STATUS_AUX_CTRL |= heartBeat_STATUS_ACTL_INT_EN_MASK;
 164   1                  
 165   1                   /* Exit Critical Region*/
 166   1                  CyExitCriticalSection(heartBeat_interruptState);
 167   1                  
 168   1                  /* Clear the FIFO to enable the heartBeat_STATUS_FIFOFULL
 169   1                         bit to be set on FIFO full. */
 170   1                  heartBeat_ClearFIFO();
 171   1              #endif /* (heartBeat_UseStatus) */
 172   1          #endif /* (heartBeat_UsingFixedFunction) */
 173   1      }
 174          
 175          
 176          /*******************************************************************************
C51 COMPILER V9.51   HEARTBEAT                                                             12/22/2013 23:27:30 PAGE 4   

 177          * Function Name: heartBeat_Enable
 178          ********************************************************************************
 179          *
 180          * Summary: 
 181          *  Enables the PWM block operation
 182          *
 183          * Parameters:  
 184          *  None
 185          *
 186          * Return: 
 187          *  None
 188          *
 189          * Side Effects: 
 190          *  This works only if software enable mode is chosen
 191          *
 192          *******************************************************************************/
 193          void heartBeat_Enable(void) 
 194          {
 195   1          /* Globally Enable the Fixed Function Block chosen */
 196   1          #if (heartBeat_UsingFixedFunction)
                      heartBeat_GLOBAL_ENABLE |= heartBeat_BLOCK_EN_MASK;
                      heartBeat_GLOBAL_STBY_ENABLE |= heartBeat_BLOCK_STBY_EN_MASK;
                  #endif /* (heartBeat_UsingFixedFunction) */
 200   1          
 201   1          /* Enable the PWM from the control register  */
 202   1          #if (heartBeat_UseControl || heartBeat_UsingFixedFunction)
 203   1              heartBeat_CONTROL |= heartBeat_CTRL_ENABLE;
 204   1          #endif /* (heartBeat_UseControl || heartBeat_UsingFixedFunction) */
 205   1      }
 206          
 207          
 208          /*******************************************************************************
 209          * Function Name: heartBeat_Stop
 210          ********************************************************************************
 211          *
 212          * Summary:
 213          *  The stop function halts the PWM, but does not change any modes or disable
 214          *  interrupts.
 215          *
 216          * Parameters:  
 217          *  None  
 218          *
 219          * Return: 
 220          *  None
 221          *
 222          * Side Effects:
 223          *  If the Enable mode is set to Hardware only then this function
 224          *  has no effect on the operation of the PWM
 225          *
 226          *******************************************************************************/
 227          void heartBeat_Stop(void) 
 228          {
 229   1          #if (heartBeat_UseControl || heartBeat_UsingFixedFunction)
 230   1              heartBeat_CONTROL &= ((uint8)(~heartBeat_CTRL_ENABLE));
 231   1          #endif /* (heartBeat_UseControl || heartBeat_UsingFixedFunction) */
 232   1          
 233   1          /* Globally disable the Fixed Function Block chosen */
 234   1          #if (heartBeat_UsingFixedFunction)
                      heartBeat_GLOBAL_ENABLE &= ((uint8)(~heartBeat_BLOCK_EN_MASK));
                      heartBeat_GLOBAL_STBY_ENABLE &= ((uint8)(~heartBeat_BLOCK_STBY_EN_MASK));
                  #endif /* (heartBeat_UsingFixedFunction) */
 238   1      }
C51 COMPILER V9.51   HEARTBEAT                                                             12/22/2013 23:27:30 PAGE 5   

 239          
 240          
 241          #if (heartBeat_UseOneCompareMode)
 242                  #if (heartBeat_CompareMode1SW)
              
              
                              /*******************************************************************************
                              * Function Name: heartBeat_SetCompareMode
                              ********************************************************************************
                              * 
                              * Summary:
                              *  This function writes the Compare Mode for the pwm output when in Dither mode,
                              *  Center Align Mode or One Output Mode.
                              *
                              * Parameters:
                              *  comparemode:  The new compare mode for the PWM output. Use the compare types
                              *                defined in the H file as input arguments.
                              *
                              * Return:
                              *  None
                              *
                              *******************************************************************************/
                              void heartBeat_SetCompareMode(uint8 comparemode) 
                              {
                                  #if(heartBeat_UsingFixedFunction)
                          
                              #if(0 != heartBeat_CTRL_CMPMODE1_SHIFT)
                                  uint8 comparemodemasked = ((uint8)((uint8)comparemode << heartBeat_CTRL_CMPMODE1_SHIFT
             -));
                              #else
                                  uint8 comparemodemasked = comparemode;
                              #endif /* (0 != heartBeat_CTRL_CMPMODE1_SHIFT) */
                          
                                  heartBeat_CONTROL3 &= ((uint8)(~heartBeat_CTRL_CMPMODE1_MASK)); /*Clear Existing Data */
                                  heartBeat_CONTROL3 |= comparemodemasked;     
                                              
                                  #elif (heartBeat_UseControl)
                                      
                              #if(0 != heartBeat_CTRL_CMPMODE1_SHIFT)
                                  uint8 comparemode1masked = ((uint8)((uint8)comparemode << heartBeat_CTRL_CMPMODE1_SHIF
             -T)) & 
                                                                  heartBeat_CTRL_CMPMODE1_MASK;
                              #else
                                  uint8 comparemode1masked = comparemode & heartBeat_CTRL_CMPMODE1_MASK;                
                              #endif /* (0 != heartBeat_CTRL_CMPMODE1_SHIFT) */
                              
                              #if(0 != heartBeat_CTRL_CMPMODE2_SHIFT)                            
                                      uint8 comparemode2masked = ((uint8)((uint8)comparemode << heartBeat_CTRL_CMPMODE2_SHIFT)) & 
                                                                 heartBeat_CTRL_CMPMODE2_MASK;
                              #else
                                      uint8 comparemode2masked = comparemode & heartBeat_CTRL_CMPMODE2_MASK;                
                              #endif /* (0 != heartBeat_CTRL_CMPMODE2_SHIFT) */
                              
                                      /*Clear existing mode */
                                      heartBeat_CONTROL &= ((uint8)(~(heartBeat_CTRL_CMPMODE1_MASK | heartBeat_CTRL_CMPMODE2_MASK))); 
                                      heartBeat_CONTROL |= (comparemode1masked | comparemode2masked);
                                      
                                  #else
                                      uint8 temp = comparemode;
                                  #endif /* (heartBeat_UsingFixedFunction) */
                              }
                      #endif /* heartBeat_CompareMode1SW */
C51 COMPILER V9.51   HEARTBEAT                                                             12/22/2013 23:27:30 PAGE 6   

 299          
 300          #else /* UseOneCompareMode */
              
                      #if (heartBeat_CompareMode1SW)
              
              
                              /*******************************************************************************
                              * Function Name: heartBeat_SetCompareMode1
                              ********************************************************************************
                              * 
                              * Summary:
                              *  This function writes the Compare Mode for the pwm or pwm1 output
                              *
                              * Parameters:  
                              *  comparemode:  The new compare mode for the PWM output. Use the compare types
                              *                defined in the H file as input arguments.
                              *
                              * Return: 
                              *  None
                              *
                              *******************************************************************************/
                              void heartBeat_SetCompareMode1(uint8 comparemode) 
                              {
                                  #if(0 != heartBeat_CTRL_CMPMODE1_SHIFT)
                              uint8 comparemodemasked = ((uint8)((uint8)comparemode << heartBeat_CTRL_CMPMODE1_SHIFT)) &
             - 
                                                             heartBeat_CTRL_CMPMODE1_MASK;
                                  #else
                              uint8 comparemodemasked = comparemode & heartBeat_CTRL_CMPMODE1_MASK;                
                          #endif /* (0 != heartBeat_CTRL_CMPMODE1_SHIFT) */
                                 
                                  #if (heartBeat_UseControl)
                                      heartBeat_CONTROL &= ((uint8)(~heartBeat_CTRL_CMPMODE1_MASK)); /*Clear existing mode */
                                      heartBeat_CONTROL |= comparemodemasked;
                                  #endif /* (heartBeat_UseControl) */
                              }
                      #endif /* heartBeat_CompareMode1SW */
              
              #if (heartBeat_CompareMode2SW)
              
              
                  /*******************************************************************************
                  * Function Name: heartBeat_SetCompareMode2
                  ********************************************************************************
                  * 
                  * Summary:
                  *  This function writes the Compare Mode for the pwm or pwm2 output
                  *
                  * Parameters:  
                  *  comparemode:  The new compare mode for the PWM output. Use the compare types
                  *                defined in the H file as input arguments.
                  *
                  * Return: 
                  *  None
                  *
                  *******************************************************************************/
                  void heartBeat_SetCompareMode2(uint8 comparemode) 
                  {
              
                      #if(0 != heartBeat_CTRL_CMPMODE2_SHIFT)
                          uint8 comparemodemasked = ((uint8)((uint8)comparemode << heartBeat_CTRL_CMPMODE2_SHIFT)) & 
                                                               heartBeat_CTRL_CMPMODE2_MASK;
C51 COMPILER V9.51   HEARTBEAT                                                             12/22/2013 23:27:30 PAGE 7   

                      #else
                          uint8 comparemodemasked = comparemode & heartBeat_CTRL_CMPMODE2_MASK;            
                      #endif /* (0 != heartBeat_CTRL_CMPMODE2_SHIFT) */
                      
                      #if (heartBeat_UseControl)
                          heartBeat_CONTROL &= ((uint8)(~heartBeat_CTRL_CMPMODE2_MASK)); /*Clear existing mode */
                          heartBeat_CONTROL |= comparemodemasked;
                      #endif /* (heartBeat_UseControl) */
                  }
                  #endif /*heartBeat_CompareMode2SW */
              
              #endif /* UseOneCompareMode */
 372          
 373          
 374          #if (!heartBeat_UsingFixedFunction)
 375          
 376          
 377              /*******************************************************************************
 378              * Function Name: heartBeat_WriteCounter
 379              ********************************************************************************
 380              * 
 381              * Summary:
 382              *  Writes a new counter value directly to the counter register. This will be 
 383              *  implemented for that currently running period and only that period. This API 
 384              *  is valid only for UDB implementation and not available for fixed function 
 385              *  PWM implementation.    
 386              *
 387              * Parameters:  
 388              *  counter:  The period new period counter value.
 389              *
 390              * Return: 
 391              *  None
 392              *
 393              * Side Effects: 
 394              *  The PWM Period will be reloaded when a counter value will be a zero
 395              *
 396              *******************************************************************************/
 397              void heartBeat_WriteCounter(uint8 counter) \
 398                                                 
 399              {
 400   1              CY_SET_REG8(heartBeat_COUNTER_LSB_PTR, counter);
 401   1          }
 402          
 403          
 404              /*******************************************************************************
 405              * Function Name: heartBeat_ReadCounter
 406              ********************************************************************************
 407              * 
 408              * Summary:
 409              *  This function returns the current value of the counter.  It doesn't matter
 410              *  if the counter is enabled or running.
 411              *
 412              * Parameters:  
 413              *  None  
 414              *
 415              * Return: 
 416              *  The current value of the counter.
 417              *
 418              *******************************************************************************/
 419              uint8 heartBeat_ReadCounter(void) 
 420              {
 421   1              /* Force capture by reading Accumulator */
C51 COMPILER V9.51   HEARTBEAT                                                             12/22/2013 23:27:30 PAGE 8   

 422   1              /* Must first do a software capture to be able to read the counter */
 423   1              /* It is up to the user code to make sure there isn't already captured data in the FIFO */
 424   1              (void)heartBeat_COUNTERCAP_LSB;
 425   1              
 426   1              /* Read the data from the FIFO (or capture register for Fixed Function)*/
 427   1              return (CY_GET_REG8(heartBeat_CAPTURE_LSB_PTR));
 428   1          }
 429          
 430                  #if (heartBeat_UseStatus)
 431          
 432          
 433                      /*******************************************************************************
 434                      * Function Name: heartBeat_ClearFIFO
 435                      ********************************************************************************
 436                      * 
 437                      * Summary:
 438                      *  This function clears all capture data from the capture FIFO
 439                      *
 440                      * Parameters:  
 441                      *  None
 442                      *
 443                      * Return: 
 444                      *  None
 445                      *
 446                      *******************************************************************************/
 447                      void heartBeat_ClearFIFO(void) 
 448                      {
 449   1                      while(0u != (heartBeat_ReadStatusRegister() & heartBeat_STATUS_FIFONEMPTY))
 450   1                      {
 451   2                          (void)heartBeat_ReadCapture();
 452   2                      }
 453   1                  }
 454          
 455                  #endif /* heartBeat_UseStatus */
 456          
 457          #endif /* !heartBeat_UsingFixedFunction */
 458          
 459          
 460          /*******************************************************************************
 461          * Function Name: heartBeat_WritePeriod
 462          ********************************************************************************
 463          * 
 464          * Summary:
 465          *  This function is used to change the period of the counter.  The new period 
 466          *  will be loaded the next time terminal count is detected.
 467          *
 468          * Parameters:  
 469          *  period:  Period value. May be between 1 and (2^Resolution)-1.  A value of 0 
 470          *           will result in the counter remaining at zero.
 471          *
 472          * Return: 
 473          *  None
 474          *
 475          *******************************************************************************/
 476          void heartBeat_WritePeriod(uint8 period) 
 477          {
 478   1          #if(heartBeat_UsingFixedFunction)
                      CY_SET_REG16(heartBeat_PERIOD_LSB_PTR, (uint16)period);
                  #else
 481   1              CY_SET_REG8(heartBeat_PERIOD_LSB_PTR, period);
 482   1          #endif /* (heartBeat_UsingFixedFunction) */
 483   1      }
C51 COMPILER V9.51   HEARTBEAT                                                             12/22/2013 23:27:30 PAGE 9   

 484          
 485          #if (heartBeat_UseOneCompareMode)
 486          
 487          
 488              /*******************************************************************************
 489              * Function Name: heartBeat_WriteCompare
 490              ********************************************************************************
 491              * 
 492              * Summary:
 493              *  This funtion is used to change the compare1 value when the PWM is in Dither
 494              *  mode. The compare output will reflect the new value on the next UDB clock. 
 495              *  The compare output will be driven high when the present counter value is 
 496              *  compared to the compare value based on the compare mode defined in 
 497              *  Dither Mode.
 498              *
 499              * Parameters:  
 500              *  compare:  New compare value.  
 501              *
 502              * Return: 
 503              *  None
 504              *
 505              * Side Effects:
 506              *  This function is only available if the PWM mode parameter is set to
 507              *  Dither Mode, Center Aligned Mode or One Output Mode
 508              *
 509              *******************************************************************************/
 510              void heartBeat_WriteCompare(uint8 compare) \
 511                                                 
 512              {   
 513   1                      #if(heartBeat_UsingFixedFunction)
                                      CY_SET_REG16(heartBeat_COMPARE1_LSB_PTR, (uint16)compare);
                              #else
 516   1                      CY_SET_REG8(heartBeat_COMPARE1_LSB_PTR, compare);       
 517   1                      #endif /* (heartBeat_UsingFixedFunction) */
 518   1              
 519   1              #if (heartBeat_PWMMode == heartBeat__B_PWM__DITHER)
                          #if(heartBeat_UsingFixedFunction)
                                      CY_SET_REG16(heartBeat_COMPARE2_LSB_PTR, (uint16)(compare + 1u));
                              #else
                              CY_SET_REG8(heartBeat_COMPARE2_LSB_PTR, (compare + 1u));        
                              #endif /* (heartBeat_UsingFixedFunction) */
                      #endif /* (heartBeat_PWMMode == heartBeat__B_PWM__DITHER) */
 526   1          }
 527          
 528          
 529          #else
              
              
                  /*******************************************************************************
                  * Function Name: heartBeat_WriteCompare1
                  ********************************************************************************
                  * 
                  * Summary:
                  *  This funtion is used to change the compare1 value.  The compare output will 
                  *  reflect the new value on the next UDB clock.  The compare output will be 
                  *  driven high when the present counter value is less than or less than or 
                  *  equal to the compare register, depending on the mode.
                  *
                  * Parameters:  
                  *  compare:  New compare value.  
                  *
                  * Return: 
C51 COMPILER V9.51   HEARTBEAT                                                             12/22/2013 23:27:30 PAGE 10  

                  *  None
                  *
                  *******************************************************************************/
                  void heartBeat_WriteCompare1(uint8 compare) \
                                                      
                  {
                      #if(heartBeat_UsingFixedFunction)
                          CY_SET_REG16(heartBeat_COMPARE1_LSB_PTR, (uint16)compare);
                      #else
                          CY_SET_REG8(heartBeat_COMPARE1_LSB_PTR, compare);
                      #endif /* (heartBeat_UsingFixedFunction) */
                  }
              
              
                  /*******************************************************************************
                  * Function Name: heartBeat_WriteCompare2
                  ********************************************************************************
                  * 
                  * Summary:
                  *  This funtion is used to change the compare value, for compare1 output.  
                  *  The compare output will reflect the new value on the next UDB clock.  
                  *  The compare output will be driven high when the present counter value is 
                  *  less than or less than or equal to the compare register, depending on the 
                  *  mode.
                  *
                  * Parameters:  
                  *  compare:  New compare value.  
                  *
                  * Return: 
                  *  None
                  *
                  *******************************************************************************/
                  void heartBeat_WriteCompare2(uint8 compare) \
                                                      
                  {
                      #if(heartBeat_UsingFixedFunction)
                          CY_SET_REG16(heartBeat_COMPARE2_LSB_PTR, compare);
                      #else
                          CY_SET_REG8(heartBeat_COMPARE2_LSB_PTR, compare);
                      #endif /* (heartBeat_UsingFixedFunction) */
                  }
              #endif /* UseOneCompareMode */
 588          
 589          #if (heartBeat_DeadBandUsed)
              
              
                  /*******************************************************************************
                  * Function Name: heartBeat_WriteDeadTime
                  ********************************************************************************
                  * 
                  * Summary:
                  *  This function writes the dead-band counts to the corresponding register
                  *
                  * Parameters:  
                  *  deadtime:  Number of counts for dead time 
                  *
                  * Return: 
                  *  None
                  *
                  *******************************************************************************/
                  void heartBeat_WriteDeadTime(uint8 deadtime) 
                  {
C51 COMPILER V9.51   HEARTBEAT                                                             12/22/2013 23:27:30 PAGE 11  

                      /* If using the Dead Band 1-255 mode then just write the register */
                      #if(!heartBeat_DeadBand2_4)
                          CY_SET_REG8(heartBeat_DEADBAND_COUNT_PTR, deadtime);
                      #else
                          /* Otherwise the data has to be masked and offset */        
                          /* Clear existing data */
                          heartBeat_DEADBAND_COUNT &= ((uint8)(~heartBeat_DEADBAND_COUNT_MASK));
                          
                          /* Set new dead time */
                          #if(heartBeat_DEADBAND_COUNT_SHIFT)        
                              heartBeat_DEADBAND_COUNT |= ((uint8)((uint8)deadtime << heartBeat_DEADBAND_COUNT_SHIFT)) &
             - 
                                                                  heartBeat_DEADBAND_COUNT_MASK;
                          #else
                              heartBeat_DEADBAND_COUNT |= deadtime & heartBeat_DEADBAND_COUNT_MASK;        
                          #endif /* (heartBeat_DEADBAND_COUNT_SHIFT) */
                      
                      #endif /* (!heartBeat_DeadBand2_4) */
                  }
              
              
                  /*******************************************************************************
                  * Function Name: heartBeat_ReadDeadTime
                  ********************************************************************************
                  * 
                  * Summary:
                  *  This function reads the dead-band counts from the corresponding register
                  *
                  * Parameters:  
                  *  None
                  *
                  * Return: 
                  *  Dead Band Counts
                  *
                  *******************************************************************************/
                  uint8 heartBeat_ReadDeadTime(void) 
                  {
                      /* If using the Dead Band 1-255 mode then just read the register */
                      #if(!heartBeat_DeadBand2_4)
                          return (CY_GET_REG8(heartBeat_DEADBAND_COUNT_PTR));
                      #else
                      
                          /* Otherwise the data has to be masked and offset */
                          #if(heartBeat_DEADBAND_COUNT_SHIFT)      
                              return ((uint8)(((uint8)(heartBeat_DEADBAND_COUNT & heartBeat_DEADBAND_COUNT_MASK)) >> 
                                                                                         heartBeat_DEADBAND_COUNT_SHIFT)
             -);
                          #else
                              return (heartBeat_DEADBAND_COUNT & heartBeat_DEADBAND_COUNT_MASK);
                          #endif /* (heartBeat_DEADBAND_COUNT_SHIFT) */
                      #endif /* (!heartBeat_DeadBand2_4) */
                  }
              #endif /* DeadBandUsed */
 659          
 660          #if (heartBeat_UseStatus || heartBeat_UsingFixedFunction)
 661          
 662          
 663              /*******************************************************************************
 664              * Function Name: heartBeat_SetInterruptMode
 665              ********************************************************************************
 666              * 
 667              * Summary:
C51 COMPILER V9.51   HEARTBEAT                                                             12/22/2013 23:27:30 PAGE 12  

 668              *  This function configures the interrupts mask control of theinterrupt 
 669              *  source status register.
 670              *
 671              * Parameters:  
 672              *  uint8 interruptMode: Bit field containing the interrupt sources enabled 
 673              *
 674              * Return: 
 675              *  None
 676              *
 677              *******************************************************************************/
 678              void heartBeat_SetInterruptMode(uint8 interruptMode)  
 679              {
 680   1              CY_SET_REG8(heartBeat_STATUS_MASK_PTR, interruptMode);
 681   1          }
 682          
 683          
 684              /*******************************************************************************
 685              * Function Name: heartBeat_ReadStatusRegister
 686              ********************************************************************************
 687              * 
 688              * Summary:
 689              *  This function returns the current state of the status register. 
 690              *
 691              * Parameters:  
 692              *  None
 693              *
 694              * Return: 
 695              *  uint8 : Current status register value. The status register bits are:
 696              *  [7:6] : Unused(0)
 697              *  [5]   : Kill event output
 698              *  [4]   : FIFO not empty
 699              *  [3]   : FIFO full
 700              *  [2]   : Terminal count
 701              *  [1]   : Compare output 2
 702              *  [0]   : Compare output 1
 703              *
 704              *******************************************************************************/
 705              uint8 heartBeat_ReadStatusRegister(void)   
 706              {
 707   1              uint8 result;
 708   1              
 709   1              result = CY_GET_REG8(heartBeat_STATUS_PTR);
 710   1              return (result);
 711   1          }
 712          
 713          #endif /* (heartBeat_UseStatus || heartBeat_UsingFixedFunction) */
 714          
 715          
 716          #if (heartBeat_UseControl)
 717          
 718          
 719              /*******************************************************************************
 720              * Function Name: heartBeat_ReadControlRegister
 721              ********************************************************************************
 722              * 
 723              * Summary:
 724              *  Returns the current state of the control register. This API is available 
 725              *  only if the control register is not removed.
 726              *
 727              * Parameters:  
 728              *  None 
 729              *
C51 COMPILER V9.51   HEARTBEAT                                                             12/22/2013 23:27:30 PAGE 13  

 730              * Return: 
 731              *  uint8 : Current control register value
 732              *
 733              *******************************************************************************/    
 734              uint8 heartBeat_ReadControlRegister(void) 
 735              {
 736   1              uint8 result;
 737   1              
 738   1              result = CY_GET_REG8(heartBeat_CONTROL_PTR);
 739   1              return (result);
 740   1          }
 741          
 742          
 743              /*******************************************************************************
 744              * Function Name: heartBeat_WriteControlRegister
 745              ********************************************************************************
 746              * 
 747              * Summary:
 748              *  Sets the bit field of the control register. This API is available only if 
 749              *  the control register is not removed.
 750              *
 751              * Parameters:  
 752              *  uint8 control: Control register bit field, The status register bits are:
 753              *  [7]   : PWM Enable
 754              *  [6]   : Reset
 755              *  [5:3] : Compare Mode2
 756              *  [2:0] : Compare Mode2
 757              *
 758              * Return: 
 759              *  None
 760              *
 761              *******************************************************************************/  
 762              void heartBeat_WriteControlRegister(uint8 control) 
 763              {
 764   1              CY_SET_REG8(heartBeat_CONTROL_PTR, control);
 765   1          }
 766                  
 767          #endif /* (heartBeat_UseControl) */
 768          
 769          
 770          #if (!heartBeat_UsingFixedFunction)
 771          
 772          
 773              /*******************************************************************************
 774              * Function Name: heartBeat_ReadCapture
 775              ********************************************************************************
 776              * 
 777              * Summary:
 778              *  Reads the capture value from the capture FIFO.
 779              *
 780              * Parameters:  
 781              *  None
 782              *
 783              * Return: 
 784              *  uint8/uint16: The current capture value
 785              *
 786              *******************************************************************************/  
 787              uint8 heartBeat_ReadCapture(void)  
 788              {
 789   1              return (CY_GET_REG8(heartBeat_CAPTURE_LSB_PTR));
 790   1          }
 791                  
C51 COMPILER V9.51   HEARTBEAT                                                             12/22/2013 23:27:30 PAGE 14  

 792          #endif /* (!heartBeat_UsingFixedFunction) */
 793          
 794          
 795          #if (heartBeat_UseOneCompareMode)
 796          
 797          
 798              /*******************************************************************************
 799              * Function Name: heartBeat_ReadCompare
 800              ********************************************************************************
 801              * 
 802              * Summary:
 803              *  Reads the compare value for the compare output when the PWM Mode parameter is 
 804              *  set to Dither mode, Center Aligned mode, or One Output mode.
 805              *
 806              * Parameters:  
 807              *  None
 808              *
 809              * Return: 
 810              *  uint8/uint16: Current compare value
 811              *
 812              *******************************************************************************/  
 813              uint8 heartBeat_ReadCompare(void)  
 814              {
 815   1                      #if(heartBeat_UsingFixedFunction)
                          return ((uint8)CY_GET_REG16(heartBeat_COMPARE1_LSB_PTR));
                      #else
 818   1                  return (CY_GET_REG8(heartBeat_COMPARE1_LSB_PTR));
 819   1              #endif /* (heartBeat_UsingFixedFunction) */
 820   1          }
 821          
 822          #else
              
              
                  /*******************************************************************************
                  * Function Name: heartBeat_ReadCompare1
                  ********************************************************************************
                  * 
                  * Summary:
                  *  Reads the compare value for the compare1 output.
                  *
                  * Parameters:  
                  *  None
                  *
                  * Return: 
                  *  uint8/uint16: Current compare value.
                  *
                  *******************************************************************************/  
                  uint8 heartBeat_ReadCompare1(void) 
                  {
                              return (CY_GET_REG8(heartBeat_COMPARE1_LSB_PTR));
                  }
              
              
                  /*******************************************************************************
                  * Function Name: heartBeat_ReadCompare2
                  ********************************************************************************
                  * 
                  * Summary:
                  *  Reads the compare value for the compare2 output.
                  *
                  * Parameters:  
                  *  None
C51 COMPILER V9.51   HEARTBEAT                                                             12/22/2013 23:27:30 PAGE 15  

                  *
                  * Return: 
                  *  uint8/uint16: Current compare value.
                  *
                  *******************************************************************************/  
                  uint8 heartBeat_ReadCompare2(void)  
                  {
                              return (CY_GET_REG8(heartBeat_COMPARE2_LSB_PTR));
                  }
              
              #endif /* (heartBeat_UseOneCompareMode) */
 865          
 866          
 867          /*******************************************************************************
 868          * Function Name: heartBeat_ReadPeriod
 869          ********************************************************************************
 870          * 
 871          * Summary:
 872          *  Reads the period value used by the PWM hardware.
 873          *
 874          * Parameters:  
 875          *  None
 876          *
 877          * Return: 
 878          *  uint8/16: Period value
 879          *
 880          *******************************************************************************/ 
 881          uint8 heartBeat_ReadPeriod(void) 
 882          {
 883   1              #if(heartBeat_UsingFixedFunction)
                      return ((uint8)CY_GET_REG16(heartBeat_PERIOD_LSB_PTR));
                  #else
 886   1              return (CY_GET_REG8(heartBeat_PERIOD_LSB_PTR));
 887   1          #endif /* (heartBeat_UsingFixedFunction) */
 888   1      }
 889          
 890          #if ( heartBeat_KillModeMinTime)
              
              
                  /*******************************************************************************
                  * Function Name: heartBeat_WriteKillTime
                  ********************************************************************************
                  * 
                  * Summary:
                  *  Writes the kill time value used by the hardware when the Kill Mode 
                  *  is set to Minimum Time.
                  *
                  * Parameters:  
                  *  uint8: Minimum Time kill counts
                  *
                  * Return: 
                  *  None
                  *
                  *******************************************************************************/ 
                  void heartBeat_WriteKillTime(uint8 killtime) 
                  {
                      CY_SET_REG8(heartBeat_KILLMODEMINTIME_PTR, killtime);
                  }
              
              
                  /*******************************************************************************
                  * Function Name: heartBeat_ReadKillTime
C51 COMPILER V9.51   HEARTBEAT                                                             12/22/2013 23:27:30 PAGE 16  

                  ********************************************************************************
                  * 
                  * Summary:
                  *  Reads the kill time value used by the hardware when the Kill Mode is set 
                  *  to Minimum Time.
                  *
                  * Parameters:  
                  *  None
                  *
                  * Return: 
                  *  uint8: The current Minimum Time kill counts
                  *
                  *******************************************************************************/ 
                  uint8 heartBeat_ReadKillTime(void) 
                  {
                      return (CY_GET_REG8(heartBeat_KILLMODEMINTIME_PTR));
                  }
              
              #endif /* ( heartBeat_KillModeMinTime) */
 935          
 936          /* [] END OF FILE */
C51 COMPILER V9.51   HEARTBEAT                                                             12/22/2013 23:27:30 PAGE 17  

ASSEMBLY LISTING OF GENERATED OBJECT CODE


             ; FUNCTION heartBeat_Start (BEGIN)
                                           ; SOURCE LINE # 50
                                           ; SOURCE LINE # 51
                                           ; SOURCE LINE # 53
0000 900000      R     MOV     DPTR,#heartBeat_initVar
0003 E0                MOVX    A,@DPTR
0004 FF                MOV     R7,A
0005 EF                MOV     A,R7
0006 7009              JNZ     ?C0001
                                           ; SOURCE LINE # 54
                                           ; SOURCE LINE # 55
0008 120000      R     LCALL   heartBeat_Init
                                           ; SOURCE LINE # 56
000B 900000      R     MOV     DPTR,#heartBeat_initVar
000E 7401              MOV     A,#01H
0010 F0                MOVX    @DPTR,A
                                           ; SOURCE LINE # 57
0011         ?C0001:
                                           ; SOURCE LINE # 58
0011 120000      R     LCALL   heartBeat_Enable
                                           ; SOURCE LINE # 60
0014 22                RET     
             ; FUNCTION heartBeat_Start (END)

             ; FUNCTION heartBeat_Init (BEGIN)
                                           ; SOURCE LINE # 79
                                           ; SOURCE LINE # 80
                                           ; SOURCE LINE # 112
0000 906578            MOV     DPTR,#06578H
0003 E0                MOVX    A,@DPTR
0004 FF                MOV     R7,A
0005 EF                MOV     A,R7
0006 54C0              ANL     A,#0C0H
0008 FF                MOV     R7,A
0009 900000      R     MOV     DPTR,#ctrl
000C EF                MOV     A,R7
000D F0                MOVX    @DPTR,A
                                           ; SOURCE LINE # 114
000E 900000      R     MOV     DPTR,#ctrl
0011 E0                MOVX    A,@DPTR
0012 FF                MOV     R7,A
0013 EF                MOV     A,R7
0014 4409              ORL     A,#09H
0016 FF                MOV     R7,A
0017 906578            MOV     DPTR,#06578H
001A EF                MOV     A,R7
001B F0                MOVX    @DPTR,A
                                           ; SOURCE LINE # 120
001C 906598            MOV     DPTR,#06598H
001F E0                MOVX    A,@DPTR
0020 FF                MOV     R7,A
0021 EF                MOV     A,R7
0022 4401              ORL     A,#01H
0024 FF                MOV     R7,A
0025 EF                MOV     A,R7
0026 F0                MOVX    @DPTR,A
                                           ; SOURCE LINE # 127
0027 7F32              MOV     R7,#032H
0029 120000      R     LCALL   _heartBeat_WriteCounter
C51 COMPILER V9.51   HEARTBEAT                                                             12/22/2013 23:27:30 PAGE 18  

                                           ; SOURCE LINE # 130
002C 7F32              MOV     R7,#032H
002E 120000      R     LCALL   _heartBeat_WritePeriod
                                           ; SOURCE LINE # 133
0031 7F19              MOV     R7,#019H
0033 120000      R     LCALL   _heartBeat_WriteCompare
                                           ; SOURCE LINE # 148
0036 7F00              MOV     R7,#00H
0038 120000      R     LCALL   _heartBeat_SetInterruptMode
                                           ; SOURCE LINE # 161
003B 120000      E     LCALL   CyEnterCriticalSection
003E 900000      R     MOV     DPTR,#heartBeat_interruptState
0041 EF                MOV     A,R7
0042 F0                MOVX    @DPTR,A
                                           ; SOURCE LINE # 163
0043 906598            MOV     DPTR,#06598H
0046 E0                MOVX    A,@DPTR
0047 FF                MOV     R7,A
0048 EF                MOV     A,R7
0049 4410              ORL     A,#010H
004B FF                MOV     R7,A
004C EF                MOV     A,R7
004D F0                MOVX    @DPTR,A
                                           ; SOURCE LINE # 166
004E 900000      R     MOV     DPTR,#heartBeat_interruptState
0051 E0                MOVX    A,@DPTR
0052 FF                MOV     R7,A
0053 120000      E     LCALL   _CyExitCriticalSection
                                           ; SOURCE LINE # 170
0056 120000      R     LCALL   heartBeat_ClearFIFO
                                           ; SOURCE LINE # 173
0059 22                RET     
             ; FUNCTION heartBeat_Init (END)

             ; FUNCTION heartBeat_Enable (BEGIN)
                                           ; SOURCE LINE # 193
                                           ; SOURCE LINE # 194
                                           ; SOURCE LINE # 203
0000 906578            MOV     DPTR,#06578H
0003 E0                MOVX    A,@DPTR
0004 FF                MOV     R7,A
0005 EF                MOV     A,R7
0006 4480              ORL     A,#080H
0008 FF                MOV     R7,A
0009 EF                MOV     A,R7
000A F0                MOVX    @DPTR,A
                                           ; SOURCE LINE # 205
000B 22                RET     
             ; FUNCTION heartBeat_Enable (END)

             ; FUNCTION heartBeat_Stop (BEGIN)
                                           ; SOURCE LINE # 227
                                           ; SOURCE LINE # 228
                                           ; SOURCE LINE # 230
0000 906578            MOV     DPTR,#06578H
0003 E0                MOVX    A,@DPTR
0004 FF                MOV     R7,A
0005 EF                MOV     A,R7
0006 547F              ANL     A,#07FH
0008 FF                MOV     R7,A
0009 EF                MOV     A,R7
000A F0                MOVX    @DPTR,A
C51 COMPILER V9.51   HEARTBEAT                                                             12/22/2013 23:27:30 PAGE 19  

                                           ; SOURCE LINE # 238
000B 22                RET     
             ; FUNCTION heartBeat_Stop (END)

             ; FUNCTION _heartBeat_WriteCounter (BEGIN)
                                           ; SOURCE LINE # 397
0000 900000      R     MOV     DPTR,#counter
0003 EF                MOV     A,R7
0004 F0                MOVX    @DPTR,A
                                           ; SOURCE LINE # 399
                                           ; SOURCE LINE # 400
0005 900000      R     MOV     DPTR,#counter
0008 E0                MOVX    A,@DPTR
0009 FF                MOV     R7,A
000A 906508            MOV     DPTR,#06508H
000D EF                MOV     A,R7
000E F0                MOVX    @DPTR,A
                                           ; SOURCE LINE # 401
000F 22                RET     
             ; FUNCTION _heartBeat_WriteCounter (END)

             ; FUNCTION heartBeat_ReadCounter (BEGIN)
                                           ; SOURCE LINE # 419
                                           ; SOURCE LINE # 420
                                           ; SOURCE LINE # 424
0000 906518            MOV     DPTR,#06518H
0003 E0                MOVX    A,@DPTR
0004 FF                MOV     R7,A
                                           ; SOURCE LINE # 427
0005 906558            MOV     DPTR,#06558H
0008 E0                MOVX    A,@DPTR
0009 FF                MOV     R7,A
                                           ; SOURCE LINE # 428
000A         ?C0007:
000A 22                RET     
             ; FUNCTION heartBeat_ReadCounter (END)

             ; FUNCTION heartBeat_ClearFIFO (BEGIN)
                                           ; SOURCE LINE # 447
                                           ; SOURCE LINE # 448
0000         ?C0008:
                                           ; SOURCE LINE # 449
0000 120000      R     LCALL   heartBeat_ReadStatusRegister
0003 EF                MOV     A,R7
0004 30E405            JNB     ACC.4,?C0010
                                           ; SOURCE LINE # 450
                                           ; SOURCE LINE # 451
0007 120000      R     LCALL   heartBeat_ReadCapture
                                           ; SOURCE LINE # 452
000A 80F4              SJMP    ?C0008
                                           ; SOURCE LINE # 453
000C         ?C0010:
000C 22                RET     
             ; FUNCTION heartBeat_ClearFIFO (END)

             ; FUNCTION _heartBeat_WritePeriod (BEGIN)
                                           ; SOURCE LINE # 476
0000 900000      R     MOV     DPTR,#period
0003 EF                MOV     A,R7
0004 F0                MOVX    @DPTR,A
                                           ; SOURCE LINE # 477
                                           ; SOURCE LINE # 481
C51 COMPILER V9.51   HEARTBEAT                                                             12/22/2013 23:27:30 PAGE 20  

0005 900000      R     MOV     DPTR,#period
0008 E0                MOVX    A,@DPTR
0009 FF                MOV     R7,A
000A 906548            MOV     DPTR,#06548H
000D EF                MOV     A,R7
000E F0                MOVX    @DPTR,A
                                           ; SOURCE LINE # 483
000F 22                RET     
             ; FUNCTION _heartBeat_WritePeriod (END)

             ; FUNCTION _heartBeat_WriteCompare (BEGIN)
                                           ; SOURCE LINE # 510
0000 900000      R     MOV     DPTR,#compare
0003 EF                MOV     A,R7
0004 F0                MOVX    @DPTR,A
                                           ; SOURCE LINE # 512
                                           ; SOURCE LINE # 516
0005 900000      R     MOV     DPTR,#compare
0008 E0                MOVX    A,@DPTR
0009 FF                MOV     R7,A
000A 906528            MOV     DPTR,#06528H
000D EF                MOV     A,R7
000E F0                MOVX    @DPTR,A
                                           ; SOURCE LINE # 526
000F 22                RET     
             ; FUNCTION _heartBeat_WriteCompare (END)

             ; FUNCTION _heartBeat_SetInterruptMode (BEGIN)
                                           ; SOURCE LINE # 678
0000 900000      R     MOV     DPTR,#interruptMode
0003 EF                MOV     A,R7
0004 F0                MOVX    @DPTR,A
                                           ; SOURCE LINE # 679
                                           ; SOURCE LINE # 680
0005 900000      R     MOV     DPTR,#interruptMode
0008 E0                MOVX    A,@DPTR
0009 FF                MOV     R7,A
000A 906588            MOV     DPTR,#06588H
000D EF                MOV     A,R7
000E F0                MOVX    @DPTR,A
                                           ; SOURCE LINE # 681
000F 22                RET     
             ; FUNCTION _heartBeat_SetInterruptMode (END)

             ; FUNCTION heartBeat_ReadStatusRegister (BEGIN)
                                           ; SOURCE LINE # 705
                                           ; SOURCE LINE # 706
                                           ; SOURCE LINE # 709
0000 906568            MOV     DPTR,#06568H
0003 E0                MOVX    A,@DPTR
0004 FF                MOV     R7,A
0005 900000      R     MOV     DPTR,#result
0008 EF                MOV     A,R7
0009 F0                MOVX    @DPTR,A
                                           ; SOURCE LINE # 710
000A 900000      R     MOV     DPTR,#result
000D E0                MOVX    A,@DPTR
000E FF                MOV     R7,A
                                           ; SOURCE LINE # 711
000F         ?C0014:
000F 22                RET     
             ; FUNCTION heartBeat_ReadStatusRegister (END)
C51 COMPILER V9.51   HEARTBEAT                                                             12/22/2013 23:27:30 PAGE 21  


             ; FUNCTION heartBeat_ReadControlRegister (BEGIN)
                                           ; SOURCE LINE # 734
                                           ; SOURCE LINE # 735
                                           ; SOURCE LINE # 738
0000 906578            MOV     DPTR,#06578H
0003 E0                MOVX    A,@DPTR
0004 FF                MOV     R7,A
0005 900000      R     MOV     DPTR,#result
0008 EF                MOV     A,R7
0009 F0                MOVX    @DPTR,A
                                           ; SOURCE LINE # 739
000A 900000      R     MOV     DPTR,#result
000D E0                MOVX    A,@DPTR
000E FF                MOV     R7,A
                                           ; SOURCE LINE # 740
000F         ?C0015:
000F 22                RET     
             ; FUNCTION heartBeat_ReadControlRegister (END)

             ; FUNCTION _heartBeat_WriteControlRegister (BEGIN)
                                           ; SOURCE LINE # 762
0000 900000      R     MOV     DPTR,#control
0003 EF                MOV     A,R7
0004 F0                MOVX    @DPTR,A
                                           ; SOURCE LINE # 763
                                           ; SOURCE LINE # 764
0005 900000      R     MOV     DPTR,#control
0008 E0                MOVX    A,@DPTR
0009 FF                MOV     R7,A
000A 906578            MOV     DPTR,#06578H
000D EF                MOV     A,R7
000E F0                MOVX    @DPTR,A
                                           ; SOURCE LINE # 765
000F 22                RET     
             ; FUNCTION _heartBeat_WriteControlRegister (END)

             ; FUNCTION heartBeat_ReadCapture (BEGIN)
                                           ; SOURCE LINE # 787
                                           ; SOURCE LINE # 788
                                           ; SOURCE LINE # 789
0000 906558            MOV     DPTR,#06558H
0003 E0                MOVX    A,@DPTR
0004 FF                MOV     R7,A
                                           ; SOURCE LINE # 790
0005         ?C0017:
0005 22                RET     
             ; FUNCTION heartBeat_ReadCapture (END)

             ; FUNCTION heartBeat_ReadCompare (BEGIN)
                                           ; SOURCE LINE # 813
                                           ; SOURCE LINE # 814
                                           ; SOURCE LINE # 818
0000 906528            MOV     DPTR,#06528H
0003 E0                MOVX    A,@DPTR
0004 FF                MOV     R7,A
                                           ; SOURCE LINE # 820
0005         ?C0018:
0005 22                RET     
             ; FUNCTION heartBeat_ReadCompare (END)

             ; FUNCTION heartBeat_ReadPeriod (BEGIN)
C51 COMPILER V9.51   HEARTBEAT                                                             12/22/2013 23:27:30 PAGE 22  

                                           ; SOURCE LINE # 881
                                           ; SOURCE LINE # 882
                                           ; SOURCE LINE # 886
0000 906548            MOV     DPTR,#06548H
0003 E0                MOVX    A,@DPTR
0004 FF                MOV     R7,A
                                           ; SOURCE LINE # 888
0005         ?C0019:
0005 22                RET     
             ; FUNCTION heartBeat_ReadPeriod (END)



MODULE INFORMATION:   STATIC OVERLAYABLE
   CODE SIZE        =    289    ----
   CONSTANT SIZE    =   ----    ----
   XDATA SIZE       =      1       9
   PDATA SIZE       =   ----    ----
   DATA SIZE        =   ----    ----
   IDATA SIZE       =   ----    ----
   BIT SIZE         =   ----    ----
   EDATA SIZE       =   ----    ----
   HDATA SIZE       =   ----    ----
   XDATA CONST SIZE =   ----    ----
   FAR CONST SIZE   =   ----    ----
END OF MODULE INFORMATION.


C51 COMPILATION COMPLETE.  0 WARNING(S),  0 ERROR(S)
