:40000000021CBA008F828E83E0540100000070F82278FFE4F6D8FD021D18EC4D6011E8497017ED33EC3304600DE4FCFFFEFD22E933E8330470F80202E31202AE580460098B
:40004000E4CC248150062850090202ED2840030202EAC0E0EB4A7044B98006D0E0FB0202D9EF4E701CBD8008EBFFEAFEE9FD80EBE98DF0A4FEE5F0020103E9CDF9EAFEEB24
:40008000FFEF89F0A4FCE5F0CE89F0A42EFFE435F0CD89F0A42DFEE435F08067EF4E7005BD80D780C3EF8BF0A4ACF0EE8BF0A42CFCE435F0F8EF8AF0A42CE5F038FCE433FC
:4000C000CB8DF0A42CFCE5F03BF8EE8AF0A42CFCE5F038F8E433CF89F0A42CFCE5F038CF3400CE89F0A42FFFE5F03EFEE433C98DF0A42EFEE5F039CD8AF0A42FFFE5F03EDF
:40010000FEE43DFD33D0E0FB50070BBB000F0202EDEC2CFCEF33FFEE33FEED33FD0202C50202EDEC5D046005E8590470030202E31202AE580460F6EC4860F2EC7004FDFED7
:40014000FF22C860DB2481C85009C398600250060202EA9850CAF582E9294B4A7005AB820202D975F0007C1A7880C3EF9BEE9AED99400DC3EF9BFFEE9AFEED99FDE842F03B
:40018000DC23ACF0D0E0FFD0E0FED0E0FDAB8220E7101BEB60BAEC2CFCEF33FFEE33FEED33FD0202C5E803F830E705C0F075F000EF2FFFEE33FEED33FD40B830E7C280AA94
:4001C00074F8CC6480CCC86480C8F58204604FC3EB9FF5F0EA9E42F0E99D42F0E89C45F0603C501DE5825FFFE582D313CB5BCBF42B5582FB50280ABA002409B90020088055
:400200001DE5825BFBE582D313CF5FCFF4C3132F5582FF50090EBE00050DBD00010CC3EB9FF5F0EA9E42F0E99D42F0E89C45F06007CC4820E701B3EC2275F020800E75F0B1
:4002400010800575F0087D007E007F003392D530D5031204D3EC334010EF33FFEE33FEED33FDEC33FCD5F0ED22E5F0247EA2D513CC92E7CDCEFF22EDD2E7CD33EC3392D58E
:4002800024814006E4FFFEFDFC22FCE4CFCECDCC24E0501174FF80EDC3CC13CCCD13CDCE13CECF13CF0470F030D5DE0204D3E9D2E7C933E833F892D5EDD2E7CD33EC33FC88
:4002C0005002B2D522EC30E7100FBF000C0EBE00080DBD00040BEB6014A2D5EB13FCED92E7FD2274FFFCFDFEFF22E480F8A2D574FF13FC7D80E480EFBB010689828A83E02A
:40030000225002E722BBFE02E32289828A83E49322BB010689828A83F0225002F722BBFE01F322BC000BBE0029EF8DF084FFADF022E4CCF875F008EF2FFFEE33FEEC33FCE1
:40034000EE9DEC984005FCEE9DFE0FD5F0E9E4CEFD22EDF8F5F0EE8420D21CFEADF075F008EF2FFFED33FD4007985006D5F0F222C398FD0FD5F0EA22C5F0F8A3E028F0C537
:40038000F0F8E582158270021583E038F022EF2BFFEE3AFEED39FDEC38FC22C3EF9BFFEE9AFEED99FDEC98FC22E88FF0A4CC8BF0A42CFCE98EF0A42CFC8AF0EDA42CFCEA1A
:4003C0008EF0A4CDA8F08BF0A42DCC3825F0FDE98FF0A42CCD35F0FCEB8EF0A4FEA9F0EB8FF0A4CFC5F02ECD39FEE43CFCEAA42DCE35F0FDE43CFC2275F008758200EF2FFF
:40040000FFEE33FECD33CDCC33CCC58233C5829BED9AEC99E58298400CF582EE9BFEED9AFDEC99FC0FD5F0D6E4CEFBE4CDFAE4CCF9A88222B800C1B90059BA002DEC8BF080
:4004400084CFCECDFCE5F0CBF97818EF2FFFEE33FEED33FDEC33FCEB33FB10D703994004EB99FB0FD8E5E4F9FA227818EF2FFFEE33FEED33FDEC33FCC933C910D7059BE998
:400480009A4007EC9BFCE99AF90FD8E0E4C9FAE4CCFB2275F010EF2FFFEE33FEED33FDCC33CCC833C810D7079BEC9AE899400AED9BFDEC9AFCE899F80FD5F0DAE4CDFBE42D
:4004C000CCFAE4C8F922EF4BFFEE4AFEED49FDEC48FC22C3E49FFFE49EFEE49DFDE49CFC22EB9FF5F0EA9E42F0E99D42F0E89C45F022E8600FECC313FCED13FDEE13FEEFDE
:4005000013FFD8F122E8600FEFC333FFEE33FEED33FDEC33FCD8F122E0FCA3E0FDA3E0FEA3E0FF22E0F8A3E0F9A3E0FAA3E0FB227401FF3395E0FEFDFCA3A3A3E02FFFF055
:40054000E582158270021583E03EFEF0E582158270021583E03DFDF0E582158270021583E03CFCF022ECF0A3EDF0A3EEF0A3EFF022E0FBA3E0FAA3E0F922EBF0A3EAF0A3B1
:40058000E9F022E493FB740193FA740293F922D083D082F8E4937012740193700DA3A393F8740193F5828883E4737402936860EFA3A3A380DFE5162582F582E5153583F513
:4005C00083B515048582162210AF06858216F51522858216F515D2AF22EC8EF0A4CCC5F0CCCDF8EFA4CEC5F02DFDE43CFCE8A42EC8C5F03DFDE43CFCEFA4FFE5F028FEE419
:400600003DFDE43CFC22E709F608DFFA8046E709F208DFFA803E88828C83E709F0A3DFFA8032E309F608DFFA806EE309F208DFFA806688828C83E309F0A3DFFA805A898261
:400640008A83E0A3F608DFFA804E89828A83E0A3F208DFFA804280D280FA80C680D4805580F28029801080A680EA809A80A880DA80E280CA802988848C8589828A83E49302
:40068000A30586F0A30586DFF5DEF3800B89828A83E493A3F608DFF9ECFAA9F0EDFB2288848C8589828A83E0A30586F0A30586DFF6DEF480E389828A83E493A3F208DFF9BE
:4006C00080D688F0EF60010E4E60CD88F0ED2402B4040050C3F582EB2402B4040050B923234582239006567390006CEFF090008AE4F090006CE0FFEF640160030207C5906C
:400700004E00743CF0904E027404F0904E037407F0904E04E4F0904E05E4F0904E06740FF0904E08E4F0904E09E4F0904E0AE4F0904E147401F09058847414F09058857426
:4007400004F09058867409F0905887E4F090588A7422F090588B7424F090588C7401F090588EE4F090588FE4F0905890740AF09058917443F07F4412250E9058947447F0D1
:40078000905895E4F090589A7405F090589B7401F090589CE4F090589D740AF07F3E7E007D007C009000991205657D017F127E001213737D017F497E001215087C2C7D6F45
:4007C0007F1D1221F590006CE0FFEF6402600302089A904E007438F0904E027404F0904E037407F0904E04E4F0904E05E4F0904E06743FF0904E08E4F0904E09E4F0904EA9
:400800000AE4F0904E147401F09058847450F09058857427F0905886742CF0905887E4F090588A7455F090588B745AF090588C7405F090588E7401F090588F7411F0905842
:40084000907419F09058917497F07F4412250E9058947458F0905895E4F090589A7405F090589B7401F090589CE4F090589D740AF07F007E7D7D007C009000991205657DB3
:40088000017F087E001213737D017F257E001215087C2C7D707F1D1221F590006CE0FFEF6403600302096F904E007438F0904E027404F0904E037407F0904E04E4F0904EC2
:4008C00005E4F0904E06743FF0904E08E4F0904E09E4F0904E0AE4F0904E147401F09058847450F09058857427F0905886742CF0905887E4F090588A7455F090588B745A4B
:40090000F090588C7405F090588E7401F090588F7411F09058907419F09058917497F07F4412250E9058947458F0905895E4F090589A7405F090589B7401F090589CE4F0FE
:4009400090589D740AF07F007E7D7D007C009000991205657D017F087E001213737D017F257E001215087C2C7D717F1D1221F590006CE0FFEF64046003020A44904E0074F1
:4009800038F0904E027404F0904E037407F0904E04E4F0904E05E4F0904E06743FF0904E08E4F0904E09E4F0904E0AE4F0904E147401F09058847450F09058857427F09057
:4009C0005886742CF0905887E4F090588A7455F090588B745AF090588C7405F090588E7401F090588F7411F09058907419F09058917497F07F4412250E9058947458F0900D
:400A00005895E4F090589A7405F090589B7401F090589CE4F090589D740AF07F007E7D7D007C009000991205657D017F087E001213737D017F257E001215087C2C7D727FBF
:400A40001D1221F522C0E0C083C082C085C084C086758600C093759300C0D075D000C000C001C002C003C004C005C006C0079049D7E0FF9000EAEFF09000EAE0FFEF540848
:400A8000FF7E00EF64084E70047F0180027F00EF7003020B1E9049D8E0FFEF5401FF7E00EF64014E70047F0180027F00EF60479000D11205719000D4E0FFE92FF9E43AFABB
:400AC0001202F8FF9049D8EFF09049D77414F09000D4E0FF9000D8EFF09000D8E004F09000CEE0FFEF4411FF9000CEEFF09000CD7408F0020C7C9049D77410F09000CEE0FB
:400B0000FFEF4412FF9000CEEFF09000CD7401F09049D6E0FFEF4410FFEFF0020C7C9000EAE0FFEF5401FF7E00EF64014E70047F0180027F00EF7003020C7C9000CDE0FF61
:400B4000EF12058F0B51010B9C040BED0800000C689049D8E0FF9000E9EFF09000E9E0FF7E009000D5E0FCA3E0FDC3EF9DEE9C50239049D77410F09000E9E0FF9000D4EFCA
:400B8000F09000E9E0FF9000D8EFF09000CD7404F0020C7C9049D7E4F0020C7C9000D8E0FF7E009000CFE0FCA3E0FDC3EF9DEE9C50339049D8E0FF9000E9EFF09049D77461
:400BC00010F09000E9E0FF9000D11205719000D8E0FEE92EF9E43AFAEF1203119000D8E004F0020C7C9049D7E4F0020C7C9000EAE0FFEF5402FF7E00EF4E704C9000D8E001
:400C0000FF7E009000D5E0FCA3E0FDC3EF9DEE9C50289000D11205719000D8E0FFE92FF9E43AFA1202F8FF9049D8EFF09049D77404F09000D8E004F080429049D874FFF007
:400C40009049D77404F080349049D874FFF09049D7E4F09000CEE0FFEF54EFFF9000CEEFF09000CDE4F080149000CDE4F09000D4E4F09000D8E4F09049D7E4F09049D7E0E7
:400C8000FFEF5420FF7E00EF64204E70047F0180027F00EF601E9000CEE0FFEF54EFFF9000CEEFF09000CDE4F09049D6E0FFEF54EFFFEFF0D007D006D005D004D003D002BD
:400CC000D001D000D0D0D093D086D084D085D082D083D0E0327B007A4679E8122C08EF4401FD7B007A4679E8122C14751400E514C3940B503AAF14EF75F005A4248BF58275
:400D0000E4342CF583AF82AE838E088F09AE08AF098F828E83120583AE08AF098F828E83740393FC740493FD122A55051480BF751400E514C394035078AF14EF75F008A44F
:400D400024C2F582E4342CF583AF82AE838E0A8F0BAE0AAF0B8F828E831205838B0C8A0D890EAE0AAF0B8F828E83A3A3A31205838B0F8A108911AE0AAF0B8F828E837406E0
:400D800093F512740793F513AB0FAA10A911C003C002C001AB0CAA0DA90E90007112057AD001D002D003AF13AE12122870051480817B087A007900122935905883740AF0DD
:400DC0007B017A507903122C08EF4402FD7B017A507903122C147B017A507913122C08EF4402FD7B017A507913122C149043A0E0FFEF4440FF9043A0EFF09043C2E0FFEFBE
:400E00004410FF9043C2EFF07B087A06794CC003C002C0017B007A51790290007112057AD001D002D0037F087E001228707B087A067954C003C002C0017B007A5179C09040
:400E4000007112057AD001D002D0037F0A7E001228707B087A067960C003C002C0017B007A51792290007112057AD001D002D0037F087E001228707B087A067968C003C028
:400E800002C0017B007A51793290007112057AD001D002D0037F087E001228707B087A067970C003C002C0017B007A51794290007112057AD001D002D0037F087E0012284D
:400EC000707B087A067978C003C002C0017B007A51795090007112057AD001D002D0037F0A7E001228709044F47401F0904322E0FFEF4408FF904322EFF09046ECE0FFEFE1
:400F0000C394055006904689743AF090480074F1F012169D90480074B1F01226427B007A4379A0C003C002C0017B007A4379B090007112057AD001D002D0037F0E7E00128C
:400F400028709043B0E0FFEF54FDFFEFF02290006CEFF090006DEDF090006EEBF0900070E4F090006CE0FFEFC43354E0FF90006DE0FEEF4EFF900070EFF0122C5C90006C55
:400F8000E0FFEF600302101790006DE0FFEF640A601490006DE0FFEF640B600A90006DE0FFEF64107051900070E0FF12283B9000A7EFF0900071E4F0A3E4F0900071E0FEF1
:400FC000A3E0FFEF64054E60257FFF12283B900071E0FCA3E0FD749D2DF58274003CF583EFF0900071E475F00112037880CD122C569000A7E0FF22900070E0FF12283B9063
:4010000000A7EFF07FFF12283B90006FEFF0122C5690006FE0FF2290006CE0FFEF6401600302116B90006DE0FFEF640A7059900070E0FF12283B9000A7EFF0900073E4F072
:40104000A3E4F0900073E0FEA3E0FFEF64054E602D900073E0FEA3E0FF74A82FF58274003EF583E0FF90006FEFF090006FE0FF12283B900073E475F00112037880C5122CA7
:40108000569000A7E0FF2290006DE0FFEF640B7059900070E0FF12283B9000A7EFF0900073E4F0A3E4F0900073E0FEA3E0FFEF64054E602D900073E0FEA3E0FF74AD2FF5A9
:4010C0008274003EF583E0FF90006FEFF090006FE0FF12283B900073E475F00112037880C5122C569000A7E0FF2290006DE0FFEF64107059900070E0FF12283B9000A7EFC7
:40110000F0900073E4F0A3E4F0900073E0FEA3E0FFEF64054E602D900073E0FEA3E0FF74A22FF58274003EF583E0FF90006FEFF090006FE0FF12283B900073E475F0011223
:40114000037880C5122C569000A7E0FF22900070E0FF12283B90006FEFF090006EE0FF12283B122C5690006FE0FF227F012290006CEFF090006DECF0A3EDF090006FEAF01C
:40118000A3EBF0900072E0FFEFD39400500302136D900072E0FFEFD39404400302136D90006CE0FFEF12058F11BB0111BB0411E807121308123E0A00001269900071E0FFB6
:4011C000EFD3940F40117B0C7A017918122C08900073EFF002126E7B0C7A01791C122C08900073EFF002126E900071E0FFEFD3940F40107B0C7A017919122C08900073EF5A
:40120000F0806B7B0C7A01791D122C08900073EFF0805B900071E0FFEFD3940F40107B0C7A01791A122C08900073EFF080407B0C7A01791E122C08900073EFF08030900025
:4012400071E0FFEFD3940F40107B0C7A01791B122C08900073EFF080157B0C7A01791F122C08900073EFF08005900073E4F0900073E0FFEF3395E0FEFDFC7B207A007900FA
:4012800078001203A9A804A905AA06AB0790006DE0FEA3E0FFE4FCFD12038E900074120565900074120518AB07AA06A905A804A804A905AA06AB0790006FE0FEA3E0FFE4F1
:4012C000FCFD1203A990007A1205657B007A807900780090007A120518120434900078EEF0A3EFF0900071E0FFEFC3940E5047900078E0FEA3E0FF900071E0FDC3740E9D6D
:40130000FDEFA805088005CEC313CE13D8F9FF900078EEF0A3EFF0900071E0FFEF04FF900072E0FEEE75F003A4248BF582E43400F583EFF08016900072E0FFEF75F003A417
:40134000248BF582E43400F583740FF0900078E0FEA3E0FF900072E0FDED75F003A42489F582E43400F583EEF0A3EFF0227F00122B092290006DEEF0A3EFF090006FEDF0AE
:40138000122C2A900071EFF0122C20900072EEF0A3EFF0900072E0FEA3E0FF90006DE0FCA3E0FDED6F7002EC6E70030215079043A2E0FFEF5401FF900070EFF0900071E05A
:4013C000FFEF705E900072E0FEA3E0FFEF4E600C90006DE0FEA3E0FFEF4E7046900072E0FEA3E0FFEF4E701D7B027A40798090006DE0FCA3E0FD122BD6904082E0FFEF549A
:40140000BFFFEFF022904082E0FFEF4440FFEFF07B027A40798090006DE0FCA3E0FD122BD622900070E0FFEF606C904001E4F09040107401F0904014E4F0904008E0FFEFCB
:40144000547FFFEFF0904082E0FFEF5408FF7E00EF4E600C90006DE0FEA3E0FFEF4E70367B027A407902900072E0FCA3E0FD122BD69040017407F0904001E0FFEF5401FF87
:401480007E00EF4E70F19043A2E0FFEF54FEFFEFF0904001E4F09043A2E0FFEF5401FF7E00EF4E603A7B027A40790290006DE0FCA3E0FD122BD690006FE0FFEF60047F023C
:4014C00080027F00EF4401FF904001EFF0904001E0FFEF5401FF7E00EF4E602B80EF227B027A40798090006DE0FCA3E0FD122BD69043A2C083C082E0FF900070E0FEEF4EAE
:40150000FFD082D083EFF02290006DEEF0A3EFF090006FEDF0122C3E900071EFF0122C34900072EEF0A3EFF0900072E0FEA3E0FF90006DE0FCA3E0FDED6F7002EC6E700347
:4015400002169C9043A1E0FFEF5401FF900070EFF0900071E0FFEF705E900072E0FEA3E0FFEF4E600C90006DE0FEA3E0FFEF4E7046900072E0FEA3E0FFEF4E701D7B027A27
:4015800041790090006DE0FCA3E0FD122BD6904102E0FFEF54BFFFEFF022904102E0FFEF4440FFEFF07B027A41790090006DE0FCA3E0FD122BD622900070E0FFEF606C90E5
:4015C0004001E4F09040147401F0904010E4F0904008E0FFEF547FFFEFF0904102E0FFEF5408FF7E00EF4E600C90006DE0FEA3E0FFEF4E70367B027A407902900072E0FC8F
:40160000A3E0FD122BD69040017407F0904001E0FFEF5401FF7E00EF4E70F19043A1E0FFEF54FEFFEFF0904001E4F09043A1E0FFEF5401FF7E00EF4E603A7B027A40790218
:4016400090006DE0FCA3E0FD122BD690006FE0FFEF60047F0280027F00EF4401FF904001EFF0904001E0FFEF5401FF7E00EF4E602B80EF227B027A41790090006DE0FCA371
:40168000E0FD122BD69043A1C083C082E0FF900070E0FEEF4EFFD082D083EFF0227B007A4079807D007C00122BD49040827450F07B007A4079847D0B7C00122BD4904086C7
:4016C0007418F07B007A4079887D197C00122BD490408A7418F07B007A40798C7D5F7CEA122BD490408E7419F07B087A067984C003C002C0017B007A4179009000711205CA
:401700007AD001D002D0037F047E001228709043007402F09040007408F09042007403F07B0C7A017908122C089046A1EFF07B007A4279227D087C00122BD47B007A4279AD
:40174000207D517C12122BD490006BE4F07F197E007D007C00900067120565900067120518D3EF9400EE9400404E90006BE0FFEF64036044904225E0FFEF5401FF7E009004
:40178000006BE0FEEE25E0FEEE4FFFEF5403FF90006BEFF07FE07E017D007C001228009000671205187BFF7AFF79FF78FF12038E90006712056580A3900067120518EF4EDF
:4017C00070057F03122B327B007A4079047D007C01122BD49040047407F0904006E4F09040087448F0904004E4F09040017402F090400B7404F09043A2E0FFEF440FFF9012
:4018000043A2EFF09043A1E0FFEF4401FF9043A1EFF09043A0E0FFEF4480FF9043A0EFF0227BFF7A26798A90006912057A122AB5122A6E122C627DFF7FE1121F1E9000678F
:40184000EFF07D007F0012240B900067E0FF7E00121BB07D007F0012240B7BFF7A2679901225617F021224B97B0A7D007F01120F4E900067EFF09000691205717D067C006C
:401880001220E7122B44122C627DFF7FFF121F1E900067EFF0900067E0FFEF20E543900067E0FFEF30E42C900067E0FFEF4410FB7D077F01120F4E900068EFF07D007F0063
:4018C00012240B7BFF7A2679A21225617F011224B9800E7DFF7FFF121F1E900067EFF080B4900067E0FFEF30E52A900067E0FFEF4420FB7D077F01120F4E900068EFF07D9B
:40190000007F0012240B7BFF7A2679AE1225617F001224B9900067E0FFEF30E42A900067E0FFEF4410FB7D077F01120F4E900068EFF07D007F0012240B7BFF7A2679BC12A1
:4019400025617F031224B9900067E0FFEF30E00C7DFF7FE1121F1E900068EFF07DFF7FFF121F1E900067EFF002185322905120E0FFEF5480FFEFF0905122E0FFEF54F0FF4A
:40198000900082EFF0900082E0FFEF440FFF905122EFF0905123E0FFEF54F0FF900082EFF0900082E0FF905123EFF0905124E0FFEF54F0FF900082EFF0900082E0FF90516F
:4019C00024EFF0905120E0FFEF54DFFFEFF0905120E0FFEF4440FFEFF07F007E00122908905120E0FFEF4410FFEFF07F017E00122908905121E0FF900082EFF0905120E09E
:401A0000FFEF54EFFFEFF07F007E00122908900082E0FFEF5408FF900082EFF0905120E0FFEF4410FFEFF07F017E00122908905120E0FFEF54EFFFEFF0900082E0FFEF70A9
:401A400098905120E0FFEF54BFFFEFF0905120E0FFEF5480FFEFF0905122E0FFEF54F0FFEFF0905123E0FFEF54F0FF900082EFF0900082E0FFEF440FFF905123EFF090519E
:401A800024E0FFEF54F0FF900082EFF0900082E0FFEF440FFF905124EFF0229000847401F0900098E4F07F101229897F101229AA7D077F1D1223529058967407F09058977D
:401AC000E4F090589EE4F0905B07E0FFEF4418FFEFF0905893E4F0905B88E4F0905B89E4F0905880740AF0905881E4F0905883E4F09058887412F09058897413F090588D4B
:401B0000E4F0904E017414F09000717408F09000727401F07B007A807D5C7C8F7F0512116E9000717410F09000727402F07B007A807DDA7C907F0412116E9000717410F0FA
:401B40009000727403F07B007A807DDA7C907F0412116E9000717410F09000727404F07B007A807DDA7C907F0412116E900084E0FFEF75F003A4248BF582E43400F583E0C1
:401B8000FF904E0EEFF0900084E0FFEF75F003A42489F582E43400F583E0FCA3E0FD7B027A4E790C122BD6900084E0FF1206E82290006CEEF0A3EFF0900078E4F090006C37
:401BC000E0FEA3E0FFC3EF940AEE9400404590006CE0FEA3E0FF7C007D0A120323AF05EF2430FF900078E0FE74732EF582E43400F583EFF090006CE0FEA3E0FF7C007D0A61
:401C000012032390006CEEF0A3EFF0900078E004F080AA90006CE0FEA3E0FF7C007D0A120323AF05EF2430FF900078E0FE74732EF582E43400F583EFF0900078E0FF900025
:401C400079EFF0900078E0FFEF603E900078E0FF74732FF582E43400F583E0FF900078E0FEEEFD7C00900079E0FEEEFB7A00C3EB9DFDEA9CFC746E2DF58274003CF583EFB7
:401C8000F0900078E014F080BA900073E0FF900079E0FE746E2EF582E43400F583EFF0900079E0FF746F2FF582E43400F583E4F07B017A00796E12256122759300780075EE
:401CC00083467582E8E04401F0009046ECE0F99046FAE0FAB903225420B40012B8001AEA901FFFF07401901FFEF09046F6F0901FFEE06005901FFFE0FA90480074C0F075B7
:401D0000811690000078007920E4F0A3D8FCD9FAEA9000BBF002001175151F7516FD120CD5021D5F021821E493A3F8E493A34003F68001F208DFF48029E493A3F85407244B
:401D40000CC8C333C4540F4420C8834004F456800146F6DFE4800B010204081020408090216FE47E019360BCA3FF543F30E509541FFEE493A360010ECF54C025E060A8407C
:401D8000B8E493A3FAE493A3F8E493A3C8C582C8CAC583CAF0A3C8C582C8CAC583CADFE9DEE780BE122AF490006DEFF0900084E0FF90006CEFF09043AAE0FFEF4401FFEF0F
:401DC000F09043AAE0FFEF4410FFEFF09043BAE0FFEF4401FFEFF09043BAE0FFEF4410FFEFF09046F8E0FFEF4402FFEFF09046F9E0FFEF4402FFEFF0905891E0FFEF44035C
:401E0000FFEFF07F037E001229089046F8E0FFEF54FDFFEFF09046F9E0FFEF54FDFFEFF0905877E0FFEF4406FFEFF0905882747AF09043A1E0FFEF4401FFEFF09043B1E084
:401E4000FFEF4401FFEFF09043A2E0FFEF4401FFEFF09043B2E0FFEF4401FFEFF09044DB7420F09044C37420F090006DE0FF122A8622122C627B0A7D007F01120F4E900046
:401E8000A7EFF07B037D037F01120F4E9000A7EFF07BF37D047F01120F4E9000A7EFF07BFF7D107F01120F4E9000A7EFF07BFF7D0A7F01120F4E9000A7EFF07B017D017F1A
:401EC00001120F4E9000A7EFF07B017D027F01120F4E9000A7EFF07B017D117F01120F4E9000A7EFF07B017D0B7F01120F4E9000A7EFF07B017D1D7F01120F4E9000A7EF19
:401F0000F07B067D067F01120F4E9000A7EFF07B327D057F01120F4E9000A7EFF02290006CEFF090006DEDF090006EE4F0122C5C90006CE0FFEFB4612090006CE0FF12281D
:401F40003B9000A7EFF07FFF12283B90006EEFF0122C5690006EE0FF2290006CE0FFEFB4A01E90006CE0FF12283B9000A7EFF090006DE0FF12283B122C569000A7E0FF22EE
:401F800090006CE0FFEFB4B01E90006CE0FF12283B9000A7EFF090006DE0FF12283B122C569000A7E0FF2290006CE0FF12283B9000A7EFF0122C569000A7E0FF2290006D23
:401FC000EFF090006DE0FFEFC39404400302205390006DE0FF90006DE02FF090006DE0FFEF25E02473F582E4342CF583E493FE740193FF8F828E83C083C082E0FF90006DB3
:40200000E0FEEE902C8393FEEEF4FEEF5EFFD082D083EFF090006DE004F090006DE0FFEF25E02473F582E4342CF583E493FE740193FF8F828E83C083C082E0FF90006DE00A
:40204000FEEE902C8393FEEEF4FEEF5EFFD082D083EFF022C0E0C083C082C085C084C086758600C093759300C0D075D000C006C007A2AFE433FF900083EFF0D2AF9044F484
:4020800074FDF0900044E0FF900046E0FEEE6F6037906469E0FFEF20E22E900046E0FFEFC394204005900046E4F0900046E0FF74472FF582E43400F583E0FF906449EFF05E
:4020C000900046E004F080BB900083E0FFEF24FF92AFD007D006D0D0D093D086D084D085D082D083D0E03290006C12057A90006FECF0A3EDF0122C5C7FA012283B90007268
:40210000E4F0A3E4F090006FE0FEA3E0FF900072E0FCA3E0FDC3ED9FEE6480F8EC648098504490006C120571900072E0FEA3E0FFE92FF9EA3EFA1202F8FF12283B90006CED
:40214000120571900072E0FEA3E0FFE92FF9EA3EFA1202F8FF900071EFF0900072E475F001120378809F122C56E47E007F00224100C2004200C000004500A80506070809B3
:402180004500AD00010203044500A205060708094100EB004100980041008A004100850041008B00410084014100D7004100ECFF4100450041004600410044004100E600F4
:4021C0004100E8004100E7004400B7016E36004400B200005DC04100B6184400BC2EE000004600D90001080018004300DF0000004100ED000090006DEFF090006EECF0A3D5
:40220000EDF090006DE0FFEFD3941F5003D38001C340057F00122B0990006DE0FFEF541FFF7E00EF25E0FFEE33FEEF2400FFEE3444FEAA06A9077B01122BC7900070EEF0FB
:40224000A3EFF090006DE0FF7E02EF8EF0A4FFAEF0EF2400FFEE3444FEAA06A9077B0190006EE0FEA3E0FFAD07AC06122BD6900070E0FEA3E0FF2290006CEEF0A3EFF0903B
:40228000006EECF0A3EDF090007012057A7B007A007900C003C002C001900070120571D082D083D0E06B7008E965827003EA6583602C9000701205719000D112057A9000A4
:4022C0006CE0FEA3E0FF9000D5EEF0A3EFF090006EE0FEA3E0FF9000CFEEF0A3EFF09000D4E4F09000D8E4F0229049D7E4F09049D6E0FFEF4401FFEFF09049DB7401F090CD
:4023000049DCE4F09049D6E0FFEF54FBFFEFF09049CA7408F09049C8E0FFEF4401FFEFF07B007A0079009000D112057A9000D4E4F09000D8E4F09000CFE4F0A3E4F090004B
:40234000D5E4F0A3E4F09049C8E0FFEF4480FFEFF02290006DEFF090006EEDF090006EE0FFEFD394075003D38001C340057F00122B0990006DE0FFEFD3941F5003D38001AD
:40238000C340057F00122B0990006EE0FFEF5407FF7E00EF75F020A4FFAEF090006DE0FEEE541FFE74802EF582E43444F583EFF022906578E0FFEF54C0FF90006CEFF09096
:4023C000006CE0FFEF4409FF906578EFF0906598E0FFEF4401FFEFF07F321227F07F32122B557F19122B657F00122B75122AF490006DEFF0906598E0FFEF4410FFEFF090DC
:40240000006DE0FF122A86122BE32290006CEFF090006DEDF090006CE0FFEF12058F242E00243B012448022455030000246190006DE0FFEF2480FF1227BA2290006DE0FFA7
:40244000EF24C0FF1227BA2290006DE0FFEF2494FF1227BA2290006DE0FFEF24D4FF1227BA22900081EFF012196C905120E0FFEF4420FFEFF0905120E0FFEF54BFFFEFF0AF
:40248000905120E0FFEF54F0FFEFF0905120C083C082E0FF900081E0FEEE4410FEEF4EFFD082D083EFF07F017E00122908905120E0FFEF54EFFFEFF02290006CEFF0900019
:4024C0006CE0FFEF12058F24D70024E20124ED0224F803000025037F28122B557F14122B65227F96122B557F4B122B65227FFF122B557F7F122B65227F14122B557F0A1249
:402500002B65227F32122B557F19122B652290006DEFF0122AF490006EEFF09046F8E0FFEF4403FFEFF09046F9E0FFEF4403FFEFF090006DE0FF905892EFF07F037E001297
:4025400029089046F8E0FFEF54FCFFEFF09046F9E0FFEF54FCFFEFF090006EE0FF122A862290007A12057A90007D7401F090007A1205711202F8FF90007EEFF090007EE04F
:40258000FFEF602A90007EE0FF12278490007A12057190007DE0FFE92FF9E43AFA1202F8FF90007EEFF090007DE004F080CE22122AF490006CEFF09043A5E0FFEF4404FF71
:4025C000EFF09043B5E0FFEF4404FFEFF090006CE0FF122A867D077F0F1223527C0A7D457F0F1221F59044D97480F09000CDE4F09000CEE4F0122C4F22900070EFF09051E9
:4026000020E0FFEF549FFFEFF0905120E0FFEF54F0FFEFF0905120C083C082E0FF900070E0FEEE4410FEEF4EFFD082D083EFF07F017E00122908905120E0FFEF54EFFFEF66
:40264000F0227B0C7A0179CF122C08900067EFF0900067E0FFEF5407FF90586EEFF0900067E0FFEFC4540FFFEF540FFF90586FEFF0905B007420F0905B037440F0905B58D8
:4026800074C0F09058767466F02268656C6C6F005472616E736D697474696E672062797465005061636B6574206C6F73740031205061636B65742073656E74004D41585FBE
:4026C000525420697320636C656172656400C2D5E830E70FB2D5E4C39BFBE49AFAE499F9E498F8EC30E717B2D5122704120434E4C39BFBE49AFAE499F9E498F8800312041D
:402700003430D50DE4C39FFFE49EFEE49DFDE49CFC22122AF490006CEFF090649BE0FFEF4420FFEFF0906498E0FFEF4410FFEFF090659BE0FFEF4410FFEFF090006CE0FFD1
:40274000122A86122A9E122907122C6E2290656BE0FFEF30E50790645BE0FF80F0122AF490006CEFF090649BE0FFEF4401FFEFF090649BE0FFEF54FEFFEFF090006CE0FFD2
:40278000122A862290007FEFF012196C90007FE0FFEFC4540FFF900080EFF0900080E0FF12246290007FE0FFEF540FFF900080EFF0900080E0FF1224622290006EEFF01271
:4027C000196C90006EE0FFEFC4540FFF90006FEFF090006FE0FF1225F990006EE0FFEF540FFF90006FEFF090006FE0FF1225F92290006EEFF090006EE0FF906508EFF02282
:40280000EC4D4E700D78FCEF24E950032840FD2200007BF178DA0000EF28FF78FFEE38FEED38FDEC38FC50E7EF2BFFEE38FEED38FDEC38FC40F22205020304900075EFF09D
:40284000900076E4F0900075E0FF122A3C90656BE0FF900076EFF0900076E0FFEF20E50C90656BE0FF900076EFF080EB122BB522758600EF4E6027EF60010E7593009000C1
:4028800071E0F595A3E0F585A3E0F5848B938A838982E0A30586F0A31586DFF6DEF4E4F593F59522900075EFF09051C0E0FFEF547FFF900076EFF0900075E0FFEFC433330C
:4028C000335480FFEF5480FF900076E0FEEF4EFF9051C0EFF02290006CEFF09051C0E0FFEF54BFFF90006DEFF090006CE0FFEFC4333354C0FFEF5440FF90006DE0FEEF4E75
:40290000FF9051C0EFF02222EEFA9000B6E0F88FF0A4FFAEF0E88AF0A42EFEE5F03400FDEF24C9FF78FFEE38FEED38FDE438FC500302280022ACEAADA08B938A838982E08E
:40294000F96017A3E0F5EAA3E0F5A0A3E060F4FAA3E0F8A3E0F2DAF8D9E98DA08CEAE4F5932290006CE4F090006CE0FFEFC39404501090006CE0FF121FBD90006CE004F0F9
:4029800080E59000EC74FFF02290006CEFF0904082C083C082E0FF90006CE0FEEE54F8FEEF4EFFD082D083EFF02290006CEFF0904102C083C082E0FF90006CE0FEEE54F806
:4029C000FEEF4EFFD082D083EFF022122ACA122C4F7F08122B1E7B017A0079C37D007C007F0A7E001222772290006C12056590006C74FF1205327B007A0079007800C31298
:402A000004E170EA22900085E0FFEF701190008BE0FFEF7003121A9B9000857401F0121DA42290648B740FF012274D122B95122BA5906488E4F090658BE4F022900077EF57
:402A4000F0906468E0FFEF30E2F7900077E0FF90644BEFF022EC4D6011ED60010C8B938A838982E4F0A3DDFCDCFA75930022D2AF9044F474FDF01229CB122C48122962129E
:402A80002ADF121E7222EF54016004D2AF8002C2AFEF5402FF9044F4E054FD4FF0229043A2E0FFEF4402FFEFF09043B2E0FFEF4402FFEFF0229000EBE0FFEF70091223B1E7
:402AC0009000EB7401F0122BF0229000D7E0FFEF70091222E99000D77401F01225AF229000E6E0FFEF7009122A229000E67401F0122712229044F4E0F84402F0E85402FF92
:402B000010AF012274014FFF2290FFFF1205B5EFF09046EA7401F09000011205B52290006CEFF090006CE0FFEF547FFF9049CAEFF02290006CEFF090006CE0FF90006CEF35
:402B4000F080FE227F011228D67F3C7E007D007C001229E82290006EEFF090006EE0FF906548EFF02290006EEFF090006EE0FF906528EFF02290006EEFF090006EE0FF90A4
:402B80006588EFF022906568E0FF90006EEFF090006EE0FF22906468E0FF90006CEFF090006CE0FF2290656BE0FF90006CEFF090006CE0FF2290645BE0FF900077EFF09041
:402BC0000077E0FF228B938A838982E0FFA3E0FE759300228B938A838982EDF0A3ECF075930022122B85EF30E405122C6880F422906578E0FFEF4480FFEFF022904E00E01E
:402C0000FFEF4401FFEFF0228B938A838982E0759300FF228B938A838982EDF0759300227B027A407980122BC722904082E0FFEF5407FF227B027A417900122BC72290414B
:402C400002E0FFEF5407FF22122A05122BFC229044C17480F0227F011228A4227F001228A4227F001228D622906558E0FF222232323232513D5B58513D5B00513D5B005185
:402C80000D432420204040808002000049C80015005110001000516000100051F000100100000A80010B0005000114000600011A8001800140000A00014C00020001500077
:402CC00000200052600805440006010A8008054C0080011A000805CC00800000000000000000000000000000000000000000000000000000000000000000000000000000D3
:402D00000000000000000000000000000000000000000000000000000000000000000000000000000000000000000000000000000000000000000000000000000000000093
:402D40000000000000000000000000000000000000000000000000000000000000000000000000000000000000000000000000000000000000000000000000000000000053
:402D80000000000000000000000000000000000000000000000000000000000000000000000000000000000000000000000000000000000000000000000000000000000013
:402DC00000000000000000000000000000000000000000000000000000000000000000000000000000000000000000000000000000000000000000000000000000000000D3
:0200000480007A
:400000001E005203282229102C01006402890F8B0F006503882D89388A72010404B980BF40D904DF010105012401010703B401E602EA04010858000404E80563078C081007
:4000400009C50A680B3A0C680E800F101280141615021621170D18091A121CE820E8214923B62414264028E83130327833803480350F360737403A883B203E103F445409AD
:40008000580459045B045C115D105F0181808527875889068B098C018D278FC897FD99929B21A002B202B31EB401B5E0B701B802BB28BE14BF40C034C105C5E0C6C0C70BDE
:4000C000C81AC9FFCAFFCBFFCEF0CF44D00CD401D604D804D904DA04DB04DC23DD22DF01E6C0EA40EB0201095303020418064007010C830E100F08128014201501171019AA
:40010000241B021C101F902104225424402540260827082C402F80301031083210370838A039083B823C403D383E103F084105440245604610472849014A804B80501851E3
:400140002059055A805B205D085E425F10634064028040874088208B80908891019608970299089A609B119C509E10A082A114A201A408A508C0F1C2F0C478CA80CC46CE97
:400180007FD003D208D6FFD811E404EA04EC10010A16050106030C0C0E71140916F018101AAC1C401E1024DC2602281430E03101341F3A023F01580459045C025F01010B29
:4001C0003D004404280680070209080A080B020C800E400F1810181501171818C41E422080242025142614270A2C042D8134403614370238043E143F804440451446804A52
:40020000014B404D284F4054025660574466106C046D016E146F13748075808440852088048B128E40C0F5C2F7C476CAB0CCF0CE72D0E0D230D820E002E602011503E82033
:40024000EA01EC10011702E212E8100118670F051108140E18031A042004220928052A0A2F0E3104320F33013508370238084030410245D04712483249FF4AFF4BFF4DA0D9
:400280004F04501852805425580459045A045B045C315D335F01604062C06440654066C068C06AC06CC06EC080048223850C884E8B018D0C904094089622970898029904B9
:4002C0009A1C9F01A44EA502B001B102B240B302B40EB50CB630B701B920BE40BF51C053C104C202C401C50EC6C0C809C9FFCAFFCBFFCC62CDA0CEF0CF41D00CD418D80409
:40030000D904DA04DB04DC22DD22DF01E640E702E910EA30EB10ED10EE10EF1201194500220A540E200F0813081440151018411A041B281E20219924082504274229042FA9
:400340000231083250370238A039083E8040214208430944084504460449804A204D0150105604570259015C885D0161A06520768080848F4090809118922093209502970F
:4003800002984199209A20A304A508B240B310B648C00AC26EC454CA12CC8ECE1ED06FD208D6D1D82CE212E810011A0F8C018E0294029601A403A803B203BB80D440D8045E
:4003C000D904DB04DC22DD10DF01011B4300020120020103210540082009080A010E1010A81202171819A11A211B401E10212822412701282029602B403080310832213829
:40040000683A01411049044B025A2064016620672068106A406B1870BC82128801894090409120932096D0970298219A209D859F09A220A320A411A520B648C08FC227C422
:400440006FCA0FCC0FCE0FD004D604D870E820EA01EC100140023220CC10014101A620014208000807403E105080A620C030CE20D420014308862096109B40A004A620A848
:4004800080E640EA200144027C01DE0101450194010146074508842086018F089401D001E402014709830496029B089E20A020A508AA20B401EC08014808251087208E01F7
:4004C0009610A004B740C820E24001490A77207A019B20A201AA10B004B510DC80DE20EA80014C101324162078107E408704928096029B089E20A020A304A508B640C40E74
:40050000DE03E808014D1501020A0254205F086308890296029B08A020A304AB20B010B508C008C202D402D601D802E201E804EC08015004000E0C0E100E1C0E01510200CE
:400540000303C000040800000C00000056000900809204040704389204040000013200C004078068602100D284FA0005849600000A00100084920004009600007F00000721
:40058000001D80E0020000A00000400024035000060EFCDB3DFFFFFF2200F008040000000000022404040404111100010000C00040011011C0010011400140010000000053
:4005C00000000000000000000000000041BF0000C31800001F08E000FF000004000000401C3CE3820000E340F3100C0008A70018040000230C1C00A182040000C080101F3B
:400600002C400F380002A00800000410020000000051000003FF07FF4020F0050800000000000211040404042222000140A8402000000000000000000000000000000000E1
:4006400000000000000000000000000000050500000002000C0001C0CD000D0000000000007F7F0000000000000000000000E4000002020000000000020041323200320008
:4006800000000000490018010000000000000000000000000000000000000000000000000000000000000000000000000000000000000000000000000000000000000000D8
:4006C00000000000000000000000000000000000000000000000000000000000000000000000000000000000000000000000000000000000000000000000000000000000FA
:4007000000000000000000000000000000000000000000000000000000000000000000000000000000000000000000000000000000000000000000000000000000000000B9
:400740000000000000000000000000000000000000000000000000000000000000000000000000000000000000000000000000000000000000000000000000000000000079
:400780000000000000000000000000000000000000000000000000000000000000000000000000000000000000000000000000000000000000000000000000000000000039
:0200000490006A
:0400000000004005B7
:0200000490105A
:04000000BC90ACAF55
:0200000490303A
:02000000AA2232
:0200000490501A
:0C00000000011E02806903011E1B2A8BF8
:0200000490402A
:4000000000000000000000000000000000000000000000000000000000000000000000000000000000000000000000000000000000000000000000000000000000000000C0
:00000001FF
